:100000000C943C000C9459000C9459000C94590029
:100010000C9459000C9459000C9459000C945900FC
:100020000C9459000C9459000C9459000C945900EC
:100030000C9459000C9459000C94DC010C94590058
:100040000C9459000C9459000C9480020C9470028A
:100050000C9466020C9459000C9459000C945900AD
:100060000C9459000C945900B805BC05C005C60590
:10007000CC05D205DB05E10511241FBECFEFD8E08A
:10008000DEBFCDBF11E0A0E0B1E0E6E2FCE002C0DF
:1000900005900D92A031B107D9F721E0A0E1B1E0C0
:1000A00001C01D92A536B207E1F70E945B000C94D7
:1000B00011060C9400000E9481050E9485050E9493
:1000C000AB05FDCF81E080932301109216010895C6
:1000D000E0910D01F0910E018081882309F452C056
:1000E000E0910D01F0910E011082E0910D01F0916F
:1000F0000E01838190E0DC01AA5EBE4FE0910D010C
:10010000F0910E0121812C3409F128F4263441F0BC
:100110002A3489F008952D3421F12E3459F10895AF
:10012000E0910D01F0910E012281273059F5CD01AA
:100130000E945C050895E0910D01F0910E0122816D
:10014000213001F58C910E9448050895E0910D0140
:10015000F0910E0122812130A9F48C910E94520568
:10016000089561E08C91811101C060E080E00E94FF
:100170006401089561E08C91811101C060E081E02B
:100180000E946401089590910001891779F021E09F
:1001900030E0F901E050FF4F9081981749F02F5F50
:1001A0003F4F2D303105A9F78FEF089580E0089576
:1001B000822F08951F93CF93DF93C62F142FD22F32
:1001C00030E0462F50E0BC01C9018A5E9E4F0E947C
:1001D0000806E0910D01F0910E011183E0910D01EF
:1001E000F0910E01D383E0910D01F0910E01C283D5
:1001F000E0910D01F0910E0181E08083DF91CF91BC
:100200001F910895CF93DF93EC018D810E94C3006D
:1002100080931101809111018F3F81F08B81835078
:100220008093100120911101609110014D8150E0E7
:10023000CE0106960E94DA0081E001C080E0DF91E5
:10024000CF9108958091630190916401892B61F0B1
:1002500080916301909164010E940201982F109295
:1002600064011092630101C090E081E0911101C02E
:1002700080E0089580912301813019F0823029F0C7
:10028000089582E08093230108950E942201089539
:10029000682F80E090E00E947501089580E090E072
:1002A0000E947D01089508955B98539A5C98549A32
:1002B00057985F9A08950E945401089589B18095D6
:1002C000881F8827881F0895882319F0813039F006
:1002D0000895662311F05B9A08955B98089566234C
:1002E00011F05C9A08955C980895F999FECF92BD3B
:1002F00081BD60BDFA9AF99A0895F999FECF92BD31
:1003000081BDF89A80B50895EEE6F0E080818260C4
:10031000808385B5846085BD85B58D7F85BD85B5B8
:10032000816085BD089585B58B7F85BD85B58D7F41
:1003300085BD85B58E7F85BD0895882319F00E94FF
:10034000840108950E9493010895569A0895909308
:100350002701809326010895BC0189E09DE30E9456
:10036000EE05609325018091250187BD80912501CF
:10037000089585B58B7F85BD85B58D7F85BD85B598
:100380008E7F85BD85B5877F85BD84B5826084BD40
:1003900084B58E7F84BDEEE6F0E08081826080834C
:1003A000789484E690E00E94AC0187BD08950E9495
:1003B000B9010E94A50108951F920F920FB60F92E6
:1003C00011242F933F934F935F936F937F938F935A
:1003D0009F93AF93BF93EF93FF93A89A80912401CB
:1003E0008F5F809324018091240181111092240158
:1003F00080912401811107C0E0912601F09127012D
:10040000309709F00995FF91EF91BF91AF919F91BE
:100410008F917F916F915F914F913F912F910F90AD
:100420000FBE0F901F901895DC01CB010097A1051E
:10043000B10519F480E090E006C00197A109B10967
:10044000E1F780E090E00196883925E09207D9F73E
:100450000895529A5A980895E2ECF0E080818F7BDB
:100460008083A0ECB0E08C9182608C931092C500E8
:1004700083E38093C400A1ECB0E08C918B7F8C93DC
:1004800080818660808380818F7C80838081877F6C
:1004900080830E9429020895E1ECF0E08081806869
:1004A000808380818061808308959093620180932E
:1004B00061010895E1ECF0E080818F7E80830895F2
:1004C000E1ECF0E080818061808308951F920F92BB
:1004D0000FB60F9211240F900FBE0F901F9018951A
:1004E0001F920F920FB60F9211248F938091C60026
:1004F000809328018F910F900FBE0F901F90189539
:100500001F920F920FB60F9211242F933F934F9388
:100510005F936F937F938F939F93AF93BF93EF936B
:10052000FF938091C60080932801E0916101F091D2
:100530006201309719F0809128010995FF91EF91A0
:10054000BF91AF919F918F917F916F915F914F91EB
:100550003F912F910F900FBE0F901F901895109202
:100560006401109263010895089590914A019431B5
:1005700010F010924A01E0914A01F0E0EA5CFE4F6F
:10058000808391E090934B0190914A01992319F057
:10059000913069F011C08F3F79F0E0914A01F0E0AD
:1005A000EA5CFE4F80818FEF80934A0105C08F3F48
:1005B00019F08FEF80934A0180914A018F5F8093F9
:1005C0004A01089586E391E09093350180933401C8
:1005D0000E944E0180933301E0913401F091350186
:1005E000809133019281981355C080914A01809384
:1005F0003201809139018093310180913101209144
:10060000320190E0049630E08217930709F044C06D
:10061000809134019091350190933501809334019C
:100620001092300182E080932F0120912F01809160
:10063000320130E090E0019728173907D4F4E091B7
:100640002F01F0E0EA5CFE4F908180913001890F2C
:100650008093300180912F018F5F80932F01209133
:100660002F018091320130E090E00197281739077F
:1006700034F380913001809580933001E091320114
:10068000F0E0EB5CFE4F908180913001981306C042
:1006900080E0089581E0089582E0089585E008955E
:1006A00080912E018230A1F028F4882349F0813016
:1006B00059F00895833019F1843009F447C0089542
:1006C00081E080932E01089582E080932E010895A9
:1006D00080914B01882309F459C010924B0188EE98
:1006E00093E0A0E0B0E080932A0190932B01A093C7
:1006F0002C01B0932D0183E080932E010895809109
:100700002A0190912B01A0912C01B0912D01892BF0
:100710008A2B8B2B21F484E080932E010895809105
:100720002A0190912B01A0912C01B0912D010197EC
:10073000A109B10980932A0190932B01A0932C0168
:10074000B0932D0183E080932E0108950E945A02F8
:1007500080914B01811115C00E94E2028093290112
:1007600080912901811107C086E391E09093640193
:100770008093630104C08091290180932901109224
:100780004A010E94600282E080932E010895CF9377
:1007900080915301823061F128F4882351F0813037
:1007A00089F0F5C0843009F46DC0863009F4E7C0E3
:1007B000EEC080916001882309F4E9C081E0809354
:1007C0005301E5C00E945E01882371F00E945E0122
:1007D0008111FCCF60E472E48FE090E00E9414028B
:1007E00082E080935301D3C083E080935301CFC054
:1007F0000E944E018093520190915201209152012A
:1008000081E09F3F09F080E0811105C081E0211166
:1008100080E0882339F081E00E9448010E944E0167
:100820008093520160E472E48FE090E00E94140231
:1008300060E472E48FE090E00E9414028091520123
:100840008823D1F0C0E061E080E00E94640160E4B0
:1008500072E48FE090E00E94140260E080E00E9469
:10086000640160E472E48FE090E00E941402CF5FC4
:1008700080915201C81738F31092510184E080939F
:10088000530185C01092500180E492E4AFE0B0E0E3
:1008900080934C0190934D01A0934E01B0934F0172
:1008A0002EC080914C0190914D01A0914E01B091CC
:1008B0004F010197A109B10980934C0190934D011B
:1008C000A0934E01B0934F0180914C0190914D0146
:1008D000A0914E01B0914F01892B8A2B8B2B79F47B
:1008E00080915101882321F0809151010E9448019B
:1008F00086E08093530181E08093500104C00E9400
:100900005E01882371F280915001811140C061E045
:1009100081E00E94640160E573EC80E090E00E9459
:1009200014020E945E018111FCCF60E081E00E9410
:10093000640160E573EC80E090E00E941402809115
:1009400051018A3020F5809151018F5F80935101D0
:100950001EC061E080E00E94640160E472E48FE008
:1009600090E00E94140260E080E00E94640160E474
:1009700072E48FE090E00E941402CF5F01C0C0E0FB
:100980000E944E01C81728F387E080935301CF914E
:100990000895089581E0809355018093540108954E
:1009A00045983D9A449A3C9A43983B9A42983A9A81
:1009B00040984198399A389A08950E94D004089531
:1009C00090935E0180935D010895E0915D01F09147
:1009D0005E01309709F009950895429A10925601E8
:1009E000809156018F3048F4809156018F5F80933B
:1009F0005601809156018F30B8F34298809158018A
:100A0000811109C010925A011092590110925C0193
:100A100010925B01089580915B0190915C010196B9
:100A200049F480915B0190915C01019790935A0188
:100A3000809359012091590130915A0180915B01B5
:100A400090915C012817390779F0809157018F5FE9
:100A5000809357018091590190915A01019690938A
:100A60005A0180935901089510925A011092590128
:100A700010925C0110925B01EEE6F0E080818D7FC8
:100A8000808380E00E94E50408950E94ED040895AB
:100A9000882321F0813019F4449A01C044981092BF
:100AA0005701089591E0811101C090E090935801A1
:100AB000892F0E94E5040895CF93DF93EC0188818C
:100AC00099819827892798270E94AC018A819B8168
:100AD00098278927982790935C0180935B0181E098
:100AE0009E81911101C080E08093580110925A01BB
:100AF00010925901109257010E94E504DF91CF91A5
:100B0000089581E080935F01089582E080935F0102
:100B1000089585E495E00E94A7018DE991E00E9487
:100B2000E00485EB92E00E94550208950E942C0299
:100B30000E94AF020E9462000E94D70108950E94A5
:100B40004C020E94840108950E94C9040E94DD04A1
:100B50000E945B010895E0915F018E2F90E0FC01FF
:100B60003197E830F105C8F5EC5CFF4F0C940206B4
:100B700081E080935F01089583E080935F01089591
:100B80000E94960584E080935F0108950E94890584
:100B900085E080935F0108950E949F0586E0809321
:100BA0005F0108950E94A40581E08093600187E0C1
:100BB00080935F0108950E94CA0488E080935F01DA
:100BC00008950E94B4020E943A010E9453010E94BB
:100BD00050030E9468000E94C7030895AA1BBB1B14
:100BE00051E107C0AA1FBB1FA617B70710F0A61B2D
:100BF000B70B881F991F5A95A9F780959095BC014E
:100C0000CD010895EE0FFF1F0590F491E02D09949A
:100C1000FB01DC0102C001900D9241505040D8F719
:060C20000895F894FFCFD7
:100C2600051C1D29464748494A4B4C4D4E120100AA
:00000001FF
