:100000000C943C000C9459000C9459000C94590029
:100010000C9459000C9459000C9459000C945900FC
:100020000C9459000C9459000C9459000C944703FB
:100030000C9459000C9459000C9490020C945900A3
:100040000C9459000C9459000C9426040C94F00361
:100050000C941B040C9459000C9459000C945900F6
:100060000C9459000C945900CD07D107D507DB0734
:10007000E107E707F007F60711241FBECFEFD8E02E
:10008000DEBFCDBF11E0A0E0B1E0E8E4F0E102C0E6
:1000900005900D92A231B107D9F721E0A2E1B1E0BC
:1000A00001C01D92A33BB207E1F70E945B000C94D4
:1000B00022080C9400000E9496070E949A070E9452
:1000C000C007FDCFE0910F01F091100180818823DE
:1000D00009F458C0E0910F01F09110011082E091F5
:1000E0000F01F0911001838190E0DC01A15CBE4F13
:1000F000E0910F01F091100121812A34C1F028F420
:100100002530E9F1263441F008952D3431F12E34B3
:1001100069F12C34B9F516C0E0910F01F09110018E
:100120002281273079F5CD010E9473070895E0916F
:100130000F01F09110012281213021F58C910E9454
:1001400061070895E0910F01F091100122812130A3
:10015000C9F48C910E946907089561E08C91811126
:1001600001C060E080E00E947002089561E08C911F
:10017000811101C060E081E00E94700208958C91BD
:100180000E945502089590910001891779F021E0AD
:1001900030E0F901E050FF4F9081981749F02F5F50
:1001A0003F4F2F303105A9F78FEF089580E0089574
:1001B000822F0895CF93DF9381E080934E011092B8
:1001C0003F0185E00E94C300C82FD0E00E945B027F
:1001D000C15CDE4F8883DF91CF910895CF93C82F04
:1001E000862F2AE231E030933901209338010E94B2
:1001F000C3008F3F69F04C2F50E0682F70E0615CC6
:100200007E4F8AE291E00E9419088AE291E006C0DE
:10021000109239011092380180E090E0CF9108955A
:100220001F93CF93DF93C62F142FD22F30E0462F8A
:1002300050E0BC01C901815C9E4F0E941908E09109
:100240000F01F09110011183E0910F01F091100165
:10025000D383E0910F01F0911001C283E0910F016F
:10026000F091100181E08083DF91CF911F9108957B
:10027000CF93DF93EC018D810E94C300809329010D
:10028000809129018F3F81F08B81835080932801D9
:1002900020912901609128014D8150E0CE01069600
:1002A0000E94100181E001C080E0DF91CF910895AC
:1002B000EF92FF920F931F93CF93DF93182FE62EA9
:1002C000F72E042FC2E1D1E08FEF888385EF898379
:1002D0000E945B028A8383E0800F8B83E091AF01F1
:1002E000F091B00184818C831D83002399F0AE2DA1
:1002F000BF2DE8E1F1E02FEF200F30E0275E3E4F09
:100300008D918193E217F307D9F745E0400F423012
:1003100010F40DC045E080E0E2E0AE2FB0E0AE5E4C
:10032000BE4F9C91890FEF5F4E17B8F702C080E077
:10033000E2E0F0E0EE5EFE4F8095808382E191E0A6
:10034000DF91CF911F910F91FF90EF900895CF9380
:10035000DF931F92CDB7DEB719820E94820490937B
:10036000B0018093AF018091AF019091B001892BD2
:1003700009F454C0E091AF01F091B0018481823062
:1003800061F0833011F0811143C08091AF019091F1
:10039000B0010E943801982F3CC0A091AF01B091EC
:1003A000B001E091AF01F091B00115966C9186819A
:1003B0000E94EE000097B1F0A091AF01B091B001A2
:1003C000E091AF01F091B00116964C91BC0185818E
:1003D0000E9458019093270180932601FC016381BC
:1003E0006C5F0EC041E0BE016F5F7F4F8FEF0E94D8
:1003F00058019093270180932601FC0163816C5F73
:1004000080912601909127010E94CB0390E001C0CA
:1004100090E01092B0011092AF0101C090E081E035
:10042000911101C080E00F90DF91CF910895CF939B
:100430000E94620080914E01823041F0843049F088
:10044000813079F482E080934E010BC00E94A701B5
:1004500008C084E690E00E945C078EE390E00E9472
:1004600059079091A30180913A019817E1F080918A
:10047000A30180933A018CE40E94C300C82F8F3FF0
:1004800091F06CE481E00E94EE00FC01808190918B
:10049000A301992311F0806801C08F77EC2FF0E061
:1004A000E15CFE4F8083CF910895682F80E090E05B
:1004B0000E948102089580E090E00E9489020895E0
:1004C0005B98539A5C98549A57985F9A08950E9443
:1004D0006002089589B18095881F8827881F089534
:1004E000882319F0813039F00895662311F05B9A62
:1004F00008955B980895662311F05C9A08955C98BE
:100500000895F999FECF92BD81BD60BDFA9AF99A1E
:100510000895F999FECF92BD81BDF89A80B50895EE
:100520001F920F920FB60F9211242F933F934F9368
:100530005F936F937F938F939F93AF93BF93EF934B
:10054000FF93A89A80914F018F5F80934F01809114
:100550004F01811110924F0180914F01811107C00D
:10056000E0915001F0915101309709F00995FF9108
:10057000EF91BF91AF919F918F917F916F915F911B
:100580004F913F912F910F900FBE0F901F90189594
:10059000DC01CB010097A105B10519F480E090E0E2
:1005A00006C00197A109B109E1F780E090E001964A
:1005B000883925E09207D9F7089583B5816083BD16
:1005C000EFE6F0E0808182608083E1E8F0E0808106
:1005D0008460808380818D7F80838081816080833F
:1005E0000895E1E8F0E080818B7F808380818D7FBA
:1005F000808380818E7F80830895882319F00E94F4
:10060000DD0208950E94F1020895E1E8F0E08081A2
:100610008B7F808380818D7F808380818E7F8083AC
:1006200080818F7E8083808188608083E0E8F0E035
:1006300080818D7F808380818E7F8083EFE6F0E0F4
:1006400080818260808378940895569A08950E94EC
:1006500005030E9425030895909356018093550148
:100660000895BC0189E09DE30E94FF077093540147
:1006700060935301809153019091540190938900AC
:1006800080938800809153019091540108951F92A6
:100690000F920FB60F9211242F933F934F935F93B6
:1006A0006F937F938F939F93AF93BF93EF93FF933A
:1006B000B09A809152018F5F8093520180915201D4
:1006C00081111092520180915201811107C0E09175
:1006D0005501F0915601309709F00995FF91EF917E
:1006E000BF91AF919F918F917F916F915F914F914A
:1006F0003F912F910F900FBE0F901F901895529A17
:100700005A980895CF93DF93E2ECF0E080818F7BDD
:100710008083A0ECB0E08C9182608C931092C50035
:1007200083E38093C400C1ECD0E088818B7F888311
:1007300080818660808380818F7C80838081877FB9
:1007400080830E947F03109258018881806488838F
:10075000888188608883DF91CF910895E1ECF0E093
:1007600080818068808380818061808380818860CF
:10077000808308959093B2018093B1010895E1ECD4
:10078000F0E080818F7E80830895E1ECF0E080814D
:10079000806180830895DC01609357018091570147
:1007A000882381F090E0292F30E0FD01E20FF31F54
:1007B0004081F901E75AFE4F40839F5F2091570126
:1007C000921788F381E0809358015A9A80915901D9
:1007D0008093C600E1ECF0E0808180628083089520
:1007E0001F920F920FB60F9211248F939F93EF9346
:1007F000FF939091580180915701981770F4E09100
:100800005801F0E0E75AFE4F80818093C600809146
:1008100058018F5F8093580105C0E1ECF0E08081C2
:100820008F7D8083FF91EF919F918F910F900FBEED
:100830000F901F9018951F920F920FB60F921124D0
:100840005A980F900FBE0F901F9018951F920F92FD
:100850000FB60F9211242F933F934F935F936F9393
:100860007F938F939F93AF93BF93EF93FF93809169
:10087000C60080936D01E091B101F091B201309713
:1008800019F080916D010995FF91EF91BF91AF91A2
:100890009F918F917F916F915F914F913F912F9198
:1008A0000F900FBE0F901F90189510929501109207
:1008B000940181E080937D01089582E080937D0121
:1008C000089580917D01823069F018F4813031F013
:1008D00015C0833059F0843069F010C081E08093F6
:1008E0007D01089583E080937D01089584E08093E5
:1008F0007D01089584E080937D01089584E08093D4
:100900007D010895809194019091950190937C01CF
:1009100080937B01109295011092940180917B014C
:1009200090917C01089590919201943110F0109271
:100930009201E0919201F0E0E258FE4F808391E055
:100940009093930190919201992319F0913039F08D
:100950000BC08F3F49F08FEF8093920105C08F3F0E
:1009600019F08FEF80939201809192018F5F8093B5
:10097000920108958EE791E090937A018093790136
:100980000E945B0280937801E0917901F0917A01F5
:10099000809178019281981355C080919201809343
:1009A0007701809181018093760180917601209179
:1009B000770190E0049630E08217930709F044C075
:1009C0008091790190917A0190937A0180937901D5
:1009D0001092750182E080937401209174018091DE
:1009E000770130E090E0019728173907D4F4E091BF
:1009F0007401F0E0E258FE4F908180917501890FFB
:100A000080937501809174018F5F809374012091B0
:100A100074018091770130E090E001972817390741
:100A200034F380917501809580937501E091770191
:100A3000F0E0E358FE4F908180917501981306C055
:100A400080E0089581E0089582E0089585E00895AA
:100A5000809173018330A1F028F4882349F081301C
:100A600059F00895843019F1853009F447C008958C
:100A700081E080937301089583E08093730108956A
:100A800080919301882309F457C01092930188EE56
:100A900093E0A0E0B0E080936F0190937001A09389
:100AA0007101B093720184E0809373010895809185
:100AB0006F0190917001A0917101B0917201892B29
:100AC0008A2B8B2B21F485E080937301089580910C
:100AD0006F0190917001A0917101B0917201019725
:100AE000A109B10980936F0190937001A0937101E6
:100AF000B093720184E08093730108950E94BF0354
:100B0000109293010E94BA0480936E0180916E014D
:100B1000811107C08EE791E0909395018093940135
:100B200004C080916E0180936E01109292010E9428
:100B3000C50383E0809373010895CF9380919D0155
:100B4000823061F128F4882351F0813089F0F5C0BA
:100B5000843009F46DC0863009F4E7C0EEC080919E
:100B6000AE01882309F4E9C081E080939D01E5C0CE
:100B70000E946A02882371F00E946A028111FCCFF0
:100B800060E472E48FE090E00E94C80282E080930B
:100B90009D01D3C083E080939D01CFC00E945B0282
:100BA00080939C0190919C0120919C0181E09F3F4A
:100BB00009F080E0811105C081E0211180E08823E7
:100BC00039F081E00E9455020E945B0280939C01F3
:100BD00060E472E48FE090E00E94C80260E472E496
:100BE0008FE090E00E94C80280919C018823D1F0A0
:100BF000C0E061E080E00E94700260E472E48FE097
:100C000090E00E94C80260E080E00E94700260E410
:100C100072E48FE090E00E94C802CF5F80919C0157
:100C2000C81738F310929B0184E080939D0185C022
:100C300010929A0180E492E4AFE0B0E080939601D4
:100C400090939701A0939801B09399012EC0809141
:100C5000960190919701A0919801B0919901019707
:100C6000A109B1098093960190939701A0939801EF
:100C7000B09399018091960190919701A09198016C
:100C8000B0919901892B8A2B8B2B79F480919B0150
:100C9000882321F080919B010E94550286E0809379
:100CA0009D0181E080939A0104C00E946A0288231A
:100CB00071F280919A01811140C061E081E00E944F
:100CC000700260E573EC80E090E00E94C8020E9430
:100CD0006A028111FCCF60E081E00E94700260E551
:100CE00073EC80E090E00E94C80280919B01843602
:100CF00020F580919B018F5F80939B011EC061E076
:100D000080E00E94700260E472E48FE090E00E9454
:100D1000C80260E080E00E94700260E472E48FE04C
:100D200090E00E94C802CF5F01C0C0E00E945B0259
:100D3000C81728F387E080939D01CF910895089507
:100D400081E080939F0180939E0108952A9A229AC0
:100D5000299A219A2098289A45983D9A449A3C9A33
:100D6000439A3B9A42983A9A419840984198399AC6
:100D7000389A569A55985D9A08950E94A606089545
:100D80009C019091A201923070F4E091A201F0E0F8
:100D9000EE0FFF1FE755FE4F318320838091A201A4
:100DA0008F5F8093A2010895CF93C82F882311F0FD
:100DB000439801C0439A1092A1018091A101823011
:100DC00000F5E091A101F0E0EE0FFF1FE755FE4FA7
:100DD00080819181892B61F0E091A101F0E0EE0F1B
:100DE000FF1FE755FE4F0190F081E02D8C2F0995F4
:100DF0008091A1018F5F8093A1018091A101823038
:100E000000F3CF9108951092A301429A1092A0018D
:100E10008091A001863948F48091A0018F5F809372
:100E2000A0018091A0018639B8F342988091A50174
:100E30009091A60101969093A6018093A5018091BF
:100E4000A7019091A801019649F48091A701909182
:100E5000A80101979093A6018093A5012091A50177
:100E60003091A6018091A7019091A8012817390718
:100E700021F08091A40181111BC01092A601109253
:100E8000A5011092A8011092A701EFE6F0E0808181
:100E90008D7F808380E00E94D4068091A70190918D
:100EA000A8019093A8018093A70181E08093A301FA
:100EB00008950E94310308959093A8018093A7019B
:100EC0000895882321F0813019F4449A08954498B4
:100ED000089591E0811101C090E09093A40180E019
:100EE0000E94D4060895CF93DF93EC018881998105
:100EF0009827892798270E9431038A819B81982708
:100F0000892798279093A8018093A70181E09E816B
:100F1000911101C080E08093A4011092A60110926B
:100F2000A5010E94D406DF91CF91089581E08093BE
:100F3000AD01089582E08093AD01089583E097E0CC
:100F40000E942C038DEF92E00E94C00683E994E09A
:100F50000E94BA0308950E9482030E9455040E94D1
:100F6000DA000E94270308950E949F060E94BD0692
:100F70000E94670208950E945D040E94A0060895E1
:100F8000E091AD018E2F90E0FC013197E830F10542
:100F9000A8F5EC5CFF4F0C94130881E08093AD0141
:100FA000089583E08093AD0108950E94AB0784E02B
:100FB0008093AD0108950E949E0785E08093AD0166
:100FC00008950E94AE0386E08093AD0108950E94CB
:100FD000B40781E08093AE0187E08093AD0108956E
:100FE0000E94BB0788E08093AD0108950E946104D0
:100FF0000E9417020E9428050E949D050895AA1BC1
:10100000BB1B51E107C0AA1FBB1FA617B70710F0F3
:10101000A61BB70B881F991F5A95A9F78095909525
:10102000BC01CD010895EE0FFF1F0590F491E02D56
:101030000994FB01DC0102C001900D924150504027
:08104000D8F70895F894FFCFE2
:10104800051C1D293839464748494A4B4C4D4E3BEB
:02105800010095
:00000001FF
