:100000000C9444000C9461000C9461000C94610009
:100010000C9461000C9461000C9461000C946100DC
:100020000C9461000C9461000C9461000C94270303
:100030000C9461000C9461000C9470020C946100AB
:100040000C9461000C9461000C9432040C94E10354
:100050000C940C040C9461000C9461000C946100ED
:100060000C9461000C946100250829082D083108C2
:10007000350839083D084108A708AB08AF08B5089E
:10008000BB08C108CA08D00811241FBECFEFD8E0B2
:10009000DEBFCDBF11E0A0E0B1E0EEEEF1E102C0C5
:1000A00005900D92A032B107D9F721E0A0E2B1E0AE
:1000B00001C01D92A33BB207E1F70E9463000C94BC
:1000C000F5080C9400000E9470080E9474080E94B9
:1000D0009A08FDCFCF93DF9381E080934E0185E0B6
:1000E0000E946A04C82F8F3F49F00E943202D82F25
:1000F0000E9437026C2F8D2F0E949104DF91CF91C7
:100100000895E0910001F09101018081882309F4B4
:100110006BC0E0910001F09101011082E0910001BB
:10012000F0910101A481B581E0910001F0910101FC
:1001300091819B3409F455C040F49634F9F09A3417
:1001400041F1953009F050C006C09D34C1F160F115
:100150009E34F1F10895E0910001F09101010480D5
:10016000F581E02D80810E942C020E943202809352
:100170004601809146010E9437020895E0910001F6
:10018000F09101018381873079F5CD010E94450806
:100190000895E0910001F09101018381813021F502
:1001A0008C910E9405080895E0910001F0910101F1
:1001B00083818130C9F48C910E940D0808958C913F
:1001C00061E0811101C060E080E00E944E0208956C
:1001D0008C9161E0811101C060E081E00E944E02DB
:1001E00008958C910E941C080895E0910001F091FF
:1001F0000101DC0115962C9115972183E0910001F6
:10020000F09101016283E0910001F09101011396E8
:100210002C9123502383E0910001F0910101069677
:1002200095838483E0910001F091010181E0808356
:100230000895FC0163816350458106960E94BC04C9
:1002400080934501809145010895EF92FF920F93AD
:100250001F93CF93DF93182FE62EF72E042FC0E2C3
:10026000D1E08FEF888385EF89830E943A028A83E9
:1002700083E0800F8B83E091AF01F091B001848126
:100280008C831D83002399F0AE2DBF2DE6E2F1E0B3
:100290002FEF200F30E0295D3E4F8D918193E217C3
:1002A000F307D9F745E0400F423010F40DC045E0A8
:1002B00080E0E2E0AE2FB0E0A05EBE4F9C91890FDF
:1002C000EF5F4E17B8F702C080E0E2E0F0E0E05EDA
:1002D000FE4F8095808380E291E0DF91CF911F9166
:1002E0000F91FF90EF9008951F93CF93DF931F928C
:1002F000CDB7DEB719820E9455059093B001809367
:10030000AF018091AF019091B001892B09F464C0D5
:10031000E091AF01F091B00184818230C9F0833067
:1003200011F0811153C08091AF019091B0010E94F2
:100330001901682F8F3F41F08091AF019091B0017A
:100340000E94F50011E001C010E00E9488033FC048
:10035000A091AF01B091B001E091AF01F091B00177
:1003600044E351E015966C9186810E94E204182FB7
:100370008823B9F0A091AF01B091B001E091AF0135
:10038000F091B00116964C9164E371E085810E9472
:1003900025019093440180934301FC0163816C5FCC
:1003A0000EC041E0BE016F5F7F4F8FEF0E942501BD
:1003B0009093440180934301FC0163816C5F8091C1
:1003C0004301909144010E94B90301C010E01092D2
:1003D000B0011092AF0101C010E0812F0F90DF91AA
:1003E000CF911F910895CF930E94810080914E017B
:1003F000823041F0843049F0813079F482E080939A
:100400004E010BC00E94740108C084E690E00E9477
:1004100000088EE390E00E94FD079091A101809179
:1004200047019817B9F08091A101809347018CE4AE
:100430000E946A04C82F8F3F69F08CE40E949904DF
:100440009091A101992311F0806801C08F776C2FE2
:100450000E949104CF910895682F80E090E00E945F
:100460005F02089580E090E00E9469020895809301
:100470004F01089580914F01089508955B98539A14
:100480005C98549A57985F9A08950E943E02089586
:1004900089B18095881F8827881F0895882319F0BF
:1004A000813039F00895662311F05B9A08955B98C6
:1004B0000895662311F05C9A08955C980895F9995F
:1004C000FECF92BD81BD60BDFA9AF99AF999FECF2F
:1004D0000895F999FECF92BD81BDF89A80B508952F
:1004E0001F920F920FB60F9211242F933F934F93A9
:1004F0005F936F937F938F939F93AF93BF93EF938C
:10050000FF93A89A809150018F5F80935001809152
:10051000500181111092500180915001811107C04A
:10052000E0915101F0915201309709F00995FF9146
:10053000EF91BF91AF919F918F917F916F915F915B
:100540004F913F912F910F900FBE0F901F901895D4
:10055000DC01CB010097A105B10519F480E090E022
:1005600006C00197A109B109E1F780E090E001968A
:10057000883925E09207D9F7089583B5816083BD56
:10058000EFE6F0E0808182608083E1E8F0E0808146
:100590008460808380818D7F80838081816080837F
:1005A0000895E1E8F0E080818B7F808380818D7FFA
:1005B000808380818E7F80830895882319F00E9434
:1005C000BD0208950E94D1020895E1E8F0E0808123
:1005D0008B7F808380818D7F808380818E7F8083ED
:1005E00080818F7E8083808188608083E0E8F0E076
:1005F00080818D7F808380818E7F8083EFE6F0E035
:1006000080818260808378940895569A08950E942C
:10061000E5020E94050308959093570180935601C7
:100620000895BC0189E09DE30E94DB0870935501A9
:1006300060935401809154019091550190938900E9
:1006400080938800809154019091550108951F92E4
:100650000F920FB60F9211242F933F934F935F93F6
:100660006F937F938F939F93AF93BF93EF93FF937A
:10067000B09A809153018F5F809353018091530111
:1006800081111092530180915301811107C0E091B3
:100690005601F0915701309709F00995FF91EF91BC
:1006A000BF91AF919F918F917F916F915F914F918A
:1006B0003F912F910F900FBE0F901F901895529A57
:1006C0000895E2ECF0E080818F7B8083A0ECB0E0C5
:1006D0008C9182608C931092C50083E38093C40058
:1006E000A1ECB0E08C918B7F8C93808186608083BD
:1006F00080818F7C80838081877F80830E945F03DD
:100700001092590108959093B2018093B101089518
:100710005A98E1ECF0E0808180688083808180617C
:10072000808308950E9488030895E1ECF0E08081C1
:100730008F7E808380818F77808308955A9AE0EC42
:10074000F0E0808180648083E1ECF0E0808180646F
:1007500080838081886080830895E1ECF0E080816F
:100760008F7D808380818F7B80838081877F808362
:100770000895DC016093580180915801882381F02D
:1007800090E0292F30E0FD01E20FF31F4081F901D5
:10079000E65AFE4F40839F5F20915801921788F3DD
:1007A00081E0809359010E9495030E949E038091ED
:1007B0005A018093C600E1ECF0E080818062808382
:1007C00008951F920F920FB60F9211248F939F934B
:1007D000EF93FF939091590180915801981770F40D
:1007E000E0915901F0E0E65AFE4F80818093C60007
:1007F000809159018F5F8093590105C0E1ECF0E0D1
:1008000080818F7D8083FF91EF919F918F910F90D9
:100810000FBE0F901F9018951F920F920FB60F9258
:1008200011242F933F934F935F936F937F938F93F5
:100830009F93AF93BF93EF93FF930E94AD030E94EA
:100840008803FF91EF91BF91AF919F918F917F911D
:100850006F915F914F913F912F910F900FBE0F902D
:100860001F9018951F920F920FB60F9211242F937D
:100870003F934F935F936F937F938F939F93AF9328
:10088000BF93EF93FF938091C0008C7129F080910A
:10089000C60080936E010DC08091C60080936E01EA
:1008A000E091B101F091B201309719F080916E01A1
:1008B0000995FF91EF91BF91AF919F918F917F919A
:1008C0006F915F914F913F912F910F900FBE0F90BD
:1008D0001F90189590910201891791F021E030E066
:1008E000422FF901EE0FFF1FEE5FFE4F9081981728
:1008F00041F02F5F3F4F2F30310591F74FEF01C08F
:1009000040E0842F0895CF93C82F862F0E946A0459
:10091000E82FF0E0EE0FFF1FEE5FFE4FC183CF9197
:100920000895E62FF0E0EE0FFF1FEE5FFE4F81838C
:1009300008950E946A04E82FF0E0EE0FFF1FEE5FBB
:10094000FE4F818108951F93CF93DF93681760F066
:10095000D62F182FC82F8C2F0E946A048F3F21F0AA
:10096000CF5FDC17C0F702C08FEF02C01D1B810FE5
:10097000DF91CF911F9108951F93CF93DF93EC01E7
:10098000842F1FEF160F642F610F0E94A3048F3F67
:10099000A9F0682F610F681788F0982FE92FF0E011
:1009A000292F281BDE01A20FB11D2C91EE0FFF1F76
:1009B000EE5FFE4F21839F5F691780F7DF91CF9134
:1009C0001F910895FF920F931F93CF93DF93C82F2A
:1009D000D62F8A0188EC860F823058F40E941708BF
:1009E000F82E68E3892F0E94830469E38F2D0E940B
:1009F0008304CC2311F1C1506D2F6C0F8D2F0E94F9
:100A0000A3048F3FE1F08D2F0E946A04282F2C0F42
:100A10002817B8F0982FE92FF0E0EE0FFF1FEE5FD8
:100A2000FE4F3181492F481BF801E40FF11D30833F
:100A30009F5F291780F781E005C080E003C081E057
:100A400001C081E0DF91CF911F910F91FF90089538
:100A5000109293011092920181E080937B0108959E
:100A600082E080937B01089580917B01823069F060
:100A700018F4813031F015C0833059F0843069F0BA
:100A800010C081E080937B01089583E080937B0117
:100A9000089584E080937B01089584E080937B0136
:100AA000089584E080937B01089580919201909154
:100AB000930190937A01809379011092930110929F
:100AC00092018091790190917A010895CF9390914C
:100AD0009001943110F010929001E0919001F0E0BB
:100AE000E458FE4F808390919001913061F028F09E
:100AF000923079F09330E1F01FC08F3F49F18FEFD2
:100B00008093900125C08F3F19F18FEF8093900162
:100B10001FC0C82F0E943A0280937801CC23C1F0F5
:100B200080917801C817A1F08FEF8093900110C0D9
:100B30008D5F809377010CC0909190018091770137
:100B4000981306C08FEF8093900181E0809391010C
:100B5000809190018F5F80939001CF9108958CE7F1
:100B600091E09093760180937501E0917501F09189
:100B7000760183818D5F80937401E0917401F0E0D0
:100B8000E458FE4F8081809373011092720182E0DD
:100B90008093710190917101809174019817B0F464
:100BA000E0917101F0E0E458FE4F90818091720174
:100BB000890F80937201809171018F5F8093710121
:100BC0009091710180917401981750F38091720196
:100BD00080958093720190917201809173019813B6
:100BE00002C080E0089585E0089580917001813011
:100BF00041F018F0833049F0089581E0809370014E
:100C0000089583E080937001089580919101882375
:100C1000C1F0109291010E94AF0580936F01809105
:100C20006F01811107C08CE791E09093930180934D
:100C3000920104C080916F0180936F0183E08093E3
:100C400070010895CF9380919B01823061F128F467
:100C5000882351F0813089F004C1843009F471C0D7
:100C6000863009F4D5C0FDC08091AE01882309F417
:100C7000F8C081E080939B01F4C00E944802882361
:100C800071F00E9448028111FCCF60E472E48FE0B1
:100C900090E00E94A80282E080939B01E2C083E082
:100CA00080939B01DEC00E943A0280939A0190914A
:100CB0009A0120919A0181E09F3F09F080E0811123
:100CC00005C081E0211180E0882359F081E00E9475
:100CD0002C020E94320280939A0180919A010E9414
:100CE000370260E472E48FE090E00E94A80260E4C2
:100CF00072E48FE090E00E94A80280919A0188231C
:100D0000D1F0C0E061E080E00E944E0260E472E455
:100D10008FE090E00E94A80260E080E00E944E0216
:100D200060E472E48FE090E00E94A802CF5F8091BF
:100D30009A01C81738F31092990184E080939B01BF
:100D400090C01092980180E492E4AFE0B0E080930C
:100D5000940190939501A0939601B09397012EC0B2
:100D60008091940190919501A0919601B091970185
:100D70000197A109B1098093940190939501A093E3
:100D80009601B09397018091940190919501A09163
:100D90009601B0919701892B8A2B8B2B79F4809146
:100DA0009901882321F0809199010E942C0286E00C
:100DB00080939B0181E08093980104C00E944802C7
:100DC000882371F28091980181114BC061E081E02C
:100DD0000E944E0260E573EC80E090E00E94A80261
:100DE0000E9448028111FCCF60E081E00E944E0227
:100DF00060E573EC80E090E00E94A8028091990188
:100E00008A3078F5809199018F5F8093990129C08C
:100E10000E94320280939A0180919A010E943702C7
:100E200080919A018823D1F0C0E061E080E00E94C7
:100E30004E0260E472E48FE090E00E94A80260E05D
:100E400080E00E944E0260E472E48FE090E00E9435
:100E5000A802CF5F80919A01C81738F387E080938A
:100E60009B01CF910895089581E080939D01809327
:100E70009C0108952A9A229A299A219A2098289AC0
:100E800045983D9A449A3C9A439A3B9A42983A9A9A
:100E90005E98409841984198399A4098389A5E985F
:100EA000569A55985D9A08950E943A0708959C01B4
:100EB0009091A001923070F4E091A001F0E0EE0F6B
:100EC000FF1FE755FE4F318320838091A0018F5F84
:100ED0008093A0010895CF93C82F882311F04398E1
:100EE00001C0439A10929F0180919F01823000F5CA
:100EF000E0919F01F0E0EE0FFF1FE755FE4F80816C
:100F00009181892B61F0E0919F01F0E0EE0FFF1FCE
:100F1000E755FE4F0190F081E02D8C2F09958091CF
:100F20009F018F5F80939F0180919F01823000F32A
:100F3000CF9108951092A101429A10929E01809142
:100F40009E01863948F480919E018F5F80939E01B7
:100F500080919E018639B8F342988091A5019091C5
:100F6000A60101969093A6018093A5018091A3010B
:100F70009091A40101969093A4018093A301809184
:100F8000A7019091A801019649F48091A701909141
:100F9000A80101979093A6018093A5012091A50136
:100FA0003091A6018091A7019091A80128173907D7
:100FB00021F08091A20181111FC01092A601109210
:100FC000A5011092A4011092A3011092A801109201
:100FD000A701EFE6F0E080818D7F808380E00E94B2
:100FE0006B078091A7019091A8019093A80180932D
:100FF000A70181E08093A10108950E941103089543
:101000009093A8018093A7010895882321F081304F
:1010100019F4449A08954498089591E0811101C00B
:1010200090E09093A20180E00E946B070895809168
:10103000A5019091A601089590E08830910520F5D2
:10104000FC01EC5CFF4F0C94EF085E9840984198CF
:1010500008955E984098419A08955E98409A419804
:1010600008955E98409A419A08955E9A40984198F2
:1010700008955E9A4098419A08955E9A409A4198E0
:1010800008955E9A409A419A0895CF93DF93EC01B8
:10109000888199819827892798270E9411038A813E
:1010A0009B819827892798279093A8018093A7016F
:1010B00081E09E81911101C080E08093A201109295
:1010C000A6011092A5018D810E941C0881E09E81DD
:1010D000911101C080E00E946B07DF91CF910895CC
:1010E00081E08093AD01089582E08093AD01089581
:1010F0008AE997E00E940C038DED92E00E94570769
:1011000086E695E00E94830308950E9461030E9491
:1011100028050E946A000E94070308950E94330771
:101120000E9454070E94450208950E9430050E94C3
:1011300034070895E091AD018E2F90E0FC013197C6
:10114000E830F105B8F5E45CFF4F0C94EF0881E05E
:101150008093AD01089583E08093AD0108950E94CE
:10116000850884E08093AD0108950E94780885E0A9
:101170008093AD0108950E94920386E08093AD01B3
:1011800008950E948E0881E08093AE0187E08093ED
:10119000AD0108950E94950888E08093AD010895FF
:1011A0000E9434050E94F3010E943D020E94F50551
:1011B0000E9422060895AA1BBB1B51E107C0AA1F6B
:1011C000BB1FA617B70710F0A61BB70B881F991FE8
:1011D0005A95A9F780959095BC01CD010895EE0F21
:0E11E000FF1F0590F491E02D0994F894FFCFC5
:1011EE00480105001C001D0029003800390046008A
:1011FE004700480049004A004B004C004D004E008D
:00000001FF
