S0170000426F6F746C6F6164657220746573742E7372656322
S2140000000C9420010C943E010C943E010C943E018D
S2140000100C943E010C943E010C943E010C943E015F
S2140000200C943E010C943E010C943E010C943E014F
S2140000300C943E010C943E010C943E010C943E013F
S2140000400C943E010C943E010C943E010C943E012F
S2140000500C943E010C943E010C943E010C943E011F
S2140000600C943E010C943E010C943E010C943E010F
S2140000700C943E010C943E010C943E010C943E01FF
S2140000800C943E010C943E010C943E010C943E01EF
S2140000900C943E010C943E010C943E010C943E01DF
S2140000A00C943E010C943E010C943E010C943E01CF
S2140000B00C943E010C943E010C943E010C943E01BF
S2140000C00C943E010C943E010C943E010C943E01AF
S2140000D00C943E010C943E010C943E010C943E019F
S2140000E00C943E010C943E010C943E010C943E018F
S2140000F00C943E010C943E010C943E010C943E017F
S2140001000C943E010C943E010C943E010C943E016E
S2140001100C943E010C943E010C943E010C943E015E
S2140001200C943E010C943E010C943E010C943E014E
S2140001300C943E010C943E010C943E010C943E013E
S2140001400C943E010C943E010C943E010C943E012E
S2140001500C943E010C943E010C943E010C943E011E
S2140001600C943E010C943E010C943E010C943E010E
S2140001700C943E010C943E010C943E010C943E01FE
S2140001800C943E010C943E010C943E010C943E01EE
S2140001900C943E010C943E010C943E010C943E01DE
S2140001A00C943E010C943E010C943E010C943E01CE
S2140001B00C943E010C943E010C943E010C943E01BE
S2140001C00C943E010C943E010C943E010C943E01AE
S2140001D00C943E010C943E010C943E010C943E019E
S2140001E00C943E010C943E010C943E010C943E018E
S2140001F00C943E010C943E010C943E010C94630258
S2140002000C9456020C9448020C943A020C941D026C
S2140002100C9488020C9436020C945D020C94C40173
S2140002200C9478020C9441020C94C8010C9466025B
S2140002300C946E020C944F020C94F2010C9468021B
S21400024011241FBECFEFCDBFDFE3DEBF00E00CBF43
S21400025018BE19BE1ABE1BBE11E2A0E0B0E2E4E66C
S214000260F0E100E00BBF02C007900D92A836B10780
S214000270D9F71BBE0E94CF040C9430080C940000E3
S2140002803BB78BBFFB0186913BBF08953BB78BBF47
S214000290FB01879196913BBF089542E070C041E014
S2140002A06EC08093C00188278093C1018093C201ED
S2140002B047E055D0CB0108958093C40148E04FC075
S2140002C08091D00108953BB748E10D9400003BB7FC
S2140002D04AE10D9400003BB740E20D9400003BB7A6
S2140002E08BBFCB0142E20D9400003BB70B0143E20B
S2140002F00D9400003BB78BBFCB0144E20D94000089
S2140003003BB78BBFCB0145E20D9400003BB746E2FE
S2140003100D9400003BB78BBFCB014AE20D94000062
S2140003203BB78BBFCB014CE20D9400003BB78BBFB5
S214000330CB014DE20D94000048E311C049E30FC025
S21400034028ED2093340021E02093CC0108952091DD
S214000350CF0127FDFCCF22272093CA0108954093A2
S214000360CA0128ED31E0209334003093CB01609130
S214000370C4017091C5018091C60199270895FC01BA
S2140003804093CA01849108959195819591090895A5
S214000390CF92DF92EF92FF929B016C01092E000C28
S2140003A0EE08FF08AB01770F660B770B4C0D5D1D53
S2140003B06E1D7F1D4115E0E85E076105710544F47A
S2140003C0411550486F4F7F4F34F0820F931F05C082
S2140003D08FEF9FE702C081E090E8FF90EF90DF90FC
S2140003E0CF900895CF92DF92EF92FF929B01AC01DF
S2140003F0092E000C660B770B6901032E000CEE0825
S214000400FF084C195D096E097F094115E0E85E0793
S2140004106105710544F4411550486F4F7F4F34F025
S214000420821B930B05C08FEF9FE702C081E090E828
S214000430FF90EF90DF90CF9008959C01DB010E9423
S214000440FE07611520E87207810591054CF46115D9
S21400045020E872072FEF820792072CF0CB01089551
S2140004608FEF9FE7089581E090E808950E94C807FF
S214000470CB01089521E08617970709F020E0822F28
S214000480089521E0681779070CF020E0822F089580
S21400049021E0861797070CF020E0822F089521E0D0
S2140004A0861797070CF420E0822F089521E068173E
S2140004B079070CF420E0822F0895811102C0862F60
S2140004C0089581E008958111862F0895862708955E
S2140004D0E7EEF6E080818063808308952FEF87EA59
S2140004E091E6215080409040E1F700C0000008955A
S2140004F0009769F020E030E0EFE3FFE13197F1F795
S21400050000C000002F5F3F4F82179307A9F708959A
S214000510BC0180EA99E00E944B0769E171E280EA3B
S21400052099E00E94F306089590ED980F9A3060F0D7
S2140005309FEB980F963010F4875308959FE9980F15
S214000540963020F487550895892F08958FEF0895E3
S214000550CF93DF93D62F0E949402C82F8D2F0E9430
S214000560940290E1C99F90011124822BDF91CF91D4
S2140005700895F89488ED84BF83E080938000FFCFD1
S214000580EF92FF920F931F93CF93DF93E82EEB012A
S21400059089014130A9F58091022081112FC08091F8
S2140005A0002090910120905481159044B0F063E0B3
S2140005B070E280EA99E00E94F30660910020709154
S2140005C0012080EA99E00E944B0764E170E280EA2D
S2140005D099E00E94F3060E94B9020E94A70160916A
S2140005E000207091012080E090E00E948001E0E011
S2140005F0F0E4649180EA99E00E942E070E94B90216
S21400060041115CC06DE270E280EA99E00E94F30658
S214000610EE2009F453C0F12C809100209091012027
S214000620AC01452F552746959E01232F3327269547
S2140006304217530741F120910220211124C0905403
S21400064081159044B0F063E070E280EA99E00E9481
S214000650F306609100207091012080EA99E00E94E4
S2140006604B0764E170E280EA99E00E94F3060E947C
S214000670B9020E94A701609100207091012080E0DD
S21400068090E00E9480010E94A701F801EF0DF11D85
S214000690618170E0762F66278081682BCE0191708D
S2140006A00E94750110920220C0930020D093012072
S2140006B02296F394F394FE1408F4AECFDF91CF9114
S2140006C01F910F91FF90EF9008952F923F924F92B7
S2140006D05F926F927F928F929F92AF92BF92CF92CD
S2140006E0DF92EF92FF920F931F93CF93DF93CDB7D6
S2140006F0DEB76197CDBFDEBF5C01F894FC01628176
S21400070081810E94A802682EF501648183810E947F
S214000710A802898BF501668185810E94A802582E61
S214000720F501608587810E94A802482E862C912CB0
S214000730B40180EA99E00E944B07F9892F2E312CEC
S214000740B10180EA99E00E944B07652D70E080EACF
S21400075099E00E944B07642D70E080EA99E00E94C1
S2140007604B077988760C750C740C6620E9F08501C9
S214000770075F1F4FCE0101967C01CC24CA94C60C9D
S214000780D12C9FEFC91AD90ACE0CDF1CF801618163
S21400079080810E94A802780EF70181937F010E5F88
S2140007A01F4FEC15FD0591F767E370E280EA99E0CC
S2140007B00E94F306F4013596EE0FFF1FEA0DFB1DAF
S2140007C0DF01119760818C910E94A802870D41F08D
S2140007D061E470E280EA99E00E94F3060E94B902A2
S2140007E065E770E280EA99E00E94F306462D440F22
S2140007F0455FB50180EA99E00E940F0762E870E263
S21400080080EA99E00E94F306698980EA99E00E94EE
S2140008102E07652D80EA99E00E942E0762E870E2B6
S21400082080EA99E00E94F306722D662765299E01EC
S2140008302F5F3F4F442D862D0E94C0026196CDBF8C
S214000840DEBFDF91CF911F910F91FF90EF90DF9069
S214000850CF90BF90AF909F908F907F906F905F905B
S2140008604F903F902F900895CF93DF93CDB7DEB78C
S214000870E297CDBFDEBFCE0101967C016E0193E309
S214000880C90ED11C870180EA99E00E94CA06980129
S2140008902E193F09F80181938F018A3041F4E2E076
S2140008A0F0E0EC0FFD1FE20FF31F108203C0EC1503
S2140008B0FD0549F7B70180EA99E00E94F306C701F3
S2140008C00E946503DFCF0F931F93CF93DF93C0E1A2
S2140008D0D7E280EA99E00E94ED0681110FC080E819
S2140008E094E00E943C05811125C08FE193E00197BA
S2140008F0F1F700C00000219761F71CC0C5E8D0E200
S21400090009E810E280EA99E00E94CA0699918913E4
S21400091011C0C017D107B1F780EA99E00E94CA0655
S214000920853541F46AE870E280EA99E00E94F306B1
S2140009300E943404DF91CF911F910F910895CF93B9
S214000940DF93CDB7DEB7E297CDBFDEBF66EA70E2D3
S21400095080EA99E00E94F30642E3BE016F5F7F4F94
S21400096080E894E00E94480589818A3339F060EB7C
S21400097070E280EA99E00E94F3060BC06EEC70E22B
S21400098080EA99E00E94F306CE0101960E94650374
S214000990DDCFE296CDBFDEBFDF91CF910895EF9217
S2140009A00F931F9360E280E894E00E943805E0E52C
S2140009B0F0E0808182608083E1E5F0E0808181FF65
S2140009C0FDCF88ED84BF81E08093400088E180936E
S2140009D0100688E080936106E0EEF6E08081806392
S2140009E08083E5EEF6E0808180638083E12C00E082
S2140009F018E428EE31E040E052EC61E070E080EA76
S214000A0099E00E94AB0663ED70E280EA99E00E94EE
S214000A10F3060E94630480E894E00E943C0581117E
S214000A200E949F046CE171E280EA99E00E94F3065E
S214000A30E0E0F0E4E491EF3F69F463E371E280EA1A
S214000A4099E00E94F306E8E0F6E080818111FDCF90
S214000A500E94B90266E471E280EA99E00E94F30619
S214000A600C94002080E090E01F910F91EF90089585
S214000A702EE3FC0120870895FC01228526FF06C090
S214000A8082858695817091E08927089580E0089593
S214000A90EF92FF920F931F93CF93DF93EC019A850B
S214000AA096FFFDCF8A8581FD2FC07B0189858360F7
S214000AB08987442321F18B014150842F90E00196D1
S214000AC0E80EF91E6EE571E280EA99E00E94F306F0
S214000AD08A858823DCF08A8586FFFACF17C08C8546
S214000AE0F801D8018D938D0189858360898760819F
S214000AF080EA99E00E94C4060E151F0519F78A853C
S214000B00806C8A8781E006C080E004C08A8586FF04
S214000B10E6CFF5CFDF91CF911F910F91FF90EF9029
S214000B2008958F708A3010F0895C0895805D08956E
S214000B304F925F926F927F928F929F92AF92BF92E8
S214000B40EF92FF920F931F93CF937C014A015B01B4
S214000B5028013901FC01848182FF16C0D901C80131
S214000B60689412F8B695A795979587951694D1F739
S214000B70B901A801032E36E17695679557954795F6
S214000B803A95D1F7302D15C0D901C801689413F8ED
S214000B90B695A795979587951694D1F7B901A801AC
S214000BA0032E37E176956795579547953A95D1F791
S214000BB0302D88159905AA05BB0508F4A6C084162D
S214000BC09506A606B70608F4A2C0F701848182FD42
S214000BD004C0880C991CAA1CBB1CC301B201A50149
S214000BE094010E94DC072F3F31054105510508F4AA
S214000BF090C08FEF90E0A0E0B0E0C9EF05C02817E6
S214000C0039074A075B0758F0880F991FAA1FBB1FB2
S214000C10CD3F0CF48160CF5FC73089F74FC0CC233F
S214000C200CF04CC0D501C401880F991FAA1FBB1F2A
S214000C30880F991FAA1FBB1F880F991FAA1FBB1FCB
S214000C40481A590A6A0A7B0ACE3FF4F48DEF9FEFE2
S214000C508C1B9109C7FD939504C0440C551C661C5B
S214000C60771C8A95D2F7D501C401B695A7959795B6
S214000C708795BC01CD01640D751D861D971DA501C8
S214000C8094010E94DC0737C083E08C0FA501940115
S214000C9004C0220F331F441F551F8A95D2F7DA016E
S214000CA0C901B695A79597958795BC01CD01640DAA
S214000CB0751D861D971D0E94DC071DC083E08C0FE6
S214000CC0A501940104C0220F331F441F551F8A95A7
S214000CD0D2F7DA01C901B695A79597958795BC0115
S214000CE0CD01640D751D861D971D0E94DC072150E1
S214000CF0310941095109832F8F70C295C07FC82BD7
S214000D00F701C783268381E018C080E016C080E024
S214000D1014C0D501C401880F991FAA1FBB1F880FD6
S214000D20991FAA1FBB1F880F991FAA1FBB1F481A0F
S214000D30590A6A0A7B0AC9EF89CFCF911F910F9192
S214000D40FF90EF90BF90AF909F908F907F906F90A6
S214000D505F904F9008950F931F93CF93DF93EC010E
S214000D600E9498052FEF89EF90E021508040904038
S214000D70E1F700C000008AE28B8388E18C83DF9174
S214000D80CF911F910F910895FC01918195FFFDCFA2
S214000D9060830895FC0191819923ECF78081089582
S214000DA0FC0161157105A1F08181882334F020E0F3
S214000DB030E005C09181992314F4808108958AE07B
S214000DC08A95F1F700C02F5F3F4F6217730791F7C0
S214000DD081E0FA01808380E00895FC018181881F0C
S214000DE08827881F0895EF92FF920F931F93CF9343
S214000DF0FB016081662369F08F017C01C0E0C701BA
S214000E000E94C406CF5FF801EC0FF11D60816111EE
S214000E10F6CFCF911F910F91FF90EF900895EF922C
S214000E20FF920F931F93CF93DF93442381F07C01AF
S214000E30EB014150042F10E00F5F1F4F060F171FE6
S214000E406991C7010E94C406C017D107C9F7DF9190
S214000E50CF911F910F91FF90EF9008951F93CF931E
S214000E60DF93EC01162F64E671E20E94F306812FF1
S214000E7082958F700E949105682FCE010E94C4064D
S214000E80812F0E949105682FCE010E94C406DF9133
S214000E90CF911F9108950F931F93CF93DF938C01EB
S214000EA0EB01DD2334F4D195C195D1096DE20E94A2
S214000EB0C406CE0160E177E20E94C807662331F0DF
S214000EC0605DC8010E94C40621E001C020E0CE019A
S214000ED068EE73E00E94C807CB016AE070E00E94EB
S214000EE0C807882381F060E3680FC8010E94C40623
S214000EF0CE0164E670E00E94C807CB016AE070E0AD
S214000F000E94C8070EC0CE0164E670E00E94C807C3
S214000F10CB016AE070E00E94C807811102C022235C
S214000F20F9F060E3680FC8010E94C4062AE030E0CA
S214000F30CE01B9010E94C807CB01B9010E94C807BB
S214000F4060E3680FC8010E94C406CE016AE070E044
S214000F500E94C80760E3680FC8010E94C4060DC05F
S214000F602AE030E0CE01B9010E94C807CB01B901E2
S214000F700E94C807882349F3E3CFDF91CF911F91E2
S214000F800F910895FC01818185FB882780F90895DB
S214000F9097FB072E16F4009407D077FD09D00E9421
S214000FA01C0807FC05D03EF4909581959F4F089548
S214000FB0709561957F4F0895A1E21A2EAA1BBB1B60
S214000FC0FD010DC0AA1FBB1FEE1FFF1FA217B30710
S214000FD0E407F50720F0A21BB30BE40BF50B661F26
S214000FE0771F881F991F1A9469F7609570958095EA
S214000FF090959B01AC01BD01CF0108950E940608A3
S214001000332312F48A1B9B0B0C941708A29FB00183
S214001010B39FC001A39F700D811D1124911DB29F27
S214001020700D811D1124911D08950E940608B7FFBA
S2140010300895821B930B0895AA1BBB1B51E107C0A2
S214001040AA1FBB1FA617B70710F0A61BB70B881F53
S214001050991F5A95A9F780959095BC01CD010895E2
S208001060F894FFCF2D
S214001064FFFF010A0D466C61736820616464726553
S21400107473733A00206F7574206F662072616E6712
S214001084650A0D526573657474696E67000A0D749B
S214001094657374330A0D000A0D74657374320A0D91
S2140010A4000A0D436865636B73756D206572726F15
S2140010B472207768696C6520726563656976696E07
S2140010C4672070726F6772616D0A0D52657365747E
S2140010D474696E67000D0A52656365697665643ADD
S2140010E420000D0A00414243440052656365697658
S2140010F4696E672070726F6772616D207669612011
S2140011045553420A0D000A0D74657374340A0D00B3
S2140011144572726F72207768696C652072656365C4
S2140011246976696E672070726F6772616D007465A8
S2140011347374000A0D2D2D2D2D2D2D2D2D2D2D2DB9
S2140011442D2D2D2D2D2D2D2D2D2D2D2D2D2D2D2DC6
S2140011542D2D2D2D2D2D2D2D2D2D2D2D2D2D2D2DB6
S2140011642D2D2D2D2D2D2D2D2D2D2D2D2D2D2D2DA6
S2140011742D0A0D52657365740A0A0D00436865638B
S2140011846B696E6720666F722070726F6772616D2E
S2140011940A0D004E6F2070726F6772616D20666F65
S2140011A4756E640A0D005374617274696E672079F3
S2140011B46F75722070726F6772616D0A0D000A0D8A
S20C0011C4370A0D003078000028
S214003F000C9478020C946E020C9488020C94C401F3
S214003F100C94C8010C94F2010C941D020C94360209
S214003F200C943A020C9441020C9448020C944F02F2
S214003F300C9456020C945D020C9463020C94660278
S208003F400C9468026E
S214020000FC014093CA012DE920933400E89511249F
S2080200103BBF08954E
S804000000FB
