:100000000C9420010C943E010C943E010C943E0192
:100010000C943E010C943E010C943E010C943E0164
:100020000C943E010C943E010C943E010C943E0154
:100030000C943E010C943E010C943E010C943E0144
:100040000C943E010C943E010C943E010C943E0134
:100050000C943E010C943E010C943E010C943E0124
:100060000C943E010C943E010C943E010C943E0114
:100070000C943E010C943E010C943E010C943E0104
:100080000C943E010C943E010C943E010C943E01F4
:100090000C943E010C943E010C943E010C943E01E4
:1000A0000C943E010C943E010C943E010C943E01D4
:1000B0000C943E010C943E010C943E010C943E01C4
:1000C0000C943E010C943E010C943E010C943E01B4
:1000D0000C943E010C943E010C943E010C943E01A4
:1000E0000C943E010C943E010C943E010C943E0194
:1000F0000C943E010C943E010C943E010C943E0184
:100100000C943E010C943E010C943E010C943E0173
:100110000C943E010C943E010C943E010C943E0163
:100120000C943E010C943E010C943E010C943E0153
:100130000C943E010C943E010C943E010C943E0143
:100140000C943E010C943E010C943E010C943E0133
:100150000C943E010C943E010C943E010C943E0123
:100160000C943E010C943E010C943E010C943E0113
:100170000C943E010C943E010C943E010C943E0103
:100180000C943E010C943E010C943E010C943E01F3
:100190000C943E010C943E010C943E010C943E01E3
:1001A0000C943E010C943E010C943E010C943E01D3
:1001B0000C943E010C943E010C943E010C943E01C3
:1001C0000C943E010C943E010C943E010C943E01B3
:1001D0000C943E010C943E010C943E010C943E01A3
:1001E0000C943E010C943E010C943E010C943E0193
:1001F0000C943E010C943E010C943E010C9463025D
:100200000C9456020C9448020C943A020C941D0271
:100210000C9488020C9436020C945D020C94C40178
:100220000C9478020C9441020C94C8010C94660260
:100230000C946E020C944F020C94F2010C94680220
:1002400011241FBECFEFCDBFDFE3DEBF00E00CBF48
:1002500018BE19BE1ABE1BBE11E2A0E0B0E2E6E570
:10026000FEE000E00BBF02C007900D92A032B10784
:10027000D9F71BBE0E9440040C9429070C9400007F
:100280003BB78BBFFB0186913BBF08953BB78BBF4C
:10029000FB01879196913BBF089542E070C041E019
:1002A0006EC08093C00188278093C1018093C201F2
:1002B00047E055D0CB0108958093C40148E04FC07A
:1002C0008091D00108953BB748E10D9400003BB701
:1002D0004AE10D9400003BB740E20D9400003BB7AB
:1002E0008BBFCB0142E20D9400003BB70B0143E210
:1002F0000D9400003BB78BBFCB0144E20D9400008E
:100300003BB78BBFCB0145E20D9400003BB746E203
:100310000D9400003BB78BBFCB014AE20D94000067
:100320003BB78BBFCB014CE20D9400003BB78BBFBA
:10033000CB014DE20D94000048E311C049E30FC02A
:1003400028ED2093340021E02093CC0108952091E2
:10035000CF0127FDFCCF22272093CA0108954093A7
:10036000CA0128ED31E0209334003093CB01609135
:10037000C4017091C5018091C60199270895FC01BF
:100380004093CA01849108959195819591090895AA
:10039000CF92DF92EF92FF929B016C01092E000C2D
:1003A000EE08FF08AB01770F660B770B4C0D5D1D58
:1003B0006E1D7F1D4115E0E85E076105710544F47F
:1003C000411550486F4F7F4F34F0820F931F05C087
:1003D0008FEF9FE702C081E090E8FF90EF90DF9001
:1003E000CF900895CF92DF92EF92FF929B01AC01E4
:1003F000092E000C660B770B6901032E000CEE082A
:10040000FF084C195D096E097F094115E0E85E0798
:100410006105710544F4411550486F4F7F4F34F02A
:10042000821B930B05C08FEF9FE702C081E090E82D
:10043000FF90EF90DF90CF9008959C01DB010E9428
:10044000F706611520E87207810591054CF46115E6
:1004500020E872072FEF820792072CF0CB01089556
:100460008FEF9FE7089581E090E808950E94C1060C
:10047000CB01089521E08617970709F020E0822F2D
:10048000089521E0681779070CF020E0822F089585
:1004900021E0861797070CF020E0822F089521E0D5
:1004A000861797070CF420E0822F089521E0681743
:1004B00079070CF420E0822F0895811102C0862F65
:1004C000089581E008958111862F08958627089563
:1004D000E7ECF7E080818860808308952FEF87EA5A
:1004E00091E6215080409040E1F700C0000008955F
:1004F000009769F020E030E0EFE3FFE13197F1F79A
:1005000000C000002F5F3F4F82179307A9F708959F
:100510000E94350588ED90E20E94EC04089590ED6C
:10052000980F9A3060F09FEB980F963010F4875335
:1005300008959FE9980F963020F487550895892FE4
:1005400008958FEF0895CF93DF93D62F0E948F02E7
:10055000C82F8D2F0E948F0290E1C99F9001112416
:10056000822BDF91CF910895F89488ED84BF83E0CA
:1005700080938000FFCFEF92FF920F931F93CF9352
:10058000DF93E82EEB018901413069F5809102206B
:10059000811127C0809100209091012090588F3FB9
:1005A0009F4780F083E090E20E94EC04809100205D
:1005B000909101200E94350584E190E20E94EC04B4
:1005C0000E94B4020E94A701609100207091012056
:1005D00080E090E00E948001E0E0F0E884910E94D9
:1005E00021050E94B402411150C0882309F44DC076
:1005F000F12C8091002090910120AC01452F5527CE
:1006000046959E01232F332726954217530711F154
:100610002091022021111EC090588F3F9F4780F0EB
:1006200083E090E20E94EC048091002090910120F0
:100630000E94350584E190E20E94EC040E94B4021D
:100640000E94A701609100207091012080E090E05D
:100650000E9480010E94A701F801EF0DF11D618148
:1006600070E0762F66278081682BCE0191700E9402
:10067000750110920220C0930020D0930120229691
:10068000F394F394FE1408F4B4CFDF91CF911F914B
:100690000F91FF90EF9008955F926F927F928F92EB
:1006A0009F92AF92BF92CF92DF92EF92FF920F9301
:1006B0001F93CF93DF93CDB7DEB76097CDBFDEBF7B
:1006C0005C01F894FC01628181810E94A302782E72
:1006D000F501648183810E94A302682EF501668181
:1006E00085810E94A302C82EF501608587810E9442
:1006F000A302582ED72CD60CDC0CD80E7720E9F0AC
:100700008501075F1F4FCE0101967C0188248A94E2
:10071000870C912C9FEF891A990A8E0C9F1CF80167
:10072000618180810E94A302D80EF70181937F012D
:100730000E5F1F4FE815F90591F7E72DF0E03596AC
:10074000EE0FFF1FEA0DFB1DDF01119760818C91F9
:100750000E94A3028D0D31F08DE290E20E94EC0424
:100760000E94B40281E690E20E94EC04672D660FBD
:10077000655FC5010E9402058EE690E20E94EC04CE
:10078000862D0E9421058C2D0E9421058EE690E287
:100790000E94EC046C2D70E076299E012F5F3F4F84
:1007A000452D872D0E94BB026096CDBFDEBFDF9135
:1007B000CF911F910F91FF90EF90DF90CF90BF905E
:1007C000AF909F908F907F906F905F900895CF93A0
:1007D000DF93CDB7DEB7E297CDBFDEBFCE01019686
:1007E0007C016E0193E3C90ED11C87010E94C404F1
:1007F00098012E193F09F80181938F018A3041F445
:10080000E2E0F0E0EC0FFD1FE20FF31F108203C0E7
:10081000EC15FD0559F7C7010E94EC04C7010E94C1
:100820004C03E3CF0F931F93CF93DF93C0E1D7E245
:100830000E94B604811109C08FE193E00197F1F79E
:1008400000C000002197A1F716C0C1E7D0E205E77C
:1008500010E20E94C404999189130DC0C017D107FA
:10086000C1F70E94C404853531F486E790E20E9406
:10087000EC040E94E703DF91CF911F910F9108953F
:10088000E0E5F0E0808182608083E1E5F0E0808156
:1008900081FFFDCF88ED84BF81E08093400088E137
:1008A00080931006E0ECF7E080818860808300E0B0
:1008B00020E038E448EE51E060E072EC81E090E046
:1008C0000E94AA0682E990E20E94EC040E941204AF
:1008D0008BED90E20E94EC04E0E0F0E8E491EF3F61
:1008E00059F482EF90E20E94EC04E8E0F6E08081A7
:1008F0008111FDCF0E94B40285E091E20E94EC04D8
:100900000C94004008E016E0C0E0D0E4FE018491C1
:100910000E9421052196CA30F0E4DF07B9F788ED7F
:1009200090E20E94EC04F8018081811110C004C0A3
:10093000F8019081911102C00E94B402EFE3FFE13F
:100940003197F1F700C00000815091F7DDCF8FE3C0
:100950009FE10197F1F700C0000083E6E9CF8F70B7
:100960008A3010F0895C0895805D08958091A10817
:10097000881F8827881F0895E1EAF8E0908195FF95
:10098000FDCF8093A0080895E1EAF8E080818823F4
:10099000ECF78091A0080895AC01892BC1F08091FB
:1009A000A108882344F020E030E0E1EAF8E006C046
:1009B000908199231CF48091A00808958AE08A957B
:1009C000F1F700C02F5F3F4F4217530789F781E0CF
:1009D000FB01808380E008950F931F93CF93FC0168
:1009E0008081882359F08F01C0E00E94BC04CF5F52
:1009F000F801EC0FF11D80818111F7CFCF911F918C
:100A00000F9108950F931F93CF93DF93662371F097
:100A1000EC016150062F10E00F5F1F4F080F191FE8
:100A200089910E94BC04C017D107D1F7DF91CF9103
:100A30001F910F9108958091A10885FB882780F967
:100A40000895CF93C82F8DE191E20E94EC048C2F82
:100A500082958F700E94AF040E94BC048C2F0E946C
:100A6000AF040E94BC04CF910895CF93DF93EC01B3
:100A7000992334F4D195C195D1098DE20E94BC042B
:100A8000CE0160E177E20E94C106662331F080E387
:100A9000860F0E94BC0421E001C020E0CE0168EE78
:100AA00073E00E94C106CB016AE070E00E94C106BB
:100AB000882371F0805D0E94BC04CE0164E670E082
:100AC0000E94C106CB016AE070E00E94C1060EC020
:100AD000CE0164E670E00E94C106CB016AE070E0DE
:100AE0000E94C106811102C02223C9F0805D0E94CC
:100AF000BC042AE030E0CE01B9010E94C106CB015E
:100B0000B9010E94C106805D0E94BC04CE016AE06A
:100B100070E00E94C106805D0E94BC040DC02AE006
:100B200030E0CE01B9010E94C106CB01B9010E949B
:100B3000C106882359F3E7CFDF91CF9108958F92B3
:100B40009F92AF92BF92CF92DF92EF92FF92CF939C
:100B50006B017C0149015A018091A40882FF16C0F3
:100B6000DA01C901689412F8B695A795979587950B
:100B70001694D1F7BA01A901032E36E1769567954F
:100B8000579547953A95D1F7302D15C0DA01C9012F
:100B9000689413F8B695A795979587951694D1F70D
:100BA000BA01A901032E37E17695679557954795C8
:100BB0003A95D1F7302D8C159D05AE05BF0508F48B
:100BC000A7C0C416D506E606F70608F4A3C08091B0
:100BD000A40882FD04C0CC0CDD1CEE1CFF1CC5016A
:100BE000B401A70196010E94D5062F3F31054105AA
:100BF000510508F491C08FEF90E0A0E0B0E0C9EF9C
:100C000005C0281739074A075B0758F0880F991F56
:100C1000AA1FBB1FCD3F0CF48160CF5FC73089F79F
:100C20004FC0CC230CF04CC0D701C601880F991FD0
:100C3000AA1FBB1F880F991FAA1FBB1F880F991FD0
:100C4000AA1FBB1F881A990AAA0ABB0ACE3FF4F44E
:100C50008DEF9FEF8C1B9109C7FD939504C0880C05
:100C6000991CAA1CBB1C8A95D2F7D701C601B69560
:100C7000A79597958795BC01CD01680D791D8A1DB3
:100C80009B1DA70196010E94D50637C083E08C0FFB
:100C9000A701960104C0220F331F441F551F8A95D8
:100CA000D2F7DA01C901B695A79597958795BC014A
:100CB000CD01680D791D8A1D9B1D0E94D5061DC0A2
:100CC00083E08C0FA701960104C0220F331F441F3D
:100CD000551F8A95D2F7DA01C901B695A795979560
:100CE0008795BC01CD01680D791D8A1D9B1D0E9451
:100CF000D5062150310941095109832F8F70C295C2
:100D0000C07FC82BC093A7082093A60881E018C015
:100D100080E016C080E014C0D701C601880F991F7B
:100D2000AA1FBB1F880F991FAA1FBB1F880F991FDF
:100D3000AA1FBB1F881A990AAA0ABB0AC9EF88CF43
:100D4000CF91FF90EF90DF90CF90BF90AF909F90AA
:100D50008F900895E0E4F6E0A081A860A0830E944F
:100D60009F052FEF89EF90E0215080409040E1F700
:100D700000C000008AE28093A30888E18093A40861
:100D8000089597FB072E16F4009407D077FD09D03D
:100D90000E94150707FC05D03EF4909581959F4F62
:100DA0000895709561957F4F0895A1E21A2EAA1BB0
:100DB000BB1BFD010DC0AA1FBB1FEE1FFF1FA2170B
:100DC000B307E407F50720F0A21BB30BE40BF50B08
:100DD000661F771F881F991F1A9469F76095709591
:100DE000809590959B01AC01BD01CF0108950E94B3
:100DF000FF06332312F48A1B9B0B0C941007A29F4F
:100E0000B001B39FC001A39F700D811D1124911DDE
:100E1000B29F700D811D1124911D08950E94FF063F
:100E2000B7FF0895821B930B0895AA1BBB1B51E1CA
:100E300007C0AA1FBB1FA617B70710F0A61BB70B4A
:100E4000881F991F5A95A9F780959095BC01CD01EF
:060E50000895F894FFCFA5
:100E5600FFFF010A0D466C61736820616464726568
:100E660073733A00206F7574206F662072616E6727
:100E7600650A0D526573657474696E67000A0D43E1
:100E86006865636B73756D206572726F7220776823
:100E9600696C6520726563656976696E6720707234
:100EA6006F6772616D0A0D526573657474696E675A
:100EB600000D0A52656365697665643A20000D0A7D
:100EC600004142434400526563656976696E672056
:100ED60070726F6772616D20766961205553420AA0
:100EE6000D000A0D2D2D2D2D2D2D2D2D2D2D2D2DBC
:100EF6002D2D2D2D2D2D2D2D2D2D2D2D2D2D2D2D1C
:100F06002D2D2D2D2D2D2D2D2D2D2D2D2D2D2D2D0B
:100F16002D2D2D2D2D2D2D2D2D2D2D2D2D2D2D2DFB
:100F26000A0D52657365740A0A0D00436865636BA2
:100F3600696E6720666F722070726F6772616D0AE4
:100F46000D004E6F2070726F6772616D20666F754F
:100F56006E640A0D005374617274696E6720796F4E
:100F660075722070726F6772616D0A0D00307800BD
:107E00000C9478020C946E020C9488020C94C401B9
:107E10000C94C8010C94F2010C941D020C943602CF
:107E20000C943A020C9441020C9448020C944F02B8
:107E30000C9456020C945D020C9463020C9466023E
:047E40000C94680234
:020000022000DC
:10000000FC014093CA012DE920933400E8951124A6
:040010003BBF089555
:00000001FF
