S0140000536D617274466163746F72792E7372656331
S2140000000C94AF020C94D5020C94D5020C94D50235
S2140000100C94D5020C94D5020C94D5020C94D502FF
S2140000200C94D5020C94D5020C94D5020C94D502EF
S2140000300C947A060C94D5020C94D5020C94D50236
S2140000400C94D5020C94D5020C94D5020C94D502CF
S2140000500C94D5020C94D5020C94D5020C94D502BF
S2140000600C94D5020C94D5020C94D5020C94D502AF
S2140000700C94D5020C94D5020C94D5020C94D5029F
S2140000800C94D5020C94D5020C94D5020C94D5028F
S2140000900C94D5020C94D5020C94D5020C94D5027F
S2140000A00C94D5020C94D5020C94D5020C94D5026F
S2140000B00C94D5020C94F4060C94D5020C94D5023C
S2140000C00C94D5020C94D5020C94D5020C94D5024F
S2140000D00C94D5020C94D5020C94D5020C94D5023F
S2140000E00C94D5020C94D5020C94D5020C94D5022F
S2140000F00C94D5020C94D5020C94D5020C94D5021F
S2140001000C94D5020C94D5020C94D5020C94D5020E
S2140001100C94D5020C94D5020C94D5020C94D502FE
S2140001200C94D5020C94D5020C94D5020C94B70608
S2140001300C94D5020C94D5020C94D5020C94D502DE
S2140001400C94D5020C94D5020C94D5020C94D502CE
S2140001500C94D5020C94D5020C94D5020C94D502BE
S2140001600C94D5020C94D5020C94D5020C94D502AE
S2140001700C94D5020C94D5020C94D5020C94D5029E
S2140001800C94D5020C94D5020C94D5020C94D5028E
S2140001900C946B180C94C6180C94D5020C94D502CB
S2140001A00C94D5020C94D5020C9431070C94D5020D
S2140001B00C94D5020C94D5020C94D5020C94D5025E
S2140001C00C94D5020C94D5020C94D5020C94D5024E
S2140001D00C94D5020C94D5020C94D5020C94D5023E
S2140001E00C94D5020C94D5020C94D5020C94D5022E
S2140001F00C94D5020C94A6290C94732AC20CD10C2C
S214000200E00CEF0CFD0C0C0D1B0D290D360D450DED
S214000210540D630D59166816771686169416A3168F
S214000220B216C016CD16DC16EB16FA16B217B217B3
S214000230B217B217B217B217B217B217B217B21771
S214000240B217B217B217B217B217B217B217B21761
S214000250B217B217B017B017B017B017B017B0175D
S214000260B017B017B017B017B017B017B017B01751
S214000270B017B017B017B017B017B017B417B41739
S214000280B417B417B417B417B417B417B417B41711
S214000290AE17AE17AE17AE17AE17AE17AE17AE1731
S2140002A0AE17AE17B417B417B417B417B417B417FD
S2140002B0B417B417B417B417B417B417B417B417E1
S2140002C0B417B417B417B417B417B417AC17AC17E1
S2140002D0AC17AC17AC17AC17AC17AC17AC17AC1701
S2140002E0AC17AC17AC17AC17AC17AA17AA17AA17F7
S2140002F0AA17AA17AA17AA17AA17AA17AA17AA17F1
S214000300AA17AA17AA17AA17A817A817A817A817E8
S214000310A817A817A817A817A817A817A817A817E0
S214000320A817A817A817A817A817A817A817A817D0
S214000330A617A617A617A617A617A617A617A617D0
S214000340A617A617A417A417A417A417A417A417CC
S214000350A417A417A417A417A417A417A417A417C0
S214000360A417A417A417A417A417A417A417A417B0
S214000370A417A417A417A417A417A417A417A417A0
S214000380A217A217A217A217A217A017A017A017A6
S214000390A017A0179E179E179E179E179E179C17AE
S2140003A09C179C179C179C17B617B617B617B61748
S2140003B0B617B617152418241B241E24212424241B
S2140003C027240C948B170C941B0D0C944D1A0C942C
S2140003D08A130C9458140C94E00C0C9459160C9434
S2140003E0FB110C94F0030C94E3140C9486160C94F6
S2140003F04B1B0C94AE170C9412120C949C170C9476
S214000400BC1C0C94C0160C94EB160C94AA170C94F7
S21400041018240C94E2030C946C140C94DC160C94C4
S214000420D7130C94B0170C94A0170C945E1F0C9462
S214000430B4170C94B2160C94C5030C9485030C9454
S214000440641B0C94C7140C945B120C945E140C94EE
S21400045075030C949E170C94A2170C940B170C940F
S214000460B2170C94290D0C943B1A0C94C20C0C94E5
S21400047040140C94450D0C9405130C944B1A0C94D4
S214000480760B0C94CD160C9421240C94FA160C942E
S214000490D10C0C9481030C9424240C94EF0C0C9433
S2140004A0BF170C94A3160C94DC140C94A6170C948B
S2140004B02E100C94E9030C94360D0C9477160C94BD
S2140004C0AC170C945B030C94991A0C9494160C9429
S2140004D0630D0C944F1A0C940B040C94540D0C944E
S2140004E05F130C9468180C94F6130C94B8170C94BD
S2140004F00E040C94411A0C941E240C94A8170C9409
S21400050028140C94BB1B0C94A5030C9465030C9444
S21400051030100C94580C0C94FD0C0C941B240C946A
S2140005200C0D0C94ED0E0C94F7030C94A4170C947D
S214000530C1140C94740D0C9468160C9405040C9459
S214000540B6170C94881C0C9415240C94DE030C949B
S214000550580B0C94101A0C9427240C94FE031124A8
S2140005601FBECFEFCDBFDFE3DEBF00E00CBF18BE7F
S21400057019BE1ABE1BBE13E2A0E0B0E2EEE4F2E63D
S21400058000E00BBF02C007900D92AC33B107D9F75D
S2140005901BBE25E2ACE3B3E201C01D92A73EB20744
S2140005A0E1F70E9421190C9425310C9400003BB70A
S2140005B08BBFFB0186913BBF08953BB78BBFFB010A
S2140005C0879196913BBF089542E070C041E06EC0AF
S2140005D08093C00188278093C1018093C20147E0C1
S2140005E055D0CB0108958093C40148E04FC0809158
S2140005F0D00108953BB748E10D9400003BB74AE1AF
S2140006000D9400003BB740E20D9400003BB78BBF53
S214000610CB0142E20D9400003BB70B0143E20D9480
S21400062000003BB78BBFCB0144E20D9400003BB704
S2140006308BBFCB0145E20D9400003BB746E20D941C
S21400064000003BB78BBFCB014AE20D9400003BB7DE
S2140006508BBFCB014CE20D9400003BB78BBFCB01A8
S2140006604DE20D94000048E311C049E30FC028EDA9
S2140006702093340021E02093CC0108952091CF01EF
S21400068027FDFCCF22272093CA0108954093CA0174
S21400069028ED31E0209334003093CB016091C40103
S2140006A07091C5018091C60199270895FC01409379
S2140006B0CA01849108952FEF8DE399E4215080407C
S2140006C09040E1F700C000000895009769F020E030
S2140006D030E0EFE6F7E13197F1F700C000002F5F5A
S2140006E03F4F28173907A9F70895BC0180EA99E01B
S2140006F00E94EF096AED72E280EA99E00E9497098B
S21400070008959195819591090895092E000CAA0BDC
S214000710BB0BAB01770F660B770B840F951FA61FDD
S214000720B71F811520E89207A105B10544F481158D
S21400073020E892072FEFA207B20724F008958FEF64
S2140007409FE7089581E090E80895092E000CAA0B13
S214000750BB0BAB01770F660B770B841B950BA60BB9
S214000760B70B811520E89207A105B10544F4811561
S21400077020E892072FEFA207B20724F008958FEF24
S2140007809FE7089581E090E808959C01DB010E94B0
S214000790F330611520E87207810591054CF4611568
S2140007A020E872072FEF820792072CF0CB010895FE
S2140007B08FEF9FE7089581E090E808950E949530B6
S2140007C0CB01089521E08617970709F020E0822FD5
S2140007D0089521E0681779070CF020E0822F08952D
S2140007E021E0861797070CF020E0822F089521E07D
S2140007F0861797070CF420E0822F089521E06817EB
S21400080079070CF420E0822F0895811102C0862F0C
S214000810089581E008958111862F089591E086134A
S21400082001C090E0892F089590ED980F9A3060F0FF
S2140008309FEB980F963010F4875308959FE9980F12
S214000840963020F487550895892F08958FEF0895E0
S214000850CF93DF93D62F0E941404C82F8D2F0E94AB
S214000860140490E1C99F90011124822BDF91CF914F
S2140008700895F89488ED84BF83E080938000FFCFCE
S214000880EF92FF920F931F93CF93DF93E82EEB0127
S2140008908901413071F580910220811128C0809134
S2140008A000209091012090588F3F9F47B0F06CEB4E
S2140008B070E280EA99E00E949709609100207091AA
S2140008C0012080EA99E00E94EF096DEC70E280EA70
S2140008D099E00E9497090E9439040E943E036091A5
S2140008E000207091012080E090E00E9417030E9493
S2140008F03904411156C0882309F453C0F12C2091C5
S214000900002030910120A901452F55274695CE019C
S214000910892F992786954817590741F1809102201B
S214000920811124C030582F3F3F47B0F06CEB70E287
S21400093080EA99E00E94970960910020709101205A
S21400094080EA99E00E94EF096DEC70E280EA99E097
S2140009500E9497090E9439040E943E03609100207D
S2140009607091012080E090E00E9417030E943E03F1
S214000970F801EF0DF11D618170E0762F662780810A
S214000980682BCE0191700E940C0310920220C09337
S2140009900020D09301202296F394F394FE1408F4DA
S2140009A0AECFDF91CF911F910F91FF90EF900895FA
S2140009B05F926F927F928F929F92AF92BF92CF92EA
S2140009C0DF92EF92FF920F931F93CF93DF93CDB7F3
S2140009D0DEB76097CDBFDEBF5C01F894DC011296EF
S2140009E06C91129711968C910E942804782EF5012E
S2140009F0648183810E942804582ED50116966C9136
S214000A00169715968C910E942804E82EF5016085AD
S214000A1087810E942804682EF52CF70CFE0CF80E31
S214000A20772009F18501065F1F4FCE0101966C0104
S214000A3088248A94870C912C96E0890E911C880C49
S214000A40991C8A0C9B1CF8013197D8016C91808107
S214000A500E942804F80EF60181936F010E5F1F4F67
S214000A600815190581F7E72DF0E03596EE0FFF1F04
S214000A70EA0DFB1DDF01119760818C910E9428040E
S214000A808F0D41F066EE70E280EA99E00E949709C9
S214000A900E9439046AE171E280EA99E00E949709AF
S214000AA0472D440F455FB50180EA99E00E94B309DF
S214000AB06E2D70E075299E012F5F3F4F462D872DC6
S214000AC00E9440046096CDBFDEBFDF91CF911F919C
S214000AD00F91FF90EF90DF90CF90BF90AF909F90D8
S214000AE08F907F906F905F900895CF93DF93CDB7F0
S214000AF0DEB7E297CDBFDEBFCE0101966C017E0168
S214000B0093E3E90EF11CAC2CBD2C0A2D1B2D80EABC
S214000B1099E00E946F0998012C193D09F80181930C
S214000B208F018A3041F4E2E0F0E0EC0FFD1FE20FA7
S214000B30F31F108203C0EE15FF0549F78A2D9B2D83
S214000B400E94D804E2CF0F931F93CF93DF93C0E1A8
S214000B50D7E280EA99E00E94910981110CC080E8F2
S214000B6094E00E947807811122C086EF8A95F1F7FB
S214000B70219779F71CC0C7E2D1E20BE211E280EAC6
S214000B8099E00E946F099991981311C0C017D10778
S214000B90B1F780EA99E00E946F09853541F46CE26E
S214000BA071E280EA99E00E9497090E947505DF913C
S214000BB0CF911F910F9108950F931F93CF93DF93BB
S214000BC0CDB7DEB7E297CDBFDEBF8C0169E471E238
S214000BD080EA99E00E94970942E3BE016F5F7F4F6B
S214000BE080E894E00E9485079981933711F4F80114
S214000BF0199599819A3339F063E571E280EA99E0B4
S214000C000E9497090BC061E771E280EA99E00E94B2
S214000C109709CE0101960E94D804D8CFE296CDBFA0
S214000C20DEBFDF91CF911F910F91089581E58093EC
S214000C30C0080895FC01638392819923ECF78381B1
S214000C40089521E030E002C0220F331F6A95E2F7D4
S214000C50FC012583FAE0FA95F1F700C0089521E03B
S214000C6030E002C0220F331F6A95E2F7FC012683AC
S214000C70FAE0FA95F1F700C008951F93CF93DF933B
S214000C80EC01162F642F0E941A06612FCE010E94D7
S214000C901A0660E0CE010E941A06DF91CF911F91DE
S214000CA008950F931F93CF93DF93EC01062F142F15
S214000CB0622F0E941A06602FCE010E941A06612F2C
S214000CC0CE010E941A06DF91CF911F910F910895D1
S214000CD0FC01DA011A969C9191FF04C0309749F006
S214000CE0199508956115710521F0FA018485FB01B7
S214000CF0199508951F920F920FB60F92112408B6F9
S214000D000F9218BE09B60F9219BE0BB60F921BBEF5
S214000D102F933F934F935F936F937F938F939F93FE
S214000D20AF93BF93EF93FF93609145237091462353
S214000D3040E854E080914D2390914E230E9468062F
S214000D40FF91EF91BF91AF919F918F917F916F919E
S214000D505F914F913F912F910F900BBE0F9009BE60
S214000D600F9008BE0F900FBE0F901F9018951F9201
S214000D700F920FB60F92112408B60F9218BE09B63E
S214000D800F9219BE0BB60F921BBE2F933F934F9335
S214000D905F936F937F938F939F93AF93BF93EF93DE
S214000DA0FF93609143237091442340E954E080917F
S214000DB04B2390914C230E946806FF91EF91BF91C0
S214000DC0AF919F918F917F916F915F914F913F91DE
S214000DD02F910F900BBE0F9009BE0F9008BE0F907C
S214000DE00FBE0F901F9018951F920F920FB60F927E
S214000DF0112408B60F9218BE09B60F9219BE0BB68C
S214000E000F921BBE2F933F934F935F936F937F93E7
S214000E108F939F93AF93BF93EF93FF93609141237C
S214000E207091422340EA54E08091492390914A23EE
S214000E300E946806FF91EF91BF91AF919F918F91AD
S214000E407F916F915F914F913F912F910F900BBEC5
S214000E500F9009BE0F9008BE0F900FBE0F901F9008
S214000E6018951F920F920FB60F92112408B60F9284
S214000E7018BE09B60F9219BE0BB60F921BBE2F9363
S214000E803F934F935F936F937F938F939F93AF930D
S214000E90BF93EF93FF9360913F237091402340EB05
S214000EA054E080914723909148230E946806FF9162
S214000EB0EF91BF91AF919F918F917F916F915F91CD
S214000EC04F913F912F910F900BBE0F9009BE0F9040
S214000ED008BE0F900FBE0F901F901895FC018EE174
S214000EE080878085806280878085806C8087089573
S214000EF0FC01228526FF07C0828581FB992790F991
S214000F0081E08927089580E00895FC0110923D2332
S214000F1010923E2310923C2380E4828750E020E823
S214000F20828586FF04C081E080933C231BC08285B7
S214000F308823B4F780913D2390913E2348175907A4
S214000F408CF080913D2390913E23DC011196A09376
S214000F503D23B0933E233485DB01A80FB91F3C9395
S214000F602287DECF80913C230895FC01828586FF90
S214000F70FDCF828581FF26C08285806C828764874C
S214000F8081858B7F81878185826081870EC082857F
S214000F9083FD03C0828582FF08C0828584608287C5
S214000FA08285806C828780E00895828588237CF322
S214000FB080E58A95F1F7828586FFDECF828580FD03
S214000FC0DBCF02C080E008958285806C828781E056
S214000FD00895603924E0720791F024F46038744074
S214000FE049F01CC0603A24E0720771F0603B744020
S214000FF081F014C080934D2390934E2308958093E0
S2140010004B2390934C2308958093492390934A232F
S214001010089580934723909348230895FFCF60391F
S21400102024E0720791F024F46038744049F01CC044
S214001030603A24E0720771F0603B744081F014C09F
S214001040809345239093462308958093432390935B
S21400105044230895809341239093422308958093D8
S2140010603F23909340230895FFCF8F708A3010F06F
S214001070895C0895805D08952F923F924F925F920B
S2140010806F927F928F929F92AF92BF92CF92DF9293
S214001090EF92FF920F931F93CF931C012A013B01FF
S2140010A048015901D901C801689412F8B695A79568
S2140010B0979587951694D1F7B901A801032E36E1C6
S2140010C076956795579547953A95D1F7302DF10166
S2140010D0248122FD08C0B695A795979587957695A5
S2140010E067955795479584159505A605B70508F4A1
S2140010F0AEC0441655066606770608F4AAC0F10187
S214001100848182FD04C0440C551C661C771CC501F6
S214001110B401A30192010E94A9302F3F3105410579
S214001120510508F498C0C12CD12C7601CA94C9EF99
S21400113005C02C153D054E055F0568F0CC0CDD1C82
S214001140EE1CFF1CCD3F14F46894C0F8CF5FC73088
S21400115081F78C2F56C08C2FCC230CF052C0D301B5
S214001160C201880F991FAA1FBB1F880F991FAA1FAD
S214001170BB1F880F991FAA1FBB1F85017401E81AA1
S214001180F90A0A0B1B0BD801C701CE3FF4F42DEF6A
S2140011903FEF2C1B3109C7FD339504C0880F991FFC
S2140011A0AA1FBB1F2A95D2F773016201F694E79433
S2140011B0D794C794BC01CD016C0D7D1D8E1D9F1D5F
S2140011C0A30192010E94A93038C023E02C0F8301AE
S2140011D0720104C0EE0CFF1C001F111F2A95D2F7E7
S2140011E0A801970167017801F694E794D794C7940D
S2140011F0BC01CD016C0D7D1D8E1D9F1D0E94A9306A
S2140012001CC08D5FA301920104C0220F331F441F30
S214001210551F8A95D2F7DA01C901B695A795979515
S2140012208795BC01CD01680D791D8A1D9B1D0E9406
S214001230A9302150310941095109832F8F70C29579
S214001240C07FC82BF101C783268381E01CC080E0E5
S2140012501AC080E018C0D301C201880F991FAA1FC8
S214001260BB1F880F991FAA1FBB1F880F991FAA1F95
S214001270BB1F85017401E81AF90A0A0B1B0BD8017B
S214001280C701C9EF84CFCF911F910F91FF90EF90C8
S214001290DF90CF90BF90AF909F908F907F906F9091
S2140012A05F904F903F902F9008950F931F93CF938A
S2140012B0DF93EC010E943C088FE59AEE0197F1F768
S2140012C000C0000088E18C83DF91CF911F910F91C1
S2140012D00895FC01918195FFFDCF60830895FC0180
S2140012E091819923ECF780810895FC0161157105C1
S2140012F099F08181882334F020E030E005C09181A8
S214001300992314F48081089588E08A95F1F72F5F79
S2140013103F4F2617370799F781E0FA01808380E070
S2140013200895FC018181881F8827881F0895EF9201
S214001330FF920F931F93CF93FB016081662369F0A2
S2140013408F017C01C0E0C7010E946909CF5FF801E8
S214001350EC0FF11D60816111F6CFCF911F910F91B7
S214001360FF90EF900895EF92FF920F931F93CF9305
S214001370DF93442381F07C01EB014150042F10E001
S2140013800F5F1F4F060F171F6991C7010E9469095B
S214001390C017D107C9F7DF91CF911F910F91FF902A
S2140013A0EF9008951F93CF93DF93EC01162F66E717
S2140013B071E20E949709812F82958F700E943508EE
S2140013C0682FCE010E946909812F0E943508682F78
S2140013D0CE010E946909DF91CF911F9108950F9366
S2140013E01F93CF93DF938C01EB01DD2334F4D1956B
S2140013F0C195D1096DE20E946909CE0160E177E2EC
S2140014000E949530662331F0605DC8010E9469092C
S21400141021E001C020E0CE0168EE73E00E94953026
S214001420CB016AE070E00E949530882389F060E383
S214001430680FC8010E946909CE0164E670E00E9448
S2140014409530CB016AE070E00E949530682F0FC09F
S214001450CE0164E670E00E949530CB016AE070E051
S2140014600E949530682F811102C02223F1F0605D42
S214001470C8010E9469092AE030E0CE01B9010E9445
S2140014809530CB01B9010E949530682F605DC80188
S2140014900E946909CE016AE070E00E94953060E320
S2140014A0680FC8010E9469090EC02AE030E0CE012C
S2140014B0B9010E949530CB01B9010E949530682F82
S2140014C0882341F3E3CFDF91CF911F910F910895C9
S2140014D0FC01818185FB882780F9089590E00E94B1
S2140014E0AC1E08950E94ED1C8823E1F30E94461D61
S2140014F00895EF92FF920F931F93CF93DF938C0183
S2140015007B01892B81F0C0E0D0E00E94ED1C88238F
S21400151019F00E94461D0BC088E08A95F1F72196C7
S214001520C017D10791F781E0F701808380E0DF9153
S214001530CF911F910F91FF90EF9008950E94581E33
S21400154008950F931F93CF93FC018081882361F049
S2140015508F01C0E090E00E94AC1ECF5FF801EC0F58
S214001560F11D80818111F6CFCF911F910F910895C3
S2140015700F931F93CF93DF93662379F0EC016150AE
S214001580062F10E00F5F1F4F080F191F899190E07C
S2140015900E94AC1EC017D107C9F7DF91CF911F91EB
S2140015A00F910895CF93C82F86E791E20E94A10A73
S2140015B08C2F82958F700E94350890E00E94AC1E9A
S2140015C08C2F0E94350890E00E94AC1ECF910895A3
S2140015D0CF93DF93EC0199233CF4D195C195D109C3
S2140015E08DE290E00E94AC1ECE0160E177E20E94A0
S2140015F09530662339F080E3860F90E00E94AC1E9B
S21400160021E001C020E0CE0168EE73E00E94953034
S214001610CB016AE070E00E949530882379F0805D07
S21400162090E00E94AC1ECE0164E670E00E94953009
S214001630CB016AE070E00E9495300EC0CE0164E6F1
S21400164070E00E949530CB016AE070E00E94953011
S214001650811102C02223E1F0805D90E00E94AC1E62
S2140016602AE030E0CE01B9010E949530CB01B901E5
S2140016700E949530805D90E00E94AC1ECE016AE02C
S21400168070E00E949530805D90E00E94AC1E0DC018
S2140016902AE030E0CE01B9010E949530CB01B901B5
S2140016A00E949530882351F3E5CFDF91CF910895BE
S2140016B00F931F93CF93DF931F92CDB7DEB769E7E3
S2140016C071E280EA99E00E949709198200EB1AE01D
S2140016D028E041E0BE016F5F7F4F8CE40E949912C4
S2140016E00F90DF91CF911F910F910895CF93809126
S2140016F05123882329F0C0915023C11106C00AC087
S214001700C0914F23C11104C005C00E94580B02C0EF
S2140017100E94580B8C2FCF910895CF939091512310
S214001720891313C0C82F81E08093502310924F2353
S2140017300E94580B80915123C81307C01092502363
S21400174081E080934F230E94580BCF91089508950F
S214001750CF93DF93E0E2F7E080818F7E8083808105
S2140017608F7D8083E5E3F7E0D8E1D083C2E0C083D5
S2140017706CE971E280EA99E00E949709E4E3F7E0F9
S214001780D083C08364EB71E280EA99E00E949709F7
S214001790EAE2F7E0808180618083808180628083D6
S2140017A0E9E2F7E0808181608083DF91CF91089540
S2140017B0EAE2F7E0808180618083808180628083B6
S2140017C0E4E3F7E0808182608083E5E3F7E08081F0
S2140017D082608083E9E2F7E08081816080830895FB
S2140017E0CF93C82F0E94A80B2FE782E392E02150E8
S2140017F080409040E1F700C000009091280794FDDB
S21400180019C0C1111CC048C0C11121C01CC08091A4
S2140018104F2381110DC01FC0C11143C025C0C11187
S21400182027C02AC08091280785FD2CC080E03EC0D6
S21400183080E03CC08091280785FFE6CF08C081E0A5
S2140018408093502327C081E080934F2323C080914C
S21400185050238111DCCF8091280784FFDDCF809153
S214001860280785FFDCCF08C081E0809350230EC098
S21400187081E080934F230AC08091280784FDD2CF51
S21400188080E014C01092502310924F230E94D80B71
S21400189081E00CC080E00AC08091280785FFD3CF86
S2140018A0D6CF8091280785FFE3CFE6CFCF91089566
S2140018B0EF92FF920F931F93CF93DF93CDB7DEB7D0
S2140018C02897CDBFDEBF182F809351230E94F00BC0
S2140018D0882331F1EE24E394F12EFE24F88600EB03
S2140018E01AE028E041E0BE01685F7F4F8AE40E946C
S2140018F09912BE016F5F7F4F87E0FB0111928A95B8
S214001900E9F783E0898386E68A838FEF8B838C836F
S214001910EE82EF82FD8228E047E086E40E9499127C
S2140019202896CDBFDEBFDF91CF911F910F91FF901C
S214001930EF900895611103C08093220708956130E7
S21400194011F4809321070895662319F080932507E4
S214001950089580932607089590912807982381E09C
S21400196009F480E00895982F462F50E0FA01319749
S214001970EC30F10508F0B6C08827E250FF4F8F4FD5
S2140019800C94EA30992321F080E88093250703C061
S21400199080E88093260780912807881F8827881F5D
S2140019A00895992321F080E48093250703C080E4FE
S2140019B0809326078091280786FB882780F908955C
S2140019C0992321F080E28093250703C080E280936C
S2140019D026078091280785FB882780F90895992394
S2140019E021F080E18093250703C080E180932607DD
S2140019F080912807829581700895992321F088E0C8
S214001A008093250703C088E08093260780912807E7
S214001A1083FB882780F90895992321F084E080933A
S214001A20250703C084E0809326078091280782FB61
S214001A30882780F90895992321F082E0809325076E
S214001A4003C082E0809326078091280786958170E0
S214001A500895992321F081E08093250703C081E053
S214001A60809326078091280781700895992321F096
S214001A7080E88093050703C080E88093060780917E
S214001A800807881F8827881F0895992321F080E477
S214001A908093050703C080E48093060780910807BB
S214001AA086FB882780F90895992321F080E88093A3
S214001AB0E50603C080E88093E6068091E806881F66
S214001AC08827881F0895992321F080E48093E506EF
S214001AD003C080E48093E6068091E80686FB8827AC
S214001AE080F9089580E00895089521E08617970705
S214001AF009F020E0822F08950F931F93E0EEF6E0A2
S214001B009081906C9083813059F018F0823079F093
S214001B1014C0E6EEF6E080E8808380E480830DC0A3
S214001B20E5EEF6E080E8808380E4808306C080E807
S214001B308093E60680E48093E50600E117E220E065
S214001B4030E040E060E480E097E00E94770FCB0151
S214001B501F910F910895FF920F931F93CF93DF93DA
S214001B60F82E062F142F82958F700E943508C3E03A
S214001B70D0E289838F2D0E9435088A83802F829534
S214001B808F700E9435088B83802F0E9435088C83C7
S214001B90812F82958F700E9435088D83812F0E9439
S214001BA035088E838FE295E70197F1F700C00000B5
S214001BB0CE01DF91CF911F910F91FF90089580384D
S214001BC010F08FEF089580E00895009769F1633074
S214001BD098F4A0E0B0E09C01AD012C573109410912
S214001BE05109AFEFB0E00E94113122E93FEF4FEF0D
S214001BF05FEF0E94CB3004C020E030E040E050E0D1
S214001C00822F932FA42FB52FBB231CF480E090E0E7
S214001C10DC018F3F9105A105B10539F034F08FEF57
S214001C2090E0A0E0B0E0089580E00895262F6623B7
S214001C30B9F0FC013FEF360FA32FB0E01196AA0FC4
S214001C40BB1FA80FB91F60E070E0CB014191519116
S214001C50640F751F811D911DEA17FB07B9F703C0B6
S214001C6060E070E0CB0130E040E050E00E94A93038
S214001C70C9010895442349F08617970741F480E088
S214001C808F5F8413FDCF81E0089581E0089580E0A2
S214001C900895FC013081332389F1319660E070E0CD
S214001CA0CB0120ED230F2A3078F02FE9230F2630C2
S214001CB018F429EA230F08C02FEB230F263018F458
S214001CC029EC230F01C0232FDC01CB01880F991FBD
S214001CD0AA1FBB1F880F991FAA1FBB1F880F991F1B
S214001CE0AA1FBB1F880F991FAA1FBB1F2F70BC01FE
S214001CF0CD01622B31913111D4CF089560E070E0B0
S214001D00CB010895CF93DF9300D0CDB7DEB720E3A5
S214001D1030E340E029833A834B83FC018181928142
S214001D2089839A83CE0101960E94490E862F2396B8
S214001D30CDBFDEBFDF91CF910895CF93DF9300D064
S214001D40CDB7DEB720E330E340E029833A834B8308
S214001D50FC018381948189839A83CE0101960E9437
S214001D60490E862F2396CDBFDEBFDF91CF91089513
S214001D70CF93DF9300D0CDB7DEB720E330E340E06B
S214001D8029833A834B83FC018581968189839A83D4
S214001D90CE0101960E94490E862F2396CDBFDEBF48
S214001DA0DF91CF9108950F931F93CF938C010E94DC
S214001DB0820E882311F0C4E001C0C0E0C8010E9472
S214001DC09D0E8111C260C8010E94B80E8111C160CB
S214001DD08C2FCF911F910F910895AF92BF92CF9203
S214001DE0DF92FF920F931F93CF93DF93CDB7DEB7AB
S214001DF02D97CDBFDEBF5E018BE0A80EB11CF12C87
S214001E0065011BC08F2D0E947C0DF8018193919374
S214001E108F01EC15FD05B1F765E0CE0101960E9435
S214001E20160E6F2D0E94E50D0E94DF0DF5018193C1
S214001E305F01F394F3E0FF1621F08E010F5F1F4F52
S214001E40E1CF4D856C858B850E94AB0D0E94D30E2D
S214001E5090E02D96CDBFDEBFDF91CF911F910F9101
S214001E60FF90DF90CF90BF90AF9008954F925F9213
S214001E706F927F92AF92BF92CF92DF92EF92FF92D5
S214001E800F931F93CF93DF93CDB7DEB729013A01A7
S214001E909B01AC0124193509460957098A899B8993
S214001EA0AC89BD89BC01CD016A197B098C099D09E5
S214001EB00E947130A801970124193509460957096F
S214001EC00E94CB30CA01B9016A0D7B1D8C1D9D1D79
S214001ED0DF91CF911F910F91FF90EF90DF90CF9001
S214001EE0BF90AF907F906F905F904F9008958F92C5
S214001EF09F92AF92BF92CF92DF92EF92FF920F9394
S214001F001F93FC01862F442311F0A62F01C0A0E0EA
S214001F10B901A801440F551F661F771F040F151F30
S214001F20261F371F36952795179507953F7040E073
S214001F3050E0BA010FC06A017B019FEFC91AD90AA7
S214001F40E90AF90A401751076207730709F46CC0DB
S214001F50B701A60190859823A91769F30FC06A01F7
S214001F607B019FEFC91AD90AE90AF90A40175107F7
S214001F706207730709F45CC0B701A6019085982331
S214001F80A913EDCF90859823A91320C00417150731
S214001F902607370709F450C0C12CD12C76010CC097
S214001FA04A015B018C0C9D1CAE1CBF1C0815190554
S214001FB02A053B0509F444C09FEFC91AD90AE90A65
S214001FC0F90A90859823A91759F303C0C12CD12C80
S214001FD07601B701A601440F551F661F771F440FF1
S214001FE0551F661F771FDB01CA01880F991FAA1F9E
S214001FF0BB1F880F991FAA1FBB1F840F951FA61F04
S214002000B71F8C0D9D1DAE1DBF1DBC01CD01605FB1
S2140020107F4F8F4F9F4F28E130E040E050E00E9416
S214002020A930CA01B9010FC060E070E0CB010BC057
S21400203060E070E0CB0107C060E070E0CB0103C059
S21400204060E070E0CB011F910F91FF90EF90DF9062
S214002050CF90BF90AF909F908F90089580E00895A6
S2140020600F931F93CF93DF931F92CDB7DEB71982DE
S21400207000EB1AE02AE041E0BE016F5F7F4F8CE480
S2140020800E9499120F90DF91CF911F910F910895A2
S2140020908091280786FD08C00E94301081E080935A
S2140020A0532310925223089580912807882344F0E2
S2140020B00E9430101092532381E08093522308959B
S2140020C01092532310925223089581E08093532355
S2140020D0109252230E94301008951092532381E0EC
S2140020E0809352230E9430100895E0E2F7E090813A
S2140020F0282F2095922390839081262F2095922337
S2140021009083883029F138F48230B1F08430D1F0F1
S2140021108130D9F50BC0803239F118F48031F1F0F6
S21400212034C0803439F1803859F12FC0E0E3F7E04D
S21400213080818861808329C0E1E3F7E0808188613F
S214002140808323C0E2E3F7E08081886180831DC03E
S214002150E3E3F7E080818861808317C0E4E3F7E07B
S21400216080818861808311C0E5E3F7E08081886123
S21400217080830BC0E6E3F7E080818861808305C03A
S214002180E7E3F7E0808188618083683029F138F4DE
S2140021906230B1F06430D1F06130D9F50BC06032F6
S2140021A039F118F46031F1F00895603439F160388F
S2140021B059F10895E0E3F7E080818861808308950F
S2140021C0E1E3F7E08081886180830895E2E3F7E049
S2140021D08081886180830895E3E3F7E080818861E9
S2140021E080830895E4E3F7E0808188618083089522
S2140021F0E5E3F7E08081886180830895E6E3F7E011
S2140022008081886180830895E7E3F7E080818861B4
S21400221080830895EBE2F7E09081982B908390817D
S214002220692B6083843009F128F4813041F08230D4
S21400223089F03BC0883021F1803169F136C0E0E397
S214002240F7E0808182608083E1E3F7E0808182604E
S21400225080832BC0E1E3F7E0808182608083E2E345
S214002260F7E080818260808320C0E2E3F7E080812F
S21400227082608083E3E3F7E080818260808315C01C
S214002280E2E3F7E0808182608083E4E3F7E0808128
S214002290826080830AC0E2E3F7E080818260808308
S2140022A0E5E3F7E0808182608083E9E2F7E0808101
S2140022B084608083089560E880E40E9475102FE7AC
S2140022C082E392E0215080409040E1F700C0000099
S2140022D08091280786FD27C080915423811128C04D
S2140022E022C080915423811127C015C080915223AB
S2140022F0811117C025C08091542381110CC03AC0AB
S21400230080915423811129C024C0809128078823F6
S21400231054F180E0089560E880E40E940A1181E0AC
S214002320089580E008958091280786FFDACF04C0DC
S21400233081E0809353231CC0809153238111D6CF14
S214002340809128078823BCF6809128078823C4F646
S21400235004C081E0809352230BC08091280786FD3D
S214002360D4CF80E008951092532310925223D3CFF7
S21400237080E008958091280788235CF7EECFFF92CF
S2140023800F931F93CF93DF93CDB7DEB72897CDBFBC
S214002390DEBFF82E0E945B11882321F1F0925423B1
S2140023A0F88600EB1AE027E041E0BE01685F7F4F49
S2140023B08AE40E949912BE016F5F7F4F87E0FB019F
S2140023C011928A95E9F781E08F8389838CE28A836C
S2140023D083E18B8388E88C83FD8227E047E086E4F0
S2140023E00E9499122896CDBFDEBFDF91CF911F9134
S2140023F00F91FF90089580915323811107C080E0CC
S2140024000E94BF11809153238823C9F380915223E1
S214002410811107C081E00E94BF118091522388235A
S214002420C9F30895DF92EF92FF920F931F93CF9315
S214002430DF93CDB7DEB72897CDBFDEBF8C010E94F5
S2140024405B11882369F10115110531F0EE24FF2494
S214002450E01AF10AD12C04C0E12CF12CDD24D3942F
S214002460D88600EB1AE027E041E0BE01685F7F4FA8
S2140024708AE40E949912BE016F5F7F4F87E0FB01DE
S21400248011928A95E9F781E08F83898380E98A83B0
S214002490FB82EC82DD8227E047E086E40E94991208
S2140024A02896CDBFDEBFDF91CF911F910F91FF9091
S2140024B0EF90DF900895DF92EF92FF920F931F93B5
S2140024C0CF93DF93CDB7DEB72897CDBFDEBFF82E0C
S2140024D0E62ED72E0E945B11882301F1F88600EBCA
S2140024E01AE027E041E0BE01685F7F4F8AE40E9461
S2140024F09912BE016F5F7F4F87E0FB0111928A95AC
S214002500E9F781E08F8389838CE28A83DB82EC8221
S214002510FD8227E047E086E40E9499122896CDBF08
S214002520DEBFDF91CF911F910F91FF90EF90DF906C
S2140025300895CF92DF92EF92FF920F931F93CF935F
S214002540DF93D82E7B01D42FC22EF894CCEFC81B75
S214002550C41BC21B442361F0FB01AFEFA40FB0E025
S2140025601196A60FB71F9191C91BEA17FB07D9F75B
S2140025706FEFC8010E9469096FEFC8010E946909E0
S2140025806C2DC8010E94690963E06D0FC8010E94A6
S214002590690960E0C8010E9469096D2DC8010E94A2
S2140025A069094D2FB701C8010E94B3096C2FC801F5
S2140025B00E9469092FE782E392E021508040904014
S2140025C0E1F700C000007894DF91CF911F910F9142
S2140025D0FF90EF90DF90CF9008950F931F93CF93C7
S2140025E0DF931F92CDB7DEB7262F898300EB1AE064
S2140025F041E0BE016F5F7F4F8AE40E9499120F9000
S214002600DF91CF911F910F910895CF92DF92EF92B5
S214002610FF920F931F93CF93DF93CDB7DEB7289724
S214002620CDBFDEBF6230710561F020F46130710508
S214002630A9F039C06330710541F06430710551F07E
S21400264032C06894CC24C1F80BC00F2EF3E0CF2E16
S214002650F02D06C06894CC24C2F802C0CC24C394E3
S214002660D52EE42EF82E888700EB1AE02C2D41E0BC
S214002670BE01685F7F4F8AE40E949912BE016F5FB9
S2140026807F4F87E0FB0111928A95E9F78FEF8B83E6
S2140026908C8381E08F83D982EA82FD822C2D47E0ED
S2140026A086E40E9499122896CDBFDEBFDF91CF91B7
S2140026B01F910F91FF90EF90DF90CF9008950F93AA
S2140026C01F93CF93DF931F92CDB7DEB7823091056D
S2140026D051F018F4019769F017C08330910529F07E
S2140026E0049729F011C022E005C023E003C024E0CF
S2140026F001C021E0198200EB1AE041E0BE016F5FE5
S2140027007F4F8CE40E9499120F90DF91CF911F911A
S2140027100F910895CF92DF92EF92FF920F931F933F
S214002720CF93DF93CDB7DEB72897CDBFDEBF61303E
S214002730710541F06230710571F50F2EF6E0CF2E6F
S214002740F02D04C00F2EF5E0CF2EF02DD52EE42E62
S214002750F82E888700EB1AE02C2D41E0BE01685F5A
S2140027607F4F8AE40E949912BE016F5F7F4F87E019
S214002770FB0111928A95E9F78FEF8B838C8382E0B9
S2140027808E8381E08F83D982EA82FD822C2D47E0FA
S21400279086E40E9499122896CDBFDEBFDF91CF91C6
S2140027A01F910F91FF90EF90DF90CF9008950F93B9
S2140027B01F93CF93DF931F92CDB7DEB7813091057D
S2140027C021F0029769F426E001C025E0198200EBAB
S2140027D01AE041E0BE016F5F7F4F8CE40E949912C1
S2140027E00F90DF91CF911F910F9108950F931F9334
S2140027F0CF93DF93CDB7DEB72897CDBFDEBF188661
S21400280000EB1AE02AE041E0BE01685F7F4F8AE4F1
S2140028100E949912BE016F5F7F4F87E0FB01119205
S2140028208A95E9F78FEF8B838C8381E08F8383E033
S214002830898388EE8A832AE047E086E40E9499121C
S2140028402896CDBFDEBFDF91CF911F910F910895DF
S2140028500F931F93CF93DF931F92CDB7DEB71982E6
S21400286000EB1AE02AE041E0BE016F5F7F4F8CE488
S2140028700E9499120F90DF91CF911F910F910895AA
S2140028800F931F93CF93DF931F92CDB7DEB7698365
S21400289000EB1AE0282F41E0BE016F5F7F4F85E016
S2140028A00E9499120F90DF91CF911F910F9108957A
S2140028B0E7EEF6E08081806380830895882331F018
S2140028C0E6EEF6E08081806380830895E5EEF6E02C
S2140028D08081806380830895CF93DF93D82FC62F9F
S2140028E06AEC71E280EA99E00E949709C33049F1E8
S2140028F028F4C130D1F1C23071F140C0C53069F062
S214002900B0F0C630D9F5DD2321F082E08093E507EC
S21400291035C082E08093E60731C0DD2321F081E0F8
S2140029208093E5072BC081E08093E60727C0DD2370
S21400293021F088E08093C50721C088E08093C60711
S2140029401DC0DD2321F084E08093C50717C084E016
S2140029508093C60713C0DD2321F082E08093C5076D
S2140029600DC082E08093C60709C0DD2321F081E018
S2140029708093C50703C081E08093C607DF91CF919F
S2140029800895982F862F692F0E946C140895CF9370
S214002990C82F682F81E00E946C142FEF85EA9EE016
S2140029A0215080409040E1F700C000006C2F80E08E
S2140029B00E946C14CF9108956091562380E894E0AD
S2140029C00E94B50708956091552380E894E00E9420
S2140029D0B5070895009709F45CC1803C910529F479
S2140029E060E180E00E94022C0895803424E0920783
S2140029F029F468E080E00E94022C0895811524E006
S214002A00920729F464E080E00E94022C0895803842
S214002A1021E0920729F462E080E00E94022C0895EB
S214002A20811521E0920729F461E080E00E94022CE3
S214002A300895803823E0920729F461E081E00E943F
S214002A40022C0895803923E0920729F461E082E0A1
S214002A500E94022C0895811522E0920729F462E074
S214002A6081E00E94022C0895803422E0920729F427
S214002A7062E082E00E94022C0895811523E092070E
S214002A8029F464E081E00E94022C0895803223E05D
S214002A90920729F464E082E00E94022C08958115D2
S214002AA028E0920729F461E083E00E94022C089552
S214002AB0811529E0920729F461E084E00E94022C47
S214002AC0089581152AE0920729F461E085E00E94C6
S214002AD0022C089581152BE0920729F461E086E028
S214002AE00E94022C0895803428E0920729F462E0C0
S214002AF083E00E94022C0895803429E0920729F48E
S214002B0062E084E00E94022C089580342AE0920756
S214002B1029F462E085E00E94022C089580342BE0C0
S214002B20920729F462E086E00E94022C089580391C
S214002B3028E0920729F464E083E00E94022C0895BE
S214002B40803929E0920729F464E084E00E94022C90
S214002B50089580392AE0920729F464E085E00E940F
S214002B60022C089580392BE0920729F464E086E071
S214002B700E94022C0895803C28E0920729F468E021
S214002B8083E00E94022C0895803C29E0920729F4F5
S214002B9068E084E00E94022C0895803C2AE09207B8
S214002BA029F468E085E00E94022C0895803C2BE022
S214002BB0920729F468E086E00E94022C0895803A85
S214002BC028E0920729F460E183E00E94022C089531
S214002BD0803A29E0920729F460E184E00E94022C02
S214002BE00895803A2AE0920729F460E185E00E9481
S214002BF0022C0895803A2BE0920729F460E186E0E3
S214002C000E94022C0895803B28E0920729F460E297
S214002C1083E00E94022C0895803B29E0920729F465
S214002C2060E284E00E94022C0895803B2AE092072E
S214002C3029F460E285E00E94022C0895803B2BE098
S214002C40920729F460E286E00E94022C08958038FC
S214002C5024E0920729F460E483E00E94022C0895A1
S214002C60803924E0920729F460E484E00E94022C74
S214002C700895803A24E0920729F460E485E00E94F3
S214002C80022C0895803B944021F460E486E00E9484
S214002C90022C0895982F462F50E0FA013197EC3019
S214002CA0F10508F0B6C08827E65FFE4F8F4F0C94FC
S214002CB0EA30992321F080E88093250703C080E856
S214002CC08093260780912807881F8827881F0895E5
S214002CD0992321F080E48093250703C080E4809345
S214002CE026078091280786FB882780F90895992370
S214002CF021F080E28093250703C080E280932607B8
S214002D008091280785FB882780F90895992321F06C
S214002D1080E18093250703C080E180932607809199
S214002D202807829581700895992321F088E0809382
S214002D30250703C088E0809326078091280783FB39
S214002D40882780F90895992321F084E08093250749
S214002D5003C084E0809326078091280782FB88279B
S214002D6080F90895992321F082E08093250703C017
S214002D7082E08093260780912807869581700895C3
S214002D80992321F081E08093250703C081E080939A
S214002D9026078091280781700895992321F080E8FE
S214002DA08093050703C080E8809306078091080794
S214002DB0881F8827881F0895992321F080E4809330
S214002DC0050703C080E4809306078091080786FB0A
S214002DD0882780F90895992321F080E88093E506F6
S214002DE003C080E88093E6068091E806881F88275F
S214002DF0881F0895992321F080E48093E50603C098
S214002E0080E48093E6068091E80686FB882780F9B2
S214002E10089580E00895682F81E00E944A1608957C
S214002E20AAECB1E022E02C93FC0184911C92089558
S214002E30FC01633089F028F4613041F0623049F0DB
S214002E401DC0643061F0653069F018C088E0818389
S214002E500BC080E1818308C088E1818305C080E2E1
S214002E60818302C088E28183808180688083938129
S214002E7090FFFDCF81E083838481089580E00895EC
S214002E8080960E94181708950F931F93CF93DF9391
S214002E90EC01C11582E0D80779F480B590E00E9475
S214002EA0101700E012E0F801848781B590E00E94D8
S214002EB01017F801858714C0C034F2E0DF0779F4F4
S214002EC084B590E00E94101700E412E0F8018487B1
S214002ED085B590E00E941017F801858701C0FFCFE6
S214002EE082E0888380E28A8384E089838C83888179
S214002EF08160888381E088A31092220261E0CE017F
S214002F000E94401761E0CE010E944017DF91CF91EA
S214002F101F910F910895682F80E092E00E9440175D
S214002F2090E0FC01FC97E43CF105F0F48827EA5EAB
S214002F30FE4F8F4F0C94EA3085E0089587E00895A1
S214002F4088E0089589E008958AE008958BE0089562
S214002F508CE008958DE008958EE0089580E1089550
S214002F6084E1089589E108958EE1089584E0089546
S214002F70682F80E092E00E94401790E00895CF937B
S214002F80DF93CDB7DEB72B97CDBFDEBF60E874E02A
S214002F9083EE94E10E94E9070F2EF6EECF2EF6E0C0
S214002FA0DF2EF02D0F2EF7E09F2EF02DCE0101968E
S214002FB05C010F2EFCE47F2EF02D0F2EF2E38F2EF9
S214002FC0F02D0F2EF5EEEF2EF6E0FF2EF02D80E81A
S214002FD094E00E9478078823D1F3F601808180630D
S214002FE0808343E0BE01685F7F4F80E894E00E94E4
S214002FF085078FE697E10197F1F700C00000E0E84B
S214003000F4E08285806C82878885811120C08A855D
S2140030108B8700EB1AE0298541E0BE01655F7F4F94
S2140030208AE40E949912F501892D11928A95E9F792
S21400303081E089837A828C828E838F838A858D83D2
S2140030402985492DB50186E40E94991208C0813071
S21400305031F4898590E00E94B81780935523F701D4
S214003060808180638083B3CF8FE3809302070895C7
S2140030708230A9F028F4882349F0813059F026C020
S2140030808430C9F090F08530D9F020C080910807D0
S21400309081700895809108078695817008958091C3
S2140030A0080782FB882780F908958091080783FB2C
S2140030B0882780F908958091080782958170089581
S2140030C08091080785FB882780F9089580E0089599
S2140030D00E94381808951F920F920FB60F9211246F
S2140030E008B60F9218BE09B60F9219BE0AB60F920E
S2140030F01ABE0BB60F921BBE2F933F934F935F9350
S2140031006F937F938F939F93AF93BF93CF93DF93EA
S214003110EF93FF93E8E2F7E0C081C071D0816BEDDA
S21400312071E280EA99E00E949709D5FD09C06EEE2B
S21400313071E280EA99E00E94970980E00E948D0B78
S214003140C11109C061E172E280EA99E00E94970924
S21400315081E00E948D0BFF91EF91DF91CF91BF919F
S214003160AF919F918F917F916F915F914F913F911A
S2140031702F910F900BBE0F900ABE0F9009BE0F90B6
S21400318008BE0F900FBE0F901F9018951F920F92BB
S2140031900FB60F92112408B60F9218BE09B60F92FA
S2140031A019BE0AB60F921ABE0BB60F921BBE2F930D
S2140031B03F934F935F936F937F938F939F93AF93BA
S2140031C0BF93CF93DF93EF93FF93E8E2F7E0D081CE
S2140031D0C081C07862E372E280EA99E00E949709B3
S2140031E0D6FD06C065E472E280EA99E00E9497097F
S2140031F0C11106C069E672E280EA99E00E9497096A
S214003200FF91EF91DF91CF91BF91AF919F918F91F9
S2140032107F916F915F914F913F912F910F900BBED1
S2140032200F900ABE0F9009BE0F9008BE0F900FBEFB
S2140032300F901F90189580E38093E1068093E60632
S2140032400895CF92DF92EF92FF920F931F93CF9342
S214003250DF9387E08093A20078940E94872B0E94D9
S2140032601D2080E894E00E94EA1480EA99E00E941B
S214003270EA1480EB9AE00E94EA1480E092E00E9452
S214003280EA1480E894E00E946E0760E874E08CED33
S21400329094E10E94E9070E9451300E941B19E12C1C
S2140032A000E016E32EE631E040E052EC61E070E02C
S2140032B080EA99E00E94550900E016E32EE631E028
S2140032C04CEE50E960E070E080EB9AE00E94550911
S2140032D000E016E32EE631E04CEE50E960E070E0E8
S2140032E080EA9BE00E94550980E38093850680E093
S2140032F092E00E944417C1E0D0E0CE010E945F1326
S2140033002196CC30D105C9F7C1E0D0E0CE010E94AD
S214003310D7132196CC30D105C9F70E9430100E94F1
S214003320580B78940E94A80B8FE3809302078EE8D0
S21400333092E20E94A10A64E972E280EA99E00E94A1
S214003340970984E992E20E94A10A0E94A3050F2E23
S214003350F0E2CF2EF1EADF2EF7E0EF2EF12CF02D83
S21400336080E894E00E947807882321F08FEB97E1AD
S2140033700E94DC0588E08A95F1F781E0C81AD1083A
S214003380E108F10869F76DED72E280EA99E00E94C3
S214003390970967EF72E280EA99E00E94970987EF43
S2140033A092E20E94A10AE0E0F0E8E491EF3F91F497
S2140033B06EE073E280EA99E00E9497098EE093E25D
S2140033C00E94A10AC8E0D6E088818111FDCF0E9444
S2140033D03904FACF81E08093562361E273E280EAF3
S2140033E099E00E94970981E293E20E94A10A0C9458
S2140033F0004080E090E0DF91CF911F910F91FF9009
S214003400EF90DF90CF900895E7EEF6E08081806140
S21400341080830895E7EEF6E08081806280830895D9
S21400342010926C241092782410927924EEE6F4E23E
S21400343081EA808380E2818312821382148215825D
S21400344082E090E08683978310861186ECE7F4E2AC
S21400345080E092ECA1E0B0E080839183A283B38306
S2140034601482158288E0868380916C248F5F809317
S2140034706C2481E0089580916C24815080936C24A4
S214003480089580916B24815080936B2480916B24E7
S21400349010926A24089580E0089580E0089580914F
S2140034A0D1258823CCF480768032B9F58091D22558
S2140034B08132A9F58091D7259091D825079789F56F
S2140034C0E1EDF5E28CE794E28087918787E090E073
S2140034D08287938781E008958076803221F58091F7
S2140034E0D225803221F0823201F180E00895809169
S2140034F0D7259091D8250797D1F4E1EDF5E289E933
S2140035009AE1848795878CE794E28087918787E0A5
S21400351090E08287938781E0089580E0089580E0B8
S214003520089580E0089580E0089581E0089580E0A1
S21400353008950895FF920F931F93CF93DF931F92E2
S214003540CDB7DEB780915A2381119EC00E940B270B
S214003550882351F000915B2310915C230E9418276A
S2140035600817190759F490C000915B2310915C234B
S2140035700E9413270817190709F486C08FB7898396
S214003580F894198100915D23E02FF0E0EE0FFF1F05
S214003590E25AFC4D80819181892B09F58091572351
S2140035A090915823019680935723909358230E9416
S2140035B00B27811107C0809157239091582384369A
S2140035C0910558F00E940B27882349F080915723D5
S2140035D0909158238032934010F41FBF55C010922C
S2140035E057231092582380915923811106C081E0F9
S2140035F0011180E080935D2304C081E0011180E02A
S214003600082F81E080935A231FBF10E0F801EE0FC9
S214003610FF1FE25AFC4DFF24F39480819181803491
S214003620910509F4F12CFF2091F00E940B278823C6
S21400363039F00E94182780935B2390935C230BC07D
S2140036400E94132780935B2390935C2304C0109200
S2140036505B2310925C23F801EE0FFF1FE25AFC4D2D
S21400366020813181A80100245695479507945695E8
S21400367047950794542F402D4E595C4D0BE41BE1A3
S2140036806F2D81E80E9421280F90DF91CF911F9126
S2140036900F91FF900895811116C020915D2381E05F
S2140036A090E0222311F080E090E0880F991FFC0143
S2140036B0E25AFC4D108211821092592310925A231E
S2140036C080E00E949A1A089580E00E949A1A08954F
S2140036D00F931F9380917A2481111FC02091782424
S2140036E03091792480917624909177242817390791
S2140036F0A1F0862F20917824309179242093762487
S214003700309377240BEB1BE12AE030E04EE654E2E0
S21400371060E00E94212880937A241F910F910895DB
S214003720CF93DF931F92CDB7DEB78FB78983F89418
S2140037302981662359F08091782490917924482B2A
S214003740592B40937824509379240CC08091782488
S2140037509091792440955095482359234093782496
S214003760509379242FBF62E880E00E94681B0F9078
S214003770DF91CF91089510927A24809178249091C9
S214003780792483788093782490937924EEE6F4E283
S21400379080859185837880879187642F80E00E945A
S2140037A0681B089541E050E0682F80E00E94901B5F
S2140037B0089542E050E0682F80E00E94901B089534
S2140037C040E150E061E080E00E94901B089540E2F6
S2140037D050E061E080E00E94901B089540E450E0D5
S2140037E061E080E00E94901B089541E050E00E9456
S2140037F0901B089542E050E00E94901B089540E11F
S21400380050E061E00E94901B089540E250E061E0C5
S2140038100E94901B089540E450E061E00E94901BD7
S2140038200895CF93DF931F92CDB7DEB78FB7898306
S214003830F89449812091E3233091E423E091E52335
S214003840F0E0EE0FFF1FEA51FC4D808191814FBFE3
S214003850821B930B0F90DF91CF91089580E00E941A
S214003860111C08950E94111C21E0892B09F420E008
S214003870822F08950F931F93CF93DF931F92CDB798
S214003880DEB78FB78983F89499812091E5238091DC
S214003890E223811110C06091E3237091E423022F8C
S2140038A010E0F801EE0FFF1FEA51FC4D40815181F8
S2140038B06417750718F49FBF80E024C01092E323B6
S2140038C01092E42381E0211180E08093E52381E0DB
S2140038D08093E2239FBF80E00E94321CA801002450
S2140038E0569547950794569547950794542F402D1F
S2140038F046515C4D0CEB1CE120E430E061E082E0D8
S2140039000E9421280F90DF91CF911F910F9108956B
S21400391010926B2410925A231092592310925D2312
S214003920EEE5F3E2108211821282138210925B237C
S21400393010925C2380E00E949A1A1092E223109262
S214003940E523E6EEF3E210821182128213821092D1
S214003950E3231092E42380E00E943A1C882359F067
S21400396090916B249F5F90936B2490916B24913081
S21400397011F490936A2408950F931F9381112AC01F
S2140039808091E523E1E08111E0E0842F6115710567
S214003990A9F4F0E00024F695E7950794F695E795E8
S2140039A00794FE2FE02DAF0146515C4D0CEB1CE159
S2140039B020E430E061E00E9421280CC0F0E0EE0F29
S2140039C0FF1FEA51FC4D608371831092E22380E072
S2140039D00E943A1C1F910F91089580E00E94321CAD
S2140039E00895EF92FF921F93CF93DF931F92CDB768
S2140039F0DEB711E080918224893009F010E040E0C3
S214003A0050E08FB78983F894A9812091E323309101
S214003A10E4238091E52390E0FC01EE0FFF1FEA51BE
S214003A20FC4D60817181AFBF2617370730F080915B
S214003A306A248111E6CF90E022C0FC010024F695AE
S214003A40E7950794F695E7950794FE2FE02DE20F8D
S214003A50F31FE651FC4D80817A01E82A2F5F3F4F25
S214003A602093E3233093E42380E00E943A1C112342
S214003A7021F05E2D442710E0C4CF8E2D9F2D0F9091
S214003A80DF91CF911F91FF90EF90089580E00E9404
S214003A90F11C0895CF92DF92EF92FF920F931F933F
S214003AA0CF93DF931F92CDB7DEB76B017A018FB746
S214003AB08983F89449816091E3237091E4232091EF
S214003AC0E52330E0F901EE0FFF1FEA51FC4D80813F
S214003AD091814FBF6817790738F080916A24811169
S214003AE0E6CF8E2D9F2D36C0F901EE0FFF1FEA514F
S214003AF0FC4D80819181861B970B87018E159F0553
S214003B0008F48C010024369527950794369527955A
S214003B100794322F202D620F731F66517C4DA8012B
S214003B20C6010E941C318091E3239091E423800F0C
S214003B30911F8093E3239093E423C00ED11EE01AD6
S214003B40F10A80E00E943A1CE114F10409F0AFCFBC
S214003B5080E090E00F90DF91CF911F910F91FF9042
S214003B60EF90DF90CF900895EF92FF920F931F9300
S214003B70CF93DF931F921F92CDB7DEB7DC019091F3
S214003B806A24992309F444C08FB78983F8948981FD
S214003B904091E3235091E4232091E52330E0F9019E
S214003BA0EE0FFF1FEA51FC4D00811181041B150B1F
S214003BB08FBF78016017710708F47B01E114F104E8
S214003BC051F1CD0100243695279507943695279513
S214003BD00794322F202DB901640F751F66517C4D56
S214003BE0A7010E941C318FB78A83F8942A8180919E
S214003BF0E3239091E423E80EF91EE092E323F0928B
S214003C00E4232FBF80E00E943A1C802F912F05C02E
S214003C1080E090E002C0802F912F0F900F90DF91F0
S214003C20CF911F910F91FF90EF900895AB01BC01CB
S214003C3080E00E944A1D0895CF93DF931F92CDB770
S214003C40DEB78FB78983F894998180915D23E82F3A
S214003C50F0E0EE0FFF1FE25AFC4D20813181203448
S214003C60310589F440915A2341110DC040915923E2
S214003C70411109C021E020935923811120E02093AF
S214003C805D2320E030E09FBF80E490E0821B930B32
S214003C900F90DF91CF91089580E00E941C1E08953A
S214003CA00E941C1E21E0892B09F420E0822F089533
S214003CB080E00E94501E0895FF920F931F93CF93AB
S214003CC0DF931F92CDB7DEB7F62E172F01E0809157
S214003CD08224893009F000E080E00E94501E8111A5
S214003CE007C080916A248111F7CF80E090E02DC054
S214003CF08FB78983F8942981E0915D23F0E0DF0196
S214003D00AA0FBB1FA25ABC4D8D919C911197AC0176
S214003D104F5F5F4F4D935C930024F695E7950794AD
S214003D20F695E7950794FE2FE02D8E0F9F1FFC015A
S214003D30EE59FC4DF0822FBF002329F0F12E110F13
S214003D40110B00E0C9CF81E090E00F90DF91CF919A
S214003D501F910F91FF900895BC0180E00E945C1EA9
S214003D6008955F926F927F928F929F92AF92BF92CA
S214003D70CF92DF92EF92FF920F931F93CF93DF9332
S214003D801F92CDB7DEB74B015A018091822489304D
S214003D9011F4AA0CBB1C6894662466F8712C80E0AB
S214003DA00E94501E811107C080916A248111F7CFAE
S214003DB08A2D9B2D3AC08FB78983F894598000913D
S214003DC05D2310E0F801EE0FFF1FE25AFC4DE08085
S214003DD0F180C3018E199F0965018A159B0508F4B9
S214003DE06C01C8010024969587950794969587954B
S214003DF00794982F802D8E0D9F1DA601B4018E5915
S214003E009C4D0E941C31000F111FF801E25AFC4D18
S214003E10EC0CFD1CE082F1825FBE8C0C9D1CAC1885
S214003E20BD0809F0BCCF80E090E00F90DF91CF9105
S214003E301F910F91FF90EF90DF90CF90BF90AF90C3
S214003E409F908F907F906F905F900895AB01BC011C
S214003E5080E00E94B11E0895E0918824F0918924A4
S214003E600190F081E02D228133812E0F3F1FFC014F
S214003E704081E40FF11DE217F307B8F48181843026
S214003E80B9F0861309C005C081818430A1F086137D
S214003E9003C08E2F9F2F08958081E80FF11DE21733
S214003EA0F30790F380E090E0089580E090E00895B6
S214003EB080E090E0089580E090E008958091D3251A
S214003EC08F770E940D27089590918A24992381F177
S214003ED0E0918824F09189240190F081E02D94816E
S214003EE0891740F5E0938624F09387242281338156
S214003EF02E0F3F1FE217F307F8F49181943061F418
S214003F009281981309C09381961306C0E093862485
S214003F10F093872481E008959081E90FF11DE21760
S214003F20F30758F3E0938624F093872480E00895FF
S214003F3080E0089580E0089580E00895EF92FF9273
S214003F401F93CF93DF93C82F60E00E94641F182F43
S214003F50882391F1A0918824B0918924EC2FF0E079
S214003F60EE0FFF1F12968D919C911397E80FF91F85
S214003F70E080F180D7011696ED91FC911797199580
S214003F80682F8C2F0E94641F182F8823A9F0C091D9
S214003F908624D091872465E0CE010E942C1FEC0178
S214003FA0892B21F08A810E943629F5CFD7011296F7
S214003FB0ED91FC9113971995812FDF91CF911F9169
S214003FC0FF90EF9008951F93CF93DF93182F0E94D2
S214003FD0641F882349F1C0918624D091872465E028
S214003FE0CE010E942C1FEC01892B49F04C815D818B
S214003FF06B818A810E9432278111F1CF15C0A09172
S2140040008824B0918924E12FF0E0EE0FFF1F12966E
S2140040108D919C911397E80FF91F0190F081E02D88
S2140040200190F081E02D1995DF91CF911F910895B1
S214004030809186249091872408950E947F26089573
S214004040CF9380918A248823C9F0E0918824F09148
S21400405089240190F081E02D8481882379F0C0E0E6
S2140040608C2F0E949E1FCF5FE0918824F0918924B8
S2140040700190F081E02D8481C81790F310928A2475
S21400408081E090E080938E2490938F24CF910895C2
S2140040900E9421260E9420200895CF9380918A2492
S2140040A0882349F1A0918824B0918924ED91FC9150
S2140040B0119784818823F9F0C0E0EC2FF0E0EE0F32
S2140040C0FF1F12968D919C911397E80FF91F019090
S2140040D0F081E02D0084F185E02D309709F01995E8
S2140040E0CF5FA0918824B0918924ED91FC9111971F
S2140040F08481C81710F3CF9108950F931F93CF9321
S214004100DF93E1EDF5E21286138614861586168691
S2140041101786808188230CF079C22091D7253091AC
S214004120D8252115310509F06CC267C28F7109F0D8
S214004130AEC09091D225963081F0983009F49CC09C
S2140041409111A5C02230310509F0DDC162E070E0B2
S2140041508EE894E20E942B2762C28091D32590912C
S214004160D425292F332722303105B1F024F421300D
S214004170310541F0BFC123303105F1F12F30310553
S21400418061F1B8C18091522090915320DC016C916E
S21400419070E00E942B2761C0E0915220F0915320DE
S2140041A02189821708F0AFC19927880F991F880FB9
S2140041B0991FE0915420F0915520E80FF91F808157
S2140041C09181FC01628173810E942B27E091D925A1
S2140041D0F091DA2582E0818340C08091562090914C
S2140041E05720009709F48FC1DC0112966D917C91DF
S2140041F013970E942B2731C099278130910599F09B
S21400420058F08230910509F406C2039709F07BC185
S21400421021E089E393E20AC064E070E08EE490E275
S2140042200E942B271AC088E490E225E0382FA0E2EF
S214004230B0E2E82FF92F819190E08D939D938E2F19
S214004240831B8217C0F3622F660F6E5F60931E207B
S21400425070E08EE190E20E942B27E1EDF5E2868188
S2140042609781228533858217930708F0D8C18093FB
S214004270DB259093DC25D3C12130310509F043C1FD
S21400428061E070E08AE894E20E942B27C8C1813082
S214004290F1F59091D2259A30D1F52130310509F00B
S2140042A032C180918A24882309F42DC1C091D52576
S2140042B0D091D6250091882410918924D801ED91BB
S2140042C0FC918481C81708F01EC160E08C2F0E9404
S2140042D0641F882309F417C1CE019927880F991FF8
S2140042E0D8011296ED91FC911397E80FF91F0190F3
S2140042F0F081E02D86819781FC01199580938C24AE
S21400430061E070E08CE894E20E942B2788C182303E
S21400431009F0F9C08091D2258111EEC02230310516
S21400432009F0F1C08091D5250E94C32790E08093C4
S21400433084249093852462E070E084E894E20E94EE
S2140043402B276DC18F7109F086C09091D2259330CE
S21400435009F4D4C018F49130A1F07DC0953019F05E
S214004360993039F178C08091D7259091D825892B3E
S21400437009F0C9C08EE59FE18093DD259093DE2588
S2140043804EC18091D7259091D825892B09F0BBC0C6
S2140043908091D3259091D425019709F0B4C08091DF
S2140043A08E2490918F248D7F80938E2490938F24DB
S2140043B036C18091D7259091D825892B09F0A3C0C6
S2140043C00E941027882309F49EC02091D32530919F
S2140043D0D4253327E0915220F0915320818990E034
S2140043E08217930708F48FC00E9420208091D3255F
S2140043F09091D42580938A24882309F410C19927A4
S2140044008150904C880F991F880F991FE091542077
S214004410F0915520E80FF91FE0938824F093892443
S2140044200190F081E02D8481882309F4F8C0C0E073
S21400443060E08C2F0E94E31F882309F464C0CF5FDE
S214004440E0918824F09189240190F081E02D848108
S214004450C81770F3E4C08130F1F49091D2259B30F8
S214004460D1F48091D7259091D825892B09F04BC09F
S21400447080918A24882309F446C0E1EDF5E2C481E0
S214004480D2818C2F0E949E1F8823E9F16D2F8C2FDE
S2140044900E94E31F36C08230B1F58091D22581306C
S2140044A019F0833091F02CC08091D7259091D825B3
S2140044B0892B49F58091D3259091D425892B19F520
S2140044C08091D5250E94DE271CC08091D72590912B
S2140044D0D825892BC1F48091D3259091D425892B9A
S2140044E091F4C1EDD5E28C810E94EC288C810E946B
S2140044F0532907C080E005C080E003C080E001C00B
S21400450080E081118DC08091D1258F71813081F539
S21400451080918A24882361F10091D5251091D625B3
S214004520C0918824D0918924E881F9818481081774
S214004530F8F460E0802F0E94641F8823C9F0F80119
S214004540FF27CF01880F991FEA81FB81E80FF91F2B
S214004550C081D181EE81FF811995682F802F0E943E
S214004560641F882329F0EC81FD811995811158C0BC
S2140045708091D1258F71823009F041C080918A24C4
S2140045808823B9F1A0918824B0918924ED91FC91FB
S21400459011978481882379F1C0E0EC2FF0E0EE0FCC
S2140045A0FF1F12968D919C911397E80FF91F0081BB
S2140045B01181D8011696ED91FC9117971995682FE1
S2140045C08C2F0E94641F882359F1D8011496ED9110
S2140045D0FC9115971995811123C0CF5FA09188246F
S2140045E0B0918924ED91FC9111979481C917A8F296
S2140045F017C080E015C080E013C080E011C080E0E6
S2140046000FC0982F907609F07ECF90CD982F907699
S21400461009F079CF97CE2DE08AE390E207CE81E0CD
S214004620DF91CF911F910F910895CF93DF931F9243
S2140046301F92CDB7DEB7811126C09091D025992361
S214004640F9F09091E225911101C0FFCF9FB79A83B0
S214004650F8942A81E1EEF5E29181915091832FBF83
S2140046600FC09091E2259F3F09F4FFCF9FB7998333
S214004670F8942981E1EEF5E291819F5F91832FBF47
S2140046808093D02505C09091D025992351F3F8CF7B
S2140046900F900F90DF91CF9108950F93E8ECF4E020
S2140046A080818F7D808380818F7D8083E8E9F5E23D
S2140046B002E0059310929A2510929B2500E206933D
S2140046C000E40693E0E9F5E200E40693E1EDF5E2A6
S2140046D014861586168617861286138610927925F6
S2140046E00F9108950F9385E080937925E9E9F5E227
S2140046F004E00593E1E9F5E204E005930F910895DF
S2140047000F9383E08093792510929A2510929B252B
S214004710E8E9F5E202E006930F910895E091DD25C1
S214004720F091DE25309709F0199508950F93CF93F1
S214004730DF9380917925833029F40E948E230E948E
S2140047404D235EC08091752590917625C091DB251E
S214004750D091DC25C81BD90B71F5209177253091B7
S2140047607825820F931F8093772590937825209144
S214004770D7253091D8258217930721F08091902471
S214004780882341F084E080937925E0E9F5E202E0B1
S214004790069336C0E091DF25F091E025309799F03A
S2140047A01995882381F01092752510927625C09170
S2140047B0DB25D091DC25C034D10528F0109290245A
S2140047C0C0E4D0E003C081E080939024E0E8F5E206
S2140047D0C28FD38F80917525909176252091D9250B
S2140047E03091DA25280F391F248F358FC80FD91F2F
S2140047F0C0937525D0937625E8E9F5E202E00693A6
S214004800DF91CF910F910895FC018181E82FE77029
S2140048108E2F90E0FC013197E730F105D8F4882719
S214004820E652FE4F8F4F0C94EA3080E190E00895F8
S21400483080E290E0089580E490E0089580E890E0BB
S214004840089580E091E0089580E092E008958FEF6B
S21400485093E0089588E090E00895282F2F7030E0C8
S214004860220F331F082E000C990B8827990F881FDC
S2140048709927820F931F02979C01220F331F220F46
S214004880331F220F331F820F931F8F5E9A4D08959A
S2140048900F93CF938091CC0480FF6AC081E0809311
S2140048A0CC04E0E9F5E200E80693E8E9F5E200E882
S2140048B006938093CA04E0E9F5E200E1069380914E
S2140048C07925882339F08350823010F40E948E2395
S2140048D00E944D238091922590919325089709F088
S2140048E049C088E0E5E3F5E2A1EDB5E201900D925E
S2140048F08A95E1F7E8ECF4E080818062808380812D
S214004900806280830E947D20C82F811104C00E948F
S2140049107223C1E030C08091D125882374F41092B0
S214004920772510927825109275251092762582E0CC
S214004930809379250E9496231EC08091D72590915A
S214004940D825892B19F40E94802315C0109277254C
S21400495010927825109275251092762581E0809326
S2140049607925E0E9F5E202E0069300E2069303C04B
S214004970C0E001C0C1E08C2FCF910F9108958F92B7
S2140049809F92AF92BF92DF92EF92FF920F931F9388
S214004990CF93DF93D82E0E942D248C01BD2CBB1CF8
S2140049A0BB24BB1CCD2DCF70D0E0CC0FDD1FCB0DB4
S2140049B0D11DCE01880F991F880F991F880F991F48
S2140049C09C0120573A4D7901C9010E9404244C01EC
S2140049D0BB2009F472C0FE01EE0FFF1FEE0FFF1F93
S2140049E0EE0FFF1FE058FA4D26893789D801159635
S2140049F08D919C911697820F931F15968D939C937D
S214004A00169713962D913C9114978217930709F4E5
S214004A103EC0281B390B2115B4E03B0740F02FEFB2
S214004A2033E0C901B4010E948130281B390BF8011C
S214004A30808181FF0AC0C901B4010E94813041E033
S214004A40892B09F040E0842F01C080E0D8019C91BA
S214004A5080FB91F99C93CC0FDD1FCC0FDD1FCC0F94
S214004A60DD1FC058DA4D1E8A1F8A2A8B3B8B119693
S214004A702D913C91129715968D919C911697820FC9
S214004A80931F8C8B9D8BF70102E00693CEC0D80156
S214004A908C9181FFB7C08D7F8C93CC0FDD1FCC0F20
S214004AA0DD1FCC0FDD1FC058DA4D1E8A1F8A1A8AFA
S214004AB01B8AF70102E00693B8C0FE01EE0FFF1F47
S214004AC0EE0FFF1FEE0FFF1FE058FA4DA288B388C7
S214004AD0D8018C9182FF1BC01196ED91FC91129724
S214004AE015962D913C91169713968D919C9114973F
S214004AF0B4010E948130B0E4DB9EB00111246F5AED
S214004B007B4DAC01CF01820F931F0E941C31F80130
S214004B10258136812A0D3B1D25833683838194812A
S214004B208217930768F485839683CC0FDD1FCC0F1E
S214004B30DD1FCC0FDD1FC058DA4D8E899F8962C0FD
S214004B40FE01EE0FFF1FEE0FFF1FEE0FFF1FE058D8
S214004B50FA4D468957894A155B0509F053C0281750
S214004B60390709F44FC0AC01421B530B9A012115BB
S214004B7054E0350758F02FEF33E0C901B4010E9426
S214004B808130D901A81BB90BCD0108C0C901B401F9
S214004B900E948130F901E81BF90BCF01FE01EE0FF0
S214004BA0FF1FEE0FFF1FEE0FFF1FE058FA4D128A91
S214004BB0138A8815990578F4D8018C9184608C93B3
S214004BC0B0E4DB9EC00111248F5A9B4D848B958BDD
S214004BD0868A978A13C0F8014181528125813681E1
S214004BE0240F351FCC0FDD1FCC0FDD1FCC0FDD1FB4
S214004BF0C058DA4D2C8B3D8B8E8B9F8BF70102E0D5
S214004C00069313C0D8018C9180FF0FC08E7F8C93C3
S214004C101796ED91FC911897309739F015966D918F
S214004C207C9116974D2D80E01995DF91CF911F91BD
S214004C300F91FF90EF90DF90BF90AF909F908F9076
S214004C4008951F93CF93DF931F921F92CDB7DEB7C1
S214004C508FB78A83F8941A81E1ECF4E080818E7F26
S214004C6080831092C00410820E94742C80E00E9400
S214004C7015238091E625811101C0FFCF8FB7898368
S214004C80F8949981E1EEF5E28581815085839FBF96
S214004C901FBF0F900F90DF91CF911F91089580E076
S214004CA008951F93CF93DF931F92CDB7DEB78FB7CC
S214004CB08983F894198181E00E941523EAECF4E0D8
S214004CC080E4808380E28083E1ECF4E08081816090
S214004CD08083A9ECB4E08C9182608C93E8ECF4E0DD
S214004CE08081806480838C9181608C9380818068D1
S214004CF080831FBF0F90DF91CF911F9108950F9370
S214004D001F93CF93DF931F921F92CDB7DEB700E6B7
S214004D1010E0F801108280E30E942D2CE0ECF4E015
S214004D2080818064808381E0F80180838FB78A83E6
S214004D30F8941A81E0E8F5E2118A118E11A211A604
S214004D4011AA11AEE1E1F5E280818E7F8083EAE16F
S214004D50F5E280818E7F8083E3E2F5E280818E7FBC
S214004D608083ECE2F5E280818E7F80836AE170E0EA
S214004D7082E00E9441308F3F19F08093FA0403C00E
S214004D808FE18093FA046BE170E082E00E9441308C
S214004D908F3F19F08093FB0403C08FE18093FB04E0
S214004DA0E0ECF4E08081826080838081806880838C
S214004DB080818061808380E995E286839783808105
S214004DC0806280838FEF8093C504E8ECF4E08081F6
S214004DD0816080831092D0258091E6258F3F09F46C
S214004DE0FFCF8FB78983F8949981E1EEF5E285814C
S214004DF08F5F85839FBF0E9451261FBF0F900F9025
S214004E00DF91CF911F910F910895E1ECF4E080813E
S214004E108E7F8083089580E008958093C30408956C
S214004E208091C30408958091C0259091C12508956E
S214004E3080E090E008958091D02581110BC081E03C
S214004E400E941523E1ECF4E080818B7F80838081D3
S214004E50846080830895E1EDF5E28087918762871C
S214004E6073870895282F2F7030E0220F331F082EE7
S214004E70000C990B8827990F881F9927820F931F7C
S214004E80FC01EE0FFF1FEE0FFF1FEE0FFF1FE05897
S214004E90FA4D2189207C09F072C06370613011F0F0
S214004EA018F404C020EC03C020E801C020E4403819
S214004EB05105E9F050F440325105A9F0403451054F
S214004EC0A1F040315105D9F40CC0411532E053072A
S214004ED091F04F3F33E0530781F04115514079F48C
S214004EE008C041E00DC042E00BC043E009C044E00A
S214004EF007C045E005C046E003C047E001C040E00B
S214004F00FC01EE0FFF1FEE0FFF1FEE0FFF1FE05816
S214004F10FA4D118ADC01AA0FBB1FAA0FBB1FAA0FEE
S214004F20BB1FA057BA4D36E03C93242B218BFC01C7
S214004F30EE0FFF1FEE0FFF1FEE0FFF1FE058FA4D9C
S214004F402189207C203C69F4FC01EE0FFF1FEE0F48
S214004F50FF1FEE0FFF1FE058FA4D218927702730FC
S214004F6081F0880F991F880F991F880F991FFC01E1
S214004F70E058FA4D81898062818B81E0089580E057
S214004F80089581E00895E82FEF70F0E0EE0FFF1F20
S214004F90082E000C990B8827990F881F9927E80F71
S214004FA0F91FEE0FFF1FEE0FFF1FEE0FFF1FE0585B
S214004FB0FA4D818982FB882780F908950F93282F60
S214004FC02F7030E0A901440F551F282F082E000C23
S214004FD0330B2227330F221F3327240F351FF901E7
S214004FE0EE0FFF1FEE0FFF1FEE0FFF1FE057FA4DED
S214004FF001E00693F901EE0FFF1FEE0FFF1FEE0F05
S214005000FF1FE058FA4D918992FF18C0220F331FF8
S214005010220F331F220F331FF901E058FA4D9189F2
S2140050209B7F918B0E942D24FC01808180FF06C00F
S2140050308E7F80830780F085E02D199581E00F91A3
S21400504008955F926F927F928F929F92AF92BF92D7
S214005050CF92DF92EF92FF920F931F93CF93DF933F
S2140050601F92CDB7DEB7782E662E4A0159010E94F0
S2140050702D246C01572C551C5524551C872D8F70DC
S214005080E82EF12CEE0CFF1CE50CF11CF701EE0FE0
S214005090FF1FEE0FFF1FEE0FFF1FE058FA4D81892E
S2140050A0807C09F484C0F701EE0FFF1FEE0FFF1F90
S2140050B0EE0FFF1FE058FA4D8189807C803C61F03E
S2140050C0F701EE0FFF1FEE0FFF1FEE0FFF1FE0585A
S2140050D0FA4D818982FD6DC08FB78983F8948981E6
S2140050E0F601908190FF03C08FBF512C63C0F6017C
S2140050F09081916090838FBF81829282A382B482D6
S2140051001582168207831087611006C091E0A114ED
S214005110B10419F090E001C091E0F601808190FBA7
S21400512081F98B7F8083552061F0F701EE0FFF1F1A
S214005130EE0FFF1FEE0FFF1FE058FA4D168A178A74
S21400514030C0F701EE0FFF1FEE0FFF1FEE0FFF1F21
S214005150E058FA4D8189807C803CB1F4C701880F05
S214005160991F880F991F880F991F80579A4D0E9484
S2140051700424BC01C5010E948130892B29F0F60168
S21400518080818E7F808316C0F701EE0FFF1FEE0F23
S214005190FF1FEE0FFF1FE058FA4D128A138A168A79
S2140051A0178A872D0E94BF245524539403C0512C80
S2140051B001C0512C852D0F90DF91CF911F910F913B
S2140051C0FF90EF90DF90CF90BF90AF909F908F9022
S2140051D07F906F905F900895FF920F931F93CF93E9
S2140051E0DF93182FF82EFF1CFF24FF1CC82FCF704C
S2140051F0D0E0CC0FDD1FCF0DD11D0E942D24DC0189
S214005200FE01EE0FFF1FEE0FFF1FEE0FFF1FE05712
S214005210FA4D02E005938C9180FF22C08E7F8C931E
S2140052201796ED91FC9118973097D1F0FF2059F022
S214005230CC0FDD1FCC0FDD1FCC0FDD1FC058DA4DA5
S2140052406E897F890AC0CC0FDD1FCC0FDD1FCC0F07
S214005250DD1FC058DA4D6A897B89412F81E0199598
S214005260DF91CF911F910F91FF900895CF93C82F94
S2140052700E94EC28EC2FEF70F0E0EE0FFF1F8C2F53
S214005280CC0F990B8827990F881F9927E80FF91FCD
S214005290EE0FFF1FEE0FFF1FEE0FFF1FE058FA4D39
S2140052A0118ACF910895E82FEF70F0E0EE0FFF1F00
S2140052B0282F082E000C330B2227330F221F3327EC
S2140052C0E20FF31FEE0FFF1FEE0FFF1FEE0FFF1F85
S2140052D0E058FA4D91899460918B0E94EC2881E009
S2140052E008950F931F93CF93DF938B01C82FCF7032
S2140052F0D0E0CC0FDD1F282F082E000C330B222702
S214005300330F221F3327C20FD31F0E942D24CC0F2A
S214005310DD1FCC0FDD1FCC0FDD1FC058DA4D2989ED
S21400532022FF0AC0FC01208120FD0AC021602083E4
S2140053300783108781E005C0F801199581E001C058
S21400534080E0DF91CF911F910F9108951F920F92E9
S2140053500FB60F92112408B60F9218BE09B60F9218
S21400536019BE0BB60F921BBE0F932F933F934F930E
S2140053705F936F937F938F939F93AF93BF93EF93B8
S214005380FF938091CB04882334F480E88093CA048A
S2140053900E944D2090C08091CB0482FF22C084E002
S2140053A08093CA048091982586FF85C08091CC049E
S2140053B081FD81C00E94482481117DC0809179259D
S2140053C0813019F40E94802376C0843009F073C0BF
S2140053D0E9E9F5E204E00593E1E9F5E204E0059386
S2140053E06AC08091CB0481FF61C082E08093CA04CA
S2140053F08091902586FF5FC08091CC0481FD5BC0C4
S2140054000E944824811157C080917925823041F44A
S21400541084E080937925E0E9F5E202E006934BC04C
S214005420833009F048C0E9E9F5E204E00593E1E9D4
S214005430F5E204E005933FC080E18093CA0481E072
S2140054400E94EC2881E80E94EC2882E00E94EC286A
S21400545082E80E94EC280E9420201092C304E0E814
S214005460F5E2118A96E0908B83E4818B118E908F03
S214005470818F85E395E2848B958B0E944D231BC01C
S2140054808091CB0486FF07C080E48093CA0480E046
S2140054900E94152310C08091CB0485FF0CC080E2CB
S2140054A08093CA0481E00E94152305C08091CB0436
S2140054B084FDC2CFE5CFFF91EF91BF91AF919F9151
S2140054C08F917F916F915F914F913F912F910F91A7
S2140054D00F900BBE0F9009BE0F9008BE0F900FBE28
S2140054E00F901F9018951F920F920FB60F921124CF
S2140054F008B60F9218BE09B60F9219BE0AB60F92DA
S2140055001ABE0BB60F921BBE0F931F932F933F939B
S2140055104F935F936F937F938F939F93AF93BF93B6
S214005520CF93DF93EF93FF938091CC0481FD04C06B
S2140055300E9448248111C4C082E08093CC048091EC
S214005540C5048195880FE0E9F5E2E81BF1092081A2
S21400555031812059354236952795369527953695CB
S2140055602795822F869520FD02C090E001C090E826
S214005570890FE82FEF70F0E0EE0FFF1F282F082EA0
S214005580000C330B2227330F221F3327E20FF31FA3
S214005590DF01AA0FBB1FAA0FBB1FAA0FBB1FA05776
S2140055A0BA4D9C9195FF8CC0FD0100E206938111D7
S2140055B080C080917925843029F40E948E230E9431
S2140055C04D237EC000919225109193258091DB2576
S2140055D09091DC25C0917525D09176259E01200FEF
S2140055E0311F8217930718F48C010C1B1D0B80913A
S2140055F0D9259091DA25A80165E375E28C0F9D1FE9
S2140056000E941C31C00FD11FC0937525D0937625FC
S2140056100034110569F480917725909178258C0FD8
S2140056209D1F2091D7253091D8258217930790F09B
S214005630E1EDF5E2C287D3870684F785E02D309743
S21400564031F01995811103C00E94722339C00E945F
S214005650802336C08091DB259091DC25C817D907BA
S21400566009F5E091DF25F091E025309719F40E94C6
S214005670722326C01995811103C00E94722320C090
S2140056802091772530917825809175259091762503
S214005690820F931F80937725909378251092752517
S2140056A010927625E0E9F5E202E0069300E2069322
S2140056B007C0803819F40E94962302C00E94BF24B7
S2140056C0FF91EF91DF91CF91BF91AF919F918F9115
S2140056D07F916F915F914F913F912F911F910F9105
S2140056E00F900BBE0F900ABE0F9009BE0F9008BE1B
S2140056F00F900FBE0F901F901895982F9F7029F04F
S21400570081E0933018F080E0089580E008950F93CC
S2140057101F93CF93DF93CDB7DEB72797CDBFDEBFFE
S2140057208FEF809370008093710080937200809357
S214005730730080937400809375008093760064E015
S21400574081E490E00E944B306CE170E082E00E94C1
S21400575041308A836DE170E082E00E9441308983A7
S21400576089819A81019621F480E493E289839A8361
S21400577089819A818B839C83E0E6F0E082838C812A
S21400578083838FB78F83F8949F81E0E5F0E0808174
S214005790826080839FBF818181FFFDCF8FB78D831D
S2140057A0F8949D8100E510E0D80116968C91169726
S2140057B0897F16968C931697E0E6F0E080E885835E
S2140057C08BEB868316968C911697846016968C9330
S2140057D08081816080839FBF61E080E490E00E94CA
S2140057E04B308FB78E83F8949E81F80180818E7F30
S2140057F080839FBF2796CDBFDEBFDF91CF911F91DD
S2140058000F910895CF93DF931F92CDB7DEB79FB762
S2140058109983F8949981E82FF0E0E059FF4F60955E
S2140058208081682360839FBF0F90DF91CF9108959A
S214005830CF93DF931F92CDB7DEB79FB79983F894C7
S2140058409981E82FF0E0E059FF4F8081682B608354
S2140058509FBF0F90DF91CF910895CF93DF931F9254
S2140058601F92CDB7DEB7863011F060E001C068E168
S2140058708091510081FD2AC08FB78A83F8949A815F
S214005880E0E5F0E08081826080839FBF818181FFB8
S214005890FDCF8FB78983F8949981A0E5B0E016967E
S2140058A08C911697897F16968C931697E0E6F0E013
S2140058B080E885838BEB868316968C91169784609A
S2140058C016968C938081816080839FBF636084E49A
