S0140000536D617274466163746F72792E7372656331
S2140000000C94AF020C94D5020C94D5020C94D50235
S2140000100C94D5020C94D5020C94D5020C94D502FF
S2140000200C94D5020C94D5020C94D5020C94D502EF
S2140000300C947F060C94D5020C94D5020C94D50231
S2140000400C94D5020C94D5020C94D5020C94D502CF
S2140000500C94D5020C94D5020C94D5020C94D502BF
S2140000600C94D5020C94D5020C94D5020C94D502AF
S2140000700C94D5020C94D5020C94D5020C94D5029F
S2140000800C94D5020C94D5020C94D5020C94D5028F
S2140000900C94D5020C94D5020C94D5020C94D5027F
S2140000A00C94D5020C94D5020C94D5020C94D5026F
S2140000B00C94D5020C94F9060C94D5020C94D50237
S2140000C00C94D5020C94D5020C94D5020C94D5024F
S2140000D00C94D5020C94D5020C94D5020C94D5023F
S2140000E00C94D5020C94D5020C94D5020C94D5022F
S2140000F00C94D5020C94D5020C94D5020C94D5021F
S2140001000C94D5020C94D5020C94D5020C94D5020E
S2140001100C94D5020C94D5020C94D5020C94D502FE
S2140001200C94D5020C94D5020C94D5020C94BC0603
S2140001300C94D5020C94D5020C94D5020C94D502DE
S2140001400C94D5020C94D5020C94D5020C94D502CE
S2140001500C94D5020C94D5020C94D5020C94D502BE
S2140001600C94D5020C94D5020C94D5020C94D502AE
S2140001700C94D5020C94D5020C94D5020C94D5029E
S2140001800C94D5020C94D5020C94D5020C94D5028E
S2140001900C9484180C94DF180C94D5020C94D50299
S2140001A00C94D5020C94D5020C9436070C94D50208
S2140001B00C94D5020C94D5020C94D5020C94D5025E
S2140001C00C94D5020C94D5020C94D5020C94D5024E
S2140001D00C94D5020C94D5020C94D5020C94D5023E
S2140001E00C94D5020C94D5020C94D5020C94D5022E
S2140001F00C94D5020C94D9290C94A62ABC0CCB0CD2
S214000200DA0CE90CF70C060D150D230D300D3F0D1D
S2140002104E0D5D0D711680168F169E16AC16BB160B
S214000220CA16D816E516F41603171217CA17CA17F1
S214000230CA17CA17CA17CA17CA17CA17CA17CA17B1
S214000240CA17CA17CA17CA17CA17CA17CA17CA17A1
S214000250CA17CA17C817C817C817C817C817C8179D
S214000260C817C817C817C817C817C817C817C81791
S214000270C817C817C817C817C817C817CC17CC1779
S214000280CC17CC17CC17CC17CC17CC17CC17CC1751
S214000290C617C617C617C617C617C617C617C61771
S2140002A0C617C617CC17CC17CC17CC17CC17CC173D
S2140002B0CC17CC17CC17CC17CC17CC17CC17CC1721
S2140002C0CC17CC17CC17CC17CC17CC17C417C41721
S2140002D0C417C417C417C417C417C417C417C41741
S2140002E0C417C417C417C417C417C217C217C21737
S2140002F0C217C217C217C217C217C217C217C21731
S214000300C217C217C217C217C017C017C017C01728
S214000310C017C017C017C017C017C017C017C01720
S214000320C017C017C017C017C017C017C017C01710
S214000330BE17BE17BE17BE17BE17BE17BE17BE1710
S214000340BE17BE17BC17BC17BC17BC17BC17BC170C
S214000350BC17BC17BC17BC17BC17BC17BC17BC1700
S214000360BC17BC17BC17BC17BC17BC17BC17BC17F0
S214000370BC17BC17BC17BC17BC17BC17BC17BC17E0
S214000380BA17BA17BA17BA17BA17B817B817B817E6
S214000390B817B817B617B617B617B617B617B417EE
S2140003A0B417B417B417B417CE17CE17CE17CE1788
S2140003B0CE17CE173E244124442447244A244D24F5
S2140003C050240C94150D0C94E5160C945E1A0C949F
S2140003D01D130C9412170C94DA0C0C9405040C9450
S2140003E0DF140C946C1A0C94FB140C94CA170C941F
S2140003F0B61A0C94D0170C94D7170C94F7030C94D9
S21400040076140C9477130C9423170C94C2170C9440
S214000410BC170C94DA030C9472120C9485030C949B
S21400042044240C9484140C9410120C9475030C94AD
S214000430D91B0C94CA160C94C0170C94691B0C9408
S214000440AC160C94230D0C9471160C94BC0C0C94E6
S2140004500E140C943F0D0C9470140C94581A0C94B3
S214000460710B0C94A61C0C947F1F0C94BB160C945A
S214000470CB0C0C9481030C94E90C0C94D9140C94BA
S214000480CE170C94C4170C944A240C94FE030C94B8
S214000490300D0C94F4160C9441240C94BA170C945A
S2140004A081180C9447240C945B030C946A1A0C94E1
S2140004B05D0D0C94681A0C9420040C949E160C94F3
S2140004C04E0D0C94BE170C94B8170C94B4170C94DD
S2140004D0B6170C94A2130C9429120C94A3170C9420
S2140004E023040C942D1A0C9450240C944D240C9434
S2140004F0821B0C94EF130C9403170C94DA1C0C94C8
S214000500AF030C9465030C9431100C94520C0C94AD
S214000510F70C0C94060D0C9440140C94D90E0C9405
S21400052058140C9480160C940C040C9433100C94F1
S214000530D8160C946E0D0C94C8170C948F160C9449
S214000540C6170C941A040C94CC170C943E240C94E6
S214000550F3030C94530B0C9413040C94F41411240E
S2140005601FBECFEFCDBFDFE3DEBF00E00CBF18BE7F
S21400057019BE1ABE1BBE13E2A0E0B0E2E6E6F2E643
S21400058000E00BBF02C007900D92AE3AB107D9F754
S2140005901BBE26E2AEEAB3E201C01D92A735B20743
S2140005A0E1F70E943E190C9431310C9400003BB7E1
S2140005B08BBFFB0186913BBF08953BB78BBFFB010A
S2140005C0879196913BBF089542E070C041E06EC0AF
S2140005D08093C00188278093C1018093C20147E0C1
S2140005E055D0CB0108958093C40148E04FC0809158
S2140005F0D00108953BB748E10D9400003BB74AE1AF
S2140006000D9400003BB740E20D9400003BB78BBF53
S214000610CB0142E20D9400003BB70B0143E20D9480
S21400062000003BB78BBFCB0144E20D9400003BB704
S2140006308BBFCB0145E20D9400003BB746E20D941C
S21400064000003BB78BBFCB014AE20D9400003BB7DE
S2140006508BBFCB014CE20D9400003BB78BBFCB01A8
S2140006604DE20D94000048E311C049E30FC028EDA9
S2140006702093340021E02093CC0108952091CF01EF
S21400068027FDFCCF22272093CA0108954093CA0174
S21400069028ED31E0209334003093CB016091C40103
S2140006A07091C5018091C60199270895FC01409379
S2140006B0CA01849108952FEF8DE399E4215080407C
S2140006C09040E1F700C000000895009769F020E030
S2140006D030E0EFE6F7E13197F1F700C000002F5F5A
S2140006E03F4F82179307A9F70895BC0180EA99E067
S2140006F00E94EC096CE473E280EA99E00E94940997
S21400070008959195819591090895CF92DF92EF9281
S214000710FF929B016C01092E000CEE08FF08AB014E
S214000720770F660B770B4C0D5D1D6E1D7F1D4115FB
S214000730E0E85E076105710544F4411550486F4FC7
S2140007407F4F34F0820F931F05C08FEF9FE702C0E4
S21400075081E090E8FF90EF90DF90CF900895CF92E1
S214000760DF92EF92FF929B01AC01092E000C660B04
S214000770770B6901032E000CEE08FF084C195D0983
S2140007806E097F094115E0E85E076105710544F4CE
S214000790411550486F4F7F4F34F0821B930B05C0B6
S2140007A08FEF9FE702C081E090E8FF90EF90DF9028
S2140007B0CF9008959C01DB010E94FF30611520E870
S2140007C07207810591054CF4611520E872072FEF3A
S2140007D0820792072CF0CB0108958FEF9FE70895CC
S2140007E081E090E808950E94A130CB01089521E0B1
S2140007F08617970709F020E0822F089521E06817F2
S21400080079070CF020E0822F089521E086179707DD
S2140008100CF020E0822F089521E0861797070CF44D
S21400082020E0822F089521E0681779070CF420E075
S214000830822F0895811102C0862F089581E00895C1
S2140008408111862F08958627089590ED980F9A3087
S21400085060F09FEB980F963010F4875308959FE949
S214000860980F963020F487550895892F08958FEFB6
S2140008700895CF93DF93D62F0E942504C82F8D2F7F
S2140008800E94250490E1C99F90011124822BDF91DC
S214000890CF910895F89488ED84BF83E0809380001C
S2140008A0FFCFEF92FF920F931F93CF93DF93E82E25
S2140008B0EB018901413071F580910220811128C039
S2140008C0809100209091012090588F3F9F47B0F074
S2140008D06CEB70E280EA99E00E9494096091002037
S2140008E07091012080EA99E00E94EC096DEC70E2BC
S2140008F080EA99E00E9494090E944A040E943E03FE
S214000900609100207091012080E090E00E94170323
S2140009100E944A04411156C0882309F453C0F12CA2
S2140009208091002090910120AC01452F55274695D7
S2140009309E01232F332726954217530741F1209116
S2140009400220211124C090588F3F9F47B0F06CEBD7
S21400095070E280EA99E00E9494096091002070910C
S214000960012080EA99E00E94EC096DEC70E280EAD2
S21400097099E00E9494090E944A040E943E036091F6
S21400098000207091012080E090E00E9417030E94F2
S2140009903E03F801EF0DF11D618170E0762F6627AA
S2140009A08081682BCE0191700E940C031092022069
S2140009B0C0930020D09301202296F394F394FE1463
S2140009C008F4AECFDF91CF911F910F91FF90EF907B
S2140009D008955F926F927F928F929F92AF92BF928E
S2140009E0CF92DF92EF92FF920F931F93CF93DF93F6
S2140009F0CDB7DEB76097CDBFDEBF5C01F894FC01D3
S214000A00628181810E943904782EF5016481838198
S214000A100E943904582EF501668185810E943904AA
S214000A20E82EF501608587810E943904682EF72C30
S214000A30F50CFE0CF80E7720F9F08501075F1F4FC6
S214000A40CE0101966C0188248A94870C912C880C20
S214000A50991C9BE0890E911C8A0C9B1CF8016181F5
S214000A6080810E943904F80EF60181936F010E5FB3
S214000A701F4F0815190591F7E72DF0E03596EE0F94
S214000A80FF1FEA0DFB1DDF01119760818C910E940C
S214000A9039048F0D41F066EE70E280EA99E00E941C
S214000AA094090E944A046AE171E280EA99E00E9491
S214000AB09409472D440F455FB50180EA99E00E94EE
S214000AC0B0096E2D70E075299E012F5F3F4F462DB1
S214000AD0872D0E9451046096CDBFDEBFDF91CF9177
S214000AE01F910F91FF90EF90DF90CF90BF90AF9047
S214000AF09F908F907F906F905F900895CF93DF9335
S214000B00CDB7DEB7E297CDBFDEBFCE0101966C0152
S214000B107E0193E3E90EF11C860180EA99E00E94CB
S214000B206C0998012C193D09F80181938F018A30D0
S214000B3041F4E2E0F0E0EC0FFD1FE20FF31F10823D
S214000B4003C0EE15FF0549F7C6010E94E904E4CF8D
S214000B500F931F93CF93DF93C0E1D7E280EA99E02B
S214000B600E948E0981110CC080E894E00E947D07E7
S214000B70811122C086EF8A95F1F7219779F71CC07C
S214000B80C7E2D1E20BE211E280EA99E00E946C092A
S214000B909991891311C0C017D107B1F780EA99E07F
S214000BA00E946C09853541F46CE271E280EA99E0B6
S214000BB00E9494090E947E05DF91CF911F910F91AC
S214000BC008950F931F93CF93DF93CDB7DEB7E297C9
S214000BD0CDBFDEBF8C0169E471E280EA99E00E9435
S214000BE0940942E3BE016F5F7F4F80E894E00E9465
S214000BF089078981833711F4F801199589818A3329
S214000C0039F063E571E280EA99E00E9494090BC02E
S214000C1061E771E280EA99E00E949409CE010196AC
S214000C200E94E904D8CFE296CDBFDEBFDF91CF9118
S214000C301F910F91089581E58093C0080895FC01E7
S214000C40638392819923ECF78381089521E030E055
S214000C5002C0220F331F6A95E2F7FC012583FAE0F3
S214000C60FA95F1F700C0089521E030E002C0220FA7
S214000C70331F6A95E2F7FC012683FAE0FA95F1F74E
S214000C8000C008951F93CF93DF93EC01162F642FB7
S214000C900E941F06612FCE010E941F0660E0CE0153
S214000CA00E941F06DF91CF911F9108950F931F9307
S214000CB0CF93DF93EC01062F142F622F0E941F069E
S214000CC0602FCE010E941F06612FCE010E941F06D4
S214000CD0DF91CF911F910F910895FC01DA011A96CA
S214000CE09C9191FF04C0309749F0199508956115BD
S214000CF0710521F0FA018485FB01199508951F926C
S214000D000F920FB60F92112408B60F9218BE09B6AE
S214000D100F9219BE0BB60F921BBE2F933F934F93A5
S214000D205F936F937F938F939F93AF93BF93EF934E
S214000D30FF936091B7237091B82340E854E0809108
S214000D40BF239091C0230E946D06FF91EF91BF9143
S214000D50AF919F918F917F916F915F914F913F914E
S214000D602F910F900BBE0F9009BE0F9008BE0F90EC
S214000D700FBE0F901F9018951F920F920FB60F92EE
S214000D80112408B60F9218BE09B60F9219BE0BB6FC
S214000D900F921BBE2F933F934F935F936F937F9358
S214000DA08F939F93AF93BF93EF93FF936091B52379
S214000DB07091B62340E954E08091BD239091BE2304
S214000DC00E946D06FF91EF91BF91AF919F918F9119
S214000DD07F916F915F914F913F912F910F900BBE36
S214000DE00F9009BE0F9008BE0F900FBE0F901F9079
S214000DF018951F920F920FB60F92112408B60F92F5
S214000E0018BE09B60F9219BE0BB60F921BBE2F93D3
S214000E103F934F935F936F937F938F939F93AF937D
S214000E20BF93EF93FF936091B3237091B42340EA8E
S214000E3054E08091BB239091BC230E946D06FF91E5
S214000E40EF91BF91AF919F918F917F916F915F913D
S214000E504F913F912F910F900BBE0F9009BE0F90B0
S214000E6008BE0F900FBE0F901F9018951F920F92FE
S214000E700FB60F92112408B60F9218BE09B60F923D
S214000E8019BE0BB60F921BBE2F933F934F935F93E3
S214000E906F937F938F939F93AF93BF93EF93FF933D
S214000EA06091B1237091B22340EB54E08091B92356
S214000EB09091BA230E946D06FF91EF91BF91AF917A
S214000EC09F918F917F916F915F914F913F912F915D
S214000ED00F900BBE0F9009BE0F9008BE0F900FBE6E
S214000EE00F901F901895FC018EE1808780858062A8
S214000EF080878085806C80870895FC01228526FF88
S214000F0006C082858695817091E08927089580E0E5
S214000F100895FC011092AF231092B0231092AE23D6
S214000F2080E4828750E020E8828586FF04C081E066
S214000F308093AE231BC082858823B4F78091AF23AD
S214000F409091B023481759078CF08091AF23909169
S214000F50B023DC011196A093AF23B093B023348561
S214000F60DB01A80FB91F3C932287DECF8091AE230A
S214000F700895FC01828586FFFDCF828581FF25C00E
S214000F808285806C8287648781858B7F8187818557
S214000F90826081878285882374F4828583FD03C0FE
S214000FA0828582FFF7CF8285846082878285806C07
S214000FB0828780E0089580E58A95F1F7828586FF2E
S214000FC0DFCF828580FDDCCF02C080E00895828579
S214000FD0806C828781E00895603924E0720791F082
S214000FE024F46038744049F01CC0603A24E072076C
S214000FF071F0603B744081F014C08093BF239093DF
S214001000C02308958093BD239093BE2308958093B4
S214001010BB239093BC2308958093B9239093BA235F
S2140010200895FFCF603924E0720791F024F4603809
S214001030744049F01CC0603A24E0720771F0603BCF
S214001040744081F014C08093B7239093B82308951A
S2140010508093B5239093B62308958093B3239093FB
S214001060B42308958093B1239093B2230895FFCFBD
S2140010708F708A3010F0895C0895805D08954F92D5
S2140010805F926F927F928F929F92AF92BF92EF92F3
S214001090FF920F931F93CF937C014A015B012801B7
S2140010A03901FC01848182FF16C0D901C801689409
S2140010B012F8B695A795979587951694D1F7B90126
S2140010C0A801032E36E176956795579547953A958C
S2140010D0D1F7302D15C0D901C801689413F8B6951C
S2140010E0A795979587951694D1F7B901A801032E71
S2140010F037E176956795579547953A95D1F7302D10
S21400110088159905AA05BB0508F4A6C08416950699
S214001110A606B70608F4A2C0F701848182FD04C0C3
S214001120880C991CAA1CBB1CC301B201A501940122
S2140011300E94B5302F3F31054105510508F490C097
S2140011408FEF90E0A0E0B0E0C9EF05C028173907A0
S2140011504A075B0758F0880F991FAA1FBB1FCD3F91
S2140011600CF48160CF5FC73089F74FC0CC230CF0FA
S2140011704CC0D501C401880F991FAA1FBB1F880F3A
S214001180991FAA1FBB1F880F991FAA1FBB1F481AAB
S214001190590A6A0A7B0ACE3FF4F48DEF9FEF8C1B48
S2140011A09109C7FD939504C0440C551C661C771C1A
S2140011B08A95D2F7D501C401B695A79597958795D8
S2140011C0BC01CD01640D751D861D971DA5019401FA
S2140011D00E94B53037C083E08C0FA501940104C08F
S2140011E0220F331F441F551F8A95D2F7DA01C90113
S2140011F0B695A79597958795BC01CD01640D751D8D
S214001200861D971D0E94B5301DC083E08C0FA5017A
S214001210940104C0220F331F441F551F8A95D2F72E
S214001220DA01C901B695A79597958795BC01CD01BA
S214001230640D751D861D971D0E94B530215031091D
S21400124041095109832F8F70C295C07FC82BF701C3
S214001250C783268381E018C080E016C080E014C0F3
S214001260D501C401880F991FAA1FBB1F880F991F9D
S214001270AA1FBB1F880F991FAA1FBB1F481A590A0F
S2140012806A0A7B0AC9EF89CFCF911F910F91FF9011
S214001290EF90BF90AF909F908F907F906F905F90F1
S2140012A04F9008950F931F93CF93DF93EC010E9406
S2140012B03F088FE59AEE0197F1F700C0000088E13D
S2140012C08C83DF91CF911F910F910895FC0191813E
S2140012D095FFFDCF60830895FC0191819923ECF77B
S2140012E080810895FC016115710599F0818188233C
S2140012F034F020E030E005C09181992314F4808119
S214001300089588E08A95F1F72F5F3F4F62177307BD
S21400131099F781E0FA01808380E00895FC018181DD
S214001320881F8827881F0895EF92FF920F931F93B8
S214001330CF93FB016081662369F08F017C01C0E0DA
S214001340C7010E946609CF5FF801EC0FF11D6081AE
S2140013506111F6CFCF911F910F91FF90EF900895F6
S214001360EF92FF920F931F93CF93DF93442381F066
S2140013707C01EB014150042F10E00F5F1F4F060F5A
S214001380171F6991C7010E946609C017D107C9F7E0
S214001390DF91CF911F910F91FF90EF9008951F93CB
S2140013A0CF93DF93EC01162F66E771E20E94940953
S2140013B0812F82958F700E943808682FCE010E9478
S2140013C06609812F0E943808682FCE010E946609A0
S2140013D0DF91CF911F9108950F931F93CF93DF93C3
S2140013E08C01EB01DD2334F4D195C195D1096DE272
S2140013F00E946609CE0160E177E20E94A130662372
S21400140031F0605DC8010E94660921E001C020E05D
S214001410CE0168EE73E00E94A130CB016AE070E076
S2140014200E94A130882381F060E3680FC8010E9403
S2140014306609CE0164E670E00E94A130CB016AE046
S21400144070E00E94A1300EC0CE0164E670E00E94FB
S214001450A130CB016AE070E00E94A130811102C089
S2140014602223F9F060E3680FC8010E9466092AE0AB
S21400147030E0CE01B9010E94A130CB01B9010E9433
S214001480A13060E3680FC8010E946609CE016AE0D9
S21400149070E00E94A13060E3680FC8010E946609F0
S2140014A00DC02AE030E0CE01B9010E94A130CB0188
S2140014B0B9010E94A130882349F3E3CFDF91CF9191
S2140014C01F910F910895FC01818185FB882780F983
S2140014D0089590E00E94CA1E08950E940B1D88235E
S2140014E0E1F30E94641D0895EF92FF920F931F93FD
S2140014F0CF93DF938C017B01892B81F0C0E0D0E095
S2140015000E940B1D882319F00E94641D0BC088E002
S2140015108A95F1F721960C171D0791F781E0F701E0
S214001520808380E0DF91CF911F910F91FF90EF9025
S21400153008950E94771E08950F931F93CF93FC0182
S2140015408081882361F08F01C0E090E00E94CA1E6F
S214001550CF5FF801EC0FF11D80818111F6CFCF919E
S2140015601F910F9108950F931F93CF93DF936623D8
S21400157079F0EC016150062F10E00F5F1F4F080F47
S214001580191F899190E00E94CA1EC017D107C9F79B
S214001590DF91CF911F910F910895CF93C82F86E7C3
S2140015A091E20E949C0A8C2F82958F700E943808C8
S2140015B090E00E94CA1E8C2F0E94380890E00E947D
S2140015C0CA1ECF910895CF93DF93EC0199233CF484
S2140015D0D195C195D1098DE290E00E94CA1ECE0138
S2140015E060E177E20E94A130662339F080E3860F3F
S2140015F090E00E94CA1E21E001C020E0CE0168EE05
S21400160073E00E94A130CB016AE070E00E94A13036
S214001610882379F0805D90E00E94CA1ECE0164E6C1
S21400162070E00E94A130CB016AE070E00E94A13019
S2140016300EC0CE0164E670E00E94A130CB016AE0E5
S21400164070E00E94A130811102C02223E1F0805D8B
S21400165090E00E94CA1E2AE030E0CE01B9010E9446
S214001660A130CB01B9010E94A130805D90E00E94BC
S214001670CA1ECE016AE070E00E94A130805D90E054
S2140016800E94CA1E0DC02AE030E0CE01B9010E94B9
S214001690A130CB01B9010E94A130882351F3E5CFD8
S2140016A0DF91CF9108950F931F93CF93DF931F92EF
S2140016B0CDB7DEB769E771E280EA99E00E94940947
S2140016C0198200EB1AE028E041E0BE016F5F7F4F11
S2140016D08CE40E94B0120F90DF91CF911F910F9172
S2140016E00895CF938091C323882329F0C091C22305
S2140016F0C11106C00AC0C091C123C11104C005C0F3
S2140017000E94530B02C00E94530B8C2FCF9108955A
S214001710CF93C091C323C81312C081E08093C22325
S2140017201092C1230E94530B8091C323C81307C095
S2140017301092C22381E08093C1230E94530BCF9165
S21400174008950895CF93DF93E0E2F7E080818F7EDF
S214001750808380818F7D8083E5E3F7E0D8E1D083C6
S214001760C2E0C0836CE971E280EA99E00E949409C5
S214001770E4E3F7E0D083C08364EB71E280EA99E0AB
S2140017800E949409EAE2F7E080818061808380818C
S21400179080628083E9E2F7E0808181608083DF9168
S2140017A0CF910895EAE2F7E08081806180838081AE
S2140017B080628083E4E3F7E0808182608083E5E3F3
S2140017C0F7E0808182608083E9E2F7E080818160D3
S2140017D080830895CF93C82F0E94A20B2FE782E341
S2140017E092E0215080409040E1F700C000008091D8
S2140017F0280784FD19C0C1111CC048C0C11121C0F2
S2140018001CC08091C12381110DC01FC0C11143C0EF
S21400181025C0CC2359F126C08091280785FD2CC011
S21400182080E03EC080E03CC08091280785FFE6CF80
S21400183008C081E08093C22327C081E08093C12343
S21400184023C08091C2238111DCCF8091280784FFBA
S214001850DDCF8091280785FFDCCF08C081E080932C
S214001860C2230EC081E08093C1230AC0809128075E
S21400187084FDD2CF80E014C01092C2231092C12300
S2140018800E94D20B81E00CC080E00AC0809128073D
S21400189085FFD3CFD6CF8091280785FFE3CFE6CF4D
S2140018A0CF910895EF92FF920F931F93CF93DF93FC
S2140018B0CDB7DEB72897CDBFDEBF182F8093C323E2
S2140018C00E94EA0B882331F1EE24E394F12EFE24E5
S2140018D0F88600EB1AE028E041E0BE01685F7F4F23
S2140018E08AE40E94B012BE016F5F7F4F87E0FB0163
S2140018F011928A95E9F783E0898386E68A838FEFDB
S2140019008B838C83EE82EF82FD8228E047E086E4BC
S2140019100E94B0122896CDBFDEBFDF91CF911F91F7
S2140019200F91FF90EF900895611103C080932207F6
S2140019300895613011F4809321070895662319F005
S2140019408093250708958093260708959091280789
S214001950982381E009F480E00895282F862F90E0F0
S214001960FC013197EC30F10508F0B6C08827E2504C
S214001970FF4F8F4F0C94F630222321F080E880939F
S214001980250703C080E88093260780912807881FD4
S2140019908827881F0895222321F080E48093250756
S2140019A003C080E4809326078091280786FB88275B
S2140019B080F90895222321F080E28093250703C052
S2140019C080E2809326078091280785FB882780F988
S2140019D00895222321F080E18093250703C080E14B
S2140019E08093260780912807829581700895222388
S2140019F021F088E08093250703C088E080932607BF
S214001A008091280783FB882780F90895222321F0F8
S214001A1084E08093250703C084E0809326078091A6
S214001A20280782FB882780F90895222321F082E088
S214001A308093250703C082E08093260780912807BD
S214001A40869581700895222321F081E080932507F2
S214001A5003C081E08093260780912807817008954F
S214001A60222321F080E88093050703C080E8809356
S214001A70060780910807881F8827881F0895222355
S214001A8021F080E48093050703C080E48093060776
S214001A908091080786FB882780F90895222321F085
S214001AA080E88093E50603C080E88093E606809190
S214001AB0E806881F8827881F0895222321F080E4DF
S214001AC08093E50603C080E48093E6068091E806EE
S214001AD086FB882780F9089580E00895089521E020
S214001AE08617970709F020E0822F08950F931F931B
S214001AF0E0EEF6E09081906C9083813059F018F01B
S214001B00823079F014C0E6EEF6E080E8808380E468
S214001B1080830DC0E5EEF6E080E8808380E4808375
S214001B2006C080E88093E60680E48093E50600E140
S214001B3017E220E030E040E060E480E097E00E94BA
S214001B407A0FCB011F910F910895FF920F931F9369
S214001B50CF93DF93F82E062F142F82958F700E9456
S214001B603808C3E0D0E289838F2D0E9438088A8324
S214001B70802F82958F700E9438088B83802F0E945A
S214001B8038088C83812F82958F700E9438088D8349
S214001B90812F0E9438088E838FE295E70197F1F730
S214001BA000C00000CE01DF91CF911F910F91FF90F2
S214001BB00895803810F08FEF089580E0089500971C
S214001BC069F1633098F4A0E0B0E09C01AD012C57B9
S214001BD0310941095109AFEFB0E00E941D3122E9F9
S214001BE03FEF4FEF5FEF0E94D73004C020E030E0B9
S214001BF040E050E0822F932FA42FB52FBB231CF478
S214001C0080E090E0DC018F3F9105A105B10539F039
S214001C1034F08FEF90E0A0E0B0E0089580E0089503
S214001C200F931F93062F662381F0E82FF92F80E08D
S214001C3040E050E0BA01A191B1914A0F5B1F611DCF
S214001C40711D8F5F0813F7CF03C040E050E0BA0164
S214001C5010E020E030E0CB01BA01A90198010E9413
S214001C60B530C9011F910F910895442349F0861796
S214001C70970741F480E08F5F4813FDCF81E0089519
S214001C8081E0089580E00895FC013081332389F1D6
S214001C90319660E070E0CB0120ED230F2A3078F01B
S214001CA02FE9230F263018F429EA230F08C02FEB5C
S214001CB0230F263018F429EC230F01C0232FDC0154
S214001CC0CB01880F991FAA1FBB1F880F991FAA1F39
S214001CD0BB1F880F991FAA1FBB1F880F991FAA1F1B
S214001CE0BB1F2F70BC01CD01622B31913111D4CFB7
S214001CF0089560E070E0CB010895CF93DF9300D0A5
S214001D00CDB7DEB71B82FC018181928189839A83DD
S214001D10CE0101960E94440E862F2396CDBFDEBFCD
S214001D20DF91CF910895CF93DF9300D0CDB7DEB784
S214001D301B82FC018381948189839A83CE0101965C
S214001D400E94440E862F2396CDBFDEBFDF91CF9133
S214001D500895CF93DF9300D0CDB7DEB71B82FC018A
S214001D608581968189839A83CE0101960E94440ECE
S214001D70862F2396CDBFDEBFDF91CF9108950F93B8
S214001D801F93CF938C010E947D0E882311F0C4E030
S214001D9001C0C0E0C8010E94930E8111C260C80154
S214001DA00E94A90E8111C1608C2FCF911F910F91B7
S214001DB00895AF92BF92CF92DF92FF920F931F9338
S214001DC0CF93DF93CDB7DEB72D97CDBFDEBF5E01D5
S214001DD08BE0A80EB11CF12C65018E010F5F1F4F22
S214001DE08F2D0E94760DF801819391938F01EC154B
S214001DF0FD05B1F765E0CE0101960E94100E6F2D2D
S214001E000E94DF0D0E94D90DF50181935F01F394C6
S214001E10F3E0FF12E2CF6AEC71E280EA99E00E94FA
S214001E209409FD840C851B854F2D602F812F0E9401
S214001E30A50DBC0180EA99E00E9494096EE572E265
S214001E4080EA99E00E9494094F2D602F812F0E940E
S214001E50A50D0E94BF0E90E02D96CDBFDEBFDF9190
S214001E60CF911F910F91FF90DF90CF90BF90AF90D2
S214001E7008954F925F926F927F92AF92BF92CF92E9
S214001E80DF92EF92FF920F931F93CF93DF93CDB71E
S214001E90DEB729013A019B01AC0124193509460930
S214001EA057098A899B89AC89BD89BC01CD016A190D
S214001EB07B098C099D090E947D30A8019701241991
S214001EC03509460957090E94D730CA01B9016A0D7B
S214001ED07B1D8C1D9D1DDF91CF911F910F91FF9053
S214001EE0EF90DF90CF90BF90AF907F906F905F9015
S214001EF04F9008958F929F92AF92BF92CF92DF92AB
S214001F00EF92FF920F931F93FC01862F442311F04C
S214001F10A62F01C0A0E0B901A801440F551F661FF7
S214001F20771F040F151F261F371F36952795179501
S214001F3007953F7040E050E0BA0190859823A913BA
S214001F4010C06A017B019FEFC91AD90AE90AF90A8B
S214001F50041715072607370709F469C0B701A60155
S214001F60ECCF90859823A91308C090859823A917CD
S214001F70A1F0C12CD12C76012FC06A017B019FEF06
S214001F80C91AD90AE90AF90A0417150726073707EE
S214001F9009F451C0B701A601E4CF40175107620704
S214001FA0730709F44CC0C12CD12C76010CC04A0131
S214001FB05B018C0C9D1CAE1CBF1C081519052A0560
S214001FC03B0509F440C09FEFC91AD90AE90AF90A85
S214001FD090859823A91759F3B701A601440F551FFA
S214001FE0661F771F440F551F661F771FDB01CA0148
S214001FF0880F991FAA1FBB1F880F991FAA1FBB1FF8
S214002000840F951FA61FB71F8C0D9D1DAE1DBF1DEF
S214002010BC01CD01605F7F4F8F4F9F4F28E130E0BE
S21400202040E050E00E94B530CA01B9010FC060E040
S21400203070E0CB010BC060E070E0CB0107C060E051
S21400204070E0CB0103C060E070E0CB011F910F9100
S214002050FF90EF90DF90CF90BF90AF909F908F90C3
S214002060089580E008950F931F93CF93DF931F92F8
S214002070CDB7DEB7198200EB1AE027E041E0BE01DB
S2140020806F5F7F4F8CE40E94B0120F90DF91CF916C
S2140020901F910F9108958091280786FD0EC064ED6C
S2140020A071E280EA99E00E9494090E94331081E070
S2140020B08093C5231092C42308958091280788230F
S2140020C074F064ED71E280EA99E00E9494090E943F
S2140020D033101092C52381E08093C423089565E0F1
S2140020E072E280EA99E00E9494091092C523109249
S2140020F0C423089581E08093C5231092C4230E94D0
S214002100331008951092C52381E08093C4230E9463
S21400211033100895E0E2F7E09081282F209592236F
S21400212090839081262F209592239083883029F1E2
S21400213038F48230B1F08430D1F08130D9F50BC05C
S214002140803239F118F48031F1F034C0803439F13E
S214002150803859F12FC0E0E3F7E080818861808302
S21400216029C0E1E3F7E080818861808323C0E2E351
S214002170F7E08081886180831DC0E3E3F7E080811B
S2140021808861808317C0E4E3F7E0808188618083FC
S21400219011C0E5E3F7E08081886180830BC0E6E349
S2140021A0F7E080818861808305C0E7E3F7E08081FF
S2140021B088618083683029F138F46230B1F0643089
S2140021C0D1F06130D9F50BC0603239F118F46031C6
S2140021D0F1F00895603439F1603859F10895E0E37C
S2140021E0F7E08081886180830895E1E3F7E08081ED
S2140021F0886180830895E2E3F7E0808188618083C8
S2140022000895E3E3F7E08081886180830895E4E33E
S214002210F7E08081886180830895E5E3F7E08081B8
S214002220886180830895E6E3F7E080818861808393
S2140022300895E7E3F7E08081886180830895EBE204
S214002240F7E09081982B90839081692B608384308F
S21400225009F128F4813041F0823089F03BC08830A3
S21400226021F1803169F136C0E0E3F7E080818260D9
S2140022708083E1E3F7E08081826080832BC0E1E326
S214002280F7E0808182608083E2E3F7E0808182600D
S214002290808320C0E2E3F7E0808182608083E3E30E
S2140022A0F7E080818260808315C0E2E3F7E08081FA
S2140022B082608083E4E3F7E08081826080830AC0E6
S2140022C0E2E3F7E0808182608083E5E3F7E08081E7
S2140022D082608083E9E2F7E08081846080830895ED
S2140022E060E880E40E948A102FE782E392E02150A3
S2140022F080409040E1F700C000008091280786FDEE
S21400230027C08091C623811128C022C08091C62391
S214002310811127C015C08091C423811117C025C024
S2140023208091C62381110CC03AC08091C6238111CA
S21400233029C024C080912807882354F180E008959E
S21400234060E880E40E941F1181E0089580E008950F
S2140023508091280786FFDACF04C081E08093C523EA
S2140023601CC08091C5238111D6CF80912807882371
S214002370BCF6809128078823C4F604C081E08093C9
S214002380C4230BC08091280786FDD4CF80E0089533
S2140023901092C5231092C423D3CF80E00895809175
S2140023A0280788235CF7EECFFF920F931F93CF93F7
S2140023B0DF93CDB7DEB72897CDBFDEBFF82E0E94DD
S2140023C07011882321F1F092C623F88600EB1AE0FC
S2140023D027E041E0BE01685F7F4F8AE40E94B012AA
S2140023E0BE016F5F7F4F87E0FB0111928A95E9F788
S2140023F081E08F8389838CE28A8383E18B8388E8FC
S2140024008C83FD8227E047E086E40E94B01228967F
S214002410CDBFDEBFDF91CF911F910F91FF90089542
S2140024208091C523882329F08091C423882349F00E
S214002430089580E00E94D4118091C5238823C9F3B3
S214002440F3CF81E00E94D4118091C4238823C9F37E
S2140024500895DF92EF92FF920F931F93CF93DF932F
S214002460CDB7DEB72897CDBFDEBF8C010E947011B6
S214002470882369F10115110531F0EE24FF24E01AD6
S214002480F10AD12C04C0E12CF12CDD24D394D8869B
S21400249000EB1AE027E041E0BE01685F7F4F8AE468
S2140024A00E94B012BE016F5F7F4F87E0FB01119262
S2140024B08A95E9F781E08F83898380E98A83FB82A6
S2140024C0EC82DD8227E047E086E40E94B012289680
S2140024D0CDBFDEBFDF91CF911F910F91FF90EF90A0
S2140024E0DF900895DF92EF92FF920F931F93CF93A2
S2140024F0DF93CDB7DEB72897CDBFDEBFF82EE62E2A
S214002500D72E0E947011882301F1F88600EB1AE09E
S21400251027E041E0BE01685F7F4F8AE40E94B01268
S214002520BE016F5F7F4F87E0FB0111928A95E9F746
S21400253081E08F8389838CE28A83DB82EC82FD8252
S21400254027E047E086E40E94B0122896CDBFDEBFA3
S214002550DF91CF911F910F91FF90EF90DF9008953C
S214002560CF92DF92EF92FF920F931F93CF93DF935A
S214002570D82E7B01D42FC22EF894CCEFC81BC41BD8
S214002580C21B442369F0FB012FEF240F30E02F5FBE
S2140025903F4F260F371F8191C81BE217F307D9F765
S2140025A06FEFC8010E9466096FEFC8010E946609B6
S2140025B06C2DC8010E94660963E06D0FC8010E9479
S2140025C0660960E0C8010E9466096D2DC8010E9478
S2140025D066094D2FB701C8010E94B0096C2FC801CB
S2140025E00E9466092FE782E392E0215080409040E7
S2140025F0E1F700C000007894DF91CF911F910F9112
S214002600FF90EF90DF90CF9008950F931F93CF9396
S214002610DF931F92CDB7DEB7262F898300EB1AE033
S21400262041E0BE016F5F7F4F8AE40E94B0120F90B8
S214002630DF91CF911F910F910895CF92DF92EF9285
S214002640FF920F931F93CF93DF93CDB7DEB72897F4
S214002650CDBFDEBF6230710561F020F461307105D8
S214002660A9F039C06330710541F06430710551F04E
S21400267032C06894CC24C1F80BC00F2EF3E0CF2EE6
S214002680F02D06C06894CC24C2F802C0CC24C394B3
S214002690D52EE42EF82E898300EB1AE02C2D41E08F
S2140026A0BE016F5F7F4F8AE40E94B012BE016E5F6C
S2140026B07F4F87E0FB0111928A95E9F78FEF8C83B5
S2140026C08D8381E08887DA82EB82FE822C2D47E0BC
S2140026D086E40E94B0122896CDBFDEBFDF91CF9170
S2140026E01F910F91FF90EF90DF90CF9008950F937A
S2140026F01F93CF93DF931F92CDB7DEB7823091053D
S21400270051F018F4019769F017C08330910529F04D
S214002710049729F011C022E005C023E003C024E09E
S21400272001C021E0198200EB1AE041E0BE016F5FB4
S2140027307F4F8CE40E94B0120F90DF91CF911F91D3
S2140027400F910895CF92DF92EF92FF920F931F930F
S214002750CF93DF93CDB7DEB72897CDBFDEBF61300E
S214002760710541F06230710571F50F2EF6E0CF2E3F
S214002770F02D04C00F2EF5E0CF2EF02DD52EE42E32
S214002780F82E898300EB1AE02C2D41E0BE016F5F26
S2140027907F4F8AE40E94B012BE016E5F7F4F87E0D3
S2140027A0FB0111928A95E9F78FEF8C838D8382E087
S2140027B08F8381E08887DA82EB82FE822C2D47E0C9
S2140027C086E40E94B0122896CDBFDEBFDF91CF917F
S2140027D01F910F91FF90EF90DF90CF9008950F9389
S2140027E01F93CF93DF931F92CDB7DEB7813091054D
S2140027F021F0029769F426E001C025E0198200EB7B
S2140028001AE041E0BE016F5F7F4F8CE40E94B01279
S2140028100F90DF91CF911F910F9108950F931F9303
S214002820CF93DF93CDB7DEB72897CDBFDEBF198233
S21400283000EB1AE02AE041E0BE016F5F7F4F8AE4BA
S2140028400E94B012BE016E5F7F4F87E0FB011192BF
S2140028508A95E9F78FEF8C838D8381E0888783E004
S2140028608A8388EE8B832AE047E086E40E94B012D3
S2140028702896CDBFDEBFDF91CF911F910F910895AF
S2140028800F931F93CF93DF931F92CDB7DEB71982B6
S21400289000EB1AE02AE041E0BE016F5F7F4F8CE458
S2140028A00E94B0120F90DF91CF911F910F91089563
S2140028B00F931F93CF93DF931F92CDB7DEB7698335
S2140028C000EB1AE0282F41E0BE016F5F7F4F85E0E6
S2140028D00E94B0120F90DF91CF911F910F91089533
S2140028E0E7EEF6E08081806380830895882331F0E8
S2140028F0E6EEF6E08081806380830895E5EEF6E0FC
S2140029008081806380830895CF93DF93D82FC62F6E
S2140029106CE372E280EA99E00E949409C33049F1C0
S21400292028F4C130D1F1C23071F140C0C53069F031
S214002930B0F0C630D9F5DD2321F082E08093E507BC
S21400294035C082E08093E60731C0DD2321F081E0C8
S2140029508093E5072BC081E08093E60727C0DD2340
S21400296021F088E08093C50721C088E08093C607E1
S2140029701DC0DD2321F084E08093C50717C084E0E6
S2140029808093C60713C0DD2321F082E08093C5073D
S2140029900DC082E08093C60709C0DD2321F081E0E8
S2140029A08093C50703C081E08093C607DF91CF916F
S2140029B00895982F862F692F0E9484140895CF9328
S2140029C0C82F682F81E00E9484142FEF85EA9EE0CE
S2140029D0215080409040E1F700C000006C2F80E05E
S2140029E00E948414CF9108956091C82380E894E0F3
S2140029F00E94B90708956091C72380E894E00E947A
S214002A00B9070895009709F45CC1803C910529F444
S214002A1060E180E00E94352C0895803424E092071F
S214002A2029F468E080E00E94352C0895811524E0A2
S214002A30920729F464E080E00E94352C08958038DF
S214002A4021E0920729F462E080E00E94352C089588
S214002A50811521E0920729F461E080E00E94352C80
S214002A600895803823E0920729F461E081E00E940F
S214002A70352C0895803923E0920729F461E082E03E
S214002A800E94352C0895811522E0920729F462E011
S214002A9081E00E94352C0895803422E0920729F4C4
S214002AA062E082E00E94352C0895811523E09207AB
S214002AB029F464E081E00E94352C0895803223E0FA
S214002AC0920729F464E082E00E94352C089581156F
S214002AD028E0920729F461E083E00E94352C0895EF
S214002AE0811529E0920729F461E084E00E94352CE4
S214002AF0089581152AE0920729F461E085E00E9496
S214002B00352C089581152BE0920729F461E086E0C4
S214002B100E94352C0895803428E0920729F462E05C
S214002B2083E00E94352C0895803429E0920729F42A
S214002B3062E084E00E94352C089580342AE09207F3
S214002B4029F462E085E00E94352C089580342BE05D
S214002B50920729F462E086E00E94352C08958039B9
S214002B6028E0920729F464E083E00E94352C08955B
S214002B70803929E0920729F464E084E00E94352C2D
S214002B80089580392AE0920729F464E085E00E94DF
S214002B90352C089580392BE0920729F464E086E00E
S214002BA00E94352C0895803C28E0920729F468E0BE
S214002BB083E00E94352C0895803C29E0920729F492
S214002BC068E084E00E94352C0895803C2AE0920755
S214002BD029F468E085E00E94352C0895803C2BE0BF
S214002BE0920729F468E086E00E94352C0895803A22
S214002BF028E0920729F460E183E00E94352C0895CE
S214002C00803A29E0920729F460E184E00E94352C9E
S214002C100895803A2AE0920729F460E185E00E9450
S214002C20352C0895803A2BE0920729F460E186E07F
S214002C300E94352C0895803B28E0920729F460E234
S214002C4083E00E94352C0895803B29E0920729F402
S214002C5060E284E00E94352C0895803B2AE09207CB
S214002C6029F460E285E00E94352C0895803B2BE035
S214002C70920729F460E286E00E94352C0895803899
S214002C8024E0920729F460E483E00E94352C08953E
S214002C90803924E0920729F460E484E00E94352C11
S214002CA00895803A24E0920729F460E485E00E94C3
S214002CB0352C0895803B944021F460E486E00E9421
S214002CC0352C0895282F862F90E0FC013197EC30A4
S214002CD0F10508F0B6C08827E65FFE4F8F4F0C94CC
S214002CE0F630222321F080E88093250703C080E891
S214002CF08093260780912807881F8827881F0895B5
S214002D00222321F080E48093250703C080E480938B
S214002D1026078091280786FB882780F908952223B6
S214002D2021F080E28093250703C080E28093260787
S214002D308091280785FB882780F90895222321F0B3
S214002D4080E18093250703C080E180932607809169
S214002D502807829581700895222321F088E08093C9
S214002D60250703C088E0809326078091280783FB09
S214002D70882780F90895222321F084E08093250790
S214002D8003C084E0809326078091280782FB88276B
S214002D9080F90895222321F082E08093250703C05E
S214002DA082E0809326078091280786958170089593
S214002DB0222321F081E08093250703C081E08093E1
S214002DC026078091280781700895222321F080E845
S214002DD08093050703C080E8809306078091080764
S214002DE0881F8827881F0895222321F080E4809377
S214002DF0050703C080E4809306078091080786FBDA
S214002E00882780F90895222321F080E88093E5063C
S214002E1003C080E88093E6068091E806881F88272E
S214002E20881F0895222321F080E48093E50603C0DE
S214002E3080E48093E6068091E80686FB882780F982
S214002E40089580E00895682F81E00E946216089534
S214002E50AAECB1E022E02C93FC0184911C92089528
S214002E60FC01633089F028F4613041F0623049F0AB
S214002E701DC0643061F0653069F018C088E0818359
S214002E800BC080E1818308C088E1818305C080E2B1
S214002E90818302C088E281838081806880839381F9
S214002EA090FFFDCF81E083838481089580E00895BC
S214002EB080960E94301708950F931F93CF93DF9349
S214002EC0EC01C11582E0D80779F480B590E00E9445
S214002ED0281700E012E0F801848781B590E00E9490
S214002EE02817F801858714C0C034F2E0DF0779F4AC
S214002EF084B590E00E94281700E412E0F801848769
S214002F0085B590E00E942817F801858701C0FFCF9D
S214002F1082E0888380E28A8384E089838C83888148
S214002F208160888381E088A31092220261E0CE014E
S214002F300E94581761E0CE010E945817DF91CF918A
S214002F401F910F910895682F80E092E00E94581715
S214002F5090E0FC01FC97E43CF105F0F48827EA5E7B
S214002F60FE4F8F4F0C94F63085E0089587E0089565
S214002F7088E0089589E008958AE008958BE0089532
S214002F808CE008958DE008958EE0089580E1089520
S214002F9084E1089589E108958EE1089584E0089516
S214002FA0682F80E092E00E94581790E00895CF9333
S214002FB0DF93CDB7DEB72B97CDBFDEBF60E874E0FA
S214002FC08BEF94E10E94EC070F2EF6EECF2EF6E084
S214002FD0DF2EF02D0F2EF7E09F2EF02D5E0184E001
S214002FE0A80EB11C0F2EFCE47F2EF02D0F2EF2E360
S214002FF08F2EF02D0F2EF5EEEF2EF6E0FF2EF02D95
S21400300080E894E00E947D078823D1F3F601808152
S2140030108063808343E0BE016F5F7F4F80E894E06B
S2140030200E9489078FE697E10197F1F700C000003C
S214003030E0E8F4E08285806C82878981811120C077
S2140030408B818B8700EB1AE02A8141E0BE01655F29
S2140030507F4F8AE40E94B012F501892D11928A955D
S214003060E9F781E08C837D828F8289878A878B81CE
S21400307088872A81492DB50186E40E94B01208C0CF
S214003080813031F48A8190E00E94D0178093C72364
S214003090F701808180638083B3CF8FE3809302073C
S2140030A008958230A9F028F4882349F0813059F039
S2140030B026C08430C9F090F08530D9F020C08091C9
S2140030C00807817008958091080786958170089595
S2140030D08091080782FB882780F908958091080769
S2140030E083FB882780F90895809108078295817070
S2140030F008958091080785FB882780F9089580E069
S21400310008950E94511808951F920F920FB60F92BD
S214003110112408B60F9218BE09B60F9219BE0AB649
S2140031200F921ABE0BB60F921BBE2F933F934F9370
S2140031305F936F937F938F939F93AF93BF93CF933A
S214003140DF93EF93FF93E8E2F7E0C081C071D08190
S2140031506DE472E280EA99E00E949409D5FD09C008
S21400316060E672E280EA99E00E94940980E00E949C
S214003170880BC11109C063E872E280EA99E00E94F8
S214003180940981E00E94880BFF91EF91DF91CF9127
S214003190BF91AF919F918F917F916F915F914F916A
S2140031A03F912F910F900BBE0F900ABE0F9009BE55
S2140031B00F9008BE0F900FBE0F901F9018951F928D
S2140031C00F920FB60F92112408B60F9218BE09B6CA
S2140031D00F9219BE0AB60F921ABE0BB60F921BBEFE
S2140031E02F933F934F935F936F937F938F939F930A
S2140031F0AF93BF93CF93DF93EF93FF93E8E2F7E0AD
S214003200D081C081C07864EA72E280EA99E00E94C8
S2140032109409D6FD08C067EB72E280EA99E00E9446
S21400322094090E944B10C11108C06BED72E280EA4F
S21400323099E00E9494090E944B10FF91EF91DF9154
S214003240CF91BF91AF919F918F917F916F915F9139
S2140032504F913F912F910F900BBE0F900ABE0F908B
S21400326009BE0F9008BE0F900FBE0F901F901895C6
S21400327080E38093E1068093E6060895CF92DF927E
S214003280EF92FF920F931F93CF93DF9387E0809385
S214003290A20078940E94BA2B0E943E2080E894E018
S2140032A00E94021580EA99E00E94021580EB9AE0DF
S2140032B00E94021580E092E00E94021580E894E0E9
S2140032C00E94730760E874E084EF94E10E94EC07C4
S2140032D00E945D300E943819E12C00E016E32EE6CD
S2140032E031E040E052EC61E070E080EA99E00E9454
S2140032F0520900E016E32EE631E04CEE50E960E0BD
S21400330070E080EB9AE00E94520900E016E32EE699
S21400331031E04CEE50E960E070E080EA9BE00E940D
S214003320520980E38093850680E092E00E945C1755
S214003330C1E0D0E0CE010E9477132196CC30D105B3
S214003340C9F7C1E0D0E0CE010E94EF132196CC3041
S214003350D105C9F70E9433100E94530B78940E943F
S214003360A20B8FE38093020780E093E20E949C0A00
S21400337066E073E280EA99E00E94940986E093E2B0
S2140033800E949C0A0E94A8050F2EF0E2CF2EF1EABA
S214003390DF2EF7E0EF2EF12CF02D80E894E00E946F
S2140033A07D07882321F087ED97E10E94E10588E0FC
S2140033B08A95F1F781E0C81AD108E108F10869F7A3
S2140033C06FE473E280EA99E00E94940969E673E28A
S2140033D080EA99E00E94940989E693E20E949C0A9A
S2140033E0E0E0F0E8E491EF3F91F460E873E280EA11
S2140033F099E00E94940980E893E20E949C0AC8E043
S214003400D6E088818111FDCF0E944A04FACF81E080
S2140034108093C82363E973E280EA99E00E949409E6
S21400342083E993E20E949C0A0C94004080E090E0BE
S214003430DF91CF911F910F91FF90EF90DF90CF908B
S2140034400895E7EEF6E08081806180830895E7EED8
S214003450F6E080818062808308951092DE241092C8
S214003460EA241092EB24E0EEF4E281EA808380E224
S2140034708183128213821482158282E090E0868312
S214003480978310861186EEEEF4E280E092ECA1E0DF
S214003490B0E080839183A283B3831482158288E090
S2140034A086838091DE248F5F8093DE2481E00895FA
S2140034B08091DE2481508093DE2408958091DD245F
S2140034C081508093DD248091DD241092DC240895C1
S2140034D080E0089580E00895809141268823CCF40A
S2140034E080768032B9F5809142268132A9F58091A6
S2140034F0472690914826079789F5E1E4F6E28EEE96
S21400350094E28087918787E090E08287938781E0C6
S21400351008958076803221F580914226803221F00F
S214003520823201F180E008958091472690914826E6
S2140035300797D1F4E1E4F6E286EB9AE18487958773
S2140035408EEE94E28087918787E090E0828793876B
S21400355081E0089580E0089580E0089580E0089571
S21400356080E0089581E0089580E008950895FF9230
S2140035700F931F93CF93DF931F92CDB7DEB7809143
S214003580CC2381119FC00E943527882351F00091DB
S214003590CD231091CE230E9442270817190759F40D
S2140035A091C00091CD231091CE230E943D2708178D
S2140035B0190709F487C08FB78983F8941981009199
S2140035C0CF23E02FF0E0EE0FFF1FE053FC4D80818D
S2140035D09181892B09F58091C9239091CA23019680
S2140035E08093C9239093CA230E943527811107C070
S2140035F08091C9239091CA238436910558F00E9481
S2140036003527882349F08091C9239091CA238032B8
S214003610934010F41FBF56C01092C9231092CA23BD
S2140036208091CB23811106C081E0011180E0809358
S214003630CF2304C081E0011180E0082F81E0809351
S214003640CC231FBF10E0F801EE0FFF1FE053FC4D28
S21400365080819181FF24F3948034910509F4F12C44
S2140036608034910591F00E943527882339F00E9416
S21400367042278093CD239093CE230BC00E943D27F4
S2140036808093CD239093CE2304C01092CD23109226
S214003690CE23F801EE0FFF1FE053FC4D2081318151
S2140036A0A801002456954795079456954795079484
S2140036B0542F402D4C525C4D09E61BE16F2D81E8DE
S2140036C00E944B280F90DF91CF911F910F91FF9092
S2140036D00895811116C02091CF2381E090E0222327
S2140036E011F080E090E0880F991FFC01E053FC4D3C
S2140036F0108211821092CB231092CC2380E00E947D
S214003700B71A089580E00E94B71A08950F931F9382
S2140037108091EC2481111FC02091EA243091EB2483
S2140037208091E8249091E92428173907A1F0862F84
S2140037302091EA243091EB242093E8243093E92466
S21400374009ED1BE12AE030E040EE54E260E00E9422
S2140037504B288093EC241F910F910895CF93DF930D
S2140037601F92CDB7DEB78FB78983F8942981662379
S21400377059F08091EA249091EB24482B592B4093E2
S214003780EA245093EB240CC08091EA249091EB2419
S21400379040955095482359234093EA245093EB24B0
S2140037A02FBF62E880E00E94861B0F90DF91CF91CA
S2140037B008951092EC248091EA249091EB2483786B
S2140037C08093EA249093EB24E0EEF4E280859185E2
S2140037D0837880879187642F80E00E94861B0895F7
S2140037E041E050E0682F80E00E94AE1B089542E062
S2140037F050E0682F80E00E94AE1B089540E150E044
S21400380061E080E00E94AE1B089540E250E061E077
S21400381080E00E94AE1B089540E450E061E080E046
S2140038200E94AE1B089541E050E00E94AE1B089532
S21400383042E050E00E94AE1B089540E150E061E097
S2140038400E94AE1B089540E250E061E00E94AE1B6D
S214003850089540E450E061E00E94AE1B0895CF93C7
S214003860DF931F92CDB7DEB78FB78983F89449816F
S2140038702091552430915624E0915724F0E0EE0F25
S214003880FF1FE85AFB4D808191814FBF821B930B2F
S2140038900F90DF91CF91089580E00E942F1C08952D
S2140038A00E942F1C21E0892B09F420E0822F089526
S2140038B00F931F93CF93DF931F92CDB7DEB78FB7CB
S2140038C08983F894998120915724809154248111FA
S2140038D010C06091552470915624022F10E0F80114
S2140038E0EE0FFF1FE85AFB4D4081518164177507A4
S2140038F018F49FBF80E024C01092552410925624DE
S21400390081E0211180E08093572481E08093542445
S2140039109FBF80E00E94501CA80100245695479542
S2140039200794569547950794542F402D445A5B4D5F
S2140039300AED1CE120E430E061E082E00E944B28C2
S2140039400F90DF91CF911F910F9108951092DD2473
S2140039501092CC231092CB231092CF23E0EDF3E20B
S21400396010821182128213821092CD231092CE23DF
S21400397080E00E94B71A1092542410925724E8E56B
S214003980F4E2108211821282138210925524109251
S214003990562480E00E94581C882359F09091DD241C
S2140039A09F5F9093DD249091DD24913011F49093E5
S2140039B0DC2408950F931F9381112AC08091572409
S2140039C0E1E08111E0E0842F61157105A9F44E2F26
S2140039D050E00024569547950794569547950794CA
S2140039E0542F402D445A5B4D0AED1CE120E430E094
S2140039F061E00E944B280CC0F0E0EE0FFF1FE85A73
S214003A00FB4D608371831092542480E00E94581C02
S214003A101F910F91089580E00E94501C0895EF9228
S214003A20FF921F93CF93DF931F92CDB7DEB711E0BF
S214003A308091F424893009F010E040E050E08FB720
S214003A408983F894A9812091552430915624809139
S214003A50572490E0FC01EE0FFF1FE85AFB4D6081F3
S214003A607181AFBF2617370730F08091DC248111B3
S214003A70E6CF90E022C0FC010024F695E795079477
S214003A80F695E7950794FE2FE02DE45AFB4DE20FDE
S214003A90F31F80817A01E82A2F5F3F4F2093552439
S214003AA03093562480E00E94581C112321F05E2D8E
S214003AB0442710E0C4CF8E2D9F2D0F90DF91CF911D
S214003AC01F91FF90EF90089580E00E940F1D0895CB
S214003AD0CF92DF92EF92FF920F931F93CF93DF93D5
S214003AE01F92CDB7DEB76B017A018FB78983F89442
S214003AF0498160915524709156248091572490E016
S214003B00FC01EE0FFF1FE85AFB4D208131814FBFAD
S214003B106217730738F08091DC248111E6CF8E2D72
S214003B209F2D36C0FC01EE0FFF1FE85AFB4D20818B
S214003B303181261B370B87012E153F0508F48901B6
S214003B400024969587950794969587950794982FC1
S214003B50802D680F791F645A7B4DA801C6010E940C
S214003B6028318091552490915624800F911F809380
S214003B70552490935624C00ED11EE01AF10A80E018
S214003B800E94581CE114F10409F0AFCF80E090E0E9
S214003B900F90DF91CF911F910F91FF90EF90DF90E4
S214003BA0CF900895EF92FF920F931F93CF93DF93DA
S214003BB01F921F92CDB7DEB7DC019091DC249923CB
S214003BC009F445C08FB78983F894898140915524BC
S214003BD0509156242091572430E0F901EE0FFF1F34
S214003BE0E85AFB4DE080F180E41AF50A8FBF062FF5
S214003BF0172FE016F10608F487010115110551F19B
S214003C00CD01002436952795079436952795079479
S214003C10322F202DB901640F751F645A7B4DA80101
S214003C200E9428318FB78A83F8948A812091552480
S214003C3030915624020F131F0093552410935624D8
S214003C408FBF80E00E94581C8E2D9F2D05C080E0FF
S214003C5090E002C08E2D9F2D0F900F90DF91CF9198
S214003C601F910F91FF90EF900895AB01BC0180E08B
S214003C700E94681D0895CF93DF931F92CDB7DEB7DD
S214003C808FB78983F89499818091CF23E82FF0E04D
S214003C90EE0FFF1FE053FC4D2081318120343105AB
S214003CA089F44091CC2341110DC04091CB234111A2
S214003CB009C021E02093CB23811120E02093CF235D
S214003CC020E030E09FBF80E490E0821B930B0F90D3
S214003CD0DF91CF91089580E00E943B1E08950E94D8
S214003CE03B1E21E0892B09F420E0822F089580E016
S214003CF00E946F1E0895FF920F931F93CF93DF933A
S214003D001F92CDB7DEB7F62E172F01E08091F42470
S214003D10893009F000E080E00E946F1E811107C024
S214003D208091DC248111F7CF80E090E02CC08FB723
S214003D308983F89449818091CF2390E0FC01EE0FAF
S214003D40FF1FE053FC4D20813181B9016F5F7F4F2B
S214003D50608371830024969587950794969587953A
S214003D600794982F802D8C529C4DFC01E20FF31F78
S214003D70F0824FBF002329F0F12E110F110B00E047
S214003D80CACF81E090E00F90DF91CF911F910F9105
S214003D90FF900895BC0180E00E947B1E08955F920C
S214003DA06F927F928F929F92AF92BF92CF92DF9246
S214003DB0EF92FF920F931F93CF93DF931F92CDB78F
S214003DC0DEB74B015A018091F424893011F4AA0C15
S214003DD0BB1C6894662466F8712C80E00E946F1EF7
S214003DE0811107C08091DC248111F7CF8A2D9B2D8D
S214003DF03AC08FB78983F89459800091CF2310E09A
S214003E00F801EE0FFF1FE053FC4DE080F180C30188
S214003E108E199F0965018A159B0508F46C01C80177
S214003E200024969587950794969587950794982FDE
S214003E30802D8E0D9F1DA601B4018C529C4D0E94B4
S214003E402831000F111FF801E053FC4DEC0CFD1C4F
S214003E50E082F1825FBE8C0C9D1CAC18BD0809F098
S214003E60BCCF80E090E00F90DF91CF911F910F9133
S214003E70FF90EF90DF90CF90BF90AF909F908F9085
S214003E807F906F905F900895AB01BC0180E00E9428
S214003E90CF1E0895E091FA24F091FB240190F08162
S214003EA0E02D228133812E0F3F1FFC014081E40F5D
S214003EB0F11DE217F307A0F481818430A1F0861388
S214003EC006C014C081818430A1F08617A9F08081D5
S214003ED0E80FF11DE217F307A8F380E090E00895DD
S214003EE080E090E0089580E090E008958E2F9F2F68
S214003EF0089580E090E008958E2F9F2F089580917A
S214003F0043268F770E94372708959091FC249923A3
S214003F1081F1E091FA24F091FB240190F081E02DEC
S214003F209481891740F5E093F824F093F9242281D0
S214003F3033812E0F3F1FE217F307F8F49181943078
S214003F4061F49281891309C09381961306C0E093A9
S214003F50F824F093F92481E008959081E90FF11D8B
S214003F60E217F30758F3E093F824F093F92480E07F
S214003F70089580E0089580E0089580E00895EF9227
S214003F80FF921F93CF93DF93C82F60E00E94851F98
S214003F90182F882391F1A091FA24B091FB24EC2FDE
S214003FA0F0E0EE0FFF1F12968D919C911397E80F8D
S214003FB0F91FE080F180D7011696ED91FC911797D6
S214003FC01995682F8C2F0E94851F182F8823A9F01B
S214003FD0C091F824D091F92465E0CE010E944A1FD2
S214003FE0EC01892B21F08A810E946929F5CFD7013F
S214003FF01296ED91FC9113971995812FDF91CF9131
S2140040001F91FF90EF9008951F93CF93DF93182F83
S2140040100E94851F882349F1C091F824D091F92485
S21400402065E0CE010E944A1FEC01892B49F04C81C5
S2140040305D816B818A810E945C278111F1CF15C05A
S214004040A091FA24B091FB24E12FF0E0EE0FFF1FC1
S21400405012968D919C911397E80FF91F0190F081AD
S214004060E02D0190F081E02D1995DF91CF911F9101
S21400407008958091F8249091F92408950E94A92625
S2140040800895CF938091FC248823C9F0E091FA2408
S214004090F091FB240190F081E02D8481882379F053
S2140040A0C0E08C2F0E94BF1FCF5FE091FA24F091F2
S2140040B0FB240190F081E02D8481C81790F31092C4
S2140040C0FC2481E090E08093002590930125CF9119
S2140040D008950E944B260E9441200895CF93809118
S2140040E0FC24882349F1A091FA24B091FB24ED9199
S2140040F0FC91119784818823F9F0C0E0EC2FF0E062
S214004100EE0FFF1F12968D919C911397E80FF91FE3
S2140041100190F081E02D0084F185E02D309709F0C4
S2140041201995CF5FA091FA24B091FB24ED91FC91F4
S21400413011978481C81710F3CF9108950F931F939A
S214004140CF93DF93E1E4F6E2128613861486158693
S21400415016861786808188230CF081C22091472618
S214004160309148262115310509F074C26BC28F7153
S21400417009F0ABC090914226963081F0983009F451
S21400418099C09111A2C02230310509F016C262E032
S21400419070E080E095E20E9455276AC2809143262F
S2140041A090914426292F332722303105B1F020F490
S2140041B02130310541F0C1C123303105F1F12F30F6
S2140041C0310561F1BAC18091522090915320DC01F3
S2140041D06C9170E00E9455275EC0E0915220F091ED
S2140041E053202189821708F0E8C19927880F991F64
S2140041F0880F991FE0915420F0915520E80FF91F81
S21400420080819181FC01628173810E945527E09133
S2140042104926F0914A2682E081833DC0809156204F
S21400422090915720009709F4C8C1DC0112966D9151
S2140042307C9113970E9455272EC0992781309105AF
S21400424099F058F08230910509F40EC2039709F0F0
S2140042507DC131E0EBEAF3E20AC064E070E08EE490
S21400426090E20E94552717C0E8E4F0E235E0A0E2AD
S214004270B0E220E0819190E08D939D932F5F23170D
S214004280C8F3632F660F6E5F60931E2070E08EE1AA
S21400429090E20E945527E1E4F6E286819781228526
S2140042A033858217930708F0E3C180934B269093DB
S2140042B04C26DEC12130310509F07FC161E070E097
S2140042C08CEF94E20E945527D3C18130F1F590918E
S2140042D042269A30D1F52130310509F03CC1809153
S2140042E0FC24882309F437C1C0914526D091462680
S2140042F00091FA241091FB24D801ED91FC91848161
S214004300C81708F028C160E08C2F0E94851F8823FC
S21400431009F41CC1CE019927880F991FD80112965F
S214004320ED91FC911397E80FF91F0190F081E02DB5
S21400433086819781FC0119958093FE2461E070E0E8
S2140043408EEF94E20E94552793C1823009F0FEC09A
S214004350809142268111F3C02230310509F02DC12B
S214004360809145260E94ED2790E08093F624909356
S214004370F72462E070E086EF94E20E94552778C149
S2140043808F7109F086C090914226933009F4D9C007
S21400439018F49130A1F07DC0953019F0993039F1BC
S2140043A078C08091472690914826892B09F005C150
S2140043B08FE79FE180934D2690934E2659C18091BA
S2140043C0472690914826892B09F0F7C0809143260E
S2140043D090914426019709F0F0C0809100259091B5
S2140043E001258D7F809300259093012541C1809102
S2140043F0472690914826892B09F0DFC00E943A276D
S214004400882309F4A3C020914326309144263327FD
S214004410E0915220F0915320818990E08217930713
S21400442008F494C00E94412080914326909144262F
S2140044308093FC24882309F41BC199278150904C53
S214004440880F991F880F991FE0915420F0915520EE
S214004450E80FF91FE093FA24F093FB240190F08113
S214004460E02D8481882309F403C1C0E060E08C2F2E
S2140044700E940420882309F469C0CF5FE091FA24E3
S214004480F091FB240190F081E02D8481C81770F331
S214004490EFC08130F9F4909142269B30D9F4809198
S2140044A0472690914826892B09F055C08091FC2418
S2140044B0882309F450C0E1E4F6E2C481D2818C2F4F
S2140044C00E94BF1F882309F441C06D2F8C2F0E94C5
S2140044D004203AC08230D1F580914226813019F00E
S2140044E08330A1F030C08091472690914826892BD2
S2140044F009F063C08091432690914426892B09F0E9
S2140045005CC0809145260E9408281EC080914726E0
S21400451090914826892B09F050C0809143269091AF
S2140045204426892B09F049C0C1E4D6E28C810E945A
S21400453019298C810E94862907C080E005C080E08A
S21400454003C080E001C080E0811193C080914126C5
S2140045508F71813091F58091FC24882309F474C012
S2140045600091452610914626C091FA24D091FB244E
S214004570E881F9818481081708F068C060E0802F20
S2140045800E94851F8823C9F0F801FF27CF01880FF6
S214004590991FEA81FB81E80FF91FC081D181EE8166
S2140045A0FF811995682F802F0E94851F882329F088
S2140045B0EC81FD81199581115CC0809141268F7137
S2140045C0823009F045C08091FC248823B9F1A0917F
S2140045D0FA24B091FB24ED91FC91119784818823F5
S2140045E079F1C0E0EC2FF0E0EE0FFF1F12968D91F0
S2140045F09C911397E80FF91F00811181D801169638
S214004600ED91FC9117971995682F8C2F0E94851FA6
S214004610882379F1D8011496ED91FC911597199598
S214004620811127C0CF5FA091FA24B091FB24ED91B1
S214004630FC9111979481C917A8F21BC080E019C09D
S21400464080E017C080E015C080E013C080E011C095
S21400465080E00FC0982F907609F078CF88CD982FFD
S214004660907609F073CF8CCE3DE0EAE3F0E2FFCD22
S21400467081E0DF91CF911F910F910895CF93DF9343
S2140046801F921F92CDB7DEB7811126C090914026AB
S2140046909923F9F090915226911101C0FFCF9FB750
S2140046A09A83F8942A81E1E5F6E29181915091830C
S2140046B02FBF0FC0909152269F3F09F4FFCF9FB7A0
S2140046C09983F8942981E1E5F6E291819F5F9183D1
S2140046D02FBF8093402605C090914026992351F322
S2140046E0F8CF0F900F90DF91CF9108950F93E8ECDD
S2140046F0F4E080818F7D808380818F7D8083E8E0F9
S214004700F6E202E0059310920A2610920B2600E2CB
S214004710069300E40693E0E0F6E200E40693E1E4A4
S214004720F6E214861586168617861286138610926B
S214004730EB250F9108950F9385E08093EB25E9E034
S214004740F6E204E00593E1E0F6E204E005930F915B
S21400475008950F9383E08093EB2510920A2610921B
S2140047600B26E8E0F6E202E006930F910895E0914A
S2140047704D26F0914E26309709F0199508950F931F
S214004780CF93DF938091EB25833029F40E94B723E3
S2140047900E9476235EC08091E7259091E825C0911F
S2140047A04B26D0914C26C81BD90B71F52091E925D4
S2140047B03091EA25820F931F8093E9259093EA258E
S2140047C020914726309148268217930721F0809142
S2140047D00225882341F084E08093EB25E0E0F6E2B2
S2140047E002E0069336C0E0914F26F09150263097AF
S2140047F099F01995882381F01092E7251092E82504
S214004800C0914B26D0914C26C034D10528F010928A
S2140048100225C0E4D0E003C081E080930225E0EFEB
S214004820F5E2C28FD38F8091E7259091E8252091FD
S214004830492630914A26280F391F248F358FC80FF6
S214004840D91FC093E725D093E825E8E0F6E202E01A
S2140048500693DF91CF910F910895FC018181E82F97
S214004860E7708E2F90E0FC013197E730F105D8F421
S2140048708827E652FE4F8F4F0C94F63080E190E08A
S214004880089580E290E0089580E490E0089580E83E
S21400489090E0089580E091E0089580E092E0089529
S2140048A08FEF93E0089588E090E00895282F2F700A
S2140048B030E0220F331F082E000C990B8827990F23
S2140048C0881F9927820F931F02979C01220F331F80
S2140048D0220F331F220F331F820F931F8D579A4DBF
S2140048E008950F93CF938091CC0480FF6AC081E037
S2140048F08093CC04E0E0F6E200E80693E8E0F6E217
S21400490000E806938093CA04E0E0F6E200E106932E
S2140049108091EB25882339F08350823010F40E9472
S214004920B7230E947623809102269091032608974B
S21400493009F049C088E0E7EAF5E2A1E4B6E20190B2
S2140049400D928A95E1F7E8ECF4E08081806280833E
S2140049508081806280830E949E20C82F811104C0BF
S2140049600E949B23C1E030C080914126882374F4C6
S2140049701092E9251092EA251092E7251092E82574
S21400498082E08093EB250E94BF231EC080914726BD
S21400499090914826892B19F40E94A92315C01092DD
S2140049A0E9251092EA251092E7251092E82581E085
S2140049B08093EB25E0E0F6E202E0069300E2069341
S2140049C003C0C0E001C0C1E08C2FCF910F910895C5
S2140049D08F929F92AF92BF92DF92EF92FF920F93C9
S2140049E01F93CF93DF93D82E0E9456248C01CD2D93
S2140049F0CF70D0E0CE01880F991FCD2D0D2C000C66
S214004A00DD0BCC27DD0FCC1FDD27C80FD91FCE014D
S214004A10880F991F880F991F880F991F9C01205097
S214004A203A4D7901C9010E942D244C01DD200CF07D
S214004A3072C0FE01EE0FFF1FEE0FFF1FEE0FFF1FEF
S214004A40E051FA4D26893789D80115968D919C91AB
S214004A501697820F931F15968D939C931697139611
S214004A602D913C9114978217930709F43EC0281B9A
S214004A70390B2115B4E03B0740F02FEF33E0C901B6
S214004A80B4010E948D30281B390BF801808181FF0C
S214004A900AC0C901B4010E948D3041E0892B09F09B
S214004AA040E0842F01C080E0D8019C9180FB91F902
S214004AB09C93CC0FDD1FCC0FDD1FCC0FDD1FC0512C
S214004AC0DA4D1E8A1F8A2A8B3B8B11962D913C91BC
S214004AD0129715968D919C911697820F931F8C8B2B
S214004AE09D8BF70102E00693CAC0D8018C9181FF26
S214004AF0B3C08D7F8C93CC0FDD1FCC0FDD1FCC0F8A
S214004B00DD1FC051DA4D1E8A1F8A1A8A1B8AF701DA
S214004B1002E00693B4C0FE01EE0FFF1FEE0FFF1F6C
S214004B20EE0FFF1FE051FA4DA288B388D8018C9192
S214004B3082FF1BC01196ED91FC91129715962D9150
S214004B403C91169713968D919C911497B4010E94F0
S214004B508D30B0E4DB9EB00111246D537B4DAC016B
S214004B60CF01820F931F0E942831F80125813681DC
S214004B702A0D3B1D258336838381948182179307F4
S214004B8068F485839683CC0FDD1FCC0FDD1FCC0F1A
S214004B90DD1FC051DA4D8E899F895EC0FE01EE0F83
S214004BA0FF1FEE0FFF1FEE0FFF1FE051FA4D468965
S214004BB05789A416B50609F04FC02817390709F417
S214004BC04BC0AC01421B530B9A01211554E035072C
S214004BD048F02FEF33E0C901B4010E948D30281B46
S214004BE0390B06C0C901B4010E948D30281B390B51
S214004BF0FE01EE0FFF1FEE0FFF1FEE0FFF1FE0512F
S214004C00FA4D128A138A2815390578F4D8018C9142
S214004C1084608C93B0E4DB9EC00111248D539B4DC1
S214004C20848B958B868A978A13C0F80141815281BE
S214004C3085819681840F951FCC0FDD1FCC0FDD1F5D
S214004C40CC0FDD1FC051DA4D8C8B9D8B2E8B3F8B8E
S214004C50F70102E0069313C0D8018C9180FF0FC0C5
S214004C608E7F8C931796ED91FC911897309739F0BC
S214004C7015966D917C9116974D2D80E01995DF91D4
S214004C80CF911F910F91FF90EF90DF90BF90AF9064
S214004C909F908F9008951F93CF93DF931F921F923C
S214004CA0CDB7DEB78FB78983F8941981E1ECF4E0CD
S214004CB080818E7F80831092C00410820E94A72C71
S214004CC080E00E943E2380915626811101C0FFCFCE
S214004CD08FB78A83F8949A81E1E5F6E28581815060
S214004CE085839FBF1FBF0F900F90DF91CF911F91BD
S214004CF0089580E008951F93CF93DF931F92CDB75A
S214004D00DEB78FB78983F894198181E00E943E232D
S214004D10EAECF4E080E4808380E28083E1ECF4E077
S214004D20808181608083A9ECB4E08C9182608C9352
S214004D30E8ECF4E08081806480838C9181608C93C1
S214004D408081806880831FBF0F90DF91CF911F9175
S214004D5008950F931F93CF93DF931F921F92CDB7A3
S214004D60DEB700E610E0F801108280E30E94602CB7
S214004D70E0ECF4E080818064808381E0F801808349
S214004D808FB78A83F8941A81E0EFF5E2118A118EC4
S214004D9011A211A611AA11AEE3E8F5E280818E7F7A
S214004DA08083ECE8F5E280818E7F8083E5E9F5E29A
S214004DB080818E7F8083EEE9F5E280818E7F80831E
S214004DC06AE170E082E00E944D308F3F19F08093D8
S214004DD0FA0403C08FE18093FA046BE170E082E08E
S214004DE00E944D308F3F19F08093FB0403C08FE183
S214004DF08093FB04E0ECF4E0808182608083808115
S214004E008068808380818061808380E096E28683EC
S214004E1097838081806280838FEF8093C504E8EC5F
S214004E20F4E080818160808310924026809156262F
S214004E308F3F09F4FFCF8FB78983F8949981E1E516
S214004E40F6E285818F5F85839FBF0E947B261FBF0A
S214004E500F900F90DF91CF911F910F910895E1EC85
S214004E60F4E080818E7F8083089580E008958093AB
S214004E70C30408958091C3040895809130269091CC
S214004E803126089580E090E00895809140268111B3
S214004E900BC081E00E943E23E1ECF4E080818B7F32
S214004EA080838081846080830895E1E4F6E28087D1
S214004EB09187628773870895282F2F7030E0220F1E
S214004EC0331F082E000C990B8827990F881F9927E7
S214004ED0820F931FFC01EE0FFF1FEE0FFF1FEE0F5A
S214004EE0FF1FE051FA4D2189207C09F072C06370E3
S214004EF0613011F018F404C060EC03C060E801C033
S214004F0060E440385105E9F050F440325105A9F00C
S214004F1040345105A1F040315105D9F40CC041157B
S214004F2022E0520791F04F3F23E0520781F04115EF
S214004F30514079F408C021E00DC022E00BC023E008
S214004F4009C024E007C025E005C026E003C027E02E
S214004F5001C020E0FC01EE0FFF1FEE0FFF1FEE0F5B
S214004F60FF1FE051FA4D118ADC01AA0FBB1FAA0FE2
S214004F70BB1FAA0FBB1FA050BA4D36E03C93262B92
S214004F80218BFC01EE0FFF1FEE0FFF1FEE0FFF1F22
S214004F90E051FA4D2189207C203C69F4FC01EE0F9B
S214004FA0FF1FEE0FFF1FEE0FFF1FE051FA4D218986
S214004FB02770273081F0880F991F880F991F880F58
S214004FC0991FFC01E051FA4D81898062818B81E056
S214004FD0089580E0089581E00895E82FEF70F0E0EE
S214004FE0EE0FFF1F082E000C990B8827990F881FBD
S214004FF09927E80FF91FEE0FFF1FEE0FFF1FEE0FAA
S214005000FF1FE051FA4D818982FB882780F90895B9
S2140050100F93282F2F7030E0A901440F551F282F1B
S214005020082E000C330B2227330F221F3327240FA2
S214005030351FF901EE0FFF1FEE0FFF1FEE0FFF1FCC
S214005040E050FA4D01E00693F901EE0FFF1FEE0F58
S214005050FF1FEE0FFF1FE051FA4D918992FF18C017
S214005060220F331F220F331F220F331FF901E05187
S214005070FA4D91899B7F918B0E945624FC0180817A
S21400508080FF06C08E7F80830780F085E02D19950F
S21400509081E00F9108956F927F928F929F92AF92C8
S2140050A0BF92CF92DF92EF92FF920F931F93CF9310
S2140050B0DF931F92CDB7DEB7782E662E4A015901D0
S2140050C00E9456246C01272D872D8F70E82EF12C18
S2140050D0C701880F991FE72C072C000CFF08EE2449
S2140050E0FF0CEE1CFF24E80EF91EF701EE0FFF1F63
S2140050F0EE0FFF1FEE0FFF1FE051FA4D8189807CF7
S21400510009F484C0F701EE0FFF1FEE0FFF1FEE0F2E
S214005110FF1FE051FA4D8189807C803C61F0F701E9
S214005120EE0FFF1FEE0FFF1FEE0FFF1FE051FA4DB1
S214005130818982FD6DC08FB78983F8948981F601D5
S214005140908190FF03C08FBF80E063C0F60190811E
S214005150916090838FBF81829282A382B4821582EF
S214005160168207831087611006C091E0A114B1046F
S21400517019F090E001C091E0F601808190FB81F982
S2140051808B7F8083222364F4F701EE0FFF1FEE0F60
S214005190FF1FEE0FFF1FE051FA4D168A178A31C027
S2140051A0F701EE0FFF1FEE0FFF1FEE0FFF1FE05180
S2140051B0FA4D8189807C803CB9F4C701880F991F1D
S2140051C0880F991F880F991F80509A4D0E942D2492
S2140051D0BC01C5010E948D30892B31F0F60180811B
S2140051E08E7F808380E015C0F701EE0FFF1FEE0F65
S2140051F0FF1FEE0FFF1FE051FA4D128A138A168A20
S214005200178A872D0E94E82481E003C080E001C051
S21400521080E00F90DF91CF911F910F91FF90EF905C
S214005220DF90CF90BF90AF909F908F907F906F90C1
S2140052300895FF920F931F93CF93DF93182FC82FD5
S214005240CF70D0E0CE01880F991FC12F012E000C21
S214005250DD0BCC27DD0FCC1FDD27C80FD91F812F14
S2140052600E945624DC01FE01EE0FFF1FEE0FFF1F0B
S214005270EE0FFF1FE050FA4D02E005938C9180FF81
S21400528022C08E7F8C931796ED91FC9118973097DD
S214005290D1F011235CF4CC0FDD1FCC0FDD1FCC0F3B
S2140052A0DD1FC051DA4D6E897F890AC0CC0FDD1F25
S2140052B0CC0FDD1FCC0FDD1FC051DA4D6A897B890C
S2140052C0412F81E01995DF91CF911F910F91FF90AB
S2140052D00895CF93C82F0E941929EC2FEF70F0E0A5
S2140052E0EE0FFF1F8C2FCC0F990B8827990F881F66
S2140052F09927E80FF91FEE0FFF1FEE0FFF1FEE0FA7
S214005300FF1FE051FA4D118ACF910895E82FEF70F4
S214005310F0E0EE0FFF1F282F082E000C330B22277D
S214005320330F221F3327E20FF31FEE0FFF1FEE0F80
S214005330FF1FEE0FFF1FE051FA4D91899460918B8D
S2140053400E94192981E008950F931F93CF93DF934E
S2140053508B01C82FCF70D0E0CC0FDD1F282F082E72
S214005360000C330B2227330F221F3327C20FD31F05
S2140053700E945624CC0FDD1FCC0FDD1FCC0FDD1F87
S214005380C051DA4D298922FF0AC0FC01208120FD88
S2140053900AC0216020830783108781E005C0F801DA
S2140053A0199581E001C080E0DF91CF911F910F91A8
S2140053B008951F920F920FB60F92112408B60F92FF
S2140053C018BE09B60F9219BE0BB60F921BBE0F93EE
S2140053D02F933F934F935F936F937F938F939F93F8
S2140053E0AF93BF93EF93FF938091CB04882334F45D
S2140053F080E88093CA040E946E2090C08091CB04FF
S21400540082FF22C084E08093CA048091082686FF2B
S21400541085C08091CC0481FD81C00E9471248111D9
S2140054207DC08091EB25813019F40E94A92376C0B7
S214005430843009F073C0E9E0F6E204E00593E1E0A9
S214005440F6E204E005936AC08091CB0481FF61C058
S21400545082E08093CA048091002686FF5FC0809118
S214005460CC0481FD5BC00E947124811157C08091DD
S214005470EB25823041F484E08093EB25E0E0F6E211
S21400548002E006934BC0833009F048C0E9E0F6E23C
S21400549004E00593E1E0F6E204E005933FC080E116
S2140054A08093CA0481E00E94192981E80E94192984
S2140054B082E00E94192982E80E9419290E94412050
S2140054C01092C304E0EFF5E2118A96E0908B83E435
S2140054D0818B118E908F818F87EA95E2848B958BD6
S2140054E00E9476231BC08091CB0486FF07C080E411
S2140054F08093CA0480E00E943E2310C08091CB04B3
S21400550085FF0CC080E28093CA0481E00E943E239F
S21400551005C08091CB0484FDC2CFE5CFFF91EF910B
S214005520BF91AF919F918F917F916F915F914F91B6
S2140055303F912F910F910F900BBE0F9009BE0F90C9
S21400554008BE0F900FBE0F901F9018951F920F92D7
S2140055500FB60F92112408B60F9218BE09B60F9216
S21400556019BE0AB60F921ABE0BB60F921BBE0F9349
S2140055701F932F933F934F935F936F937F938F93D6
S2140055809F93AF93BF93CF93DF93EF93FF93809157
S214005590CC0481FD04C00E9471248111C4C082E045
S2140055A08093CC048091C5048195880FE0E0F6E2F4
S2140055B0E81BF10920813181205036423695279527
S2140055C03695279536952795822F869520FD02C01D
S2140055D090E001C090E8890FE82FEF70F0E0EE0F42
S2140055E0FF1F282F082E000C330B2227330F221FF5
S2140055F03327E20FF31FDF01AA0FBB1FAA0FBB1F43
S214005600AA0FBB1FA050BA4D9C9195FF8CC0FD0100
S21400561000E20693811180C08091EB25843029F446
S2140056200E94B7230E9476237EC000910226109126
S214005630032680914B2690914C26C091E725D09169
S214005640E82598012C0F3D1F8217930718F48C014C
S2140056500C1B1D0B8091492690914A26A80167EAEB
S21400566075E28C0F9D1F0E942831C00FD11FC0937A
S214005670E725D093E8250034110569F48091E925E3
S2140056809091EA258C0F9D1F209147263091482641
S2140056908217930790F0E1E4F6E2C287D387068488
S2140056A0F785E02D309731F01995811103C00E94DF
S2140056B09B2339C00E94A92336C080914B26909127
S2140056C04C26C817D90709F5E0914F26F0915026C9
S2140056D0309719F40E949B2326C01995811103C0A8
S2140056E00E949B2320C02091E9253091EA258091D5
S2140056F0E7259091E825820F931F8093E9259093E4
S214005700EA251092E7251092E825E0E0F6E202E0AE
S214005710069300E2069307C0803819F40E94BF2360
S21400572002C00E94E824FF91EF91DF91CF91BF91D4
S214005730AF919F918F917F916F915F914F913F9124
S2140057402F911F910F910F900BBE0F900ABE0F90D6
S21400575009BE0F9008BE0F900FBE0F901F901895B1
S214005760982F9F7029F081E0933018F080E008951C
S21400577080E008950F931F93CF93DF93CDB7DEB7E6
S2140057802797CDBFDEBF8FEF8093700080937100A8
S21400579080937200809373008093740080937500EA
S2140057A08093760064E081E490E00E9457306CE1DC
S2140057B070E082E00E944D308A836DE170E082E006
S2140057C00E944D30898389819A81019621F480E474
S2140057D093E289839A8389819A818B839C83E0E60E
S2140057E0F0E082838C8183838FB78E83F8949E81CA
S2140057F0E0E5F0E08081826080839FBF818181FF49
S214005800FDCF8FB78F83F8949F8100E510E0D80115
S21400581016968C911697897F16968C931697E0E6C7
S214005820F0E080E885838BEB868316968C9116973E
S214005830846016968C938081816080839FBF61E030
S21400584080E490E00E9457308FB78D83F8949D8156
S214005850F80180818E7F80839FBF2796CDBFDEBFF5
S214005860DF91CF911F910F910895CF93DF931F92F1
S214005870CDB7DEB79FB79983F8949981E82FF0E00B
S214005880E059FF4F60958081682360839FBF0F902B
S214005890DF91CF910895CF93DF931F92CDB7DEB7F8
S2140058A09FB79983F8949981E82FF0E0E059FF4F6D
S2140058B08081682B60839FBF0F90DF91CF91089502
S2140058C0CF93DF931F921F92CDB7DEB7863011F0CD
