S0140000536D617274466163746F72792E7372656331
S2140000000C94A8020C94DE020C94DE020C94DE0221
S2140000100C94DE020C94DE020C94DE020C94DE02DB
S2140000200C94DE020C94DE020C94DE020C94DE02CB
S2140000300C9488060C94DE020C94DE020C94DE020D
S2140000400C94DE020C94DE020C94DE020C94DE02AB
S2140000500C94DE020C94DE020C9454130C94DE0214
S2140000600C94DE020C94DE020C94DE020C94DE028B
S2140000700C94DE020C94DE020C94DE020C94DE027B
S2140000800C94DE020C94DE020C94DE020C94DE026B
S2140000900C94DE020C94DE020C94DE020C94DE025B
S2140000A00C94DE020C94DE020C94DE020C94DE024B
S2140000B00C94DE020C9402070C94DE020C94DE0212
S2140000C00C94DE020C94DE020C94DE020C94DE022B
S2140000D00C94DE020C94DE020C94DE020C94DE021B
S2140000E00C94DE020C94DE020C94DE020C94DE020B
S2140000F00C94DE020C94DE020C94DE020C94DE02FB
S2140001000C94DE020C94DE020C94DE020C94DE02EA
S2140001100C94DE020C94DE020C94DE020C94DE02DA
S2140001200C94DE020C94DE020C94DE020C94C506DF
S2140001300C94DE020C94DE020C94DE020C94DE02BA
S2140001400C94DE020C94DE020C94DE020C94DE02AA
S2140001500C94DE020C94DE020C94DE020C94DE029A
S2140001600C94DE020C94DE020C94DE020C94DE028A
S2140001700C94DE020C94DE020C94DE020C94DE027A
S2140001800C94DE020C94DE020C94DE020C94D91A57
S2140001900C948E1A0C94DE020C94DE020C94DE0292
S2140001A00C94DE020C94DE020C943F070C94DE02E4
S2140001B00C94DE020C94DE020C94DE020C94DE023A
S2140001C00C94DE020C94DE020C94DE020C94DE022A
S2140001D00C94DE020C94DE020C94DE020C94DE021A
S2140001E00C94DE020C94DE020C94DE020C94DE020A
S2140001F00C94DE020C94AF2B0C947C2C870B960B85
S214000200A50BB40BC20BD10BE00BEE0BFB0B0A0CD1
S214000210190C280CDC17EB17FA17091817182618EC
S2140002203518431850185F186E187D18351935198B
S2140002303519351935193519351935193519351949
S2140002403519351935193519351935193519351939
S2140002503519351933193319331933193319331935
S2140002603319331933193319331933193319331929
S2140002703319331933193319331933193719371911
S21400028037193719371937193719371937193719E9
S2140002903119311931193119311931193119311909
S2140002A031193119371937193719371937193719D5
S2140002B037193719371937193719371937193719B9
S2140002C03719371937193719371937192F192F19B9
S2140002D02F192F192F192F192F192F192F192F19D9
S2140002E02F192F192F192F192F192D192D192D19CF
S2140002F02D192D192D192D192D192D192D192D19C9
S2140003002D192D192D192D192B192B192B192B19C0
S2140003102B192B192B192B192B192B192B192B19B8
S2140003202B192B192B192B192B192B192B192B19A8
S21400033029192919291929192919291929192919A8
S21400034029192919271927192719271927192719A4
S2140003502719271927192719271927192719271998
S2140003602719271927192719271927192719271988
S2140003702719271927192719271927192719271978
S214000380251925192519251925192319231923197E
S21400039023192319211921192119211921191F1986
S2140003A01F191F191F191F19391939193919391920
S2140003B039193919142617261A261D26202623260B
S2140003C026260C9433190C946E180C943B190C9436
S2140003D03E1C0C94CC150C9417260C945F160C94AB
S2140003E021190C94C20B0C940E040C9469100C94F6
S2140003F08C1C0C94EB170C94A3140C94E00B0C942C
S2140004001A260C9478140C9455210C9437190C94D5
S214000410190C0C947C1E0C9400040C94F7150C9488
S21400042026260C9442190C9435180C94870B0C94C1
S21400043043180C94FB0B0C94E3030C94DC170C94FD
S2140004408E030C9423190C943F1D0C948E180C9458
S21400045066160C947E030C9439190C940A0C0C94B2
S214000460581D0C942D190C94031C0C94280C0C94F9
S2140004704B160C941D0F0C94341C0C94B01E0C944C
S2140004808A030C94E30E0C94261A0C9450180C94C1
S2140004901D260C9407040C94FA1B0C94EE0B0C947B
S2140004A02F190C9464030C94421C0C9429190C9478
S2140004B023260C94401C0C9429040C9474150C945C
S2140004C00E190C94D10B0C9426180C9430160C9420
S2140004D0A40D0C94791A0C942C040C942E1C0C94D9
S2140004E0731A0C94B8030C946E030C94AF1D0C9402
S2140004F014260C943C100C947D180C9431190C9412
S21400050015040C94CC130C945F180C9425190C94B9
S21400051009180C9435190C9451160C942B190C943C
S2140005201F190C94960B0C9423040C9427190C9406
S214000530FA170C94A50B0C94FC030C9417180C9447
S214000540390C0C9420260C941C040C94B40BFA1B47
S21400055011241FBECFEFCDBFDFE3DEBF00E00CBF30
S21400056018BE19BE1ABE1BBE12E2A0E0B0E2EAEE4A
S214000570F9E600E00BBF02C007900D92AE31B1075E
S214000580D9F71BBE24E2AEE1B2E201C01D92A73D40
S214000590B207E1F712E0C8EAD2E000E006C0219711
S2140005A00109802FFE010E946F34C73AD10780E010
S2140005B00807A9F70E94191B0C94F3340C9400004A
S2140005C03BB78BBFFB0186913BBF08953BB78BBF04
S2140005D0FB01879196913BBF089542E070C041E0D1
S2140005E06EC08093C00188278093C1018093C201AA
S2140005F047E055D0CB0108958093C40148E04FC032
S2140006008091D00108953BB748E10D9400003BB7B8
S2140006104AE10D9400003BB740E20D9400003BB762
S2140006208BBFCB0142E20D9400003BB70B0143E2C7
S2140006300D9400003BB78BBFCB0144E20D94000045
S2140006403BB78BBFCB0145E20D9400003BB746E2BB
S2140006500D9400003BB78BBFCB014AE20D9400001F
S2140006603BB78BBFCB014CE20D9400003BB78BBF72
S214000670CB014DE20D94000048E311C049E30FC0E2
S21400068028ED2093340021E02093CC01089520919A
S214000690CF0127FDFCCF22272093CA01089540935F
S2140006A0CA0128ED31E0209334003093CB016091ED
S2140006B0C4017091C5018091C60199270895FC0177
S2140006C04093CA01849108952FEF8DE399E4215059
S2140006D080409040E1F700C000000895009769F060
S2140006E020E030E0EFE6F7E13197F1F700C00000D8
S2140006F02F5F3F4F82179307A9F70895BC0180EA42
S21400070099E00E94110A6FEC71E280EA99E00E947B
S214000710B90908959195819591090895CF92DF9230
S214000720EF92FF929B016C01092E000CEE08FF0869
S214000730AB01770F660B770B4C0D5D1D6E1D7F1D95
S2140007404115E0E85E076105710544F4411550481F
S2140007506F4F7F4F34F0820F931F05C08FEF9FE7D8
S21400076002C081E090E8FF90EF90DF90CF90089570
S214000770CF92DF92EF92FF929B01AC01092E000C04
S214000780660B770B6901032E000CEE08FF084C1968
S2140007905D096E097F094115E0E85E076105710590
S2140007A044F4411550486F4F7F4F34F0821B930B33
S2140007B005C08FEF9FE702C081E090E8FF90EF90C2
S2140007C0DF90CF9008959C01DB010E947C34611578
S2140007D020E87207810591054CF4611520E8720740
S2140007E02FEF820792072CF0CB0108958FEF9FE73B
S2140007F0089581E090E808950E941A34CB01089588
S21400080021E08617970709F020E0822F089521E05F
S214000810681779070CF020E0822F089521E08617EC
S21400082097070CF020E0822F089521E0861797079F
S2140008300CF420E0822F089521E0681779070CF465
S21400084020E0822F0895811102C0862F089581E04E
S21400085008958111862F08958627089590ED980FA4
S2140008609A3060F09FEB980F963010F487530895F7
S2140008709FE9980F963020F487550895892F08959C
S2140008808FEF0895CF93DF93D62F0E942E04C82FA4
S2140008908D2F0E942E0490E1C99F90011124822B77
S2140008A0DF91CF910895F89488ED84BF83E080931C
S2140008B08000FFCFEF92FF920F931F93CF93DF93AB
S2140008C0E82EEB018901413071F5809102208111FB
S2140008D028C0809100209091012090588F3F9F471C
S2140008E0B0F06EEB70E280EA99E00E94B909609180
S2140008F000207091012080EA99E00E94110A6FECB6
S21400090070E280EA99E00E94B9090E9453040E94AE
S2140009104703609100207091012080E090E00E94E3
S21400092020030E945304411156C0882309F453C083
S214000930F12C8091002090910120AC01452F552785
S21400094046959E01232F332726954217530741F1DC
S21400095020910220211124C090588F3F9F47B0F06D
S2140009606EEB70E280EA99E00E94B909609100207F
S2140009707091012080EA99E00E94110A6FEC70E203
S21400098080EA99E00E94B9090E9453040E94470336
S214000990609100207091012080E090E00E9420038A
S2140009A00E944703F801EF0DF11D618170E0762F7C
S2140009B066278081682BCE0191700E9415031092E5
S2140009C00220C0930020D09301202296F394F39443
S2140009D0FE1408F4AECFDF91CF911F910F91FF90D8
S2140009E0EF9008955F926F927F928F929F92AF9250
S2140009F0BF92CF92DF92EF92FF920F931F93CF9307
S214000A00DF93CDB7DEB76097CDBFDEBF5C01F8944D
S214000A10FC01628181810E944204782EF501648186
S214000A2083810E944204582EF501668185810E94CA
S214000A304204E82EF501608587810E944204682EF4
S214000A40F72CF50CFE0CF80E7720F9F08501075F01
S214000A501F4FCE0101966C0188248A94870C912C36
S214000A60880C991C9BE0890E911C8A0C9B1CF80133
S214000A70618180810E944204F80EF60181936F0125
S214000A800E5F1F4F0815190591F7E72DF0E0359614
S214000A90EE0FFF1FEA0DFB1DDF01119760818C91A1
S214000AA00E9442048F0D41F068EE70E280EA99E001
S214000AB00E94B9090E9453046CE171E280EA99E051
S214000AC00E94B909472D440F455FB50180EA99E0B9
S214000AD00E94D5096E2D70E075299E012F5F3F4F4D
S214000AE0462D872D0E945A046096CDBFDEBFDF914B
S214000AF0CF911F910F91FF90EF90DF90CF90BF9016
S214000B00AF909F908F907F906F905F900895CF9357
S214000B10DF93CDB7DEB7E297CDBFDEBFCE0101963D
S214000B206C017E0193E3E90EF11C860180EA99E0F0
S214000B300E94910998012C193D09F80181938F01B3
S214000B408A3041F4E2E0F0E0EC0FFD1FE20FF31F05
S214000B50108203C0EE15FF0549F7C6010E94F20495
S214000B60E4CF0F931F93CF93DF93C0E1D7E280EAE1
S214000B7099E00E94B30981110CC080E894E00E94BD
S214000B808607811122C086EF8A95F1F7219779F7BB
S214000B901CC0C9E2D1E20DE211E280EA99E00E94AF
S214000BA091099991891311C0C017D107B1F780EA4E
S214000BB099E00E949109853541F46EE271E280EA7F
S214000BC099E00E94B9090E948705DF91CF911F9195
S214000BD00F9108950F931F93CF93DF93CDB7DEB792
S214000BE0E297CDBFDEBF8C016BE471E280EA99E04C
S214000BF00E94B90942E3BE016F5F7F4F80E894E030
S214000C000E9492078981833711F4F801199589812A
S214000C108A3339F065E571E280EA99E00E94B90905
S214000C200BC063E771E280EA99E00E94B909CE0141
S214000C3001960E94F204D8CFE296CDBFDEBFDF91C8
S214000C40CF911F910F91089581E58093C008089574
S214000C50FC01638392819923ECF78381089521E058
S214000C6030E002C0220F331F6A95E2F7FC012583AD
S214000C70FAE0FA95F1F700C0089521E030E002C0EE
S214000C80220F331F6A95E2F7FC012683FAE0FA95F5
S214000C90F1F700C008951F93CF93DF93EC01162F52
S214000CA0642F0E942806612FCE010E94280660E06D
S214000CB0CE010E942806DF91CF911F9108950F93D1
S214000CC01F93CF93DF93EC01062F142F622F0E9401
S214000CD02806602FCE010E942806612FCE010E94B2
S214000CE02806DF91CF911F910F910895FC01DA013C
S214000CF01A969C9191FF04C0309749F01995089573
S214000D006115710521F0FA018485FB011995089596
S214000D101F920F920FB60F92112408B60F9218BEAC
S214000D2009B60F9219BE0BB60F921BBE2F933F93B8
S214000D304F935F936F937F938F939F93AF93BF93DE
S214000D40EF93FF93609124227091252240E854E0AF
S214000D5080912C2290912D220E947606FF91EF9191
S214000D60BF91AF919F918F917F916F915F914F91BE
S214000D703F912F910F900BBE0F9009BE0F9008BEAB
S214000D800F900FBE0F901F9018951F920F920FB6E0
S214000D900F92112408B60F9218BE09B60F9219BE0C
S214000DA00BB60F921BBE2F933F934F935F936F9399
S214000DB07F938F939F93AF93BF93EF93FF9360912F
S214000DC022227091232240E954E080912A229091B9
S214000DD02B220E947606FF91EF91BF91AF919F91D3
S214000DE08F917F916F915F914F913F912F910F90CF
S214000DF00BBE0F9009BE0F9008BE0F900FBE0F904F
S214000E001F9018951F920F920FB60F92112408B6D6
S214000E100F9218BE09B60F9219BE0BB60F921BBEE4
S214000E202F933F934F935F936F937F938F939F93ED
S214000E30AF93BF93EF93FF9360912022709121228E
S214000E4040EA54E080912822909129220E9476065A
S214000E50FF91EF91BF91AF919F918F917F916F918D
S214000E605F914F913F912F910F900BBE0F9009BE4F
S214000E700F9008BE0F900FBE0F901F9018951F92F0
S214000E800F920FB60F92112408B60F9218BE09B62D
S214000E900F9219BE0BB60F921BBE2F933F934F9324
S214000EA05F936F937F938F939F93AF93BF93EF93CD
S214000EB0FF9360911E2270911F2240EB54E08091B8
S214000EC02622909127220E947606FF91EF91BF91ED
S214000ED0AF919F918F917F916F915F914F913F91CD
S214000EE02F910F900BBE0F9009BE0F9008BE0F906B
S214000EF00FBE0F901F901895FC018EE180878085AD
S214000F00806280878085806C80870895FC012285BA
S214000F1026FF06C082858695817091E08927089510
S214000F2080E00895EF92FF920F931F93CF93DF9385
S214000F30EC019A8596FFFDCF8A8581FD32C07B0144
S214000F40898583608987442321F18B014150842F52
S214000F5090E00196E80EF91E68E771E280EA99E0F3
S214000F600E94B9098A858823F4F08A8586FFFACF1D
S214000F701AC08C85F801D8018D938D018985836010
S214000F808987608180EA99E00E948B090E151F050B
S214000F9019F7B8E0BA95F1F78A85806C8A8781E000
S214000FA006C080E004C08A8586FFE3CFF2CFDF91DB
S214000FB0CF911F910F91FF90EF900895FC018285CD
S214000FC086FFFDCF828581FF25C08285806C828763
S214000FD0648781858B7F8187818582608187828512
S214000FE0882374F4828583FD03C0828582FFF7CF51
S214000FF08285846082878285806C828780E00895FF
S21400100080E58A95F1F7828586FFDFCF828580FDB1
S214001010DCCF02C080E008958285806C828781E004
S2140010200895603924E0720791F024F46038744023
S21400103049F01CC0603A24E0720771F0603B7440CF
S21400104081F014C080932C2290932D2208958093D3
S2140010502A2290932B220895809328229093292267
S214001060089580932622909327220895FFCF603913
S21400107024E0720791F024F46038744049F01CC0F4
S214001080603A24E0720771F0603B744081F014C04F
S2140010908093242290932522089580932222909371
S2140010A023220895809320229093212208958093EE
S2140010B01E2290931F220895FFCF8F708A3010F063
S2140010C0895C0895805D08954F925F926F927F923B
S2140010D08F929F92AF92BF92EF92FF920F931F93C1
S2140010E0CF937C014A015B0128013901FC01848110
S2140010F082FF16C0D901C801689412F8B695A79564
S214001100979587951694D1F7B901A801032E36E175
S21400111076956795579547953A95D1F7302D15C032
S214001120D901C801689413F8B695A7959795879541
S2140011301694D1F7B901A801032E37E17695679585
S214001140579547953A95D1F7302D88159905AA05F4
S214001150BB0508F4A6C084169506A606B70608F4CE
S214001160A2C0F701848182FD04C0880C991CAA1CC9
S214001170BB1CC301B201A50194010E942E342F3F6F
S21400118031054105510508F490C08FEF90E0A0E0CE
S214001190B0E0C9EF05C0281739074A075B0758F0C3
S2140011A0880F991FAA1FBB1FCD3F0CF48160CF5F2D
S2140011B0C73089F74FC0CC230CF04CC0D501C40112
S2140011C0880F991FAA1FBB1F880F991FAA1FBB1F36
S2140011D0880F991FAA1FBB1F481A590A6A0A7B0A5A
S2140011E0CE3FF4F48DEF9FEF8C1B9109C7FD9395CE
S2140011F004C0440C551C661C771C8A95D2F7D50192
S214001200C401B695A79597958795BC01CD01640D49
S214001210751D861D971DA50194010E942E3437C0AA
S21400122083E08C0FA501940104C0220F331F441FD6
S214001230551F8A95D2F7DA01C901B695A7959795F5
S2140012408795BC01CD01640D751D861D971D0E94F6
S2140012502E341DC083E08C0FA501940104C0220F1C
S214001260331F441F551F8A95D2F7DA01C901B69578
S214001270A79597958795BC01CD01640D751D861DB4
S214001280971D0E942E342150310941095109832FA0
S2140012908F70C295C07FC82BF701C783268381E075
S2140012A018C080E016C080E014C0D501C401880FC5
S2140012B0991FAA1FBB1F880F991FAA1FBB1F880F45
S2140012C0991FAA1FBB1F481A590A6A0A7B0AC9EF48
S2140012D089CFCF911F910F91FF90EF90BF90AF9065
S2140012E09F908F907F906F905F904F9008950F9390
S2140012F01F93CF93DF93EC010E9464088FE59AEE6C
S2140013000197F1F700C0000088E18C83DF91CF9150
S2140013101F910F910895FC01918195FFFDCF608389
S2140013200895FC0191819923ECF780810895FC01D2
S2140013306115710599F08181882334F020E030E052
S21400134005C09181992314F48081089588E08A95D8
S214001350F1F72F5F3F4F6217730799F781E0FA01A5
S214001360808380E00895FC018181881F8827881F7C
S2140013700895EF92FF920F931F93CF93FB01608126
S214001380662369F08F017C01C0E0C7010E948B09CB
S214001390CF5FF801EC0FF11D60816111F6CFCF91A0
S2140013A01F910F91FF90EF900895EF92FF920F9389
S2140013B01F93CF93DF93442381F07C01EB014150D0
S2140013C0042F10E00F5F1F4F060F171F6991C7010C
S2140013D00E948B09C017D107C9F7DF91CF911F91E3
S2140013E00F91FF90EF9008951F93CF93DF93EC013A
S2140013F0162F6EE771E20E94B909812F82958F70D1
S2140014000E945D08682FCE010E948B09812F0E94E2
S2140014105D08682FCE010E948B09DF91CF911F9146
S21400142008950F931F93CF93DF938C01EB01DD2379
S21400143034F4D195C195D1096DE20E948B09CE0195
S21400144060E177E20E941A34662331F0605DC801DD
S2140014500E948B0921E001C020E0CE0168EE73E017
S2140014600E941A34CB016AE070E00E941A34882386
S21400147081F060E3680FC8010E948B09CE0164E624
S21400148070E00E941A34CB016AE070E00E941A34C1
S2140014900EC0CE0164E670E00E941A34CB016AE00A
S2140014A070E00E941A34811102C02223F9F060E332
S2140014B0680FC8010E948B092AE030E0CE01B9010E
S2140014C00E941A34CB01B9010E941A3460E3680FF7
S2140014D0C8010E948B09CE016AE070E00E941A34AF
S2140014E060E3680FC8010E948B090DC02AE030E057
S2140014F0CE01B9010E941A34CB01B9010E941A34F8
S214001500882349F3E3CFDF91CF911F910F91089580
S214001510FC01818185FB882780F9089590E00E9470
S214001520A02008950E94E11E8823E1F30E943A1F3E
S2140015300895EF92FF920F931F93CF93DF938C0142
S2140015407B01892B81F0C0E0D0E00E94E11E882359
S21400155019F00E943A1F0BC088E08A95F1F7219691
S2140015600C171D0791F781E0F701808380E0DF917B
S214001570CF911F910F91FF90EF9008950E944D20FC
S21400158008950F931F93CF93FC018081882361F009
S2140015908F01C0E090E00E94A020CF5FF801EC0F22
S2140015A0F11D80818111F6CFCF911F910F91089583
S2140015B00F931F93CF93DF93662379F0EC0161506E
S2140015C0062F10E00F5F1F4F080F191F899190E03C
S2140015D00E94A020C017D107C9F7DF91CF911F91B5
S2140015E00F910895CF93C82F8EE791E20E94C10A0B
S2140015F08C2F82958F700E945D0890E00E94A0203C
S2140016008C2F0E945D0890E00E94A020CF91089544
S214001610CF93DF93EC0199233CF4D195C195D10982
S2140016208DE290E00E94A020CE0160E177E20E9469
S2140016301A34662339F080E3860F90E00E94A020DB
S21400164021E001C020E0CE0168EE73E00E941A346B
S214001650CB016AE070E00E941A34882379F0805D3E
S21400166090E00E94A020CE0164E670E00E941A344A
S214001670CB016AE070E00E941A340EC0CE0164E628
S21400168070E00E941A34CB016AE070E00E941A34BF
S214001690811102C02223E1F0805D90E00E94A0202C
S2140016A02AE030E0CE01B9010E941A34CB01B9011C
S2140016B00E941A34805D90E00E94A020CE016AE06D
S2140016C070E00E941A34805D90E00E94A0200DC059
S2140016D02AE030E0CE01B9010E941A34CB01B901EC
S2140016E00E941A34882351F3E5CFDF91CF910895F5
S2140016F0282F862F90E0FC013197EC30F10508F09A
S214001700B6C08827E250FF4F8F4F0C946F342223C9
S21400171021F080E88093250703C080E880932607A1
S21400172080912807881F8827881F0895222321F084
S21400173080E48093250703C080E480932607809189
S214001740280786FB882780F90895222321F080E267
S2140017508093250703C080E28093260780912807A0
S21400176085FB882780F90895222321F080E1809365
S214001770250703C080E1809326078091280782957D
S21400178081700895222321F088E08093250703C006
S21400179088E0809326078091280783FB882780F9B6
S2140017A00895222321F084E08093250703C084E077
S2140017B0809326078091280782FB882780F9089562
S2140017C0222321F082E08093250703C082E08093E5
S2140017D0260780912807869581700895222321F098
S2140017E081E08093250703C081E0809326078091DF
S2140017F0280781700895222321F080E8809305074A
S21400180003C080E88093060780910807881F882712
S214001810881F0895222321F080E48093050703C0E3
S21400182080E4809306078091080786FB882780F966
S2140018300895222321F080E88093E50603C080E81F
S2140018408093E6068091E806881F8827881F0895FB
S214001850222321F080E48093E50603C080E4809391
S214001860E6068091E80686FB882780F9089580E0E2
S2140018700895089521E08617970709F020E0822F43
S21400188008950F931F93E0EEF6E09081906C90839E
S214001890813059F018F0823079F014C0E6EEF6E0A8
S2140018A080E8808380E480830DC0E5EEF6E080E883
S2140018B0808380E4808306C080E88093E60680E428
S2140018C08093E50600E117E220E030E040E060E4C7
S2140018D080E097E00E942C0ECB011F910F91089597
S2140018E0FF920F931F93CF93DF93F82E062F142F9C
S2140018F082958F700E945D08C3E0D0E289838F2DA9
S2140019000E945D088A83802F82958F700E945D08F2
S2140019108B83802F0E945D088C83812F82958F7029
S2140019200E945D088D83812F0E945D088E838FE262
S21400193095E70197F1F700C00000CE01DF91CF9147
S2140019401F910F91FF900895803810F08FEF089543
S21400195080E00895009769F1633098F4A0E0B0E065
S2140019609C01AD012C57310941095109AFEFB0E098
S2140019700E949A3422E93FEF4FEF5FEF0E94503407
S21400198004C020E030E040E050E0822F932FA42FE8
S214001990B52FBB231CF480E090E0DC018F3F91055F
S2140019A0A105B10539F034F08FEF90E0A0E0B0E08B
S2140019B0089580E008950F931F93062F662381F005
S2140019C0E82FF92F80E040E050E0BA01A191B191F4
S2140019D04A0F5B1F611D711D8F5F0813F7CF03C091
S2140019E040E050E0BA0110E020E030E0CB01BA0160
S2140019F0A90198010E942E34C9011F910F910895E4
S214001A00442349F08617970741F480E08F5F481318
S214001A10FDCF81E0089581E0089580E00895FC01FF
S214001A203081332389F1319660E070E0CB0120ED00
S214001A30230F2A3078F02FE9230F263018F429EAEE
S214001A40230F08C02FEB230F263018F429EC230FA2
S214001A5001C0232FDC01CB01880F991FAA1FBB1FD3
S214001A60880F991FAA1FBB1F880F991FAA1FBB1F8D
S214001A70880F991FAA1FBB1F2F70BC01CD01622BB8
S214001A8031913111D4CF089560E070E0CB01089514
S214001A90CF93DF9300D0CDB7DEB71B82FC018181E8
S214001AA0928189839A83CE0101960E940F0D862F1C
S214001AB02396CDBFDEBFDF91CF910895CF93DF93FE
S214001AC000D0CDB7DEB71B82FC0183819481898369
S214001AD09A83CE0101960E940F0D862F2396CDBFC6
S214001AE0DEBFDF91CF910895CF93DF9300D0CDB7BF
S214001AF0DEB71B82FC018581968189839A83CE019D
S214001B0001960E940F0D862F2396CDBFDEBFDF9174
S214001B10CF9108950F931F93CF938C010E94480D89
S214001B20882311F0C4E001C0C0E0C8010E945E0D29
S214001B308111C260C8010E94740D8111C1608C2F92
S214001B40CF911F910F910895AF92BF92CF92DF92DF
S214001B50FF920F931F93CF93DF93CDB7DEB72D97EA
S214001B60CDBFDEBF5E018BE0A80EB11CF12C650177
S214001B708E010F5F1F4F8F2D0E94410CF80181933D
S214001B8091938F01EC15FD05B1F765E0CE01019646
S214001B900E94DB0C6F2D0E94AA0C0E94A40CF5017B
S214001BA081935F01F394F3E0FF12E2CF4D856C85DD
S214001BB08B850E94700C0E948A0D90E02D96CDBFFA
S214001BC0DEBFDF91CF911F910F91FF90DF90CF90F6
S214001BD0BF90AF9008954F925F926F927F92AF92B0
S214001BE0BF92CF92DF92EF92FF920F931F93CF9305
S214001BF0DF93CDB7DEB729013A019B01AC0124196A
S214001C003509460957098A899B89AC89BD89BC0173
S214001C10CD016A197B098C099D090E94F633A8013B
S214001C20970124193509460957090E945034CA01FC
S214001C30B9016A0D7B1D8C1D9D1DDF91CF911F91F3
S214001C400F91FF90EF90DF90CF90BF90AF907F9076
S214001C506F905F904F9008958F929F92AF92BF9231
S214001C60CF92DF92EF92FF920F931F93FC01862F85
S214001C70442311F0A62F01C0A0E0B901A801440F2B
S214001C80551F661F771F040F151F261F371F369513
S214001C902795179507953F7040E050E0BA0190856C
S214001CA09823A91310C06A017B019FEFC91AD90AAD
S214001CB0E90AF90A041715072607370709F469C061
S214001CC0B701A601ECCF90859823A91308C090858C
S214001CD09823A917A1F0C12CD12C76012FC06A0138
S214001CE07B019FEFC91AD90AE90AF90A04171507F2
S214001CF02607370709F451C0B701A601E4CF4017FD
S214001D0051076207730709F44CC0C12CD12C760129
S214001D100CC04A015B018C0C9D1CAE1CBF1C081538
S214001D2019052A053B0509F440C09FEFC91AD90AD0
S214001D30E90AF90A90859823A91759F3B701A6016D
S214001D40440F551F661F771F440F551F661F771FCA
S214001D50DB01CA01880F991FAA1FBB1F880F991F96
S214001D60AA1FBB1F840F951FA61FB71F8C0D9D1D96
S214001D70AE1DBF1DBC01CD01605F7F4F8F4F9F4FD3
S214001D8028E130E040E050E00E942E34CA01B9015C
S214001D900FC060E070E0CB010BC060E070E0CB01EC
S214001DA007C060E070E0CB0103C060E070E0CB01EC
S214001DB01F910F91FF90EF90DF90CF90BF90AF9064
S214001DC09F908F90089580910A2082958170089543
S214001DD080910A208170089590910A20982381E0CE
S214001DE009F480E0089590910A20982B90930A2099
S214001DF0EAE2F7E090818095892380830895FF9238
S214001E000F931F93CF93DF931F92CDB7DEB7F62EB7
S214001E10198200EB1AE0282F41E0BE016F5F7F4F6A
S214001E208CE40E9407158F2D0E94F30E0F90DF9111
S214001E30CF911F910F91FF90089560E181E00E947D
S214001E40FF0E089561E084E00E94FF0E08959091D1
S214001E502807962359F090912E22692391E009F0E5
S214001E6090E0682F892F0E945C1508950E94FF0E4F
S214001E700895883029F138F48230B1F08430D1F0FA
S214001E808130D9F50BC0803239F118F48031F1F089
S214001E9034C0803439F1803859F12FC0E0E3F7E0E0
S214001EA090819861908329C0E1E3F7E09081986182
S214001EB0908323C0E2E3F7E09081986190831DC091
S214001EC0E3E3F7E090819861908317C0E4E3F7E0DE
S214001ED090819861908311C0E5E3F7E09081986166
S214001EE090830BC0E6E3F7E090819861908305C08D
S214001EF0E7E3F7E0908198619083E0E2F7E0908175
S214001F008095892380830895EAE2F7E09081982BF4
S214001F109083883011F138F48230A9F08430C1F013
S214001F20813099F50BC0803211F118F48031D1F070
S214001F302CC0803409F1803821F127C0E0E3F7E0B7
S214001F408081808322C0E1E3F7E0808180831DC02A
S214001F50E2E3F7E08081808318C0E3E3F7E0808166
S214001F60808313C0E4E3F7E0808180830EC0E5E35E
S214001F70F7E08081808309C0E6E3F7E08081808314
S214001F8004C0E7E3F7E080818083E9E2F7E0808140
S214001F90816080830895CF93DF93D82FC62F862F36
S214001FA00E94390F2FE782E392E021508040904054
S214001FB0E1F700C00000809128078C23D9F4DD23C8
S214001FC031F080912E228C2B80932E2207C0909188
S214001FD02E228C2F8095892380932E228C2F8095FD
S214001FE090910A20892380930A208C2F0E94840FC8
S214001FF081E001C080E0DF91CF910895EF92FF92DB
S2140020000F931F93CF93DF93CDB7DEB72897CDBF3F
S214002010DEBFF82EE62E642F0E94CB0F882311F128
S214002020F88600EB1AE02E2D41E0BE01685F7F4F78
S2140020308AE40E940715BE016F5F7F4F87E0FB01B1
S21400204011928A95E9F783E0898386E68A838FEF83
S2140020508B838C8381E08F83FD822E2D47E086E480
S2140020600E9407152896CDBFDEBFDF91CF911F9146
S2140020700F91FF90EF90089540E161E00E94FE0FFF
S214002080089541E064E00E94FE0F08950F931F93A9
S21400209090E00E9478348C01000F111F000F111F72
S2140020A0000F111F2091372230913822409139229B
S2140020B050913A2260913B2270913C2280913D22C1
S2140020C090913E220E94C034822F90E01F910F9183
S2140020D0089581E00E94461008950F931F93CF93B2
S2140020E0DF938B01EA01882369F088810E944610FD
S2140020F0080F191F2A8130E081E0201731077CF491
S21400210080E00DC088810E944610AC01401B510B38
S214002110298130E081E0421753070CF480E0DF911C
S214002120CF911F910F9108956F927F928F929F92F9
S214002130AF92BF92CF92DF92EF92FF920F931F93D0
S214002140CF93DF93282F862F90E00E9478343C01AF
S214002150660C771C660C771C660C771CF090372292
S21400216010913822D0913922C0913A22B0913B2268
S214002170A0913C22F0913D22E0913E2230E040E0EA
S21400218050E060E070E080E090E0062D0E94A5340C
S214002190722E7F24832E8126942E9D26A52EAC2675
S2140021A0B62EBB26C72ECA26D82EDF26E92EEE264A
S2140021B02FEF30E040E050E060E070E080E090E03C
S2140021C00E94A5342721382149215A216B217C21E0
S2140021D08D219E21F226F092372213271093382263
S2140021E0D427D0933922C527C0933A22B627B09376
S2140021F03B22A727A0933C22F827F0933D22E9270D
S214002200E0933E22DF91CF911F910F91FF90EF90C8
S214002210DF90CF90BF90AF909F908F907F906F9001
S2140022200895FF920F931F93CF93DF93082FF62EF8
S214002230EA010E946D10182F002381F0882349F0D0
S214002240C8818C2F0E9446106C2F8F0D0E94941010
S21400225014C068818A810E9494100FC0882349F0B8
S214002260C8818C2F0E9446106C2F8F190E949410E4
S21400227004C0688189810E949410812FDF91CF91DC
S2140022801F910F91FF900895883029F138F482301D
S214002290B1F08430D1F08130D9F50BC0803239F1FD
S2140022A018F48031F1F034C0803439F1803859F1B7
S2140022B02FC0E0E1F7E090819063908329C0E1E1D0
S2140022C0F7E090819063908323C0E2E1F7E090818D
S2140022D0906390831DC0E3E1F7E090819063908364
S2140022E017C0E4E1F7E090819063908311C0E5E1C8
S2140022F0F7E09081906390830BC0E6E1F7E0908171
S2140023009063908305C0E7E1F7E090819063908347
S214002310E0E0F7E090818095892380830895EBE0E4
S214002320F7E09081982B9083883011F138F4823052
S214002330A9F08430C1F0813099F50BC0803211F1DC
S21400234018F48031D1F02CC0803409F1803821F1A6
S21400235027C0E0E1F7E08081808322C0E1E1F7E07A
S214002360808180831DC0E2E1F7E08081808318C011
S214002370E3E1F7E08081808313C0E4E1F7E0808149
S21400238080830EC0E5E1F7E08081808309C0E6E146
S214002390F7E08081808304C0E7E1F7E080818083F6
S2140023A0E9E0F7E080818460808308956F927F92F1
S2140023B08F929F92AF92BF92CF92DF92EF92FF9250
S2140023C00F931F93CF93DF93282F862F90E00E94C2
S2140023D078343C01660C771C660C771C660C771C00
S2140023E0F0902F2210913022D0913122C0913222CB
S2140023F0B0913322A0913422F0913522E09136221A
S21400240030E040E050E060E070E080E090E0062DD4
S2140024100E94A534722E7F24832E8126942E9D261C
S214002420A52EAC26B62EBB26C72ECA26D82EDF264D
S214002430E92EEE262FEF30E040E050E060E070E05E
S21400244080E090E00E94A5342721382149215A21B6
S2140024506B217C218D219E21F226F0922F221327BC
S21400246010933022D427D0933122C527C09332222E
S214002470B627B0933322A727A0933422F827F093E9
S2140024803522E927E0933622DF91CF911F910F91F5
S214002490FF90EF90DF90CF90BF90AF909F908F907F
S2140024A07F906F9008958F929F92AF92BF92CF9237
S2140024B0DF92EF92FF920F931F93CF93DF93CDB7E8
S2140024C0DEB72897CDBFDEBFB82E7B016A01672B2B
S2140024D009F475C0888700EB1AE0FA01258141E00F
S2140024E0BE01685F7F4F8AE40E940715BE016F5FDA
S2140024F07F4F87E0FB0111928A95E9F781E08F8391
S214002500F6018681978199838A83FB82EC82BD825D
S214002510258147E086E40E940715F6015081409128
S2140025203F22852F90E00E9478342B2D30E002C0A9
S214002530220F331F8A95E2F724272523242720938A
S2140025403F22FFEFEF16FF0609F44EC00091600829
S21400255010916108B70180E090E00E9468334B015B
S2140025605C01F6016681778180E090E00E94683326
S2140025709B01AC01C501B4010E94C7324B015C014E
S214002580B80180E090E00E94683320E03CE147EB31
S21400259056E40E94C7329B01AC01C501B4010E94FB
S2140025A05B3223E333E343EB5FE30E945B320E943C
S2140025B03933862FF60160810E94D61115C0FA01C4
S2140025C0508140913F22852F90E00E9478342B2D39
S2140025D030E002C0220F331F8A95E2F72427252316
S2140025E0242720933F22B2CF2896CDBFDEBFDF91AF
S2140025F0CF911F910F91FF90EF90DF90CF90BF90FB
S214002600AF909F908F900895AB016FEF7FEF0E9481
S21400261053120895EF92FF920F931F93CF93DF9379
S2140026201F92CDB7DEB77C01198200EB1AE0FC01E1
S214002630258141E0BE016F5F7F4F8CE40E94071545
S214002640F701608180E00E94D6110F90DF91CF9154
S2140026501F910F91FF90EF90089581E891E20E94FC
S2140026600A1308950F931F9390E00E9478348C010C
S214002670000F111F000F111F000F111F20912F2296
S2140026803091302240913122509132226091332293
S2140026907091342280913522909136220E94C03467
S2140026A0822F1F910F9108951F920F920FB60F92CF
S2140026B0112408B60F9218BE09B60F9219BE0AB6B4
S2140026C00F921ABE0BB60F921BBEEF92FF920F939D
S2140026D01F932F933F934F935F936F937F938F93A5
S2140026E09F93AF93BF93CF93DF93EF93FF93109295
S2140026F0600810926108C0E0D0E0EE24E394F12C6C
S21400270087010C2E02C0000F111F0A94E2F7802FDB
S2140027100E943213882321F0602F81500E94D61128
S2140027202196C830D10561F7FF91EF91DF91CF91E7
S214002730BF91AF919F918F917F916F915F914F91D4
S2140027403F912F911F910F91FF90EF900F900BBE2E
S2140027500F900ABE0F9009BE0F9008BE0F900FBED6
S2140027600F901F901895CF93FC01C0818C2F0E946C
S2140027703213282F909141229C2349F090914022B9
S214002780C92339F081E0222329F080E003C080E0ED
S21400279001C080E0CF91089581E891E20E94B313D2
S2140027A00895E0E4F8E0818180618183878181601B
S2140027B087838EE89BE580A791A7808187608083CA
S2140027C00895CF93DF93EC0188810E9444112FE790
S2140027D082E392E0215080409040E1F700C0000084
S2140027E0909108078881892349F00E94D113888137
S2140027F00E948F11BE0180E00E940413DF91CF91EA
S2140028000895FF920F931F93CF93DF93F82E8B01BB
S214002810EA01F894988180914122892309F055C0F5
S21400282080910807982309F057C04FC088810E94FE
S2140028304610298130E08217930708F453C02A8196
S21400284030E02817390708F44DC0AE01B8018F2DC7
S2140028500E941111882371F08B819C81089FB00122
S214002860099F700D189F700D1124AE018F2D0E94C8
S214002870531238C0FF20A9F088810E9446102A8192
S21400288030E0281B390B8B819C81289FB001299F43
S214002890700D389F700D1124AE0181E00E94531216
S2140028A021C088810E9446102981821B91092B81B4
S2140028B03C81829FB001839F700D929F700D112402
S2140028C0AE0180E00E9453120DC07894CE010E94A3
S2140028D0B3138111ABCF06C08F2D0E941111CE010C
S2140028E00E94E113DF91CF911F910F91FF90089501
S2140028F041E851E20E94011408950F931F93CF936D
S214002900DF938C01EB0188810E944610282F082E49
S214002910000C330B201B310907FD3395B901332317
S21400292024F466277727621B730B21E08017910734
S21400293008F020E0AE01822F0E940114DF91CF91B3
S2140029401F910F91089561E871E20E947D14089529
S214002950FF920F931F93CF93DF93EC0188819091A2
S2140029604122282F2923F1F020910807282389F4F3
S21400297090913F22982381E009F080E06D810E94CB
S2140029805C1588818095909140228923809340220F
S21400299038C08095892380934122BE0180E00E9442
S2140029A004132FC020910807282351F490913F224A
S2140029B0982381E009F080E06D810E945C1521C0BB
S2140029C0892B80934122909140228881892B809385
S2140029D04022F8808F2D0E9446108C016F2D898131
S2140029E00E949410112788810E9446108017910734
S2140029F029F0BE01C8010E947D1403C0CE010E94CA
S214002A000A13DF91CF911F910F91FF900895CF92F7
S214002A10DF92EF92FF920F931F93CF93DF93D82E00
S214002A207B01D42FC22EF894CCEFC81BC41BC21B4C
S214002A30442369F0FB012FEF240F30E02F5F3F4F58
S214002A40260F371F8191C81BE217F307D9F76FEFE0
S214002A50C8010E948B096FEFC8010E948B096C2D7C
S214002A60C8010E948B0963E06D0FC8010E948B09A4
S214002A7060E0C8010E948B096D2DC8010E948B0979
S214002A804D2FB701C8010E94D5096C2FC8010E94BE
S214002A908B092FE782E392E0215080409040E1F7D7
S214002AA000C000007894DF91CF911F910F91FF90A6
S214002AB0EF90DF90CF9008950F931F93CF93DF93FF
S214002AC01F92CDB7DEB7262F898300EB1AE041E0D0
S214002AD0BE016F5F7F4F8AE40E9407150F90DF915B
S214002AE0CF911F910F910895EF92FF920F931F932E
S214002AF0CF93DF93CDB7DEB72897CDBFDEBF62306A
S214002B00710561F020F461307105B1F03BC06330AF
S214002B10710549F06430710551F034C00F2EF3E0B2
S214002B20EF2EF02D0CC06894EE24E2F808C00F2EAD
S214002B30F5E0EF2EF02D03C06894EE24E1F8F82EB1
S214002B40898300EB1AE02E2D41E0BE016F5F7F4FB8
S214002B508AE40E940715BE016E5F7F4F87E0FB0187
S214002B6011928A95E9F781E08A839CE49B839FEF24
S214002B709C839D838F838887FE822E2D47E086E484
S214002B800E9407152896CDBFDEBFDF91CF911F911B
S214002B900F91FF90EF9008950F931F93CF93DF93BD
S214002BA01F92CDB7DEB78230910551F018F4019729
S214002BB069F017C08330910529F0049729F011C0F9
S214002BC023E005C024E003C025E001C022E019820E
S214002BD000EB1AE041E0BE016F5F7F4F8CE40E947D
S214002BE007150F90DF91CF911F910F910895FF92D7
S214002BF00F931F93CF93DF93CDB7DEB72897CDBF44
S214002C00DEBF615071096230710508F5F82E8983C0
S214002C1000EB1AE021E041E0BE016F5F7F4F8AE4DF
S214002C200E940715BE016E5F7F4F87E0FB01119281
S214002C308A95E9F780E48B838FEF8C838D8381E020
S214002C408887FE8221E047E086E40E9407152896E2
S214002C50CDBFDEBFDF91CF911F910F91FF900895FA
S214002C600F931F93CF93DF931F92CDB7DEB70197D5
S214002C70029758F4198200EB1AE021E041E0BE0109
S214002C806F5F7F4F8CE40E9407150F90DF91CF9106
S214002C901F910F910895E7EEF6E0808180638083B0
S214002CA00895882331F0E6EEF6E080818063808325
S214002CB00895E5EEF6E08081806380830895609154
S214002CC0472280E894E00E94DE070895609146223D
S214002CD080E894E00E94DE070895009709F45CC13E
S214002CE0803C910529F460E180E00E940B2E089557
S214002CF0803424E0920729F468E080E00E940B2EDE
S214002D000895811524E0920729F464E080E00E948B
S214002D100B2E0895803821E0920729F462E080E0C7
S214002D200E940B2E0895811521E0920729F461E098
S214002D3080E00E940B2E0895803823E0920729F445
S214002D4061E081E00E940B2E0895803923E092070F
S214002D5029F461E082E00E940B2E0895811522E09E
S214002D60920729F462E081E00E940B2E08958034D9
S214002D7022E0920729F462E082E00E940B2E08957A
S214002D80811523E0920729F464E081E00E940B2E6F
S214002D900895803223E0920729F464E082E00E94DE
S214002DA00B2E0895811528E0920729F461E083E050
S214002DB00E940B2E0895811529E0920729F461E000
S214002DC084E00E940B2E089581152AE0920729F4CC
S214002DD061E085E00E940B2E089581152BE0920796
S214002DE029F461E086E00E940B2E0895803428E0E6
S214002DF0920729F462E083E00E940B2E0895803447
S214002E0029E0920729F462E084E00E940B2E0895E0
S214002E1080342AE0920729F462E085E00E940B2EB7
S214002E20089580342BE0920729F462E086E00E9441
S214002E300B2E0895803928E0920729F464E083E099
S214002E400E940B2E0895803929E0920729F464E049
S214002E5084E00E940B2E089580392AE0920729F418
S214002E6064E085E00E940B2E089580392BE09207DF
S214002E7029F464E086E00E940B2E0895803C28E04A
S214002E80920729F468E083E00E940B2E0895803CA8
S214002E9029E0920729F468E084E00E940B2E08954A
S214002EA0803C2AE0920729F468E085E00E940B2E19
S214002EB00895803C2BE0920729F468E086E00E94A3
S214002EC00B2E0895803A28E0920729F460E183E00B
S214002ED00E940B2E0895803A29E0920729F460E1BB
S214002EE084E00E940B2E0895803A2AE0920729F487
S214002EF060E185E00E940B2E0895803A2BE0920751
S214002F0029F460E186E00E940B2E0895803B28E0BD
S214002F10920729F460E283E00E940B2E0895803B1E
S214002F2029E0920729F460E284E00E940B2E0895BF
S214002F30803B2AE0920729F460E285E00E940B2E8F
S214002F400895803B2BE0920729F460E286E00E9419
S214002F500B2E0895803824E0920729F460E483E07D
S214002F600E940B2E0895803924E0920729F460E42D
S214002F7084E00E940B2E0895803A24E0920729F4FC
S214002F8060E485E00E940B2E0895803B944021F477
S214002F9060E486E00E940B2E0895282F862F90E08E
S214002FA0FC013197EC30F10508F0B6C08827E65FE3
S214002FB0FE4F8F4F0C946F34222321F080E88093CD
S214002FC0250703C080E88093260780912807881F7E
S214002FD08827881F0895222321F080E48093250700
S214002FE003C080E4809326078091280786FB882705
S214002FF080F90895222321F080E28093250703C0FC
S21400300080E2809326078091280785FB882780F931
S2140030100895222321F080E18093250703C080E1F4
S2140030208093260780912807829581700895222331
S21400303021F088E08093250703C088E08093260768
S2140030408091280783FB882780F90895222321F0A2
S21400305084E08093250703C084E080932607809150
S214003060280782FB882780F90895222321F082E032
S2140030708093250703C082E0809326078091280767
S214003080869581700895222321F081E0809325079C
S21400309003C081E0809326078091280781700895F9
S2140030A0222321F080E88093050703C080E8809300
S2140030B0060780910807881F8827881F08952223FF
S2140030C021F080E48093050703C080E48093060720
S2140030D08091080786FB882780F90895222321F02F
S2140030E080E88093E50603C080E88093E60680913A
S2140030F0E806881F8827881F0895222321F080E489
S2140031008093E50603C080E48093E6068091E80697
S21400311086FB882780F9089580E00895682F81E06F
S2140031200E94CD170895AAECB1E022E02C93FC0192
S21400313084911C920895FC01633089F028F4613074
S21400314041F0623049F01DC0643061F0653069F0CE
S21400315018C088E081830BC080E1818308C088E1C5
S214003160818305C080E2818302C088E281838081FA
S21400317080688083938190FFFDCF81E08383848184
S214003180089580E0089580960E949B1808950F93F6
S2140031901F93CF93DF93EC01C11582E0D80779F433
S2140031A080B590E00E94931800E012E0F801848752
S2140031B081B590E00E949318F801858714C0C0344A
S2140031C0F2E0DF0779F484B590E00E94931800E4FB
S2140031D012E0F801848785B590E00E949318F80104
S2140031E0858701C0FFCF82E0888380E28A8384E0FF
S2140031F089838C8388818160888381E088A310928C
S214003200220261E0CE010E94C31861E0CE010E9456
S214003210C318DF91CF911F910F910895682F80E01A
S21400322092E00E94C31890E0FC01FC97E43CF10594
S214003230F0F48827EA5EFE4F8F4F0C946F3485E0DB
S214003240089587E0089588E0089589E008958AE063
S21400325008958BE008958CE008958DE008958EE043
S214003260089580E1089584E1089589E108958EE146
S214003270089584E00895682F80E092E00E94C318C5
S21400328090E00895CF93DF93CDB7DEB72B97CDBFF1
S214003290DEBF60E874E086E696E10E9411080F2E15
S2140032A0F6EECF2EF6E0DF2EF02D0F2EF7E09F2E57
S2140032B0F02D5E0184E0A80EB11C0F2EFCE47F2EDC
S2140032C0F02D0F2EF2E38F2EF02D0F2EF5EEEF2EB3
S2140032D0F6E0FF2EF02D80E894E00E948607882313
S2140032E0D1F3F60180818063808343E0BE016F5F87
S2140032F07F4F80E894E00E9492078FE697E101975F
S214003300F1F700C00000E0E8F4E08285806C828778
S2140033108981811120C08B818B8700EB1AE02A817E
S21400332041E0BE01655F7F4F8AE40E940715F50104
S214003330892D11928A95E9F781E08C837D828F82B0
S21400334089878A878B8188872A81492DB50186E4FB
S2140033500E94071508C0813031F48A8190E00E94EF
S2140033603B1980934622F701808180638083B3CF28
S214003370823059F128F4882359F08130B9F064C0BE
S214003380843009F442C088F1853009F44DC05CC031
S214003390E0E0F7E080818E7F8083E0E1F7E08081E7
S2140033A0806180838091080781700895E0E0F7E0EF
S2140033B080818D7F8083E1E1F7E08081806180837A
S2140033C080910807869581700895E0E0F7E0808197
S2140033D08B7F8083E2E1F7E080818061808380914B
S2140033E0080782FB882780F90895E0E0F7E08081EF
S2140033F0877F8083E3E1F7E080818061808380912E
S214003400080783FB882780F90895E0E0F7E08081CD
S2140034108F7E8083E4E1F7E0808180618083809105
S2140034200807829581700895E0E0F7E080818F7D3F
S2140034308083E5E1F7E080818061808380910807E2
S21400344085FB882780F9089580E008950E94B819C2
S2140034500895633001F128F4613049F0623089F054
S2140034600895653061F108F1663099F10895882372
S21400347021F082E08093E507089582E08093E607D6
S2140034800895882321F081E08093E507089581E080
S2140034908093E6070895882321F088E08093C50787
S2140034A0089588E08093C6070895882321F084E075
S2140034B08093C507089584E08093C60708958823FF
S2140034C021F082E08093C507089582E08093C607C6
S2140034D00895882321F081E08093C507089581E050
S2140034E08093C6070895982F862F692F0E94291A61
S2140034F00895CF93C82F682F81E00E94291A2FEFD6
S21400350085EA9EE0215080409040E1F700C0000030
S2140035106C2F80E00E94291ACF9108951F920F9277
S2140035200FB60F92112408B60F9218BE09B60F9266
S21400353019BE0BB60F921BBE2F933F934F935F930C
S2140035406F937F938F939F93AF93BF93EF93FF9366
S214003550909144229093452280912807809344229C
S214003560892784FF04C060E181E00E94270F9091C4
S214003570452280914422892780FF04C061E084E0D0
S2140035800E94270FFF91EF91BF91AF919F918F916E
S2140035907F916F915F914F913F912F910F900BBE4E
S2140035A00F9009BE0F9008BE0F900FBE0F901F9091
S2140035B018951F920F920FB60F92112408B60F920D
S2140035C018BE09B60F9219BE0BB60F921BBE2F93EC
S2140035D03F934F935F936F937F938F939F93AF9396
S2140035E0BF93EF93FF939091422290934322809152
S2140035F0080780934222892780FF04C084E192E274
S2140036000E94A814FF91EF91BF91AF919F918F9167
S2140036107F916F915F914F913F912F910F900BBECD
S2140036200F9009BE0F9008BE0F900FBE0F901F9010
S2140036301895CF92DF92EF92FF920F931F93CF933E
S214003640DF9387E08093A20078940E94902D0E94DA
S214003650142280E894E00E946D1680EA99E00E94A9
S2140036606D1680EB9AE00E946D1680E092E00E9454
S2140036706D1680E894E00E947C0760E874E08FE5B1
S21400368096E10E9411080E943332E5EEF6E0808152
S21400369080638083E12C00E016E32EE631E040E014
S2140036A052EC61E070E080EA99E00E94770900E061
S2140036B016E32EE631E04CEE50E960E070E080EB79
S2140036C09AE00E94770900E016E32EE631E04CEE21
S2140036D050E960E070E080EA9BE00E94770980E3B2
S2140036E08093850680E092E00E94C71881E090E013
S2140036F00E94CC1582E090E00E94CC1583E090E01A
S2140037000E94CC1584E090E00E94CC1581E090E009
S2140037100E94301682E090E00E9430160E942D1320
S2140037200E941D0F80E498E00E946D16789469E868
S21400373071E280EA99E00E94B90989E891E20E9464
S214003740C10A0E94B1050F2EF0E2CF2EF1EADF2E5D
S214003750F7E0EF2EF12CF02D80E894E00E9486072B
S214003760882321F082E499E10E94EA0588E08A95A0
S214003770F1F781E0C81AD108E108F10869F762EDAF
S21400378071E280EA99E00E94B90982ED91E20E9416
S214003790C10AE0E0F0E8E491EF3F91F469EE71E2EF
S2140037A080EA99E00E94B90989EE91E20E94C10A76
S2140037B0C8E0D6E088818111FDCF0E945304FACF7D
S2140037C081E0809347226CEF71E280EA99E00E94E4
S2140037D0B9098CEF91E20E94C10A0C94004080E087
S2140037E090E0DF91CF911F910F91FF90EF90DF90C7
S2140037F0CF900895809128078093442280910807EF
S21400380080934222089510925E2310926A231092AB
S2140038106B23E0E6F3E281EA808380E28183128212
S21400382013821482158282E090E086839783108646
S2140038301186EEE6F3E280E092ECA1E0B0E0808351
S2140038409183A283B3831482158288E08683809155
S2140038505E238F5F80935E2381E0089580915E23D0
S214003860815080935E23089580915D2381508093DC
S2140038705D2380915D2310925C23089580E0089577
S21400388080E008958091C1248823CCF4807680322D
S214003890B9F58091C2248132A9F58091C724909110
S2140038A0C824079789F5E1ECF4E28EE693E2808778
S2140038B0918787E090E08287938781E008958076FD
S2140038C0803221F58091C224803221F0823201F1CB
S2140038D080E008958091C7249091C8240797D1F47A
S2140038E0E1ECF4E28CE89CE1848795878EE693E22F
S2140038F08087918787E090E08287938781E00895AC
S21400390080E0089580E0089580E0089580E00895BE
S21400391081E0089580E008950895FF920F931F9325
S214003920CF93DF931F92CDB7DEB780914B228111E4
S2140039309FC00E940B29882351F000914C221091C1
S2140039404D220E9418290817190759F491C00091B2
S2140039504C2210914D220E9413290817190709F4CA
S21400396087C08FB78983F894198100914E22E02F83
S214003970F0E0EE0FFF1FE15BFD4D80819181892B0A
S21400398009F5809148229091492201968093482219
S214003990909349220E940B29811107C080914822EA
S2140039A0909149228436910558F00E940B2988236D
S2140039B049F080914822909149228032934010F439
S2140039C01FBF56C0109248221092492280914A2268
S2140039D0811106C081E0011180E080934E2204C070
S2140039E081E0011180E0082F81E080934B221FBF09
S2140039F010E0F801EE0FFF1FE15BFD4D8081918125
S214003A00FF24F3948034910509F4F12C8034910559
S214003A1091F00E940B29882339F00E941829809380
S214003A204C2290934D220BC00E94132980934C2267
S214003A3090934D2204C010924C2210924D22F80111
S214003A40EE0FFF1FE15BFD4D20813181A8010024B0
S214003A50569547950794569547950794542F402DAD
S214003A604C5A5D4D0FE31DE16F2D81E80E94212A1F
S214003A700F90DF91CF911F910F91FF9008958111C4
S214003A8016C020914E2281E090E0222311F080E0C3
S214003A9090E0880F991FFC01E15BFD4D10821182BA
S214003AA010924A2210924B2280E00E948D1C0895AC
S214003AB080E00E948D1C08950F931F9380916C23C5
S214003AC081111FC020916A2330916B238091682357
S214003AD09091692328173907A1F0862F20916A2331
S214003AE030916B2320936823309369230FEA1DE1FE
S214003AF02AE030E040E653E260E00E94212A80930C
S214003B006C231F910F910895CF93DF931F92CDB72B
S214003B10DEB78FB78983F8942981662359F08091A0
S214003B206A2390916B23482B592B40936A2350931A
S214003B306B230CC080916A2390916B23409550951F
S214003B404823592340936A2350936B232FBF62E880
S214003B5080E00E945C1D0F90DF91CF910895109237
S214003B606C2380916A2390916B23837880936A23D9
S214003B7090936B23E0E6F3E28085918583788087D7
S214003B809187642F80E00E945C1D089541E050E01C
S214003B90682F80E00E94841D089542E050E0682F60
S214003BA080E00E94841D089540E150E061E080E0DE
S214003BB00E94841D089540E250E061E080E00E948B
S214003BC0841D089540E450E061E080E00E94841D7A
S214003BD0089541E050E00E94841D089542E050E0C0
S214003BE00E94841D089540E150E061E00E94841D1B
S214003BF0089540E250E061E00E94841D089540E48C
S214003C0050E061E00E94841D0895CF93DF931F92D9
S214003C10CDB7DEB78FB78983F89449812091D52236
S214003C203091D622E091D722F0E0EE0FFF1FE85247
S214003C30FD4D808191814FBF821B930B0F90DF91CA
S214003C40CF91089580E00E94051E08950E94051EEB
S214003C5021E0892B09F420E0822F08950F931F930B
S214003C60CF93DF931F92CDB7DEB78FB78983F894D3
S214003C7099812091D7228091D422811110C0609121
S214003C80D5227091D622022F10E0F801EE0FFF1F0A
S214003C90E852FD4D408151816417750718F49FBFA7
S214003CA080E024C01092D5221092D62281E0211105
S214003CB080E08093D72281E08093D4229FBF80E06B
S214003CC00E94261EA80100245695479507945695EF
S214003CD047950794542F402D44525D4D00EB1EE14E
S214003CE020E430E061E082E00E94212A0F90DF911C
S214003CF0CF911F910F91089510925D2310924B2241
S214003D0010924A2210924E22EFE4F2E210821182C2
S214003D101282138210924C2210924D2280E00E9452
S214003D208D1C1092D4221092D722E8EDF2E2108277
S214003D301182128213821092D5221092D62280E02F
S214003D400E942E1E882359F090915D239F5F9093CA
S214003D505D2390915D23913011F490935C23089538
S214003D600F931F9381112AC08091D722E1E0811121
S214003D70E0E0842F61157105A9F44E2F50E0002471
S214003D80569547950794569547950794542F402D7A
S214003D9044525D4D00EB1EE120E430E061E00E94FD
S214003DA0212A0CC0F0E0EE0FFF1FE852FD4D6083A5
S214003DB071831092D42280E00E942E1E1F910F91D4
S214003DC0089580E00E94261E0895EF92FF921F93AA
S214003DD0CF93DF931F92CDB7DEB711E080917423A7
S214003DE0893009F010E040E050E08FB78983F894FE
S214003DF0A9812091D5223091D6228091D72290E0B9
S214003E00FC01EE0FFF1FE852FD4D60817181AFBFD0
S214003E102617370730F080915C238111E6CF90E0BB
S214003E2022C0FC010024F695E7950794F695E795E1
S214003E300794FE2FE02DE452FD4DE20FF31F808124
S214003E407A01E82A2F5F3F4F2093D5223093D6225F
S214003E5080E00E942E1E112321F05E2D442710E0E4
S214003E60C4CF8E2D9F2D0F90DF91CF911F91FF9085
S214003E70EF90089580E00E94E51E0895CF92DF92AD
S214003E80EF92FF920F931F93CF93DF931F92CDB7BE
S214003E90DEB76B017A018FB78983F8944981609108
S214003EA0D5227091D6228091D72290E0FC01EE0FA9
S214003EB0FF1FE852FD4D208131814FBF6217730707
S214003EC038F080915C238111E6CF8E2D9F2D36C071
S214003ED0FC01EE0FFF1FE852FD4D20813181261BAD
S214003EE0370B87012E153F0508F4890100249695A7
S214003EF087950794969587950794982F802D680F39
S214003F00791F64527D4DA801C6010E94EA34809153
S214003F10D5229091D622800F911F8093D522909320
S214003F20D622C00ED11EE01AF10A80E00E942E1E94
S214003F30E114F10409F0AFCF80E090E00F90DF913C
S214003F40CF911F910F91FF90EF90DF90CF90089543
S214003F50EF92FF920F931F93CF93DF931F921F92C0
S214003F60CDB7DEB7DC0190915C23992309F445C0F8
S214003F708FB78983F89489814091D5225091D622B3
S214003F802091D72230E0F901EE0FFF1FE852FD4DD9
S214003F90E080F180E41AF50A8FBF062F172FE0168F
S214003FA0F10608F487010115110551F1CD01002431
S214003FB0369527950794369527950794322F202D0A
S214003FC0B901640F751F64527D4DA8010E94EA3442
S214003FD08FB78A83F8948A812091D5223091D62291
S214003FE0020F131F0093D5221093D6228FBF80E0B6
S214003FF00E942E1E8E2D9F2D05C080E090E002C0F0
S2140040008E2D9F2D0F900F90DF91CF911F910F91C6
S214004010FF90EF900895AB01BC0180E00E943E1F28
S2140040200895CF93DF931F92CDB7DEB78FB78983FE
S214004030F894998180914E22E82FF0E0EE0FFF1F52
S214004040E15BFD4D208131812034310589F44091BA
S2140040504B2241110DC040914A22411109C021E076
S21400406020934A22811120E020934E2220E030E067
S2140040709FBF80E490E0821B930B0F90DF91CF915F
S214004080089580E00E94112008950E94112021E0EA
S214004090892B09F420E0822F089580E00E944520B5
S2140040A00895FF920F931F93CF93DF931F92CDB780
S2140040B0DEB7F62E172F01E080917423893009F0C1
S2140040C000E080E00E944520811107C080915C23BB
S2140040D08111F7CF80E090E02CC08FB78983F894E9
S2140040E0498180914E2290E0FC01EE0FFF1FE15BBC
S2140040F0FD4D20813181B9016F5F7F4F60837183F1
S2140041000024969587950794969587950794982FFB
S214004110802D8C5A9D4DFC01E20FF31FF0824FBF9D
S214004120002329F0F12E110F110B00E0CACF81E019
S21400413090E00F90DF91CF911F910F91FF9008951F
S214004140BC0180E00E94512008955F926F927F929A
S2140041508F929F92AF92BF92CF92DF92EF92FF9292
S2140041600F931F93CF93DF931F92CDB7DEB74B010C
S2140041705A0180917423893011F4AA0CBB1C6894F0
S214004180662466F8712C80E00E944520811107C0E5
S21400419080915C238111F7CF8A2D9B2D3AC08FB773
S2140041A08983F894598000914E2210E0F801EE0FB2
S2140041B0FF1FE15BFD4DE080F180C3018E199F0972
S2140041C065018A159B0508F46C01C80100249695C4
S2140041D087950794969587950794982F802D8E0D32
S2140041E09F1DA601B4018C5A9D4D0E94EA34000F13
S2140041F0111FF801E15BFD4DEC0CFD1CE082F18225
S2140042005FBE8C0C9D1CAC18BD0809F0BCCF80E0CE
S21400421090E00F90DF91CF911F910F91FF90EF905C
S214004220DF90CF90BF90AF909F908F907F906F90D1
S2140042305F900895AB01BC0180E00E94A520089520
S214004240E0917A23F0917B230190F081E02D22818A
S21400425033812E0F3F1FFC014081E40FF11DE21752
S214004260F307A0F481818430A1F0861306C014C041
S21400427081818430A1F08617A9F08081E80FF11DB6
S214004280E217F307A8F380E090E0089580E090E05E
S214004290089580E090E008958E2F9F2F089580E087
S2140042A090E008958E2F9F2F08958091C3248F77D6
S2140042B00E940D29089590917C23992381F1E09125
S2140042C07A23F0917B230190F081E02D9481891769
S2140042D040F5E0937823F0937923228133812E0FE3
S2140042E03F1FE217F307F8F49181943061F492814E
S2140042F0891309C09381961306C0E0937823F09340
S214004300792381E008959081E90FF11DE217F30704
S21400431058F3E0937823F093792380E0089580E0C3
S214004320089580E0089580E00895EF92FF921F932D
S214004330CF93DF93C82F60E00E945B21182F88235D
S21400434091F1A0917A23B0917B23EC2FF0E0EE0F51
S214004350FF1F12968D919C911397E80FF91FE0802E
S214004360F180D7011696ED91FC9117971995682F55
S2140043708C2F0E945B21182F8823A9F0C0917823E8
S214004380D091792365E0CE010E942021EC01892B93
S21400439021F08A810E943F2BF5CFD7011296ED912E
S2140043A0FC9113971995812FDF91CF911F91FF9064
S2140043B0EF9008951F93CF93DF93182F0E945B21F1
S2140043C0882349F1C0917823D091792365E0CE0106
S2140043D00E942021EC01892B49F04C815D816B8184
S2140043E08A810E9432298111F1CF15C0A0917A23CB
S2140043F0B0917B23E12FF0E0EE0FFF1F12968D9118
S2140044009C911397E80FF91F0190F081E02D019021
S214004410F081E02D1995DF91CF911F91089580913D
S21400442078239091792308950E947F280895CF934A
S21400443080917C238823C9F0E0917A23F0917B2336
S2140044400190F081E02D8481882379F0C0E08C2FE4
S2140044500E949521CF5FE0917A23F0917B23019013
S214004460F081E02D8481C81790F310927C2381E0C0
S21400447090E08093802390938123CF9108950E94AB
S21400448021280E9417220895CF9380917C238823A9
S21400449049F1A0917A23B0917B23ED91FC9111977D
S2140044A084818823F9F0C0E0EC2FF0E0EE0FFF1FC8
S2140044B012968D919C911397E80FF91F0190F08149
S2140044C0E02D0084F185E02D309709F01995CF5F37
S2140044D0A0917A23B0917B23ED91FC911197848172
S2140044E0C81710F3CF9108950F931F93CF93DF93C0
S2140044F0E1ECF4E212861386148615861686178675
S214004500808188230CF081C22091C7243091C82472
S2140045102115310509F074C26BC28F7109F0ABC06A
S2140045209091C224963081F0983009F499C0911188
S214004530A2C02230310509F016C262E070E080E8C1
S21400454093E20E942B296AC28091C3249091C424CE
S214004550292F332722303105B1F020F421303105E0
S21400456041F0C1C123303105F1F12F30310561F141
S214004570BAC18091542090915520DC016C9170E076
S2140045800E942B295EC0E0915420F091552021898D
S214004590821708F0E8C19927880F991F880F991F7E
S2140045A0E0915620F0915720E80FF91F8081918105
S2140045B0FC01628173810E942B29E091C924F0914D
S2140045C0CA2482E081833DC0809158209091592072
S2140045D0009709F4C8C1DC0112966D917C9113977F
S2140045E00E942B292EC099278130910599F058F00A
S2140045F08230910509F40EC2039709F07DC131E0BF
S214004600ECE1F2E20AC064E070E080E590E20E942D
S2140046102B2917C0EAE4F0E235E0A2E2B0E220E09F
S214004620819190E08D939D932F5F2317C8F3632F9E
S214004630660F6E5F6093202070E080E290E20E943A
S2140046402B29E1ECF4E28681978122853385821757
S214004650930708F0E3C18093CB249093CC24DEC16B
S2140046602130310509F07FC161E070E08CE793E20C
S2140046700E942B29D3C18130F1F59091C2249A3043
S214004680D1F52130310509F03CC180917C23882387
S21400469009F437C1C091C524D091C62400917A236D
S2140046A010917B23D801ED91FC918481C81708F006
S2140046B028C160E08C2F0E945B21882309F41CC16E
S2140046C0CE019927880F991FD8011296ED91FC917B
S2140046D01397E80FF91F0190F081E02D86819781EE
S2140046E0FC01199580937E2361E070E08EE793E2EB
S2140046F00E942B2993C1823009F0FEC08091C2240B
S2140047008111F3C02230310509F02DC18091C524F6
S2140047100E94C32990E0809376239093772362E0EB
S21400472070E086E793E20E942B2978C18F7109F02A
S21400473086C09091C224933009F4D9C018F4913001
S214004740A1F07DC0953019F0993039F178C080918C
S214004750C7249091C824892B09F005C185E591E20C
S2140047608093CD249093CE2459C18091C7249091F4
S214004770C824892B09F0F7C08091C3249091C424E3
S214004780019709F0F0C080918023909181238D7F5E
S214004790809380239093812341C18091C724909178
S2140047A0C824892B09F0DFC00E941029882309F449
S2140047B0A3C02091C3243091C4243327E091542011
S2140047C0F0915520818990E08217930708F494C0F1
S2140047D00E9417228091C3249091C42480937C2346
S2140047E0882309F41BC199278150904C880F991F84
S2140047F0880F991FE0915620F0915720E80FF91F77
S214004800E0937A23F0937B230190F081E02D84815E
S214004810882309F403C1C0E060E08C2F0E94DA21EF
S214004820882309F469C0CF5FE0917A23F0917B2357
S2140048300190F081E02D8481C81770F3EFC08130BD
S214004840F9F49091C2249B30D9F48091C7249091BA
S214004850C824892B09F055C080917C23882309F44D
S21400486050C0E1ECF4E2C481D2818C2F0E949521E5
S214004870882309F441C06D2F8C2F0E94DA213AC09C
S2140048808230D1F58091C224813019F08330A1F0B6
S21400489030C08091C7249091C824892B09F063C04A
S2140048A08091C3249091C424892B09F05CC0809128
S2140048B0C5240E94DE291EC08091C7249091C8247A
S2140048C0892B09F050C08091C3249091C424892B71
S2140048D009F049C0C1ECD4E28C810E94EF2A8C8199
S2140048E00E945C2B07C080E005C080E003C080E02B
S2140048F001C080E0811193C08091C1248F71813006
S21400490091F580917C23882309F474C00091C52416
S2140049101091C624C0917A23D0917B23E881F98137
S2140049208481081708F068C060E0802F0E945B2131
S2140049308823C9F0F801FF27CF01880F991FEA8165
S214004940FB81E80FF91FC081D181EE81FF811995A7
S214004950682F802F0E945B21882329F0EC81FD813F
S214004960199581115CC08091C1248F71823009F045
S21400497045C080917C238823B9F1A0917A23B09119
S2140049807B23ED91FC9111978481882379F1C0E017
S214004990EC2FF0E0EE0FFF1F12968D919C9113976F
S2140049A0E80FF91F00811181D8011696ED91FC9150
S2140049B017971995682F8C2F0E945B21882379F111
S2140049C0D8011496ED91FC9115971995811127C081
S2140049D0CF5FA0917A23B0917B23ED91FC91119744
S2140049E09481C917A8F21BC080E019C080E017C0E8
S2140049F080E015C080E013C080E011C080E00FC0EA
S214004A00982F907609F078CF88CD982F907609F079
S214004A1073CF8CCE3DE0ECE3F0E2FFCD81E0DF919A
S214004A20CF911F910F910895CF93DF931F921F92FE
S214004A30CDB7DEB7811126C09091C0249923F9F036
S214004A409091D224911101C0FFCF9FB79A83F8941A
S214004A502A81E1EDF4E29181915091832FBF0FC03E
S214004A609091D2249F3F09F4FFCF9FB79983F89483
S214004A702981E1EDF4E291819F5F91832FBF8093BE
S214004A80C02405C09091C024992351F3F8CF0F900D
S214004A900F90DF91CF9108950F93E8ECF4E08081BA
S214004AA08F7D808380818F7D8083E8E8F4E202E05A
S214004AB0059310928A2410928B2400E2069300E459
S214004AC00693E0E8F4E200E40693E1ECF4E21486F0
S214004AD01586168617861286138610926B240F91FB
S214004AE008950F9385E080936B24E9E8F4E204E0F0
S214004AF00593E1E8F4E204E005930F9108950F931F
S214004B0083E080936B2410928A2410928B24E8E82A
S214004B10F4E202E006930F910895E091CD24F0911F
S214004B20CE24309709F0199508950F93CF93DF930D
S214004B3080916B24833029F40E948D250E944C2599
S214004B405EC08091672490916824C091CB24D09158
S214004B50CC24C81BD90B71F52091692430916A24A6
S214004B60820F931F8093692490936A242091C72410
S214004B703091C8248217930721F0809182238823DE
S214004B8041F084E080936B24E0E8F4E202E00693D0
S214004B9036C0E091CF24F091D024309799F0199543
S214004BA0882381F01092672410926824C091CB2449
S214004BB0D091CC24C034D10528F010928223C0E4D2
S214004BC0D0E003C081E080938223E0E7F4E2C28F66
S214004BD0D38F80916724909168242091C9243091C6
S214004BE0CA24280F391F248F358FC80FD91FC093AA
S214004BF06724D0936824E8E8F4E202E00693DF91A5
S214004C00CF910F910895FC018181E82FE7708E2FD8
S214004C1090E0FC013197E730F105D8F48827E6529A
S214004C20FE4F8F4F0C946F3480E190E0089580E241
S214004C3090E0089580E490E0089580E890E008957C
S214004C4080E091E0089580E092E008958FEF93E091
S214004C50089588E090E00895282F2F7030E0220F06
S214004C60331F082E000C990B8827990F881F992749
S214004C70820F931F02979C01220F331F220F331FB0
S214004C80220F331F820F931F8D5F9B4D08950F9346
S214004C90CF938091CC0480FF6AC081E08093CC04DF
S214004CA0E0E8F4E200E80693E8E8F4E200E80693B9
S214004CB08093CA04E0E8F4E200E1069380916B2456
S214004CC0882339F08350823010F40E948D250E948C
S214004CD04C258091822490918324089709F049C03E
S214004CE088E0E7E2F4E2A1ECB4E201900D928A9546
S214004CF0E1F7E8ECF4E08081806280838081806266
S214004D0080830E947422C82F811104C00E947125DE
S214004D10C1E030C08091C124882374F410926924C5
S214004D2010926A24109267241092682482E080937E
S214004D306B240E9495251EC08091C7249091C8249C
S214004D40892B19F40E947F2515C0109269241092B1
S214004D506A24109267241092682481E080936B2462
S214004D60E0E8F4E202E0069300E2069303C0C0E047
S214004D7001C0C1E08C2FCF910F9108958F929F9222
S214004D80AF92BF92DF92EF92FF920F931F93CF9353
S214004D90DF93D82E0E942C268C01CD2DCF70D0E02C
S214004DA0CE01880F991FCD2D0D2C000CDD0BCC27C6
S214004DB0DD0FCC1FDD27C80FD91FCE01880F991F26
S214004DC0880F991F880F991F9C0120583B4D790129
S214004DD0C9010E9403264C01DD200CF072C0FE01C2
S214004DE0EE0FFF1FEE0FFF1FEE0FFF1FE059FB4DEC
S214004DF026893789D80115968D919C911697820F32
S214004E00931F15968D939C93169713962D913C9110
S214004E1014978217930709F43EC0281B390B2115F7
S214004E20B4E03B0740F02FEF33E0C901B4010E9425
S214004E300634281B390BF801808181FF0AC0C9019E
S214004E40B4010E94063441E0892B09F040E0842F2B
S214004E5001C080E0D8019C9180FB91F99C93CC0F17
S214004E60DD1FCC0FDD1FCC0FDD1FC059DB4D1E8AAA
S214004E701F8A2A8B3B8B11962D913C911297159683
S214004E808D919C911697820F931F8C8B9D8BF701AB
S214004E9002E00693CAC0D8018C9181FFB3C08D7F13
S214004EA08C93CC0FDD1FCC0FDD1FCC0FDD1FC05940
S214004EB0DB4D1E8A1F8A1A8A1B8AF70102E00693B8
S214004EC0B4C0FE01EE0FFF1FEE0FFF1FEE0FFF1F19
S214004ED0E059FB4DA288B388D8018C9182FF1BC095
S214004EE01196ED91FC91129715962D913C9116977F
S214004EF013968D919C911497B4010E940634B0E4E9
S214004F00DB9EB00111246D5B7C4DAC01CF01820F9E
S214004F10931F0E94EA34F801258136812A0D3B1D35
S214004F2025833683838194818217930768F485836B
S214004F309683CC0FDD1FCC0FDD1FCC0FDD1FC059B5
S214004F40DB4D8E899F895EC0FE01EE0FFF1FEE0FC0
S214004F50FF1FEE0FFF1FE059FB4D46895789A41629
S214004F60B50609F04FC02817390709F44BC0AC0145
S214004F70421B530B9A01211554E0350748F02FEFDA
S214004F8033E0C901B4010E940634281B390B06C061
S214004F90C901B4010E940634281B390BFE01EE0F2E
S214004FA0FF1FEE0FFF1FEE0FFF1FE059FB4D128A8B
S214004FB0138A2815390578F4D8018C9184608C936F
S214004FC0B0E4DB9EC00111248D5B9C4D848B958BD9
S214004FD0868A978A13C0F80141815281858196811D
S214004FE0840F951FCC0FDD1FCC0FDD1FCC0FDD1FF0
S214004FF0C059DB4D8C8B9D8B2E8B3F8BF70102E0CF
S214005000069313C0D8018C9180FF0FC08E7F8C93BF
S2140050101796ED91FC911897309739F015966D918B
S2140050207C9116974D2D80E01995DF91CF911F91B9
S2140050300F91FF90EF90DF90BF90AF909F908F9072
S21400504008951F93CF93DF931F921F92CDB7DEB7BD
S2140050508FB78983F8941981E1ECF4E080818E7F24
S21400506080831092C00410820E947D2E80E00E94F1
S21400507014258091D624811101C0FFCF8FB78A8373
S214005080F8949A81E1EDF4E28581815085839FBF93
S2140050901FBF0F900F90DF91CF911F91089580E072
S2140050A008951F93CF93DF931F92CDB7DEB78FB7C8
S2140050B08983F894198181E00E941425EAECF4E0D3
S2140050C080E4808380E28083E1ECF4E0808181608C
S2140050D08083A9ECB4E08C9182608C93E8ECF4E0D9
S2140050E08081806480838C9181608C9380818068CD
S2140050F080831FBF0F90DF91CF911F9108950F936C
S2140051001F93CF93DF931F921F92CDB7DEB700E6B3
S21400511010E0F801108280E30E94362EE0ECF4E006
S21400512080818064808381E0F80180838FB78A83E2
S214005130F8941A81E0E7F4E2118A118E11A211A602
S21400514011AA11AEE3E0F4E280818E7F8083ECE06A
S214005150F4E280818E7F8083E5E1F4E280818E7FB9
S2140051608083EEE1F4E280818E7F80836AE170E0E6
S21400517082E00E9423328F3F19F08093FA0403C026
S2140051808FE18093FA046BE170E082E00E942332A4
S2140051908F3F19F08093FB0403C08FE18093FB04DC
S2140051A0E0ECF4E080818260808380818068808388
S2140051B080818061808380E894E286839783808103
S2140051C0806280838FEF8093C504E8ECF4E08081F2
S2140051D0816080831092C0248091D6248F3F09F48A
S2140051E0FFCF8FB78983F8949981E1EDF4E285814A
S2140051F08F5F85839FBF0E9451281FBF0F900F901F
S214005200DF91CF911F910F910895E1ECF4E080813A
S2140052108E7F8083089580E008958093C304089568
S2140052208091C30408958091B0249091B12408958C
S21400523080E090E008958091C02481110BC081E049
S2140052400E941425E1ECF4E080818B7F80838081CE
S214005250846080830895E1ECF4E28087918762871A
S21400526073870895282F2F7030E0220F331F082EE3
S214005270000C990B8827990F881F9927820F931F78
S214005280FC01EE0FFF1FEE0FFF1FEE0FFF1FE05992
S214005290FB4D2189207C09F072C06370613011F0EB
S2140052A018F404C060EC03C060E801C060E4403855
S2140052B05105E9F050F440325105A9F0403451054B
S2140052C0A1F040315105D9F40CC0411522E0520737
S2140052D091F04F3F23E0520781F04115514079F499
S2140052E008C021E00DC022E00BC023E009C024E086
S2140052F007C025E005C026E003C027E001C020E087
S214005300FC01EE0FFF1FEE0FFF1FEE0FFF1FE05911
S214005310FB4D118ADC01AA0FBB1FAA0FBB1FAA0FE9
S214005320BB1FA058BB4D36E03C93262B218BFC01BF
S214005330EE0FFF1FEE0FFF1FEE0FFF1FE059FB4D96
S2140053402189207C203C69F4FC01EE0FFF1FEE0F44
S214005350FF1FEE0FFF1FE059FB4D218927702730F6
S21400536081F0880F991F880F991F880F991FFC01DD
S214005370E059FB4D81898062818B81E0089580E051
S214005380089581E00895E82FEF70F0E0EE0FFF1F1C
S214005390082E000C990B8827990F881F9927E80F6D
S2140053A0F91FEE0FFF1FEE0FFF1FEE0FFF1FE05956
S2140053B0FB4D818982FB882780F908950F93282F5B
S2140053C02F7030E0A901440F551F282F082E000C1F
S2140053D0330B2227330F221F3327240F351FF901E3
S2140053E0EE0FFF1FEE0FFF1FEE0FFF1FE058FB4DE7
S2140053F001E00693F901EE0FFF1FEE0FFF1FEE0F01
S214005400FF1FE059FB4D918992FF18C0220F331FF2
S214005410220F331F220F331FF901E059FB4D9189EC
S2140054209B7F918B0E942C26FC01808180FF06C00A
S2140054308E7F80830780F085E02D199581E00F919F
S21400544008956F927F928F929F92AF92BF92CF9263
S214005450DF92EF92FF920F931F93CF93DF931F92EB
S214005460CDB7DEB7782E662E4A0159010E942C264B
S2140054706C01272D872D8F70E82EF12CC701880F21
S214005480991FE72C072C000CFF08EE24FF0CEE1CDF
S214005490FF24E80EF91EF701EE0FFF1FEE0FFF1FA9
S2140054A0EE0FFF1FE059FB4D8189807C09F484C014
S2140054B0F701EE0FFF1FEE0FFF1FEE0FFF1FE05965
S2140054C0FB4D8189807C803C61F0F701EE0FFF1F69
S2140054D0EE0FFF1FEE0FFF1FE059FB4D818982FD87
S2140054E06DC08FB78983F8948981F601908190FF0B
S2140054F003C08FBF80E063C0F60190819160908307
S2140055008FBF81829282A382B4821582168207831D
S2140055101087611006C091E0A114B10419F090E064
S21400552001C091E0F601808190FB81F98B7F80833A
S214005530222364F4F701EE0FFF1FEE0FFF1FEE0F9E
S214005540FF1FE059FB4D168A178A31C0F701EE0F90
S214005550FF1FEE0FFF1FEE0FFF1FE059FB4D818967
S214005560807C803CB9F4C701880F991F880F991F6B
S214005570880F991F80589B4D0E940326BC01C501C9
S2140055800E940634892B31F0F60180818E7F80835D
S21400559080E015C0F701EE0FFF1FEE0FFF1FEE0FA6
S2140055A0FF1FE059FB4D128A138A168A178A872D29
S2140055B00E94BE2681E003C080E001C080E00F901C
S2140055C0DF91CF911F910F91FF90EF90DF90CF90DA
S2140055D0BF90AF909F908F907F906F900895FF92AE
S2140055E00F931F93CF93DF93182FC82FCF70D0E061
S2140055F0CE01880F991FC12F012E000CDD0BCC2782
S214005600DD0FCC1FDD27C80FD91F812F0E942C2647
S214005610DC01FE01EE0FFF1FEE0FFF1FEE0FFF1F58
S214005620E058FB4D02E005938C9180FF22C08E7FF0
S2140056308C931796ED91FC9118973097D1F0112323
S2140056405CF4CC0FDD1FCC0FDD1FCC0FDD1FC05967
S214005650DB4D6E897F890AC0CC0FDD1FCC0FDD1FA6
S214005660CC0FDD1FC059DB4D6A897B89412F81E055
S2140056701995DF91CF911F910F91FF900895CF93C9
S214005680C82F0E94EF2AEC2FEF70F0E0EE0FFF1FFE
S2140056908C2FCC0F990B8827990F881F9927E80F16
S2140056A0F91FEE0FFF1FEE0FFF1FEE0FFF1FE05953
S2140056B0FB4D118ACF910895E82FEF70F0E0EE0FC2
S2140056C0FF1F282F082E000C330B2227330F221F14
S2140056D03327E20FF31FEE0FFF1FEE0FFF1FEE0F35
S2140056E0FF1FE059FB4D91899460918B0E94EF2A31
S2140056F081E008950F931F93CF93DF938B01C82FFC
S214005700CF70D0E0CC0FDD1F282F082E000C330BF7
S2140057102227330F221F3327C20FD31F0E942C26A7
S214005720CC0FDD1FCC0FDD1FCC0FDD1FC059DB4DAE
S214005730298922FF0AC0FC01208120FD0AC02160C1
S21400574020830783108781E005C0F801199581E062
S21400575001C080E0DF91CF911F910F9108951F92B5
S2140057600F920FB60F92112408B60F9218BE09B604
S2140057700F9219BE0BB60F921BBE0F932F933F933B
S2140057804F935F936F937F938F939F93AF93BF9344
S214005790EF93FF938091CB04882334F480E88093C2
S2140057A0CA040E94442290C08091CB0482FF22C08B
S2140057B084E08093CA048091882486FF85C0809107
S2140057C0CC0481FD81C00E94472681117DC0809156
S2140057D06B24813019F40E947F2576C0843009F04E
S2140057E073C0E9E8F4E204E00593E1E8F4E204E0DB
S2140057F005936AC08091CB0481FF61C082E08093EC
S214005800CA048091802486FF5FC08091CC0481FD0D
S2140058105BC00E944726811157C080916B2482305E
S21400582041F484E080936B24E0E8F4E202E006931F
S2140058304BC0833009F048C0E9E8F4E204E0059381
S214005840E1E8F4E204E005933FC080E18093CA04F7
S21400585081E00E94EF2A81E80E94EF2A82E00E94FF
S214005860EF2A82E80E94EF2A0E9417221092C304B1
S214005870E0E7F4E2118A96E0908B83E4818B118E48
S214005880908F818F87E294E2848B958B0E944C25C3
S2140058901BC08091CB0486FF07C080E48093CA04B7
S2140058A080E00E94142510C08091CB0485FF0CC0B8
S2140058B080E28093CA0481E00E94142505C080918E
S2140058C0CB0484FDC2CFE5CFFF91EF91BF91AF919E
