S0140000536D617274466163746F72792E7372656331
S2140000000C94AF020C94D5020C94D5020C94D50235
S2140000100C94D5020C94D5020C94D5020C94D502FF
S2140000200C94D5020C94D5020C94D5020C94D502EF
S2140000300C947F060C94D5020C94D5020C94D50231
S2140000400C94D5020C94D5020C94D5020C94D502CF
S2140000500C94D5020C94D5020C94D5020C94D502BF
S2140000600C94D5020C94D5020C94D5020C94D502AF
S2140000700C94D5020C94D5020C94D5020C94D5029F
S2140000800C94D5020C94D5020C94D5020C94D5028F
S2140000900C94D5020C94D5020C94D5020C94D5027F
S2140000A00C94D5020C94D5020C94D5020C94D5026F
S2140000B00C94D5020C94F9060C94D5020C94D50237
S2140000C00C94D5020C94D5020C94D5020C94D5024F
S2140000D00C94D5020C94D5020C94D5020C94D5023F
S2140000E00C94D5020C94D5020C94D5020C94D5022F
S2140000F00C94D5020C94D5020C94D5020C94D5021F
S2140001000C94D5020C94D5020C94D5020C94D5020E
S2140001100C94D5020C94D5020C94D5020C94D502FE
S2140001200C94D5020C94D5020C94D5020C94BC0603
S2140001300C94D5020C94D5020C94D5020C94D502DE
S2140001400C94D5020C94D5020C94D5020C94D502CE
S2140001500C94D5020C94D5020C94D5020C94D502BE
S2140001600C94D5020C94D5020C94D5020C94D502AE
S2140001700C94D5020C94D5020C94D5020C94D5029E
S2140001800C94D5020C94D5020C94D5020C94D5028E
S2140001900C9459180C94B4180C94D5020C94D502EF
S2140001A00C94D5020C94D5020C9436070C94D50208
S2140001B00C94D5020C94D5020C94D5020C94D5025E
S2140001C00C94D5020C94D5020C94D5020C94D5024E
S2140001D00C94D5020C94D5020C94D5020C94D5023E
S2140001E00C94D5020C94D5020C94D5020C94D5022E
S2140001F00C94D5020C94AA290C94772ABC0CCB0C30
S214000200DA0CE90CF70C060D150D230D300D3F0D1D
S2140002104E0D5D0D4616551664167316811690160D
S2140002209F16AD16BA16C916D816E7169F179F174B
S2140002309F179F179F179F179F179F179F179F1709
S2140002409F179F179F179F179F179F179F179F17F9
S2140002509F179F179D179D179D179D179D179D17F5
S2140002609D179D179D179D179D179D179D179D17E9
S2140002709D179D179D179D179D179D17A117A117D1
S214000280A117A117A117A117A117A117A117A117A9
S2140002909B179B179B179B179B179B179B179B17C9
S2140002A09B179B17A117A117A117A117A117A11795
S2140002B0A117A117A117A117A117A117A117A11779
S2140002C0A117A117A117A117A117A1179917991779
S2140002D09917991799179917991799179917991799
S2140002E0991799179917991799179717971797178F
S2140002F09717971797179717971797179717971789
S2140003009717971797179717951795179517951780
S2140003109517951795179517951795179517951778
S2140003209517951795179517951795179517951768
S2140003309317931793179317931793179317931768
S2140003409317931791179117911791179117911764
S2140003509117911791179117911791179117911758
S2140003609117911791179117911791179117911748
S2140003709117911791179117911791179117911738
S2140003808F178F178F178F178F178D178D178D173E
S2140003908D178D178B178B178B178B178B17891746
S2140003A08917891789178917A317A317A317A317E0
S2140003B0A317A3170F241224152418241B241E2465
S2140003C021240C9478170C94150D0C943B1A0C945D
S2140003D077130C9445140C94DA0C0C9446160C9473
S2140003E0E5110C9405040C94D0140C9473160C941C
S2140003F03A1B0C949B170C94FE110C9489170C94C2
S214000400AB1C0C94AD160C94D8160C9497170C9441
S21400041012240C94F7030C9459140C94C9160C94DB
S214000420C4130C949D170C948D170C94501F0C94A9
S214000430A1170C949F160C94DA030C9485030C9465
S214000440531B0C94B4140C9447120C944B140C9439
S21400045075030C948B170C948F170C94F8160C9449
S2140004609F170C94230D0C94291A0C94BC0C0C9416
S2140004702D140C943F0D0C94F2120C94391A0C9413
S214000480710B0C94BA160C941B240C94E7160C945F
S214000490CB0C0C9481030C941E240C94E90C0C9445
S2140004A0AC170C9490160C94C9140C9493170C94D7
S2140004B018100C94FE030C94300D0C9464160C94D7
S2140004C099170C945B030C94871A0C9481160C9461
S2140004D05D0D0C943D1A0C9420040C944E0D0C9457
S2140004E04C130C9456180C94E3130C94A5170C9408
S2140004F023040C942F1A0C9418240C9495170C941F
S21400050015140C94AA1B0C94AF030C9465030C945E
S2140005101A100C94520C0C94F70C0C9415240C9492
S214000520060D0C94D90E0C940C040C9491170C9494
S214000530AE140C946E0D0C9455160C941A040C9470
S214000540A3170C94771C0C940F240C94F3030C94B0
S214000550530B0C94FE190C9421240C9413041124B0
S2140005601FBECFEFCDBFDFE3DEBF00E00CBF18BE7F
S21400057019BE1ABE1BBE13E2A0E0B0E2E8E0F2E647
S21400058000E00BBF02C007900D92AC33B107D9F75D
S2140005901BBE25E2ACE3B3E201C01D92A73EB20744
S2140005A0E1F70E940F190C9402310C9400003BB73F
S2140005B08BBFFB0186913BBF08953BB78BBFFB010A
S2140005C0879196913BBF089542E070C041E06EC0AF
S2140005D08093C00188278093C1018093C20147E0C1
S2140005E055D0CB0108958093C40148E04FC0809158
S2140005F0D00108953BB748E10D9400003BB74AE1AF
S2140006000D9400003BB740E20D9400003BB78BBF53
S214000610CB0142E20D9400003BB70B0143E20D9480
S21400062000003BB78BBFCB0144E20D9400003BB704
S2140006308BBFCB0145E20D9400003BB746E20D941C
S21400064000003BB78BBFCB014AE20D9400003BB7DE
S2140006508BBFCB014CE20D9400003BB78BBFCB01A8
S2140006604DE20D94000048E311C049E30FC028EDA9
S2140006702093340021E02093CC0108952091CF01EF
S21400068027FDFCCF22272093CA0108954093CA0174
S21400069028ED31E0209334003093CB016091C40103
S2140006A07091C5018091C60199270895FC01409379
S2140006B0CA01849108952FEF8DE399E4215080407C
S2140006C09040E1F700C000000895009769F020E030
S2140006D030E0EFE6F7E13197F1F700C000002F5F5A
S2140006E03F4F82179307A9F70895BC0180EA99E067
S2140006F00E94EC096AED72E280EA99E00E94940991
S21400070008959195819591090895CF92DF92EF9281
S214000710FF929B016C01092E000CEE08FF08AB014E
S214000720770F660B770B4C0D5D1D6E1D7F1D4115FB
S214000730E0E85E076105710544F4411550486F4FC7
S2140007407F4F34F0820F931F05C08FEF9FE702C0E4
S21400075081E090E8FF90EF90DF90CF900895CF92E1
S214000760DF92EF92FF929B01AC01092E000C660B04
S214000770770B6901032E000CEE08FF084C195D0983
S2140007806E097F094115E0E85E076105710544F4CE
S214000790411550486F4F7F4F34F0821B930B05C0B6
S2140007A08FEF9FE702C081E090E8FF90EF90DF9028
S2140007B0CF9008959C01DB010E94D030611520E89F
S2140007C07207810591054CF4611520E872072FEF3A
S2140007D0820792072CF0CB0108958FEF9FE70895CC
S2140007E081E090E808950E947230CB01089521E0E0
S2140007F08617970709F020E0822F089521E06817F2
S21400080079070CF020E0822F089521E086179707DD
S2140008100CF020E0822F089521E0861797070CF44D
S21400082020E0822F089521E0681779070CF420E075
S214000830822F0895811102C0862F089581E00895C1
S2140008408111862F08958627089590ED980F9A3087
S21400085060F09FEB980F963010F4875308959FE949
S214000860980F963020F487550895892F08958FEFB6
S2140008700895CF93DF93D62F0E942504C82F8D2F7F
S2140008800E94250490E1C99F90011124822BDF91DC
S214000890CF910895F89488ED84BF83E0809380001C
S2140008A0FFCFEF92FF920F931F93CF93DF93E82E25
S2140008B0EB018901413071F580910220811128C039
S2140008C0809100209091012090588F3F9F47B0F074
S2140008D06CEB70E280EA99E00E9494096091002037
S2140008E07091012080EA99E00E94EC096DEC70E2BC
S2140008F080EA99E00E9494090E944A040E943E03FE
S214000900609100207091012080E090E00E94170323
S2140009100E944A04411156C0882309F453C0F12CA2
S2140009208091002090910120AC01452F55274695D7
S2140009309E01232F332726954217530741F1209116
S2140009400220211124C090588F3F9F47B0F06CEBD7
S21400095070E280EA99E00E9494096091002070910C
S214000960012080EA99E00E94EC096DEC70E280EAD2
S21400097099E00E9494090E944A040E943E036091F6
S21400098000207091012080E090E00E9417030E94F2
S2140009903E03F801EF0DF11D618170E0762F6627AA
S2140009A08081682BCE0191700E940C031092022069
S2140009B0C0930020D09301202296F394F394FE1463
S2140009C008F4AECFDF91CF911F910F91FF90EF907B
S2140009D008955F926F927F928F929F92AF92BF928E
S2140009E0CF92DF92EF92FF920F931F93CF93DF93F6
S2140009F0CDB7DEB76097CDBFDEBF5C01F894FC01D3
S214000A00628181810E943904782EF5016481838198
S214000A100E943904582EF501668185810E943904AA
S214000A20E82EF501608587810E943904682EF72C30
S214000A30F50CFE0CF80E7720F9F08501075F1F4FC6
S214000A40CE0101966C0188248A94870C912C880C20
S214000A50991C9BE0890E911C8A0C9B1CF8016181F5
S214000A6080810E943904F80EF60181936F010E5FB3
S214000A701F4F0815190591F7E72DF0E03596EE0F94
S214000A80FF1FEA0DFB1DDF01119760818C910E940C
S214000A9039048F0D41F066EE70E280EA99E00E941C
S214000AA094090E944A046AE171E280EA99E00E9491
S214000AB09409472D440F455FB50180EA99E00E94EE
S214000AC0B0096E2D70E075299E012F5F3F4F462DB1
S214000AD0872D0E9451046096CDBFDEBFDF91CF9177
S214000AE01F910F91FF90EF90DF90CF90BF90AF9047
S214000AF09F908F907F906F905F900895CF93DF9335
S214000B00CDB7DEB7E297CDBFDEBFCE0101966C0152
S214000B107E0193E3E90EF11C860180EA99E00E94CB
S214000B206C0998012C193D09F80181938F018A30D0
S214000B3041F4E2E0F0E0EC0FFD1FE20FF31F10823D
S214000B4003C0EE15FF0549F7C6010E94E904E4CF8D
S214000B500F931F93CF93DF93C0E1D7E280EA99E02B
S214000B600E948E0981110CC080E894E00E947D07E7
S214000B70811122C086EF8A95F1F7219779F71CC07C
S214000B80C7E2D1E20BE211E280EA99E00E946C092A
S214000B909991891311C0C017D107B1F780EA99E07F
S214000BA00E946C09853541F46CE271E280EA99E0B6
S214000BB00E9494090E947E05DF91CF911F910F91AC
S214000BC008950F931F93CF93DF93CDB7DEB7E297C9
S214000BD0CDBFDEBF8C0169E471E280EA99E00E9435
S214000BE0940942E3BE016F5F7F4F80E894E00E9465
S214000BF089078981833711F4F801199589818A3329
S214000C0039F063E571E280EA99E00E9494090BC02E
S214000C1061E771E280EA99E00E949409CE010196AC
S214000C200E94E904D8CFE296CDBFDEBFDF91CF9118
S214000C301F910F91089581E58093C0080895FC01E7
S214000C40638392819923ECF78381089521E030E055
S214000C5002C0220F331F6A95E2F7FC012583FAE0F3
S214000C60FA95F1F700C0089521E030E002C0220FA7
S214000C70331F6A95E2F7FC012683FAE0FA95F1F74E
S214000C8000C008951F93CF93DF93EC01162F642FB7
S214000C900E941F06612FCE010E941F0660E0CE0153
S214000CA00E941F06DF91CF911F9108950F931F9307
S214000CB0CF93DF93EC01062F142F622F0E941F069E
S214000CC0602FCE010E941F06612FCE010E941F06D4
S214000CD0DF91CF911F910F910895FC01DA011A96CA
S214000CE09C9191FF04C0309749F0199508956115BD
S214000CF0710521F0FA018485FB01199508951F926C
S214000D000F920FB60F92112408B60F9218BE09B6AE
S214000D100F9219BE0BB60F921BBE2F933F934F93A5
S214000D205F936F937F938F939F93AF93BF93EF934E
S214000D30FF93609145237091462340E854E08091EC
S214000D404D2390914E230E946D06FF91EF91BF9127
S214000D50AF919F918F917F916F915F914F913F914E
S214000D602F910F900BBE0F9009BE0F9008BE0F90EC
S214000D700FBE0F901F9018951F920F920FB60F92EE
S214000D80112408B60F9218BE09B60F9219BE0BB6FC
S214000D900F921BBE2F933F934F935F936F937F9358
S214000DA08F939F93AF93BF93EF93FF9360914323EB
S214000DB07091442340E954E080914B2390914C235A
S214000DC00E946D06FF91EF91BF91AF919F918F9119
S214000DD07F916F915F914F913F912F910F900BBE36
S214000DE00F9009BE0F9008BE0F900FBE0F901F9079
S214000DF018951F920F920FB60F92112408B60F92F5
S214000E0018BE09B60F9219BE0BB60F921BBE2F93D3
S214000E103F934F935F936F937F938F939F93AF937D
S214000E20BF93EF93FF93609141237091422340EA72
S214000E3054E08091492390914A230E946D06FF91C9
S214000E40EF91BF91AF919F918F917F916F915F913D
S214000E504F913F912F910F900BBE0F9009BE0F90B0
S214000E6008BE0F900FBE0F901F9018951F920F92FE
S214000E700FB60F92112408B60F9218BE09B60F923D
S214000E8019BE0BB60F921BBE2F933F934F935F93E3
S214000E906F937F938F939F93AF93BF93EF93FF933D
S214000EA060913F237091402340EB54E080914723AC
S214000EB0909148230E946D06FF91EF91BF91AF91EC
S214000EC09F918F917F916F915F914F913F912F915D
S214000ED00F900BBE0F9009BE0F9008BE0F900FBE6E
S214000EE00F901F901895FC018EE1808780858062A8
S214000EF080878085806C80870895FC01228526FF88
S214000F0006C082858695817091E08927089580E0E5
S214000F100895FC0110923D2310923E2310923C232C
S214000F2080E4828750E020E8828586FF04C081E066
S214000F3080933C231BC082858823B4F780913D2391
S214000F4090913E23481759078CF080913D2390914D
S214000F503E23DC011196A0933D23B0933E233485B7
S214000F60DB01A80FB91F3C932287DECF80913C237C
S214000F700895FC01828586FFFDCF828581FF25C00E
S214000F808285806C8287648781858B7F8187818557
S214000F90826081878285882374F4828583FD03C0FE
S214000FA0828582FFF7CF8285846082878285806C07
S214000FB0828780E0089580E58A95F1F7828586FF2E
S214000FC0DFCF828580FDDCCF02C080E00895828579
S214000FD0806C828781E00895603924E0720791F082
S214000FE024F46038744049F01CC0603A24E072076C
S214000FF071F0603B744081F014C080934D23909351
S2140010004E23089580934B2390934C23089580930A
S214001010492390934A230895809347239093482327
S2140010200895FFCF603924E0720791F024F4603809
S214001030744049F01CC0603A24E0720771F0603BCF
S214001040744081F014C080934523909346230895FE
S2140010508093432390934423089580934123909351
S2140010604223089580933F23909340230895FFCF13
S2140010708F708A3010F0895C0895805D08954F92D5
S2140010805F926F927F928F929F92AF92BF92EF92F3
S214001090FF920F931F93CF937C014A015B012801B7
S2140010A03901FC01848182FF16C0D901C801689409
S2140010B012F8B695A795979587951694D1F7B90126
S2140010C0A801032E36E176956795579547953A958C
S2140010D0D1F7302D15C0D901C801689413F8B6951C
S2140010E0A795979587951694D1F7B901A801032E71
S2140010F037E176956795579547953A95D1F7302D10
S21400110088159905AA05BB0508F4A6C08416950699
S214001110A606B70608F4A2C0F701848182FD04C0C3
S214001120880C991CAA1CBB1CC301B201A501940122
S2140011300E9486302F3F31054105510508F490C0C6
S2140011408FEF90E0A0E0B0E0C9EF05C028173907A0
S2140011504A075B0758F0880F991FAA1FBB1FCD3F91
S2140011600CF48160CF5FC73089F74FC0CC230CF0FA
S2140011704CC0D501C401880F991FAA1FBB1F880F3A
S214001180991FAA1FBB1F880F991FAA1FBB1F481AAB
S214001190590A6A0A7B0ACE3FF4F48DEF9FEF8C1B48
S2140011A09109C7FD939504C0440C551C661C771C1A
S2140011B08A95D2F7D501C401B695A79597958795D8
S2140011C0BC01CD01640D751D861D971DA5019401FA
S2140011D00E94863037C083E08C0FA501940104C0BE
S2140011E0220F331F441F551F8A95D2F7DA01C90113
S2140011F0B695A79597958795BC01CD01640D751D8D
S214001200861D971D0E9486301DC083E08C0FA501A9
S214001210940104C0220F331F441F551F8A95D2F72E
S214001220DA01C901B695A79597958795BC01CD01BA
S214001230640D751D861D971D0E948630215031094C
S21400124041095109832F8F70C295C07FC82BF701C3
S214001250C783268381E018C080E016C080E014C0F3
S214001260D501C401880F991FAA1FBB1F880F991F9D
S214001270AA1FBB1F880F991FAA1FBB1F481A590A0F
S2140012806A0A7B0AC9EF89CFCF911F910F91FF9011
S214001290EF90BF90AF909F908F907F906F905F90F1
S2140012A04F9008950F931F93CF93DF93EC010E9406
S2140012B03F088FE59AEE0197F1F700C0000088E13D
S2140012C08C83DF91CF911F910F910895FC0191813E
S2140012D095FFFDCF60830895FC0191819923ECF77B
S2140012E080810895FC016115710599F0818188233C
S2140012F034F020E030E005C09181992314F4808119
S214001300089588E08A95F1F72F5F3F4F62177307BD
S21400131099F781E0FA01808380E00895FC018181DD
S214001320881F8827881F0895EF92FF920F931F93B8
S214001330CF93FB016081662369F08F017C01C0E0DA
S214001340C7010E946609CF5FF801EC0FF11D6081AE
S2140013506111F6CFCF911F910F91FF90EF900895F6
S214001360EF92FF920F931F93CF93DF93442381F066
S2140013707C01EB014150042F10E00F5F1F4F060F5A
S214001380171F6991C7010E946609C017D107C9F7E0
S214001390DF91CF911F910F91FF90EF9008951F93CB
S2140013A0CF93DF93EC01162F66E771E20E94940953
S2140013B0812F82958F700E943808682FCE010E9478
S2140013C06609812F0E943808682FCE010E946609A0
S2140013D0DF91CF911F9108950F931F93CF93DF93C3
S2140013E08C01EB01DD2334F4D195C195D1096DE272
S2140013F00E946609CE0160E177E20E9472306623A1
S21400140031F0605DC8010E94660921E001C020E05D
S214001410CE0168EE73E00E947230CB016AE070E0A5
S2140014200E947230882381F060E3680FC8010E9432
S2140014306609CE0164E670E00E947230CB016AE075
S21400144070E00E9472300EC0CE0164E670E00E942A
S2140014507230CB016AE070E00E947230811102C0E7
S2140014602223F9F060E3680FC8010E9466092AE0AB
S21400147030E0CE01B9010E947230CB01B9010E9462
S214001480723060E3680FC8010E946609CE016AE008
S21400149070E00E94723060E3680FC8010E9466091F
S2140014A00DC02AE030E0CE01B9010E947230CB01B7
S2140014B0B9010E947230882349F3E3CFDF91CF91C0
S2140014C01F910F910895FC01818185FB882780F983
S2140014D0089590E00E949B1E08950E94DC1C8823BD
S2140014E0E1F30E94351D0895EF92FF920F931F932C
S2140014F0CF93DF938C017B01892B81F0C0E0D0E095
S2140015000E94DC1C882319F00E94351D0BC088E061
S2140015108A95F1F721960C171D0791F781E0F701E0
S214001520808380E0DF91CF911F910F91FF90EF9025
S21400153008950E94481E08950F931F93CF93FC01B1
S2140015408081882361F08F01C0E090E00E949B1E9E
S214001550CF5FF801EC0FF11D80818111F6CFCF919E
S2140015601F910F9108950F931F93CF93DF936623D8
S21400157079F0EC016150062F10E00F5F1F4F080F47
S214001580191F899190E00E949B1EC017D107C9F7CA
S214001590DF91CF911F910F910895CF93C82F86E7C3
S2140015A091E20E949C0A8C2F82958F700E943808C8
S2140015B090E00E949B1E8C2F0E94380890E00E94AC
S2140015C09B1ECF910895CF93DF93EC0199233CF4B3
S2140015D0D195C195D1098DE290E00E949B1ECE0167
S2140015E060E177E20E947230662339F080E3860F6E
S2140015F090E00E949B1E21E001C020E0CE0168EE34
S21400160073E00E947230CB016AE070E00E94723094
S214001610882379F0805D90E00E949B1ECE0164E6F0
S21400162070E00E947230CB016AE070E00E94723077
S2140016300EC0CE0164E670E00E947230CB016AE014
S21400164070E00E947230811102C02223E1F0805DBA
S21400165090E00E949B1E2AE030E0CE01B9010E9475
S2140016607230CB01B9010E947230805D90E00E941A
S2140016709B1ECE016AE070E00E947230805D90E0B2
S2140016800E949B1E0DC02AE030E0CE01B9010E94E8
S2140016907230CB01B9010E947230882351F3E5CF36
S2140016A0DF91CF9108950F931F93CF93DF931F92EF
S2140016B0CDB7DEB769E771E280EA99E00E94940947
S2140016C0198200EB1AE028E041E0BE016F5F7F4F11
S2140016D08CE40E9485120F90DF91CF911F910F919D
S2140016E00895CF9380915123882329F0C0915023E9
S2140016F0C11106C00AC0C0914F23C11104C005C065
S2140017000E94530B02C00E94530B8C2FCF9108955A
S214001710CF93C0915123C81312C081E08093502309
S21400172010924F230E94530B80915123C81307C079
S2140017301092502381E080934F230E94530BCF9149
S21400174008950895CF93DF93E0E2F7E080818F7EDF
S214001750808380818F7D8083E5E3F7E0D8E1D083C6
S214001760C2E0C0836CE971E280EA99E00E949409C5
S214001770E4E3F7E0D083C08364EB71E280EA99E0AB
S2140017800E949409EAE2F7E080818061808380818C
S21400179080628083E9E2F7E0808181608083DF9168
S2140017A0CF910895EAE2F7E08081806180838081AE
S2140017B080628083E4E3F7E0808182608083E5E3F3
S2140017C0F7E0808182608083E9E2F7E080818160D3
S2140017D080830895CF93C82F0E94A20B2FE782E341
S2140017E092E0215080409040E1F700C000008091D8
S2140017F0280784FD19C0C1111CC048C0C11121C0F2
S2140018001CC080914F2381110DC01FC0C11143C061
S21400181025C0CC2359F126C08091280785FD2CC011
S21400182080E03EC080E03CC08091280785FFE6CF80
S21400183008C081E08093502327C081E080934F2327
S21400184023C0809150238111DCCF8091280784FF2C
S214001850DDCF8091280785FFDCCF08C081E080932C
S21400186050230EC081E080934F230AC08091280742
S21400187084FDD2CF80E014C01092502310924F23E4
S2140018800E94D20B81E00CC080E00AC0809128073D
S21400189085FFD3CFD6CF8091280785FFE3CFE6CF4D
S2140018A0CF910895EF92FF920F931F93CF93DF93FC
S2140018B0CDB7DEB72897CDBFDEBF182F8093512354
S2140018C00E94EA0B882331F1EE24E394F12EFE24E5
S2140018D0F88600EB1AE028E041E0BE01685F7F4F23
S2140018E08AE40E948512BE016F5F7F4F87E0FB018E
S2140018F011928A95E9F783E0898386E68A838FEFDB
S2140019008B838C83EE82EF82FD8228E047E086E4BC
S2140019100E9485122896CDBFDEBFDF91CF911F9122
S2140019200F91FF90EF900895611103C080932207F6
S2140019300895613011F4809321070895662319F005
S2140019408093250708958093260708959091280789
S214001950982381E009F480E00895282F862F90E0F0
S214001960FC013197EC30F10508F0B6C08827E2504C
S214001970FF4F8F4F0C94C730222321F080E88093CE
S214001980250703C080E88093260780912807881FD4
S2140019908827881F0895222321F080E48093250756
S2140019A003C080E4809326078091280786FB88275B
S2140019B080F90895222321F080E28093250703C052
S2140019C080E2809326078091280785FB882780F988
S2140019D00895222321F080E18093250703C080E14B
S2140019E08093260780912807829581700895222388
S2140019F021F088E08093250703C088E080932607BF
S214001A008091280783FB882780F90895222321F0F8
S214001A1084E08093250703C084E0809326078091A6
S214001A20280782FB882780F90895222321F082E088
S214001A308093250703C082E08093260780912807BD
S214001A40869581700895222321F081E080932507F2
S214001A5003C081E08093260780912807817008954F
S214001A60222321F080E88093050703C080E8809356
S214001A70060780910807881F8827881F0895222355
S214001A8021F080E48093050703C080E48093060776
S214001A908091080786FB882780F90895222321F085
S214001AA080E88093E50603C080E88093E606809190
S214001AB0E806881F8827881F0895222321F080E4DF
S214001AC08093E50603C080E48093E6068091E806EE
S214001AD086FB882780F9089580E00895089521E020
S214001AE08617970709F020E0822F08950F931F931B
S214001AF0E0EEF6E09081906C9083813059F018F01B
S214001B00823079F014C0E6EEF6E080E8808380E468
S214001B1080830DC0E5EEF6E080E8808380E4808375
S214001B2006C080E88093E60680E48093E50600E140
S214001B3017E220E030E040E060E480E097E00E94BA
S214001B40610FCB011F910F910895FF920F931F9382
S214001B50CF93DF93F82E062F142F82958F700E9456
S214001B603808C3E0D0E289838F2D0E9438088A8324
S214001B70802F82958F700E9438088B83802F0E945A
S214001B8038088C83812F82958F700E9438088D8349
S214001B90812F0E9438088E838FE295E70197F1F730
S214001BA000C00000CE01DF91CF911F910F91FF90F2
S214001BB00895803810F08FEF089580E0089500971C
S214001BC069F1633098F4A0E0B0E09C01AD012C57B9
S214001BD0310941095109AFEFB0E00E94EE3022E929
S214001BE03FEF4FEF5FEF0E94A83004C020E030E0E8
S214001BF040E050E0822F932FA42FB52FBB231CF478
S214001C0080E090E0DC018F3F9105A105B10539F039
S214001C1034F08FEF90E0A0E0B0E0089580E0089503
S214001C200F931F93062F662381F0E82FF92F80E08D
S214001C3040E050E0BA01A191B1914A0F5B1F611DCF
S214001C40711D8F5F0813F7CF03C040E050E0BA0164
S214001C5010E020E030E0CB01BA01A90198010E9413
S214001C608630C9011F910F910895442349F08617C5
S214001C70970741F480E08F5F4813FDCF81E0089519
S214001C8081E0089580E00895FC013081332389F1D6
S214001C90319660E070E0CB0120ED230F2A3078F01B
S214001CA02FE9230F263018F429EA230F08C02FEB5C
S214001CB0230F263018F429EC230F01C0232FDC0154
S214001CC0CB01880F991FAA1FBB1F880F991FAA1F39
S214001CD0BB1F880F991FAA1FBB1F880F991FAA1F1B
S214001CE0BB1F2F70BC01CD01622B31913111D4CFB7
S214001CF0089560E070E0CB010895CF93DF9300D0A5
S214001D00CDB7DEB71B82FC018181928189839A83DD
S214001D10CE0101960E94440E862F2396CDBFDEBFCD
S214001D20DF91CF910895CF93DF9300D0CDB7DEB784
S214001D301B82FC018381948189839A83CE0101965C
S214001D400E94440E862F2396CDBFDEBFDF91CF9133
S214001D500895CF93DF9300D0CDB7DEB71B82FC018A
S214001D608581968189839A83CE0101960E94440ECE
S214001D70862F2396CDBFDEBFDF91CF9108950F93B8
S214001D801F93CF938C010E947D0E882311F0C4E030
S214001D9001C0C0E0C8010E94930E8111C260C80154
S214001DA00E94A90E8111C1608C2FCF911F910F91B7
S214001DB00895AF92BF92CF92DF92FF920F931F9338
S214001DC0CF93DF93CDB7DEB72D97CDBFDEBF5E01D5
S214001DD08BE0A80EB11CF12C65018E010F5F1F4F22
S214001DE08F2D0E94760DF801819391938F01EC154B
S214001DF0FD05B1F765E0CE0101960E94100E6F2D2D
S214001E000E94DF0D0E94D90DF50181935F01F394C6
S214001E10F3E0FF12E2CF4D856C858B850E94A50D01
S214001E200E94BF0E90E02D96CDBFDEBFDF91CF9112
S214001E301F910F91FF90DF90CF90BF90AF900895C5
S214001E404F925F926F927F92AF92BF92CF92DF9245
S214001E50EF92FF920F931F93CF93DF93CDB7DEB72A
S214001E6029013A019B01AC01241935094609570995
S214001E708A899B89AC89BD89BC01CD016A197B0919
S214001E808C099D090E944E30A80197012419350936
S214001E90460957090E94A830CA01B9016A0D7B1D80
S214001EA08C1D9D1DDF91CF911F910F91FF90EF909C
S214001EB0DF90CF90BF90AF907F906F905F904F90E5
S214001EC008958F929F92AF92BF92CF92DF92EF9239
S214001ED0FF920F931F93FC01862F442311F0A62F29
S214001EE001C0A0E0B901A801440F551F661F771F67
S214001EF0040F151F261F371F36952795179507952C
S214001F003F7040E050E0BA0190859823A91310C0B6
S214001F106A017B019FEFC91AD90AE90AF90A041770
S214001F2015072607370709F469C0B701A601ECCFE5
S214001F3090859823A91308C090859823A917A1F027
S214001F40C12CD12C76012FC06A017B019FEFC91AE4
S214001F50D90AE90AF90A041715072607370709F404
S214001F6051C0B701A601E4CF4017510762077307B7
S214001F7009F44CC0C12CD12C76010CC04A015B017F
S214001F808C0C9D1CAE1CBF1C081519052A053B05AC
S214001F9009F440C09FEFC91AD90AE90AF90A9085E0
S214001FA09823A91759F3B701A601440F551F661FBA
S214001FB0771F440F551F661F771FDB01CA01880F66
S214001FC0991FAA1FBB1F880F991FAA1FBB1F840F2C
S214001FD0951FA61FB71F8C0D9D1DAE1DBF1DBC01F6
S214001FE0CD01605F7F4F8F4F9F4F28E130E040E08C
S214001FF050E00E948630CA01B9010FC060E070E070
S214002000CB010BC060E070E0CB0107C060E070E081
S214002010CB0103C060E070E0CB011F910F91FF90F1
S214002020EF90DF90CF90BF90AF909F908F900895E5
S21400203080E008950F931F93CF93DF931F92CDB741
S214002040DEB7198200EB1AE02AE041E0BE016F5FBE
S2140020507F4F8CE40E9485120F90DF91CF911F91E5
S2140020600F9108958091280786FD08C00E941A10D7
S21400207081E080935323109252230895809128077D
S214002080882344F00E941A101092532381E0809314
S214002090522308951092532310925223089581E0FC
S2140020A080935323109252230E941A100895109280
S2140020B0532381E0809352230E941A100895E0E291
S2140020C0F7E09081282F2095922390839081262FE9
S2140020D0209592239083883029F138F48230B1F02D
S2140020E08430D1F08130D9F50BC0803239F118F444
S2140020F08031F1F034C0803439F1803859F12FC086
S214002100E0E3F7E080818861808329C0E1E3F7E0BF
S21400211080818861808323C0E2E3F7E08081886164
S21400212080831DC0E3E3F7E080818861808317C069
S214002130E4E3F7E080818861808311C0E5E3F7E09F
S2140021408081886180830BC0E6E3F7E08081886148
S214002150808305C0E7E3F7E080818861808368308C
S21400216029F138F46230B1F06430D1F06130D9F53D
S2140021700BC0603239F118F46031F1F00895603424
S21400218039F1603859F10895E0E3F7E0808188611D
S21400219080830895E1E3F7E0808188618083089575
S2140021A0E2E3F7E08081886180830895E3E3F7E067
S2140021B08081886180830895E4E3F7E08081886108
S2140021C080830895E5E3F7E0808188618083089541
S2140021D0E6E3F7E08081886180830895E7E3F7E02F
S2140021E08081886180830895EBE2F7E09081982BE8
S2140021F090839081692B6083843009F128F48130C4
S21400220041F0823089F03BC0883021F1803169F19D
S21400221036C0E0E3F7E0808182608083E1E3F7E0A8
S2140022208081826080832BC0E1E3F7E0808182605A
S2140022308083E2E3F7E080818260808320C0E2E36F
S214002240F7E0808182608083E3E3F7E0808182604C
S214002250808315C0E2E3F7E0808182608083E4E358
S214002260F7E08081826080830AC0E2E3F7E0808145
S21400227082608083E5E3F7E0808182608083E9E224
S214002280F7E0808184608083089560E880E40E949F
S2140022905F102FE782E392E0215080409040E1F704
S2140022A000C000008091280786FD27C08091542337
S2140022B0811128C022C080915423811127C015C0E7
S2140022C080915223811117C025C08091542381111B
S2140022D00CC03AC080915423811129C024C080913B
S2140022E02807882354F180E0089560E880E40E947F
S2140022F0F41081E0089580E008958091280786FF15
S214002300DACF04C081E0809353231CC0809153230E
S2140023108111D6CF809128078823BCF680912807A4
S2140023208823C4F604C081E0809352230BC08091BA
S214002330280786FDD4CF80E008951092532310928C
S2140023405223D3CF80E008958091280788235CF736
S214002350EECFFF920F931F93CF93DF93CDB7DEB7E9
S2140023602897CDBFDEBFF82E0E944511882321F1A5
S214002370F0925423F88600EB1AE027E041E0BE0115
S214002380685F7F4F8AE40E948512BE016F5F7F4FB1
S21400239087E0FB0111928A95E9F781E08F838983B4
S2140023A08CE28A8383E18B8388E88C83FD8227E036
S2140023B047E086E40E9485122896CDBFDEBFDF91F7
S2140023C0CF911F910F91FF900895809153238823FA
S2140023D029F080915223882349F0089580E00E94D6
S2140023E0A911809153238823C9F3F3CF81E00E947B
S2140023F0A911809152238823C9F30895DF92EF92A2
S214002400FF920F931F93CF93DF93CDB7DEB7289736
S214002410CDBFDEBF8C010E944511882369F10115EE
S214002420110531F0EE24FF24E01AF10AD12C04C085
S214002430E12CF12CDD24D394D88600EB1AE027E0BB
S21400244041E0BE01685F7F4F8AE40E948512BE01AC
S2140024506F5F7F4F87E0FB0111928A95E9F781E075
S2140024608F83898380E98A83FB82EC82DD8227E082
S21400247047E086E40E9485122896CDBFDEBFDF9136
S214002480CF911F910F91FF90EF90DF900895DF920C
S214002490EF92FF920F931F93CF93DF93CDB7DEB7E4
S2140024A02897CDBFDEBFF82EE62ED72E0E94451108
S2140024B0882301F1F88600EB1AE027E041E0BE0130
S2140024C0685F7F4F8AE40E948512BE016F5F7F4F70
S2140024D087E0FB0111928A95E9F781E08F83898373
S2140024E08CE28A83DB82EC82FD8227E047E086E48A
S2140024F00E9485122896CDBFDEBFDF91CF911F9137
S2140025000F91FF90EF90DF900895CF92DF92EF92B9
S214002510FF920F931F93CF93DF93D82E7B01D42F78
S214002520C22EF894CCEFC81BC41BC21B442369F010
S214002530FB012FEF240F30E02F5F3F4F260F371F92
S2140025408191C81BE217F307D9F76FEFC8010E9405
S21400255066096FEFC8010E9466096C2DC8010E94CB
S214002560660963E06D0FC8010E94660960E0C80155
S2140025700E9466096D2DC8010E9466094D2FB7019D
S214002580C8010E94B0096C2FC8010E9466092FE797
S21400259082E392E0215080409040E1F700C00000C6
S2140025A07894DF91CF911F910F91FF90EF90DF907D
S2140025B0CF9008950F931F93CF93DF931F92CDB7BD
S2140025C0DEB7262F898300EB1AE041E0BE016F5F7D
S2140025D07F4F8AE40E9485120F90DF91CF911F9162
S2140025E00F910895CF92DF92EF92FF920F931F9371
S2140025F0CF93DF93CDB7DEB72897CDBFDEBF62306F
S214002600710561F020F461307105A9F039C06330BE
S214002610710541F06430710551F032C06894CC24E5
S214002620C1F80BC00F2EF3E0CF2EF02D06C0689435
S214002630CC24C2F802C0CC24C394D52EE42EF82EA7
S214002640898300EB1AE02C2D41E0BE016F5F7F4FBF
S2140026508AE40E948512BE016E5F7F4F87E0FB0111
S21400266011928A95E9F78FEF8C838D8381E08887B6
S214002670DA82EB82FE822C2D47E086E40E948512E9
S2140026802896CDBFDEBFDF91CF911F910F91FF90AF
S214002690EF90DF90CF9008950F931F93CF93DF9323
S2140026A01F92CDB7DEB78230910551F018F401972E
S2140026B069F017C08330910529F0049729F011C0FE
S2140026C022E005C023E003C024E001C021E0198217
S2140026D000EB1AE041E0BE016F5F7F4F8CE40E9482
S2140026E085120F90DF91CF911F910F910895CF9291
S2140026F0DF92EF92FF920F931F93CF93DF93CDB7A6
S214002700DEB72897CDBFDEBF6130710541F062307D
S214002710710571F50F2EF6E0CF2EF02D04C00F2EAA
S214002720F5E0CF2EF02DD52EE42EF82E898300EB83
S2140027301AE02C2D41E0BE016F5F7F4F8AE40E94B5
S2140027408512BE016E5F7F4F87E0FB0111928A956E
S214002750E9F78FEF8C838D8382E08F8381E0888713
S214002760DA82EB82FE822C2D47E086E40E948512F8
S2140027702896CDBFDEBFDF91CF911F910F91FF90BE
S214002780EF90DF90CF9008950F931F93CF93DF9332
S2140027901F92CDB7DEB78130910521F0029769F41C
S2140027A026E001C025E0198200EB1AE041E0BE01F8
S2140027B06F5F7F4F8CE40E9485120F90DF91CF9160
S2140027C01F910F9108950F931F93CF93DF93CDB76B
S2140027D0DEB72897CDBFDEBF198200EB1AE02AE0ED
S2140027E041E0BE016F5F7F4F8AE40E948512BE0102
S2140027F06E5F7F4F87E0FB0111928A95E9F78FEFB6
S2140028008C838D8381E0888783E08A8388EE8B8340
S2140028102AE047E086E40E9485122896CDBFDEBFF8
S214002820DF91CF911F910F9108950F931F93CF9330
S214002830DF931F92CDB7DEB7198200EB1AE02AE0CD
S21400284041E0BE016F5F7F4F8CE40E9485120F90BF
S214002850DF91CF911F910F9108950F931F93CF9300
S214002860DF931F92CDB7DEB7698300EB1AE0282FFF
S21400287041E0BE016F5F7F4F85E00E9485120F909A
S214002880DF91CF911F910F910895E7EEF6E08081DA
S214002890806380830895882331F0E6EEF6E0808139
S2140028A0806380830895E5EEF6E080818063808310
S2140028B00895CF93DF93D82FC62F6AEC71E280EA93
S2140028C099E00E949409C33049F128F4C130D1F14F
S2140028D0C23071F140C0C53069F0B0F0C630D9F5ED
S2140028E0DD2321F082E08093E50735C082E0809307
S2140028F0E60731C0DD2321F081E08093E5072BC099
S21400290081E08093E60727C0DD2321F088E08093EE
S214002910C50721C088E08093C6071DC0DD2321F0CF
S21400292084E08093C50717C084E08093C60713C071
S214002930DD2321F082E08093C5070DC082E08093FE
S214002940C60709C0DD2321F081E08093C50703C0D8
S21400295081E08093C607DF91CF910895982F862F48
S214002960692F0E9459140895CF93C82F682F81E0CD
S2140029700E9459142FEF85EA9EE021508040904037
S214002980E1F700C000006C2F80E00E945914CF9140
S21400299008956091562380E894E00E94B907089550
S2140029A06091552380E894E00E94B9070895009747
S2140029B009F45CC1803C910529F460E180E00E9446
S2140029C0062C0895803424E0920729F468E080E01D
S2140029D00E94062C0895811524E0920729F464E0ED
S2140029E080E00E94062C0895803821E0920729F4A2
S2140029F062E080E00E94062C0895811521E092078F
S214002A0029F461E080E00E94062C0895803823E0D7
S214002A10920729F461E081E00E94062C089580392F
S214002A2023E0920729F461E082E00E94062C0895D4
S214002A30811522E0920729F462E081E00E94062CCC
S214002A400895803422E0920729F462E082E00E9432
S214002A50062C0895811523E0920729F464E081E0AE
S214002A600E94062C0895803223E0920729F464E041
S214002A7082E00E94062C0895811528E0920729F42A
S214002A8061E083E00E94062C0895811529E09207F4
S214002A9029F461E084E00E94062C089581152AE05E
S214002AA0920729F461E085E00E94062C08958115BE
S214002AB02BE0920729F461E086E00E94062C089538
S214002AC0803428E0920729F462E083E00E94062C16
S214002AD00895803429E0920729F462E084E00E9499
S214002AE0062C089580342AE0920729F462E085E0F7
S214002AF00E94062C089580342BE0920729F462E0A9
S214002B0086E00E94062C0895803928E0920729F472
S214002B1064E083E00E94062C0895803929E092073D
S214002B2029F464E084E00E94062C089580392AE0A7
S214002B30920729F464E085E00E94062C0895803907
S214002B402BE0920729F464E086E00E94062C0895A4
S214002B50803C28E0920729F468E083E00E94062C77
S214002B600895803C29E0920729F468E084E00E94FA
S214002B70062C0895803C2AE0920729F468E085E058
S214002B800E94062C0895803C2BE0920729F468E00A
S214002B9086E00E94062C0895803A28E0920729F4E1
S214002BA060E183E00E94062C0895803A29E09207AF
S214002BB029F460E184E00E94062C0895803A2AE019
S214002BC0920729F460E185E00E94062C0895803A79
S214002BD02BE0920729F460E186E00E94062C089517
S214002BE0803B28E0920729F460E283E00E94062CEE
S214002BF00895803B29E0920729F460E284E00E9471
S214002C00062C0895803B2AE0920729F460E285E0CE
S214002C100E94062C0895803B2BE0920729F460E280
S214002C2086E00E94062C0895803824E0920729F456
S214002C3060E483E00E94062C0895803924E0920721
S214002C4029F460E484E00E94062C0895803A24E08B
S214002C50920729F460E485E00E94062C0895803BE4
S214002C60944021F460E486E00E94062C0895282F04
S214002C70862F90E0FC013197EC30F10508F0B6C0E5
S214002C808827E65FFE4F8F4F0C94C730222321F033
S214002C9080E88093250703C080E88093260780910C
S214002CA02807881F8827881F0895222321F080E49C
S214002CB08093250703C080E4809326078091280729
S214002CC086FB882780F90895222321F080E28093EE
S214002CD0250703C080E2809326078091280785FB9E
S214002CE0882780F90895222321F080E18093250724
S214002CF003C080E180932607809128078295817023
S214002D000895222321F088E08093250703C088E0F9
S214002D10809326078091280783FB882780F90895EB
S214002D20222321F084E08093250703C084E080936B
S214002D3026078091280782FB882780F9089522239A
S214002D4021F082E08093250703C082E08093260767
S214002D5080912807869581700895222321F081E0CE
S214002D608093250703C081E080932607809128077B
S214002D7081700895222321F080E88093050703C020
S214002D8080E88093060780910807881F8827881F99
S214002D900895222321F080E48093050703C080E491
S214002DA0809306078091080786FB882780F9089598
S214002DB0222321F080E88093E50603C080E8809314
S214002DC0E6068091E806881F8827881F0895222334
S214002DD021F080E48093E50603C080E48093E60655
S214002DE08091E80686FB882780F9089580E008959C
S214002DF0682F81E00E9437160895AAECB1E022E021
S214002E002C93FC0184911C920895FC01633089F098
S214002E1028F4613041F0623049F01DC0643061F042
S214002E20653069F018C088E081830BC080E181833B
S214002E3008C088E1818305C080E2818302C088E201
S214002E408183808180688083938190FFFDCF81E0BD
S214002E5083838481089580E0089580960E940517F4
S214002E6008950F931F93CF93DF93EC01C11582E073
S214002E70D80779F480B590E00E94FD1600E012E0D5
S214002E80F801848781B590E00E94FD16F8018587D9
S214002E9014C0C034F2E0DF0779F484B590E00E94F5
S214002EA0FD1600E412E0F801848785B590E00E94E4
S214002EB0FD16F801858701C0FFCF82E0888380E297
S214002EC08A8384E089838C8388818160888381E01B
S214002ED088A31092220261E0CE010E942D1761E0C5
S214002EE0CE010E942D17DF91CF911F910F9108956B
S214002EF0682F80E092E00E942D1790E0FC01FC977E
S214002F00E43CF105F0F48827EA5EFE4F8F4F0C9400
S214002F10C73085E0089587E0089588E0089589E041
S214002F2008958AE008958BE008958CE008958DE07A
S214002F3008958EE0089580E1089584E1089589E17A
S214002F4008958EE1089584E00895682F80E092E069
S214002F500E942D1790E00895CF93DF93CDB7DEB78C
S214002F602B97CDBFDEBF60E874E080ED94E10E9451
S214002F70EC070F2EF6EECF2EF6E0DF2EF02D0F2EFE
S214002F80F7E09F2EF02D5E0184E0A80EB11C0F2EF8
S214002F90FCE47F2EF02D0F2EF2E38F2EF02D0F2E59
S214002FA0F5EEEF2EF6E0FF2EF02D80E894E00E947E
S214002FB07D078823D1F3F60180818063808343E018
S214002FC0BE016F5F7F4F80E894E00E9489078FE61E
S214002FD097E10197F1F700C00000E0E8F4E0828591
S214002FE0806C82878981811120C08B818B8700EB62
S214002FF01AE02A8141E0BE01655F7F4F8AE40E94A5
S2140030008512F501892D11928A95E9F781E08C8366
S2140030107D828F8289878A878B8188872A81492D3E
S214003020B50186E40E94851208C0813031F48A8199
S21400303090E00E94A51780935523F7018081806356
S2140030408083B3CF8FE38093020708958230A9F080
S21400305028F4882349F0813059F026C08430C9F01E
S21400306090F08530D9F020C08091080781700895CF
S214003070809108078695817008958091080782FBE5
S214003080882780F908958091080783FB882780F9B0
S21400309008958091080782958170089580910807A9
S2140030A085FB882780F9089580E008950E942618F9
S2140030B008951F920F920FB60F92112408B60F9222
S2140030C018BE09B60F9219BE0AB60F921ABE0BB6F4
S2140030D00F921BBE2F933F934F935F936F937F93F5
S2140030E08F939F93AF93BF93CF93DF93EF93FF930B
S2140030F0E8E2F7E0C081C071D0816BED71E280EA52
S21400310099E00E949409D5FD09C06EEE71E280EA4E
S21400311099E00E94940980E00E94880BC11109C0C2
S21400312061E172E280EA99E00E94940981E00E94DF
S214003130880BFF91EF91DF91CF91BF91AF919F9157
S2140031408F917F916F915F914F913F912F910F904B
S2140031500BBE0F900ABE0F9009BE0F9008BE0F90D0
S2140031600FBE0F901F9018951F920F920FB60F92DA
S214003170112408B60F9218BE09B60F9219BE0AB6E9
S2140031800F921ABE0BB60F921BBE2F933F934F9310
S2140031905F936F937F938F939F93AF93BF93CF93DA
S2140031A0DF93EF93FF93E8E2F7E0D081C081C07829
S2140031B062E372E280EA99E00E949409D6FD06C0B6
S2140031C065E472E280EA99E00E949409C11106C0A3
S2140031D069E672E280EA99E00E949409FF91EF9115
S2140031E0DF91CF91BF91AF919F918F917F916F911A
S2140031F05F914F913F912F910F900BBE0F900ABE9B
S2140032000F9009BE0F9008BE0F900FBE0F901F9034
S214003210189580E38093E1068093E6060895CF92A2
S214003220DF92EF92FF920F931F93CF93DF9387E087
S2140032308093A20078940E948B2B0E940F2080E837
S21400324094E00E94D71480EA99E00E94D71480EB9D
S2140032509AE00E94D71480E092E00E94D71480E89B
S21400326094E00E94730760E874E089EC94E10E94A1
S214003270EC070E942E300E940919E12C00E016E3AC
S2140032802EE631E040E052EC61E070E080EA99E042
S2140032900E94520900E016E32EE631E04CEE50E9BB
S2140032A060E070E080EB9AE00E94520900E016E3CE
S2140032B02EE631E04CEE50E960E070E080EA9BE0FC
S2140032C00E94520980E38093850680E092E00E9487
S2140032D03117C1E0D0E0CE010E944C132196CC30CD
S2140032E0D105C9F7C1E0D0E0CE010E94C4132196F3
S2140032F0CC30D105C9F70E941A100E94530B78945F
S2140033000E94A20B8FE3809302078EE892E20E944F
S2140033109C0A64E972E280EA99E00E94940984E9D2
S21400332092E20E949C0A0E94A8050F2EF0E2CF2E81
S214003330F1EADF2EF7E0EF2EF12CF02D80E894E096
S2140033400E947D07882321F08CEA97E10E94E10520
S21400335088E08A95F1F781E0C81AD108E108F108FB
S21400336069F76DED72E280EA99E00E94940967EFD2
S21400337072E280EA99E00E94940987EF92E20E9446
S2140033809C0AE0E0F0E8E491EF3F91F46EE073E22F
S21400339080EA99E00E9494098EE093E20E949C0ADB
S2140033A0C8E0D6E088818111FDCF0E944A04FACF9A
S2140033B081E08093562361E273E280EA99E00E94FE
S2140033C0940981E293E20E949C0A0C94004080E0FB
S2140033D090E0DF91CF911F910F91FF90EF90DF90DB
S2140033E0CF900895E7EEF6E08081806180830895AF
S2140033F0E7EEF6E0808180628083089510926C2468
S2140034001092782410927924EEE6F4E281EA808322
S21400341080E28183128213821482158282E090E019
S2140034208683978310861186ECE7F4E280E092ECC0
S214003430A1E0B0E080839183A283B38314821582D7
S21400344088E0868380916C248F5F80936C2481E073
S214003450089580916C24815080936C240895809107
S2140034606B24815080936B2480916B2410926A2485
S214003470089580E0089580E008958091D1258823FE
S214003480CCF480768032B9F58091D2258132A9F5C8
S2140034908091D7259091D825079789F5E1EDF5E23B
S2140034A08CE794E28087918787E090E08287938715
S2140034B081E008958076803221F58091D225803291
S2140034C021F0823201F180E008958091D725909115
S2140034D0D8250797D1F4E1EDF5E287E89AE18487ED
S2140034E095878CE794E28087918787E090E08287D3
S2140034F0938781E0089580E0089580E0089580E055
S214003500089580E0089581E0089580E00895089584
S214003510FF920F931F93CF93DF931F92CDB7DEB723
S21400352080915A2381119FC00E940627882351F05C
S21400353000915B2310915C230E941327081719073C
S21400354059F491C000915B2310915C230E940E27D2
S2140035500817190709F487C08FB78983F89419816B
S21400356000915D23E02FF0E0EE0FFF1FE25AFC4DC6
S21400357080819181892B09F580915723909158235A
S214003580019680935723909358230E940627811113
S21400359007C080915723909158238436910558F0A0
S2140035A00E940627882349F080915723909158233C
S2140035B08032934010F41FBF56C0109257231092CB
S2140035C0582380915923811106C081E0011180E0C3
S2140035D080935D2304C081E0011180E0082F81E024
S2140035E080935A231FBF10E0F801EE0FFF1FE25A28
S2140035F0FC4D80819181FF24F3948034910509F479
S214003600F12C8034910591F00E940627882339F02A
S2140036100E94132780935B2390935C230BC00E9429
S2140036200E2780935B2390935C2304C010925B2349
S21400363010925C23F801EE0FFF1FE25AFC4D20812A
S2140036403181A801002456954795079456954795CD
S2140036500794542F402D4E595C4D0AE31BE16F2D05
S21400366081E80E941C280F90DF91CF911F910F9147
S214003670FF900895811116C020915D2381E090E0AF
S214003680222311F080E090E0880F991FFC01E25A97
S214003690FC4D108211821092592310925A2380E01A
S2140036A00E94881A089580E00E94881A08950F9351
S2140036B01F9380917A2481111FC020917824309125
S2140036C07924809176249091772428173907A1F0E1
S2140036D0862F209178243091792420937624309375
S2140036E077240AEA1BE12AE030E04EE654E260E086
S2140036F00E941C2880937A241F910F910895CF93DF
S214003700DF931F92CDB7DEB78FB78983F8942981F0
S214003710662359F08091782490917924482B592B70
S21400372040937824509379240CC08091782490910B
S21400373079244095509548235923409378245093F4
S21400374079242FBF62E880E00E94571B0F90DF911C
S214003750CF91089510927A248091782490917924BC
S21400376083788093782490937924EEE6F4E280853B
S2140037709185837880879187642F80E00E94571B0D
S214003780089541E050E0682F80E00E947F1B089576
S21400379042E050E0682F80E00E947F1B089540E1E1
S2140037A050E061E080E00E947F1B089540E250E018
S2140037B061E080E00E947F1B089540E450E061E0F5
S2140037C080E00E947F1B089541E050E00E947F1B2E
S2140037D0089542E050E00E947F1B089540E150E0CB
S2140037E061E00E947F1B089540E250E061E00E9485
S2140037F07F1B089540E450E061E00E947F1B08951F
S214003800CF93DF931F92CDB7DEB78FB78983F89437
S21400381049812091E3233091E423E091E523F0E011
S214003820EE0FFF1FEA51FC4D808191814FBF821B36
S214003830930B0F90DF91CF91089580E00E94001CBB
S21400384008950E94001C21E0892B09F420E0822FB5
S21400385008950F931F93CF93DF931F92CDB7DEB7D4
S2140038608FB78983F89499812091E5238091E2238C
S214003870811110C06091E3237091E423022F10E0C1
S214003880F801EE0FFF1FEA51FC4D4081518164178D
S214003890750718F49FBF80E024C01092E3231092AF
S2140038A0E42381E0211180E08093E52381E080938A
S2140038B0E2239FBF80E00E94211CA80100245695A9
S2140038C047950794569547950794542F402D465193
S2140038D05C4D0BEA1CE120E430E061E082E00E94EF
S2140038E01C280F90DF91CF911F910F910895109291
S2140038F06B2410925A231092592310925D23EEE502
S214003900F3E2108211821282138210925B231092CD
S2140039105C2380E00E94881A1092E2231092E5232E
S214003920E6EEF3E210821182128213821092E323F3
S2140039301092E42380E00E94291C882359F090917D
S2140039406B249F5F90936B2490916B24913011F4BD
S21400395090936A2408950F931F9381112AC0809133
S214003960E523E1E08111E0E0842F61157105A9F4FB
S2140039704E2F50E000245695479507945695479548
S2140039800794542F402D46515C4D0BEA1CE120E471
S21400399030E061E00E941C280CC0F0E0EE0FFF1F34
S2140039A0EA51FC4D608371831092E22380E00E940E
S2140039B0291C1F910F91089580E00E94211C0895F4
S2140039C0EF92FF921F93CF93DF931F92CDB7DEB790
S2140039D011E080918224893009F010E040E050E048
S2140039E08FB78983F894A9812091E3233091E4234B
S2140039F08091E52390E0FC01EE0FFF1FEA51FC4D9D
S214003A0060817181AFBF2617370730F080916A2436
S214003A108111E6CF90E022C0FC010024F695E795E0
S214003A200794F695E7950794FE2FE02DE651FC4D9A
S214003A30E20FF31F80817A01E82A2F5F3F4F209321
S214003A40E3233093E42380E00E94291C112321F015
S214003A505E2D442710E0C4CF8E2D9F2D0F90DF9152
S214003A60CF911F91FF90EF90089580E00E94E01C98
S214003A700895CF92DF92EF92FF920F931F93CF930A
S214003A80DF931F92CDB7DEB76B017A018FB78983BC
S214003A90F89449816091E3237091E4238091E523B3
S214003AA090E0FC01EE0FFF1FEA51FC4D20813181B2
S214003AB04FBF6217730738F080916A248111E6CFF2
S214003AC08E2D9F2D36C0FC01EE0FFF1FEA51FC4DD8
S214003AD020813181261B370B87012E153F0508F400
S214003AE0890100249695879507949695879507945F
S214003AF0982F802D680F791F66517C4DA801C6014E
S214003B000E94F9308091E3239091E423800F911F67
S214003B108093E3239093E423C00ED11EE01AF10AAB
S214003B2080E00E94291CE114F10409F0AFCF80E088
S214003B3090E00F90DF91CF911F910F91FF90EF9043
S214003B40DF90CF900895EF92FF920F931F93CF933D
S214003B50DF931F921F92CDB7DEB7DC0190916A24E7
S214003B60992309F445C08FB78983F89489814091D9
S214003B70E3235091E4232091E52330E0F901EE0F92
S214003B80FF1FEA51FC4DE080F180E41AF50A8FBF72
S214003B90062F172FE016F10608F487010115110508
S214003BA051F1CD0100243695279507943695279533
S214003BB00794322F202DB901640F751F66517C4D76
S214003BC0A8010E94F9308FB78A83F8948A812091E1
S214003BD0E3233091E423020F131F0093E323109393
S214003BE0E4238FBF80E00E94291C8E2D9F2D05C0E8
S214003BF080E090E002C08E2D9F2D0F900F90DF91F9
S214003C00CF911F910F91FF90EF900895AB01BC01EB
S214003C1080E00E94391D0895CF93DF931F92CDB7A1
S214003C20DEB78FB78983F894998180915D23E82F5A
S214003C30F0E0EE0FFF1FE25AFC4D20813181203468
S214003C40310589F440915A2341110DC04091592302
S214003C50411109C021E020935923811120E02093CF
S214003C605D2320E030E09FBF80E490E0821B930B52
S214003C700F90DF91CF91089580E00E940C1E08956A
S214003C800E940C1E21E0892B09F420E0822F089563
S214003C9080E00E94401E0895FF920F931F93CF93DB
S214003CA0DF931F92CDB7DEB7F62E172F01E0809177
S214003CB08224893009F000E080E00E94401E8111D5
S214003CC007C080916A248111F7CF80E090E02CC075
S214003CD08FB78983F894498180915D2390E0FC0139
S214003CE0EE0FFF1FE25AFC4D20813181B9016F5F54
S214003CF07F4F6083718300249695879507949695E9
S214003D0087950794982F802D8E599C4DFC01E20FC5
S214003D10F31FF0824FBF002329F0F12E110F110B75
S214003D2000E0CACF81E090E00F90DF91CF911F9125
S214003D300F91FF900895BC0180E00E944C1E0895EC
S214003D405F926F927F928F929F92AF92BF92CF9226
S214003D50DF92EF92FF920F931F93CF93DF931F9202
S214003D60CDB7DEB74B015A0180918224893011F419
S214003D70AA0CBB1C6894662466F8712C80E00E942E
S214003D80401E811107C080916A248111F7CF8A2DC9
S214003D909B2D3AC08FB78983F894598000915D2394
S214003DA010E0F801EE0FFF1FE25AFC4DE080F180B4
S214003DB0C3018E199F0965018A159B0508F46C01DD
S214003DC0C80100249695879507949695879507943D
S214003DD0982F802D8E0D9F1DA601B4018E599C4DE7
S214003DE00E94F930000F111FF801E25AFC4DEC0C4E
S214003DF0FD1CE082F1825FBE8C0C9D1CAC18BD08D9
S214003E0009F0BCCF80E090E00F90DF91CF911F913A
S214003E100F91FF90EF90DF90CF90BF90AF909F9064
S214003E208F907F906F905F900895AB01BC0180E00B
S214003E300E94A01E0895E0918824F09189240190A4
S214003E40F081E02D228133812E0F3F1FFC0140813F
S214003E50E40FF11DE217F307A0F481818430A1F08E
S214003E60861306C014C081818430A1F08617A9F09D
S214003E708081E80FF11DE217F307A8F380E090E0D9
S214003E80089580E090E0089580E090E008958E2FF9
S214003E909F2F089580E090E008958E2F9F2F08951D
S214003EA08091D3258F770E940827089590918A24C1
S214003EB0992381F1E0918824F09189240190F08182
S214003EC0E02D9481891740F5E0938624F0938724AB
S214003ED0228133812E0F3F1FE217F307F8F49181FA
S214003EE0943061F49281891309C09381961306C0B9
S214003EF0E0938624F093872481E008959081E90F6B
S214003F00F11DE217F30758F3E0938624F093872415
S214003F1080E0089580E0089580E0089580E00895A8
S214003F20EF92FF921F93CF93DF93C82F60E00E941B
S214003F30561F182F882391F1A0918824B0918924C8
S214003F40EC2FF0E0EE0FFF1F12968D919C911397C9
S214003F50E80FF91FE080F180D7011696ED91FC91ED
S214003F6017971995682F8C2F0E94561F182F882395
S214003F70A9F0C0918624D091872465E0CE010E94E6
S214003F801B1FEC01892B21F08A810E943A29F5CF6C
S214003F90D7011296ED91FC9113971995812FDF9119
S214003FA0CF911F91FF90EF9008951F93CF93DF93CB
S214003FB0182F0E94561F882349F1C0918624D0915D
S214003FC0872465E0CE010E941B1FEC01892B49F077
S214003FD04C815D816B818A810E942D278111F1CFF2
S214003FE015C0A0918824B0918924E12FF0E0EE0F4F
S214003FF0FF1F12968D919C911397E80FF91F019061
S214004000F081E02D0190F081E02D1995DF91CF91A0
S2140040101F910895809186249091872408950E9488
S2140040207A260895CF9380918A248823C9F0E09158
S2140040308824F09189240190F081E02D84818823E2
S21400404079F0C0E08C2F0E94901FCF5FE09188240B
S214004050F09189240190F081E02D8481C81790F3B7
S21400406010928A2481E090E080938E2490938F248F
S214004070CF9108950E941C260E9412200895CF9387
S21400408080918A24882349F1A0918824B0918924BC
S214004090ED91FC91119784818823F9F0C0E0EC2F14
S2140040A0F0E0EE0FFF1F12968D919C911397E80F8C
S2140040B0F91F0190F081E02D0084F185E02D309706
S2140040C009F01995CF5FA0918824B0918924ED91CD
S2140040D0FC9111978481C81710F3CF9108950F9320
S2140040E01F93CF93DF93E1EDF5E2128613861486D5
S2140040F0158616861786808188230CF081C220914B
S214004100D7253091D8252115310509F074C26BC228
S2140041108F7109F0ABC09091D225963081F098301F
S21400412009F499C09111A2C02230310509F016C2D7
S21400413062E070E08EE894E20E9426276AC28091D0
S214004140D3259091D425292F332722303105B1F07D
S21400415020F42130310541F0C1C123303105F1F1A1
S2140041602F30310561F1BAC18091522090915320D1
S214004170DC016C9170E00E9426275EC0E091522020
S214004180F09153202189821708F0E8C19927880FFB
S214004190991F880F991FE0915420F0915520E80F41
S2140041A0F91F80819181FC01628173810E9426271C
S2140041B0E091D925F091DA2582E081833DC0809197
S2140041C0562090915720009709F4C8C1DC0112963A
S2140041D06D917C9113970E9426272EC099278130D7
S2140041E0910599F058F08230910509F40EC20397B4
S2140041F009F07DC131E0E9E3F3E20AC064E070E073
S2140042008EE490E20E94262717C0E8E4F0E235E04C
S214004210A0E2B0E220E0819190E08D939D932F5F25
S2140042202317C8F3632F660F6E5F60931E2070E03F
S2140042308EE190E20E942627E1EDF5E286819781E5
S214004240228533858217930708F0E3C18093DB2528
S2140042509093DC25DEC12130310509F07FC161E095
S21400426070E08AE894E20E942627D3C18130F1F5F7
S2140042709091D2259A30D1F52130310509F03CC114
S21400428080918A24882309F437C1C091D525D0911E
S214004290D6250091882410918924D801ED91FC91AF
S2140042A08481C81708F028C160E08C2F0E94561F32
S2140042B0882309F41CC1CE019927880F991FD801BD
S2140042C01296ED91FC911397E80FF91F0190F0817B
S2140042D0E02D86819781FC01199580938C2461E0FE
S2140042E070E08CE894E20E94262793C1823009F0A1
S2140042F0FEC08091D2258111F3C02230310509F02D
S2140043002DC18091D5250E94BE2790E080938424FD
S2140043109093852462E070E084E894E20E94262769
S21400432078C18F7109F086C09091D225933009F438
S214004330D9C018F49130A1F07DC0953019F09930AD
S21400434039F178C08091D7259091D825892B09F02E
S21400435005C180E59FE18093DD259093DE2559C158
S2140043608091D7259091D825892B09F0F7C08091A8
S214004370D3259091D425019709F0F0C080918E2422
S21400438090918F248D7F80938E2490938F2441C1AB
S2140043908091D7259091D825892B09F0DFC00E94FF
S2140043A00B27882309F4A3C02091D3253091D42568
S2140043B03327E0915220F0915320818990E08217B4
S2140043C0930708F494C00E9412208091D325909100
S2140043D0D42580938A24882309F41BC19927815009
S2140043E0904C880F991F880F991FE0915420F091E8
S2140043F05520E80FF91FE0938824F0938924019054
S214004400F081E02D8481882309F403C1C0E060E0D8
S2140044108C2F0E94D51F882309F469C0CF5FE091D6
S2140044208824F09189240190F081E02D8481C817BA
S21400443070F3EFC08130F9F49091D2259B30D9F417
S2140044408091D7259091D825892B09F055C0809169
S2140044508A24882309F450C0E1EDF5E2C481D281B4
S2140044608C2F0E94901F882309F441C06D2F8C2F3B
S2140044700E94D51F3AC08230D1F58091D225813076
S21400448019F08330A1F030C08091D7259091D825BF
S214004490892B09F063C08091D3259091D425892B70
S2140044A009F05CC08091D5250E94D9271EC0809156
S2140044B0D7259091D825892B09F050C08091D32517
S2140044C09091D425892B09F049C0C1EDD5E28C81A5
S2140044D00E94EA288C810E94572907C080E005C008
S2140044E080E003C080E001C080E0811193C080912D
S2140044F0D1258F71813091F580918A24882309F423
S21400450074C00091D5251091D625C0918824D091ED
S2140045108924E881F9818481081708F068C060E082
S214004520802F0E94561F8823C9F0F801FF27CF016D
S214004530880F991FEA81FB81E80FF91FC081D1819E
S214004540EE81FF811995682F802F0E94561F8823C1
S21400455029F0EC81FD81199581115CC08091D125EF
S2140045608F71823009F045C080918A248823B9F182
S214004570A0918824B0918924ED91FC9111978481B3
S214004580882379F1C0E0EC2FF0E0EE0FFF1F1296C3
S2140045908D919C911397E80FF91F00811181D80126
S2140045A01696ED91FC9117971995682F8C2F0E94FF
S2140045B0561F882379F1D8011496ED91FC91159732
S2140045C01995811127C0CF5FA0918824B0918924C6
S2140045D0ED91FC9111979481C917A8F21BC080E059
S2140045E019C080E017C080E015C080E013C080E0EE
S2140045F011C080E00FC0982F907609F078CF88CD54
S214004600982F907609F073CF8CCE3DE0EAE3F0E287
S214004610FFCD81E0DF91CF911F910F910895CF9349
S214004620DF931F921F92CDB7DEB7811126C09091FF
S214004630D0259923F9F09091E225911101C0FFCF82
S2140046409FB79A83F8942A81E1EEF5E29181915022
S21400465091832FBF0FC09091E2259F3F09F4FFCFB3
S2140046609FB79983F8942981E1EEF5E291819F5FE7
S21400467091832FBF8093D02505C09091D025992394
S21400468051F3F8CF0F900F90DF91CF9108950F93CD
S214004690E8ECF4E080818F7D808380818F7D80834D
S2140046A0E8E9F5E202E0059310929A2510929B2520
S2140046B000E2069300E40693E0E9F5E200E40693E0
S2140046C0E1EDF5E2148615861686178612861386A1
S2140046D0109279250F9108950F9385E080937925A0
S2140046E0E9E9F5E204E00593E1E9F5E204E0059383
S2140046F00F9108950F9383E08093792510929A2561
S21400470010929B25E8E9F5E202E006930F910895E2
S214004710E091DD25F091DE25309709F01995089592
S2140047200F93CF93DF9380917925833029F40E94ED
S21400473088230E9447235EC0809175259091762538
S214004740C091DB25D091DC25C81BD90B71F52091D3
S214004750772530917825820F931F80937725909345
S21400476078252091D7253091D8258217930721F0F8
S21400477080919024882341F084E080937925E0E9B5
S214004780F5E202E0069336C0E091DF25F091E025E1
S214004790309799F01995882381F01092752510921C
S2140047A07625C091DB25D091DC25C034D10528F0D4
S2140047B010929024C0E4D0E003C081E0809390245F
S2140047C0E0E8F5E2C28FD38F80917525909176252B
S2140047D02091D9253091DA25280F391F248F358F5F
S2140047E0C80FD91FC0937525D0937625E8E9F5E262
S2140047F002E00693DF91CF910F910895FC0181812D
S214004800E82FE7708E2F90E0FC013197E730F10536
S214004810D8F48827E652FE4F8F4F0C94C73080E1BD
S21400482090E0089580E290E0089580E490E0089596
S21400483080E890E0089580E091E0089580E092E0BE
S21400484008958FEF93E0089588E090E00895282F6C
S2140048502F7030E0220F331F082E000C990B88278C
S214004860990F881F9927820F931F02979C01220F8A
S214004870331F220F331F220F331F820F931F8F5EAB
S2140048809A4D08950F93CF938091CC0480FF6AC011
S21400489081E08093CC04E0E9F5E200E80693E8E9DD
S2140048A0F5E200E806938093CA04E0E9F5E200E149
S2140048B0069380917925882339F08350823010F44E
S2140048C00E9488230E9447238091922590919325E9
S2140048D0089709F049C088E0E5E3F5E2A1EDB5E206
S2140048E001900D928A95E1F7E8ECF4E08081806211
S2140048F080838081806280830E946F20C82F811110
S21400490004C00E946C23C1E030C08091D12588236A
S21400491074F41092772510927825109275251092CF
S214004920762582E0809379250E9490231EC0809190
S214004930D7259091D825892B19F40E947A2315C083
S214004940109277251092782510927525109276256C
S21400495081E080937925E0E9F5E202E0069300E243
S214004960069303C0C0E001C0C1E08C2FCF910F9129
S21400497008958F929F92AF92BF92DF92EF92FF922E
S2140049800F931F93CF93DF93D82E0E9427248C017A
S214004990CD2DCF70D0E0CE01880F991FCD2D0D2CD8
S2140049A0000CDD0BCC27DD0FCC1FDD27C80FD91F71
S2140049B0CE01880F991F880F991F880F991F9C0199
S2140049C020573A4D7901C9010E94FE234C01DD2093
S2140049D00CF072C0FE01EE0FFF1FEE0FFF1FEE0F72
S2140049E0FF1FE058FA4D26893789D80115968D9114
S2140049F09C911697820F931F15968D939C931697EE
S214004A0013962D913C9114978217930709F43EC094
S214004A10281B390B2115B4E03B0740F02FEF33E09D
S214004A20C901B4010E945E30281B390BF801808151
S214004A3081FF0AC0C901B4010E945E3041E0892BA3
S214004A4009F040E0842F01C080E0D8019C9180FBF3
S214004A5091F99C93CC0FDD1FCC0FDD1FCC0FDD1F13
S214004A60C058DA4D1E8A1F8A2A8B3B8B11962D91D1
S214004A703C91129715968D919C911697820F931FD5
S214004A808C8B9D8BF70102E00693CAC0D8018C91EF
S214004A9081FFB3C08D7F8C93CC0FDD1FCC0FDD1F45
S214004AA0CC0FDD1FC058DA4D1E8A1F8A1A8A1B8A51
S214004AB0F70102E00693B4C0FE01EE0FFF1FEE0FF3
S214004AC0FF1FEE0FFF1FE058FA4DA288B388D801EB
S214004AD08C9182FF1BC01196ED91FC911297159652
S214004AE02D913C91169713968D919C911497B40135
S214004AF00E945E30B0E4DB9EB00111246F5A7B4DFD
S214004B00AC01CF01820F931F0E94F930F801258176
S214004B1036812A0D3B1D2583368383819481821737
S214004B20930768F485839683CC0FDD1FCC0FDD1FBB
S214004B30CC0FDD1FC058DA4D8E899F895EC0FE01FE
S214004B40EE0FFF1FEE0FFF1FEE0FFF1FE058FA4D90
S214004B5046895789A416B50609F04FC028173907A5
S214004B6009F44BC0AC01421B530B9A01211554E0CB
S214004B70350748F02FEF33E0C901B4010E945E30DC
S214004B80281B390B06C0C901B4010E945E30281BE1
S214004B90390BFE01EE0FFF1FEE0FFF1FEE0FFF1F7C
S214004BA0E058FA4D128A138A2815390578F4D80188
S214004BB08C9184608C93B0E4DB9EC00111248F5AE4
S214004BC09B4D848B958B868A978A13C0F80141810A
S214004BD0528185819681840F951FCC0FDD1FCC0FE7
S214004BE0DD1FCC0FDD1FC058DA4D8C8B9D8B2E8BB6
S214004BF03F8BF70102E0069313C0D8018C9180FF2B
S214004C000FC08E7F8C931796ED91FC911897309776
S214004C1039F015966D917C9116974D2D80E019957B
S214004C20DF91CF911F910F91FF90EF90DF90BF9093
S214004C30AF909F908F9008951F93CF93DF931F920E
S214004C401F92CDB7DEB78FB78983F8941981E1EC50
S214004C50F4E080818E7F80831092C00410820E94D0
S214004C60782C80E00E940F238091E625811101C0F8
S214004C70FFCF8FB78A83F8949A81E1EEF5E28581BB
S214004C80815085839FBF1FBF0F900F90DF91CF91FC
S214004C901F91089580E008951F93CF93DF931F928E
S214004CA0CDB7DEB78FB78983F894198181E00E946B
S214004CB00F23EAECF4E080E4808380E28083E1EC7A
S214004CC0F4E0808181608083A9ECB4E08C918260FE
S214004CD08C93E8ECF4E08081806480838C91816022
S214004CE08C938081806880831FBF0F90DF91CF9167
S214004CF01F9108950F931F93CF93DF931F921F92D8
S214004D00CDB7DEB700E610E0F801108280E30E941F
S214004D10312CE0ECF4E080818064808381E0F8014F
S214004D2080838FB78A83F8941A81E0E8F5E2118AC7
S214004D30118E11A211A611AA11AEE1E1F5E2808151
S214004D408E7F8083EAE1F5E280818E7F8083E3E2D6
S214004D50F5E280818E7F8083ECE2F5E280818E7FB3
S214004D6080836AE170E082E00E941E308F3F19F077
S214004D708093FA0403C08FE18093FA046BE170E03D
S214004D8082E00E941E308F3F19F08093FB0403C020
S214004D908FE18093FB04E0ECF4E080818260808306
S214004DA080818068808380818061808380E995E24D
S214004DB0868397838081806280838FEF8093C5048B
S214004DC0E8ECF4E08081816080831092D0258091A9
S214004DD0E6258F3F09F4FFCF8FB78983F894998132
S214004DE0E1EEF5E285818F5F85839FBF0E944C26AA
S214004DF01FBF0F900F90DF91CF911F910F910895D5
S214004E00E1ECF4E080818E7F8083089580E0089551
S214004E108093C30408958091C30408958091C025AB
S214004E209091C125089580E090E008958091D02566
S214004E3081110BC081E00E940F23E1ECF4E0808139
S214004E408B7F80838081846080830895E1EDF5E226
S214004E5080879187628773870895282F2F7030E0A8
S214004E60220F331F082E000C990B8827990F881FD6
S214004E709927820F931FFC01EE0FFF1FEE0FFF1FF7
S214004E80EE0FFF1FE058FA4D2189207C09F072C012
S214004E906370613011F018F404C060EC03C060E881
S214004EA001C060E440385105E9F050F44032510545
S214004EB0A9F040345105A1F040315105D9F40CC099
S214004EC0411522E0520791F04F3F23E0520781F050
S214004ED04115514079F408C021E00DC022E00BC016
S214004EE023E009C024E007C025E005C026E003C093
S214004EF027E001C020E0FC01EE0FFF1FEE0FFF1FB2
S214004F00EE0FFF1FE058FA4D118ADC01AA0FBB1FF7
S214004F10AA0FBB1FAA0FBB1FA057BA4D36E03C9383
S214004F20262B218BFC01EE0FFF1FEE0FFF1FEE0F4F
S214004F30FF1FE058FA4D2189207C203C69F4FC01D3
S214004F40EE0FFF1FEE0FFF1FEE0FFF1FE058FA4D8C
S214004F5021892770273081F0880F991F880F991FA5
S214004F60880F991FFC01E058FA4D81898062818B79
S214004F7081E0089580E0089581E00895E82FEF70BD
S214004F80F0E0EE0FFF1F082E000C990B8827990FF4
S214004F90881F9927E80FF91FEE0FFF1FEE0FFF1F60
S214004FA0EE0FFF1FE058FA4D818982FB882780F9B3
S214004FB008950F93282F2F7030E0A901440F551F36
S214004FC0282F082E000C330B2227330F221F3327DF
S214004FD0240F351FF901EE0FFF1FEE0FFF1FEE0F18
S214004FE0FF1FE057FA4D01E00693F901EE0FFF1F91
S214004FF0EE0FFF1FEE0FFF1FE058FA4D918992FF4C
S21400500018C0220F331F220F331F220F331FF90140
S214005010E058FA4D91899B7F918B0E942724FC01D2
S214005020808180FF06C08E7F80830780F085E02D1C
S214005030199581E00F9108956F927F928F929F92BB
S214005040AF92BF92CF92DF92EF92FF920F931F9391
S214005050CF93DF931F92CDB7DEB7782E662E4A0128
S21400506059010E9427246C01272D872D8F70E82E6A
S214005070F12CC701880F991FE72C072C000CFF089E
S214005080EE24FF0CEE1CFF24E80EF91EF701EE0FCF
S214005090FF1FEE0FFF1FEE0FFF1FE058FA4D81892E
S2140050A0807C09F484C0F701EE0FFF1FEE0FFF1F90
S2140050B0EE0FFF1FE058FA4D8189807C803C61F03E
S2140050C0F701EE0FFF1FEE0FFF1FEE0FFF1FE0585A
S2140050D0FA4D818982FD6DC08FB78983F8948981E6
S2140050E0F601908190FF03C08FBF80E063C0F60199
S2140050F09081916090838FBF81829282A382B482D6
S2140051001582168207831087611006C091E0A114ED
S214005110B10419F090E001C091E0F601808190FBA7
S21400512081F98B7F8083222364F4F701EE0FFF1F43
S214005130EE0FFF1FEE0FFF1FE058FA4D168A178A74
S21400514031C0F701EE0FFF1FEE0FFF1FEE0FFF1F20
S214005150E058FA4D8189807C803CB9F4C701880FFD
S214005160991F880F991F880F991F80579A4D0E9484
S214005170FE23BC01C5010E945E30892B31F0F6018A
S21400518080818E7F808380E015C0F701EE0FFF1FC1
S214005190EE0FFF1FEE0FFF1FE058FA4D128A138A1C
S2140051A0168A178A872D0E94B92481E003C080E002
S2140051B001C080E00F90DF91CF911F910F91FF907B
S2140051C0EF90DF90CF90BF90AF909F908F907F90A2
S2140051D06F900895FF920F931F93CF93DF93182F2E
S2140051E0C82FCF70D0E0CE01880F991FC12F012E97
S2140051F0000CDD0BCC27DD0FCC1FDD27C80FD91F19
S214005200812F0E942724DC01FE01EE0FFF1FEE0F08
S214005210FF1FEE0FFF1FE057FA4D02E005938C913B
S21400522080FF22C08E7F8C931796ED91FC91189785
S2140052303097D1F011235CF4CC0FDD1FCC0FDD1FAF
S214005240CC0FDD1FC058DA4D6E897F890AC0CC0F9F
S214005250DD1FCC0FDD1FCC0FDD1FC058DA4D6A896D
S2140052607B89412F81E01995DF91CF911F910F9196
S214005270FF900895CF93C82F0E94EA28EC2FEF7076
S214005280F0E0EE0FFF1F8C2FCC0F990B8827990F9D
S214005290881F9927E80FF91FEE0FFF1FEE0FFF1F5D
S2140052A0EE0FFF1FE058FA4D118ACF910895E82FB0
S2140052B0EF70F0E0EE0FFF1F282F082E000C330BC8
S2140052C02227330F221F3327E20FF31FEE0FFF1F95
S2140052D0EE0FFF1FEE0FFF1FE058FA4D9189946006
S2140052E0918B0E94EA2881E008950F931F93CF9335
S2140052F0DF938B01C82FCF70D0E0CC0FDD1F282F97
S214005300082E000C330B2227330F221F3327C20F21
S214005310D31F0E942724CC0FDD1FCC0FDD1FCC0F20
S214005320DD1FC058DA4D298922FF0AC0FC01208102
S21400533020FD0AC0216020830783108781E005C016
S214005340F801199581E001C080E0DF91CF911F91AF
S2140053500F9108951F920F920FB60F92112408B660
S2140053600F9218BE09B60F9219BE0BB60F921BBE4F
S2140053700F932F933F934F935F936F937F938F93E8
S2140053809F93AF93BF93EF93FF938091CB048823B3
S21400539034F480E88093CA040E943F2090C0809135
S2140053A0CB0482FF22C084E08093CA0480919825B3
S2140053B086FF85C08091CC0481FD81C00E94422476
S2140053C081117DC080917925813019F40E947A235D
S2140053D076C0843009F073C0E9E9F5E204E005938D
S2140053E0E1E9F5E204E005936AC08091CB0481FF11
S2140053F061C082E08093CA048091902586FF5FC0DA
S2140054008091CC0481FD5BC00E944224811157C06C
S21400541080917925823041F484E080937925E0E913
S214005420F5E202E006934BC0833009F048C0E9E994
S214005430F5E204E00593E1E9F5E204E005933FC0F8
S21400544080E18093CA0481E00E94EA2881E80E94F5
S214005450EA2882E00E94EA2882E80E94EA280E945F
S21400546012201092C304E0E8F5E2118A96E0908BD1
S21400547083E4818B118E908F818F85E395E2848BF8
S214005480958B0E9447231BC08091CB0486FF07C0E4
S21400549080E48093CA0480E00E940F2310C08091AD
S2140054A0CB0485FF0CC080E28093CA0481E00E9492
S2140054B00F2305C08091CB0484FDC2CFE5CFFF91BA
S2140054C0EF91BF91AF919F918F917F916F915F9177
S2140054D04F913F912F910F910F900BBE0F9009BEE9
S2140054E00F9008BE0F900FBE0F901F9018951F923A
S2140054F00F920FB60F92112408B60F9218BE09B677
S2140055000F9219BE0AB60F921ABE0BB60F921BBEAA
S2140055100F931F932F933F934F935F936F937F93B6
S2140055208F939F93AF93BF93CF93DF93EF93FF93A6
S2140055308091CC0481FD04C00E9442248111C4C025
S21400554082E08093CC048091C5048195880FE0E9C1
S214005550F5E2E81BF1092081318120593542369564
S21400556027953695279536952795822F869520FD83
S21400557002C090E001C090E8890FE82FEF70F0E0DD
S214005580EE0FFF1F282F082E000C330B2227330F99
S214005590221F3327E20FF31FDF01AA0FBB1FAA0F3C
S2140055A0BB1FAA0FBB1FA057BA4D9C9195FF8CC07E
S2140055B0FD0100E20693811180C080917925843038
S2140055C029F40E9488230E9447237EC000919225DA
S2140055D0109193258091DB259091DC25C09175254F
S2140055E0D091762598012C0F3D1F8217930718F44B
S2140055F08C010C1B1D0B8091D9259091DA25A801F2
S21400560065E375E28C0F9D1F0E94F930C00FD11F15
S214005610C0937525D09376250034110569F48091E2
S2140056207725909178258C0F9D1F2091D725309156
S214005630D8258217930790F0E1EDF5E2C287D3876D
S2140056400684F785E02D309731F01995811103C057
S2140056500E946C2339C00E947A2336C08091DB25D5
S2140056609091DC25C817D90709F5E091DF25F09160
S214005670E025309719F40E946C2326C019958111F5
S21400568003C00E946C2320C0209177253091782596
S2140056908091752590917625820F931F80937725AC
S2140056A0909378251092752510927625E0E9F5E21C
S2140056B002E0069300E2069307C0803819F40E94C1
S2140056C0902302C00E94B924FF91EF91DF91CF9101
S2140056D0BF91AF919F918F917F916F915F914F9105
S2140056E03F912F911F910F910F900BBE0F900ABE06
S2140056F00F9009BE0F9008BE0F900FBE0F901F9020
S2140057001895982F9F7029F081E0933018F080E06C
S214005710089580E008950F931F93CF93DF93CDB73E
S214005720DEB72797CDBFDEBF8FEF809370008093E4
S214005730710080937200809373008093740080934E
S21400574075008093760064E081E490E00E94283043
S2140057506CE170E082E00E941E308A836DE170E0AA
S21400576082E00E941E30898389819A81019621F405
S21400577080E493E289839A8389819A818B839C83D0
S214005780E0E6F0E082838C8183838FB78E83F89483
S2140057909E81E0E5F0E08081826080839FBF81810A
S2140057A081FFFDCF8FB78F83F8949F8100E510E0CF
S2140057B0D80116968C911697897F16968C93169715
S2140057C0E0E6F0E080E885838BEB868316968C9186
S2140057D01697846016968C938081816080839FBF25
S2140057E061E080E490E00E9428308FB78D83F894C3
S2140057F09D81F80180818E7F80839FBF2796CDBFD5
S214005800DEBFDF91CF911F910F910895CF93DF9365
S2140058101F92CDB7DEB79FB79983F8949981E82F8A
S214005820F0E0E059FF4F60958081682360839FBF5A
S2140058300F90DF91CF910895CF93DF931F92CDB74E
S214005840DEB79FB79983F8949981E82FF0E0E05986
S214005850FF4F8081682B60839FBF0F90DF91CF91B1
S2140058600895CF93DF931F921F92CDB7DEB7863091
S21400587011F060E001C068E18091510081FD2AC00E
S2140058808FB78983F8949981E0E5F0E080818260A3
S21400589080839FBF818181FFFDCF8FB78A83F89475
S2140058A09A81A0E5B0E016968C911697897F169699
S2140058B08C931697E0E6F0E080E885838BEB868392
S2140058C016968C911697846016968C9380818160CC
