:100000000C94AF020C94D5020C94D5020C94D5023A
:100010000C94D5020C94D5020C94D5020C94D50204
:100020000C94D5020C94D5020C94D5020C94D502F4
:100030000C947F060C94D5020C94D5020C94D50236
:100040000C94D5020C94D5020C94D5020C94D502D4
:100050000C94D5020C94D5020C94D5020C94D502C4
:100060000C94D5020C94D5020C94D5020C94D502B4
:100070000C94D5020C94D5020C94D5020C94D502A4
:100080000C94D5020C94D5020C94D5020C94D50294
:100090000C94D5020C94D5020C94D5020C94D50284
:1000A0000C94D5020C94D5020C94D5020C94D50274
:1000B0000C94D5020C94F9060C94D5020C94D5023C
:1000C0000C94D5020C94D5020C94D5020C94D50254
:1000D0000C94D5020C94D5020C94D5020C94D50244
:1000E0000C94D5020C94D5020C94D5020C94D50234
:1000F0000C94D5020C94D5020C94D5020C94D50224
:100100000C94D5020C94D5020C94D5020C94D50213
:100110000C94D5020C94D5020C94D5020C94D50203
:100120000C94D5020C94D5020C94D5020C94BC0608
:100130000C94D5020C94D5020C94D5020C94D502E3
:100140000C94D5020C94D5020C94D5020C94D502D3
:100150000C94D5020C94D5020C94D5020C94D502C3
:100160000C94D5020C94D5020C94D5020C94D502B3
:100170000C94D5020C94D5020C94D5020C94D502A3
:100180000C94D5020C94D5020C94D5020C94D50293
:100190000C947A180C94C8180C94D5020C94D502BF
:1001A0000C94D5020C94D5020C9436070C94D5020D
:1001B0000C94D5020C94D5020C94D5020C94D50263
:1001C0000C94D5020C94D5020C94D5020C94D50253
:1001D0000C94D5020C94D5020C94D5020C94D50243
:1001E0000C94D5020C94D5020C94D5020C94D50233
:1001F0000C94D5020C94C2290C948F2AAD0CBC0C23
:10020000CB0CDA0CE80CF70C060D140D210D300D9B
:100210003F0D4E0D6716761685169416A216B1166A
:10022000C016CE16DB16EA16F9160817C017C01747
:10023000C017C017C017C017C017C017C017C01706
:10024000C017C017C017C017C017C017C017C017F6
:10025000C017C017BE17BE17BE17BE17BE17BE17F2
:10026000BE17BE17BE17BE17BE17BE17BE17BE17E6
:10027000BE17BE17BE17BE17BE17BE17C217C217CE
:10028000C217C217C217C217C217C217C217C217A6
:10029000BC17BC17BC17BC17BC17BC17BC17BC17C6
:1002A000BC17BC17C217C217C217C217C217C21792
:1002B000C217C217C217C217C217C217C217C21776
:1002C000C217C217C217C217C217C217BA17BA1776
:1002D000BA17BA17BA17BA17BA17BA17BA17BA1796
:1002E000BA17BA17BA17BA17BA17B817B817B8178C
:1002F000B817B817B817B817B817B817B817B81786
:10030000B817B817B817B817B617B617B617B6177D
:10031000B617B617B617B617B617B617B617B61775
:10032000B617B617B617B617B617B617B617B61765
:10033000B417B417B417B417B417B417B417B41765
:10034000B417B417B217B217B217B217B217B21761
:10035000B217B217B217B217B217B217B217B21755
:10036000B217B217B217B217B217B217B217B21745
:10037000B217B217B217B217B217B217B217B21735
:10038000B017B017B017B017B017AE17AE17AE173B
:10039000AE17AE17AC17AC17AC17AC17AC17AA1743
:1003A000AA17AA17AA17AA17C417C417C417C417DD
:1003B000C417C41727242A242D2430243324362498
:1003C00039240C9419170C94AA170C94511A0C94F4
:1003D0006D130C942A240C9467160C94B1160C948B
:1003E00005040C94DB160C94EA140C949F1A0C94DC
:1003F0005F0D0C94CE160C942D240C94681F0C9455
:10040000CD170C9406120C94A2160C943F0D0C946C
:10041000F70C0C948F1C0C94F7030C9498130C9409
:1004200039240C94BC170C943D0C0C94B4170C9408
:1004300094160C9408170C94DA030C9485030C940E
:10044000521B0C94CF140C941F120C9466140C9431
:10045000F9160C9475030C94210D0C944E0D0C940C
:100460006B1B0C94BE170C94161A0C94060D0C946E
:10047000CB0C0C9485160C9436140C946C140C94C0
:10048000471A0C94710B0C94C31C0C94AC170C946D
:10049000300D0C94EA160C94B2170C9481030C9452
:1004A000C6170C94D5140C94B6170C9430240C94E5
:1004B00027100C94FE030C9477180C945B030C9497
:1004C000551A0C94BC0C0C9436240C94531A0C94AE
:1004D00020040C94140D0C9413130C94E5130C9439
:1004E00068120C9423040C94411A0C94E80C0C949C
:1004F00099170C94AE170C94C0160C9404140C9419
:10050000AF030C9465030C9429100C94AD0C0C945F
:10051000C21B0C94C2170C9427240C94CF0E0C947D
:100520004E140C94B8170C940C040C947A140C947C
:10053000B0170C9476160C941A040C94DA0C0C94E4
:10054000F3030C94C0170C94530B0C94BA170C942F
:1005500033240C9413040C94F1140C94C417112438
:100560001FBECFEFCDBFDFE3DEBF00E00CBF18BE84
:1005700019BE1ABE1BBE13E2A0E0B0E2E8E3F2E649
:1005800000E00BBF02C007900D92A43BB107D9F762
:100590001BBE26E2A4EBB3E201C01D92A736B20750
:1005A000E1F70E9427190C941A310C9400003BB714
:1005B0008BBFFB0186913BBF08953BB78BBFFB010F
:1005C000879196913BBF089542E070C041E06EC0B4
:1005D0008093C00188278093C1018093C20147E0C6
:1005E00055D0CB0108958093C40148E04FC080915D
:1005F000D00108953BB748E10D9400003BB74AE1B4
:100600000D9400003BB740E20D9400003BB78BBF58
:10061000CB0142E20D9400003BB70B0143E20D9485
:1006200000003BB78BBFCB0144E20D9400003BB709
:100630008BBFCB0145E20D9400003BB746E20D9421
:1006400000003BB78BBFCB014AE20D9400003BB7E3
:100650008BBFCB014CE20D9400003BB78BBFCB01AD
:100660004DE20D94000048E311C049E30FC028EDAE
:100670002093340021E02093CC0108952091CF01F4
:1006800027FDFCCF22272093CA0108954093CA0179
:1006900028ED31E0209334003093CB016091C40108
:1006A0007091C5018091C60199270895FC0140937E
:1006B000CA01849108952FEF8DE399E42150804081
:1006C0009040E1F700C000000895009769F020E035
:1006D00030E0EFE6F7E13197F1F700C000002F5F5F
:1006E0003F4F82179307A9F70895BC0180EA99E06C
:1006F0000E94EC0962E573E280EA99E00E949409A5
:1007000008959195819591090895CF92DF92EF9286
:10071000FF929B016C01092E000CEE08FF08AB0153
:10072000770F660B770B4C0D5D1D6E1D7F1D411500
:10073000E0E85E076105710544F4411550486F4FCC
:100740007F4F34F0820F931F05C08FEF9FE702C0E9
:1007500081E090E8FF90EF90DF90CF900895CF92E6
:10076000DF92EF92FF929B01AC01092E000C660B09
:10077000770B6901032E000CEE08FF084C195D0988
:100780006E097F094115E0E85E076105710544F4D3
:10079000411550486F4F7F4F34F0821B930B05C0BB
:1007A0008FEF9FE702C081E090E8FF90EF90DF902D
:1007B000CF9008959C01DB010E94E830611520E88C
:1007C0007207810591054CF4611520E872072FEF3F
:1007D000820792072CF0CB0108958FEF9FE70895D1
:1007E00081E090E808950E948A30CB01089521E0CD
:1007F0008617970709F020E0822F089521E06817F7
:1008000079070CF020E0822F089521E086179707E2
:100810000CF020E0822F089521E0861797070CF452
:1008200020E0822F089521E0681779070CF420E07A
:10083000822F0895811102C0862F089581E00895C6
:100840008111862F08958627089590ED980F9A308C
:1008500060F09FEB980F963010F4875308959FE94E
:10086000980F963020F487550895892F08958FEFBB
:100870000895CF93DF93D62F0E942504C82F8D2F84
:100880000E94250490E1C99F90011124822BDF91E1
:10089000CF910895F89488ED84BF83E08093800021
:1008A000FFCFEF92FF920F931F93CF93DF93E82E2A
:1008B000EB018901413071F580910220811128C03E
:1008C000809100209091012090588F3F9F47B0F079
:1008D0006CEB70E280EA99E00E949409609100203C
:1008E0007091012080EA99E00E94EC096DEC70E2C1
:1008F00080EA99E00E9494090E944A040E943E0303
:10090000609100207091012080E090E00E94170328
:100910000E944A04411156C0882309F453C0F12CA7
:100920008091002090910120AC01452F55274695DC
:100930009E01232F332726954217530741F120911B
:100940000220211124C090588F3F9F47B0F06CEBDC
:1009500070E280EA99E00E94940960910020709111
:10096000012080EA99E00E94EC096DEC70E280EAD7
:1009700099E00E9494090E944A040E943E036091FB
:1009800000207091012080E090E00E9417030E94F7
:100990003E03F801EF0DF11D618170E0762F6627AF
:1009A0008081682BCE0191700E940C03109202206E
:1009B000C0930020D09301202296F394F394FE1468
:1009C00008F4AECFDF91CF911F910F91FF90EF9080
:1009D00008955F926F927F928F929F92AF92BF9293
:1009E000CF92DF92EF92FF920F931F93CF93DF93FB
:1009F000CDB7DEB76097CDBFDEBF5C01F894FC01D8
:100A0000628181810E943904782EF501648183819D
:100A10000E943904582EF501668185810E943904AF
:100A2000E82EF501608587810E943904682EF72C35
:100A3000F50CFE0CF80E7720F9F08501075F1F4FCB
:100A4000CE0101966C0188248A94870C912C880C25
:100A5000991C9BE0890E911C8A0C9B1CF8016181FA
:100A600080810E943904F80EF60181936F010E5FB8
:100A70001F4F0815190591F7E72DF0E03596EE0F99
:100A8000FF1FEA0DFB1DDF01119760818C910E9411
:100A900039048F0D41F066EE70E280EA99E00E9421
:100AA00094090E944A046AE171E280EA99E00E9496
:100AB0009409472D440F455FB50180EA99E00E94F3
:100AC000B0096E2D70E075299E012F5F3F4F462DB6
:100AD000872D0E9451046096CDBFDEBFDF91CF917C
:100AE0001F910F91FF90EF90DF90CF90BF90AF904C
:100AF0009F908F907F906F905F900895CF93DF933A
:100B0000CDB7DEB7E297CDBFDEBFCE0101966C0157
:100B10007E0193E3E90EF11C860180EA99E00E94D0
:100B20006C0998012C193D09F80181938F018A30D5
:100B300041F4E2E0F0E0EC0FFD1FE20FF31F108242
:100B400003C0EE15FF0549F7C6010E94E904E4CF92
:100B50000F931F93CF93DF93C0E1D7E280EA99E030
:100B60000E948E0981110CC080E894E00E947D07EC
:100B7000811122C086EF8A95F1F7219779F71CC081
:100B8000C7E2D1E20BE211E280EA99E00E946C092F
:100B90009991891311C0C017D107B1F780EA99E084
:100BA0000E946C09853541F46CE271E280EA99E0BB
:100BB0000E9494090E947E05DF91CF911F910F91B1
:100BC00008950F931F93CF93DF93CDB7DEB7E297CE
:100BD000CDBFDEBF8C0169E471E280EA99E00E943A
:100BE000940942E3BE016F5F7F4F80E894E00E946A
:100BF00089078981833711F4F801199589818A332E
:100C000039F063E571E280EA99E00E9494090BC033
:100C100061E771E280EA99E00E949409CE010196B1
:100C20000E94E904D8CFE296CDBFDEBFDF91CF911D
:100C30001F910F91089581E58093C0080895FC01EC
:100C4000638392819923ECF78381089521E030E05A
:100C500002C0220F331F6A95E2F7FC012583FAE0F8
:100C6000FA95F1F700C0089521E030E002C0220FAC
:100C7000331F6A95E2F7FC012683FAE0FA95F1F753
:100C800000C008951F93CF93DF93EC01162F642FBC
:100C90000E941F06612FCE010E941F0660E0CE0158
:100CA0000E941F06DF91CF911F9108950F931F930C
:100CB000CF93DF93EC01062F142F622F0E941F06A3
:100CC000602FCE010E941F06612FCE010E941F06D9
:100CD000DF91CF911F910F910895FC01DA011A96CF
:100CE0009C9191FF04C0309749F0199508956115C2
:100CF000710521F0FA018485FB01199508951F9271
:100D00000F920FB60F92112408B60F9218BE09B6B3
:100D10000F9219BE0BB60F921BBE2F933F934F93AA
:100D20005F936F937F938F939F93AF93BF93EF9353
:100D3000FF936091BD237091BE2340E854E0809101
:100D4000C5239091C6230E946D06FF91EF91BF913C
:100D5000AF919F918F917F916F915F914F913F9153
:100D60002F910F900BBE0F9009BE0F9008BE0F90F1
:100D70000FBE0F901F9018951F920F920FB60F92F3
:100D8000112408B60F9218BE09B60F9219BE0BB601
:100D90000F921BBE2F933F934F935F936F937F935D
:100DA0008F939F93AF93BF93EF93FF936091BB2378
:100DB0007091BC2340E954E08091C3239091C423F7
:100DC0000E946D06FF91EF91BF91AF919F918F911E
:100DD0007F916F915F914F913F912F910F900BBE3B
:100DE0000F9009BE0F9008BE0F900FBE0F901F907E
:100DF00018951F920F920FB60F92112408B60F92FA
:100E000018BE09B60F9219BE0BB60F921BBE2F93D8
:100E10003F934F935F936F937F938F939F93AF9382
:100E2000BF93EF93FF936091B9237091BA2340EA87
:100E300054E08091C1239091C2230E946D06FF91DE
:100E4000EF91BF91AF919F918F917F916F915F9142
:100E50004F913F912F910F900BBE0F9009BE0F90B5
:100E600008BE0F900FBE0F901F9018951F920F9203
:100E70000FB60F92112408B60F9218BE09B60F9242
:100E800019BE0BB60F921BBE2F933F934F935F93E8
:100E90006F937F938F939F93AF93BF93EF93FF9342
:100EA0006091B7237091B82340EB54E08091BF2349
:100EB0009091C0230E946D06FF91EF91BF91AF9179
:100EC0009F918F917F916F915F914F913F912F9162
:100ED0000F900BBE0F9009BE0F9008BE0F900FBE73
:100EE0000F901F901895FC018EE1808780858062AD
:100EF00080878085806C80870895FC01228526FF8D
:100F000006C082858695817091E08927089580E0EA
:100F10000895FC011092B5231092B6231092B423C9
:100F200080E4828750E020E8828586FF04C081E06B
:100F30008093B4231BC082858823B4F78091B523A6
:100F40009091B623481759078CF08091B523909162
:100F5000B623DC011196A093B523B093B623348554
:100F6000DB01A80FB91F3C932287DECF8091B42309
:100F70000895FC01828586FFFDCF828581FF25C013
:100F80008285806C8287648781858B7F818781855C
:100F9000826081878285882374F4828583FD03C003
:100FA000828582FFF7CF8285846082878285806C0C
:100FB000828780E0089580E58A95F1F7828586FF33
:100FC000DFCF828580FDDCCF02C080E0089582857E
:100FD000806C828781E00895603924E0720791F087
:100FE00024F46038744049F01CC0603A24E0720771
:100FF00071F0603B744081F014C08093C5239093DE
:10100000C62308958093C3239093C42308958093A7
:10101000C1239093C22308958093BF239093C0234C
:101020000895FFCF603924E0720791F024F460380E
:10103000744049F01CC0603A24E0720771F0603BD4
:10104000744081F014C08093BD239093BE23089513
:101050008093BB239093BC2308958093B9239093EE
:10106000BA2308958093B7239093B8230895FFCFB0
:101070008F708A3010F0895C0895805D08954F92DA
:101080005F926F927F928F929F92AF92BF92EF92F8
:10109000FF920F931F93CF937C014A015B012801BC
:1010A0003901FC01848182FF16C0D901C80168940E
:1010B00012F8B695A795979587951694D1F7B9012B
:1010C000A801032E36E176956795579547953A9591
:1010D000D1F7302D15C0D901C801689413F8B69521
:1010E000A795979587951694D1F7B901A801032E76
:1010F00037E176956795579547953A95D1F7302D15
:1011000088159905AA05BB0508F4A6C0841695069E
:10111000A606B70608F4A2C0F701848182FD04C0C8
:10112000880C991CAA1CBB1CC301B201A501940127
:101130000E949E302F3F31054105510508F490C0B3
:101140008FEF90E0A0E0B0E0C9EF05C028173907A5
:101150004A075B0758F0880F991FAA1FBB1FCD3F96
:101160000CF48160CF5FC73089F74FC0CC230CF0FF
:101170004CC0D501C401880F991FAA1FBB1F880F3F
:10118000991FAA1FBB1F880F991FAA1FBB1F481AB0
:10119000590A6A0A7B0ACE3FF4F48DEF9FEF8C1B4D
:1011A0009109C7FD939504C0440C551C661C771C1F
:1011B0008A95D2F7D501C401B695A79597958795DD
:1011C000BC01CD01640D751D861D971DA5019401FF
:1011D0000E949E3037C083E08C0FA501940104C0AB
:1011E000220F331F441F551F8A95D2F7DA01C90118
:1011F000B695A79597958795BC01CD01640D751D92
:10120000861D971D0E949E301DC083E08C0FA50196
:10121000940104C0220F331F441F551F8A95D2F733
:10122000DA01C901B695A79597958795BC01CD01BF
:10123000640D751D861D971D0E949E302150310939
:1012400041095109832F8F70C295C07FC82BF701C8
:10125000C783268381E018C080E016C080E014C0F8
:10126000D501C401880F991FAA1FBB1F880F991FA2
:10127000AA1FBB1F880F991FAA1FBB1F481A590A14
:101280006A0A7B0AC9EF89CFCF911F910F91FF9016
:10129000EF90BF90AF909F908F907F906F905F90F6
:1012A0004F9008950F931F93CF93DF93EC010E940B
:1012B0003F088FE59AEE0197F1F700C0000088E142
:1012C0008C83DF91CF911F910F910895FC01918143
:1012D00095FFFDCF60830895FC0191819923ECF780
:1012E00080810895FC016115710599F08181882341
:1012F00034F020E030E005C09181992314F480811E
:10130000089588E08A95F1F72F5F3F4F62177307C2
:1013100099F781E0FA01808380E00895FC018181E2
:10132000881F8827881F0895EF92FF920F931F93BD
:10133000CF93FB016081662369F08F017C01C0E0DF
:10134000C7010E946609CF5FF801EC0FF11D6081B3
:101350006111F6CFCF911F910F91FF90EF900895FB
:10136000EF92FF920F931F93CF93DF93442381F06B
:101370007C01EB014150042F10E00F5F1F4F060F5F
:10138000171F6991C7010E946609C017D107C9F7E5
:10139000DF91CF911F910F91FF90EF9008951F93D0
:1013A000CF93DF93EC01162F66E771E20E94940958
:1013B000812F82958F700E943808682FCE010E947D
:1013C0006609812F0E943808682FCE010E946609A5
:1013D000DF91CF911F9108950F931F93CF93DF93C8
:1013E0008C01EB01DD2334F4D195C195D1096DE277
:1013F0000E946609CE0160E177E20E948A3066238E
:1014000031F0605DC8010E94660921E001C020E062
:10141000CE0168EE73E00E948A30CB016AE070E092
:101420000E948A30882381F060E3680FC8010E941F
:101430006609CE0164E670E00E948A30CB016AE062
:1014400070E00E948A300EC0CE0164E670E00E9417
:101450008A30CB016AE070E00E948A30811102C0BC
:101460002223F9F060E3680FC8010E9466092AE0B0
:1014700030E0CE01B9010E948A30CB01B9010E944F
:101480008A3060E3680FC8010E946609CE016AE0F5
:1014900070E00E948A3060E3680FC8010E9466090C
:1014A0000DC02AE030E0CE01B9010E948A30CB01A4
:1014B000B9010E948A30882349F3E3CFDF91CF91AD
:1014C0001F910F910895FC01818185FB882780F988
:1014D000089590E00E94B31E08950E94F41C882392
:1014E000E1F30E944D1D0895EF92FF920F931F9319
:1014F000CF93DF938C017B01892B81F0C0E0D0E09A
:101500000E94F41C882319F00E944D1D0BC088E036
:101510008A95F1F721960C171D0791F781E0F701E5
:10152000808380E0DF91CF911F910F91FF90EF902A
:1015300008950E94601E08950F931F93CF93FC019E
:101540008081882361F08F01C0E090E00E94B31E8B
:10155000CF5FF801EC0FF11D80818111F6CFCF91A3
:101560001F910F9108950F931F93CF93DF936623DD
:1015700079F0EC016150062F10E00F5F1F4F080F4C
:10158000191F899190E00E94B31EC017D107C9F7B7
:10159000DF91CF911F910F910895CF93C82F86E7C8
:1015A00091E20E949C0A8C2F82958F700E943808CD
:1015B00090E00E94B31E8C2F0E94380890E00E9499
:1015C000B31ECF910895CF93DF93EC0199233CF4A0
:1015D000D195C195D1098DE290E00E94B31ECE0154
:1015E00060E177E20E948A30662339F080E3860F5B
:1015F00090E00E94B31E21E001C020E0CE0168EE21
:1016000073E00E948A30CB016AE070E00E948A3069
:10161000882379F0805D90E00E94B31ECE0164E6DD
:1016200070E00E948A30CB016AE070E00E948A304C
:101630000EC0CE0164E670E00E948A30CB016AE001
:1016400070E00E948A30811102C02223E1F0805DA7
:1016500090E00E94B31E2AE030E0CE01B9010E9462
:101660008A30CB01B9010E948A30805D90E00E94EF
:10167000B31ECE016AE070E00E948A30805D90E087
:101680000E94B31E0DC02AE030E0CE01B9010E94D5
:101690008A30CB01B9010E948A30882351F3E5CF0B
:1016A000DF91CF9108950F931F93CF93DF931F92F4
:1016B000CDB7DEB769E771E280EA99E00E9494094C
:1016C000198200EB1AE028E041E0BE016F5F7F4F16
:1016D0008CE40E94A6120F90DF91CF911F910F9181
:1016E0000895CF938091C923882329F0C091C823FE
:1016F000C11106C00AC0C091C723C11104C005C0F2
:101700000E94530B02C00E94530B8C2FCF9108955F
:101710009091C92398130FC0992331F081E08093F1
:10172000C8231092C72305C01092C82381E080937C
:10173000C7230E94530B0895CF93DF93E0E2F7E0B5
:1017400080818F7E808380818F7D8083E5E3F7E0D9
:10175000D8E1D083C2E0C08369E971E280EA99E010
:101760000E949409E4E3F7E0D083C08361EB71E267
:1017700080EA99E00E949409EAE2F7E080818061C2
:101780008083808180628083E9E2F7E080818160EC
:101790008083DF91CF910895EAE2F7E08081806154
:1017A0008083808180628083E4E3F7E080818260CF
:1017B0008083E5E3F7E0808182608083E9E2F7E0FF
:1017C00080818160808308959091280794FD19C0DD
:1017D00081111CC048C0811121C01CC09091C72339
:1017E00091110DC01FC0811143C025C0882359F13C
:1017F00026C08091280785FD2CC080E0089580E0F8
:1018000008959091280795FFE6CF08C081E0809366
:10181000C82327C081E08093C72323C09091C823A9
:101820009111DCCF9091280794FFDDCF909128078C
:1018300095FFDCCF08C081E08093C8230EC081E013
:101840008093C7230AC08091280784FDD2CF80E00F
:1018500008951092C8231092C7230E94CC0B81E0F8
:10186000089580E008959091280795FFD3CFD6CFB3
:101870008091280785FFE3CFE6CFEF92FF920F9389
:101880001F93CF93DF93CDB7DEB72897CDBFDEBFD1
:10189000182F8093C9230E94E40B882361F167EC21
:1018A00071E280EA99E00E949409EE24E394F12E1B
:1018B000FE24F88600EB1AE028E041E0BE01685FF4
:1018C0007F4F8AE40E94A612BE016F5F7F4F87E0C0
:1018D000FB0111928A95E9F783E0898386E68A8382
:1018E0008FEF8B838C83EE82EF82FD8228E047E0CE
:1018F00086E40E94A6122896CDBFDEBFDF91CF916D
:101900001F910F91FF90EF900895611103C0809394
:1019100022070895613011F480932107089566230A
:1019200019F08093250708958093260708959091D4
:101930002807982381E009F480E00895282F862F56
:1019400090E0FC013197EC30F10508F0B6C0882733
:10195000E250FF4F8F4F0C94DF30222321F080E8BC
:101960008093250703C080E880932607809128078D
:10197000881F8827881F0895222321F080E4809300
:10198000250703C080E4809326078091280786FB03
:10199000882780F90895222321F080E2809325078B
:1019A00003C080E2809326078091280785FB882763
:1019B00080F90895222321F080E18093250703C058
:1019C00080E1809326078091280782958170089591
:1019D000222321F088E08093250703C088E08093CC
:1019E00026078091280783FB882780F90895222302
:1019F00021F084E08093250703C084E080932607CC
:101A00008091280782FB882780F90895222321F0FE
:101A100082E08093250703C082E0809326078091AF
:101A20002807869581700895222321F081E0809314
:101A3000250703C081E080932607809128078170E5
:101A40000895222321F080E88093050703C080E8F1
:101A50008093060780910807881F8827881F0895AC
:101A6000222321F080E48093050703C080E4809363
:101A700006078091080786FB882780F908952223AE
:101A800021F080E88093E50603C080E88093E606B5
:101A90008091E806881F8827881F0895222321F057
:101AA00080E48093E50603C080E48093E60680919D
:101AB000E80686FB882780F9089580E00895089558
:101AC00021E08617970709F020E0822F08950F93F1
:101AD0001F93E0E0F7E090819F7B9083E0EEF6E0DB
:101AE0009081906C9083813059F018F0823079F0B9
:101AF00014C0E6EEF6E080E8808380E480830DC0C9
:101B0000E5EEF6E080E8808380E4808306C080E82C
:101B10008093E60680E48093E50600E117E220E08A
:101B200030E040E060E480E097E00E94700FCB017D
:101B30001F910F910895FF920F931F93CF93DF93FF
:101B4000F82E062F142F82958F700E943808C3E05C
:101B5000D0E289838F2D0E9438088A83802F829556
:101B60008F700E9438088B83802F0E9438088C83E6
:101B7000812F82958F700E9438088D83812F0E945B
:101B800038088E838FE295E70197F1F700C00000D7
:101B9000CE01DF91CF911F910F91FF900895803872
:101BA00010F08FEF089580E00895009769F1633099
:101BB00098F4A0E0B0E09C01AD012C573109410937
:101BC0005109AFEFB0E00E94063122E93FEF4FEF3D
:101BD0005FEF0E94C03004C020E030E040E050E001
:101BE000822F932FA42FB52FBB231CF480E090E00D
:101BF000DC018F3F9105A105B10539F034F08FEF7D
:101C000090E0A0E0B0E0089580E008950F931F9366
:101C1000062F662381F0E82FF92F80E040E050E0A6
:101C2000BA01A191B1914A0F5B1F611D711D8F5FB8
:101C30000813F7CF03C040E050E0BA0110E020E005
:101C400030E0CB01BA01A90198010E949E30C90180
:101C50001F910F910895442349F08617970741F487
:101C600080E08F5F4813FDCF81E0089581E0089503
:101C700080E00895FC013081332389F1319660E0E2
:101C800070E0CB0120ED230F2A3078F02FE9230FED
:101C9000263018F429EA230F08C02FEB230F263033
:101CA00018F429EC230F01C0232FDC01CB01880F8E
:101CB000991FAA1FBB1F880F991FAA1FBB1F880F40
:101CC000991FAA1FBB1F880F991FAA1FBB1F2F7028
:101CD000BC01CD01622B31913111D4CF089560E068
:101CE00070E0CB010895CF93DF9300D0CDB7DEB77E
:101CF0001B82FC018181928189839A83CE010196A6
:101D00000E943A0E862F2396CDBFDEBFDF91CF9182
:101D10000895CF93DF9300D0CDB7DEB71B82FC01CF
:101D20008381948189839A83CE0101960E943A0E21
:101D3000862F2396CDBFDEBFDF91CF910895CF933D
:101D4000DF9300D0CDB7DEB71B82FC018581968181
:101D500089839A83CE0101960E943A0E862F23969C
:101D6000CDBFDEBFDF91CF9108950F931F93CF9327
:101D70008C010E94730E882311F0C4E001C0C0E002
:101D8000C8010E94890E8111C260C8010E949F0E85
:101D90008111C1608C2FCF911F910F910895AF9247
:101DA000BF92CF92DF92FF920F931F93CF93DF9357
:101DB000CDB7DEB72D97CDBFDEBF5E018BE0A80E9D
:101DC000B11CF12C65018E010F5F1F4F8F2D0E94FA
:101DD000670DF801819391938F01EC15FD05B1F723
:101DE00065E0CE0101960E94060E6F2D0E94D50D72
:101DF0000E94CF0DF50181935F01F394F3E0FF1290
:101E0000E2CF65EE71E280EA99E00E949409FD84D8
:101E10000C851B854F2D602F812F0E949B0DBC01CF
:101E200080EA99E00E9494096BEB72E280EA99E003
:101E30000E9494094F2D602F812F0E949B0D0E94BC
:101E4000B50E90E02D96CDBFDEBFDF91CF911F91F3
:101E50000F91FF90DF90CF90BF90AF9008954F9279
:101E60005F926F927F92AF92BF92CF92DF92EF928A
:101E7000FF920F931F93CF93DF93CDB7DEB7290166
:101E80003A019B01AC0124193509460957098A8991
:101E90009B89AC89BD89BC01CD016A197B098C097C
:101EA0009D090E946630A801970124193509460949
:101EB00057090E94C030CA01B9016A0D7B1D8C1DF3
:101EC0009D1DDF91CF911F910F91FF90EF90DF90BB
:101ED000CF90BF90AF907F906F905F904F9008959C
:101EE0008F929F92AF92BF92CF92DF92EF92FF922A
:101EF0000F931F93FC01862F442311F0A62F01C0DE
:101F0000A0E0B901A801440F551F661F771F040FF9
:101F1000151F261F371F36952795179507953F7074
:101F200040E050E0BA0190859823A91310C06A01DF
:101F30007B019FEFC91AD90AE90AF90A04171507A4
:101F40002607370709F469C0B701A601ECCF9085D1
:101F50009823A91308C090859823A917A1F0C12C34
:101F6000D12C76012FC06A017B019FEFC91AD90AD3
:101F7000E90AF90A041715072607370709F451C0BB
:101F8000B701A601E4CF401751076207730709F4B0
:101F90004CC0C12CD12C76010CC04A015B018C0CC9
:101FA0009D1CAE1CBF1C081519052A053B0509F42C
:101FB00040C09FEFC91AD90AE90AF90A9085982307
:101FC000A91759F3B701A601440F551F661F771FC4
:101FD000440F551F661F771FDB01CA01880F991F29
:101FE000AA1FBB1F880F991FAA1FBB1F840F951F15
:101FF000A61FB71F8C0D9D1DAE1DBF1DBC01CD01C1
:10200000605F7F4F8F4F9F4F28E130E040E050E00E
:102010000E949E30CA01B9010FC060E070E0CB01A0
:102020000BC060E070E0CB0107C060E070E0CB0166
:1020300003C060E070E0CB011F910F91FF90EF9023
:10204000DF90CF90BF90AF909F908F90089580E0E9
:1020500008950F931F93CF93DF931F92CDB7DEB7F1
:10206000198200EB1AE027E041E0BE016F5F7F4F6D
:102070008CE40E94A6120F90DF91CF911F910F91D7
:1020800008958091280786FD0EC06DEE71E280EA0A
:1020900099E00E9494090E94291081E08093CB234B
:1020A0001092CA23089580912807882374F06DEE5A
:1020B00071E280EA99E00E9494090E94291010922E
:1020C000CB2381E08093CA2308956EE172E280EA17
:1020D00099E00E9494091092CB231092CA2308958C
:1020E00081E08093CB231092CA230E942910089587
:1020F0001092CB2381E08093CA230E942910089577
:10210000E0E2F7E09081282F209592239083908140
:10211000262F209592239083883029F138F482303D
:10212000B1F08430D1F08130D9F50BC0803239F173
:1021300018F48031F1F034C0803439F1803859F12D
:102140002FC0E0E3F7E080818861808329C0E1E36C
:10215000F7E080818861808323C0E2E3F7E080813B
:10216000886180831DC0E3E3F7E08081886180831C
:1021700017C0E4E3F7E080818861808311C0E5E364
:10218000F7E08081886180830BC0E6E3F7E080811F
:102190008861808305C0E7E3F7E080818861808300
:1021A000683029F138F46230B1F06430D1F0613038
:1021B000D9F50BC0603239F118F46031F1F00895AF
:1021C000603439F1603859F10895E0E3F7E0808137
:1021D000886180830895E1E3F7E0808188618083EE
:1021E0000895E2E3F7E08081886180830895E3E366
:1021F000F7E08081886180830895E4E3F7E08081DF
:10220000886180830895E5E3F7E0808188618083B9
:102210000895E6E3F7E08081886180830895E7E32D
:10222000F7E08081886180830895EBE2F7E0908198
:10223000982B90839081692B6083843009F128F476
:10224000813041F0823089F03BC0883021F180310B
:1022500069F136C0E0E3F7E0808182608083E1E3EA
:10226000F7E08081826080832BC0E1E3F7E080812A
:1022700082608083E2E3F7E080818260808320C017
:10228000E2E3F7E0808182608083E3E3F7E080812E
:102290008260808315C0E2E3F7E080818260808302
:1022A000E4E3F7E08081826080830AC0E2E3F7E044
:1022B000808182608083E5E3F7E0808182608083B3
:1022C000E9E2F7E0808184608083089560E880E43B
:1022D0000E9480102FE782E392E0215080409040DE
:1022E000E1F700C000008091280786FD27C080919B
:1022F000CC23811128C022C08091CC23811127C01A
:1023000015C08091CA23811117C025C08091CC23AC
:1023100081110CC03AC08091CC23811129C024C006
:1023200080912807882354F180E0089560E880E4D4
:102330000E94151181E0089580E00895809128079A
:1023400086FFDACF04C081E08093CB231CC080914C
:10235000CB238111D6CF809128078823BCF68091AA
:1023600028078823C4F604C081E08093CA230BC0E9
:102370008091280786FDD4CF80E008951092CB236A
:102380001092CA23D3CF80E0089580912807882334
:102390005CF7EECFFF920F931F93CF93DF93CDB7F0
:1023A000DEB72897CDBFDEBFF82E0E9466118823C6
:1023B00021F1F092CC23F88600EB1AE027E041E00F
:1023C000BE01685F7F4F8AE40E94A612BE016F5F64
:1023D0007F4F87E0FB0111928A95E9F781E08F83B7
:1023E00089838CE28A8383E18B8388E88C83FD82F6
:1023F00027E047E086E40E94A6122896CDBFDEBF04
:10240000DF91CF911F910F91FF9008958091CB2381
:10241000882329F08091CA23882349F0089580E019
:102420000E94CA118091CB238823C9F3F3CF81E0A6
:102430000E94CA118091CA238823C9F30895DF92AC
:10244000EF92FF920F931F93CF93DF93CDB7DEB739
:102450002897CDBFDEBF8C010E946611882369F1E9
:102460000115110531F0EE24FF24E01AF10AD12CF8
:1024700004C0E12CF12CDD24D394D88600EB1AE0C3
:1024800027E041E0BE01685F7F4F8AE40E94A61208
:10249000BE016F5F7F4F87E0FB0111928A95E9F7DC
:1024A00081E08F83898380E98A83FB82EC82DD82ED
:1024B00027E047E086E40E94A6122896CDBFDEBF43
:1024C000DF91CF911F910F91FF90EF90DF900895D2
:1024D000DF92EF92FF920F931F93CF93DF93CDB7CD
:1024E000DEB72897CDBFDEBFF82EE62ED72E0E948E
:1024F0006611882301F1F88600EB1AE027E041E03D
:10250000BE01685F7F4F8AE40E94A612BE016F5F22
:102510007F4F87E0FB0111928A95E9F781E08F8375
:1025200089838CE28A83DB82EC82FD8227E047E0AC
:1025300086E40E94A6122896CDBFDEBFDF91CF9120
:102540001F910F91FF90EF90DF900895CF92DF924F
:10255000EF92FF920F931F93CF93DF93D82E7B01BF
:10256000D42FC22EF894CCEFC81BC41BC21B44232B
:1025700069F0FB012FEF240F30E02F5F3F4F260F54
:10258000371F8191C81BE217F307D9F76FEFC80116
:102590000E9466096FEFC8010E9466096C2DC80190
:1025A0000E94660963E06D0FC8010E94660960E041
:1025B000C8010E9466096D2DC8010E9466094D2F51
:1025C000B701C8010E94B0096C2FC8010E946609BA
:1025D0002FE782E392E0215080409040E1F700C075
:1025E00000007894DF91CF911F910F91FF90EF90B1
:1025F000DF90CF9008950F931F93CF93DF931F9297
:10260000CDB7DEB7262F898300EB1AE041E0BE018B
:102610006F5F7F4F8AE40E94A6120F90DF91CF91E7
:102620001F910F910895CF92DF92EF92FF920F9337
:102630001F93CF93DF93CDB7DEB72897CDBFDEBF13
:102640006230710561F020F461307105A9F039C084
:102650006330710541F06430710551F032C0689407
:10266000CC24C1F80BC00F2EF3E0CF2EF02D06C006
:102670006894CC24C2F802C0CC24C394D52EE42E96
:10268000F82E898300EB1AE02C2D41E0BE016F5F2C
:102690007F4F8AE40E94A612BE016E5F7F4F87E0E3
:1026A000FB0111928A95E9F78FEF8C838D8381E08E
:1026B0008887DA82EB82FE822C2D47E086E40E9436
:1026C000A6122896CDBFDEBFDF91CF911F910F914B
:1026D000FF90EF90DF90CF9008950F931F93CF93CB
:1026E000DF931F92CDB7DEB78230910551F018F419
:1026F000019769F017C08330910529F0049729F0FC
:1027000011C022E005C023E003C024E001C021E0A5
:10271000198200EB1AE041E0BE016F5F7F4F8CE44D
:102720000E94A6120F90DF91CF911F910F910895F3
:10273000CF92DF92EF92FF920F931F93CF93DF938D
:10274000CDB7DEB72897CDBFDEBF6130710541F050
:102750006230710571F50F2EF6E0CF2EF02D04C01A
:102760000F2EF5E0CF2EF02DD52EE42EF82E8983F6
:1027700000EB1AE02C2D41E0BE016F5F7F4F8AE431
:102780000E94A612BE016E5F7F4F87E0FB0111928F
:102790008A95E9F78FEF8C838D8382E08F8381E0C8
:1027A0008887DA82EB82FE822C2D47E086E40E9445
:1027B000A6122896CDBFDEBFDF91CF911F910F915A
:1027C000FF90EF90DF90CF9008950F931F93CF93DA
:1027D000DF931F92CDB7DEB78130910521F00297CC
:1027E00069F426E001C025E0198200EB1AE041E01F
:1027F000BE016F5F7F4F8CE40E94A6120F90DF91A5
:10280000CF911F910F9108950F931F93CF93DF9353
:10281000CDB7DEB72897CDBFDEBF198200EB1AE037
:102820002AE041E0BE016F5F7F4F8AE40E94A6125A
:10283000BE016E5F7F4F87E0FB0111928A95E9F739
:102840008FEF8C838D8381E0888783E08A8388EE95
:102850008B832AE047E086E40E94A6122896CDBF2B
:10286000DEBFDF91CF911F910F9108950F931F93BA
:10287000CF93DF931F92CDB7DEB7198200EB1AE03A
:102880002AE041E0BE016F5F7F4F8CE40E94A612F8
:102890000F90DF91CF911F910F9108950F931F9388
:1028A000CF93DF931F92CDB7DEB7698300EB1AE0B9
:1028B000282F41E0BE016F5F7F4F85E00E94A61286
:1028C0000F90DF91CF911F910F910895E7EEF6E001
:1028D0008081806380830895882331F0E6EEF6E0FE
:1028E0008081806380830895E5EEF6E080818063D7
:1028F00080830895CF93DF93D82FC62F65E572E2CA
:1029000080EA99E00E949409C33049F128F4C1306B
:10291000D1F1C23071F140C0C53069F0B0F0C630BD
:10292000D9F5DD2321F082E08093E50735C082E010
:102930008093E60731C0DD2321F081E08093E50735
:102940002BC081E08093E60727C0DD2321F088E0DB
:102950008093C50721C088E08093C6071DC0DD2392
:1029600021F084E08093C50717C084E08093C607F8
:1029700013C0DD2321F082E08093C5070DC082E003
:102980008093C60709C0DD2321F081E08093C5074D
:1029900003C081E08093C607DF91CF910895982FFF
:1029A000862F692F0E947A140895CF93C82F682F1D
:1029B00081E00E947A142FEF85EA9EE0215080404A
:1029C0009040E1F700C000006C2F80E00E947A1474
:1029D000CF9108956091CE2380E894E00E94B907DA
:1029E00008956091CD2380E894E00E94B90708958E
:1029F000009709F45CC1803C910529F460E180E016
:102A00000E941E2C0895803424E0920729F468E087
:102A100080E00E941E2C0895811524E0920729F47D
:102A200064E080E00E941E2C0895803821E0920727
:102A300029F462E080E00E941E2C0895811521E0B7
:102A4000920729F461E080E00E941E2C08958038EE
:102A500023E0920729F461E081E00E941E2C089592
:102A6000803923E0920729F461E082E00E941E2C65
:102A70000895811522E0920729F462E081E00E9426
:102A80001E2C0895803422E0920729F462E082E04F
:102A90000E941E2C0895811523E0920729F464E01A
:102AA00081E00E941E2C0895803223E0920729F4D1
:102AB00064E082E00E941E2C0895811528E09207B0
:102AC00029F461E083E00E941E2C0895811529E01D
:102AD000920729F461E084E00E941E2C089581157C
:102AE0002AE0920729F461E085E00E941E2C0895F7
:102AF00081152BE0920729F461E086E00E941E2CEC
:102B00000895803428E0920729F462E083E00E946F
:102B10001E2C0895803429E0920729F462E084E0B5
:102B20000E941E2C089580342AE0920729F462E066
:102B300085E00E941E2C089580342BE0920729F432
:102B400062E086E00E941E2C0895803928E09207FA
:102B500029F464E083E00E941E2C0895803929E066
:102B6000920729F464E084E00E941E2C08958039C5
:102B70002AE0920729F464E085E00E941E2C089563
:102B800080392BE0920729F464E086E00E941E2C35
:102B90000895803C28E0920729F468E083E00E94D1
:102BA0001E2C0895803C29E0920729F468E084E017
:102BB0000E941E2C0895803C2AE0920729F468E0C8
:102BC00085E00E941E2C0895803C2BE0920729F49A
:102BD00068E086E00E941E2C0895803A28E0920763
:102BE00029F460E183E00E941E2C0895803A29E0D8
:102BF000920729F460E184E00E941E2C0895803A37
:102C00002AE0920729F460E185E00E941E2C0895D5
:102C1000803A2BE0920729F460E186E00E941E2CA6
:102C20000895803B28E0920729F460E283E00E9447
:102C30001E2C0895803B29E0920729F460E284E08D
:102C40000E941E2C0895803B2AE0920729F460E23E
:102C500085E00E941E2C0895803B2BE0920729F40A
:102C600060E286E00E941E2C0895803824E09207DE
:102C700029F460E483E00E941E2C0895803924E04A
:102C8000920729F460E484E00E941E2C0895803AA3
:102C900024E0920729F460E485E00E941E2C089548
:102CA000803B944021F460E486E00E941E2C08954D
:102CB000282F862F90E0FC013197EC30F10508F0C9
:102CC000B6C08827E65FFE4F8F4F0C94DF3022237B
:102CD00021F080E88093250703C080E880932607D1
:102CE00080912807881F8827881F0895222321F0B4
:102CF00080E48093250703C080E4809326078091B9
:102D0000280786FB882780F90895222321F080E296
:102D10008093250703C080E28093260780912807CF
:102D200085FB882780F90895222321F080E1809394
:102D3000250703C080E180932607809128078295AC
:102D400081700895222321F088E08093250703C035
:102D500088E0809326078091280783FB882780F9E5
:102D60000895222321F084E08093250703C084E0A6
:102D7000809326078091280782FB882780F9089591
:102D8000222321F082E08093250703C082E0809314
:102D9000260780912807869581700895222321F0C7
:102DA00081E08093250703C081E08093260780910E
:102DB000280781700895222321F080E88093050779
:102DC00003C080E88093060780910807881F882742
:102DD000881F0895222321F080E48093050703C013
:102DE00080E4809306078091080786FB882780F996
:102DF0000895222321F080E88093E50603C080E84F
:102E00008093E6068091E806881F8827881F08952A
:102E1000222321F080E48093E50603C080E48093C0
:102E2000E6068091E80686FB882780F9089580E011
:102E30000895682F81E00E9458160895AAECB1E029
:102E400022E02C93FC0184911C920895FC016330D4
:102E500089F028F4613041F0623049F01DC06430DF
:102E600061F0653069F018C088E081830BC080E1B3
:102E7000818308C088E1818305C080E2818302C02C
:102E800088E28183808180688083938190FFFDCF79
:102E900081E083838481089580E0089580960E9474
:102EA000261708950F931F93CF93DF93EC01C1155D
:102EB00082E0D80779F480B590E00E941E1700E008
:102EC00012E0F801848781B590E00E941E17F80196
:102ED000858714C0C034F2E0DF0779F484B590E050
:102EE0000E941E1700E412E0F801848785B590E087
:102EF0000E941E17F801858701C0FFCF82E08883FA
:102F000080E28A8384E089838C83888181608883DE
:102F100081E088A31092220261E0CE010E944E1748
:102F200061E0CE010E944E17DF91CF911F910F916A
:102F30000895682F80E092E00E944E1790E0FC0117
:102F4000FC97E43CF105F0F48827EA5EFE4F8F4FD2
:102F50000C94DF3085E0089587E0089588E00895B7
:102F600089E008958AE008958BE008958CE0089543
:102F70008DE008958EE0089580E1089584E108953C
:102F800089E108958EE1089584E00895682F80E036
:102F900092E00E944E1790E00895CF93DF93CDB753
:102FA000DEB72B97CDBFDEBF60E874E081EF94E120
:102FB0000E94EC070F2EF6EECF2EF6E0DF2EF02D5E
:102FC0000F2EF7E09F2EF02D5E0184E0A80EB11CBD
:102FD0000F2EFCE47F2EF02D0F2EF2E38F2EF02D1E
:102FE0000F2EF5EEEF2EF6E0FF2EF02D80E894E0A8
:102FF0000E947D078823D1F3F6018081806380835E
:1030000043E0BE016F5F7F4F80E894E00E94890734
:103010008FE697E10197F1F700C00000E0E8F4E0E7
:103020008285806C82878981811120C08B818B870A
:1030300000EB1AE02A8141E0BE01655F7F4F8AE420
:103040000E94A612F501892D11928A95E9F781E077
:103050008C837D828F8289878A878B8188872A816A
:10306000492DB50186E40E94A61208C0813031F4D2
:103070008A8190E00E94C6178093CD23F70180815A
:1030800080638083B3CF8FE38093020708958230FB
:10309000A9F028F4882349F0813059F026C0843003
:1030A000C9F090F08530D9F020C080910807817078
:1030B000089580910807869581700895809108078A
:1030C00082FB882780F908958091080783FB882771
:1030D00080F9089580910807829581700895809104
:1030E000080785FB882780F9089580E008950E94ED
:1030F000471808951F920F920FB60F92112408B629
:103100000F9218BE09B60F9219BE0BB60F921BBED6
:103110002F933F934F935F936F937F938F939F93DF
:10312000AF93BF93CF93EF93FF93E8E2F7E0C081B3
:10313000C071808185FD09C066E672E280EA99E08F
:103140000E94940980E00E94880BC11109C069E8BF
:1031500072E280EA99E00E94940981E00E94880B63
:10316000FF91EF91CF91BF91AF919F918F917F91FF
:103170006F915F914F913F912F910F900BBE0F90E8
:1031800009BE0F9008BE0F900FBE0F901F901895AC
:103190001F920F920FB60F92112408B60F9218BE0D
:1031A00009B60F9219BE0AB60F921ABE0BB60F924D
:1031B0001BBE2F933F934F935F936F937F938F9398
:1031C0009F93AF93BF93CF93DF93EF93FF93E8E287
:1031D000F7E0D081C081C0786AEA72E280EA99E0C3
:1031E0000E949409D6FD08C06DEB72E280EA99E076
:1031F0000E9494090E944110C11108C061EE72E260
:1032000080EA99E00E9494090E944110FF91EF9199
:10321000DF91CF91BF91AF919F918F917F916F91EE
:103220005F914F913F912F910F900BBE0F900ABE6F
:103230000F9009BE0F9008BE0F900FBE0F901F9009
:10324000189580E38093E1068093E6060895CF9277
:10325000DF92EF92FF920F931F93CF93DF9387E05C
:103260008093A20078940E94A32B0E94272080E8DC
:1032700094E00E94F81480EA99E00E94F81480EB30
:103280009AE00E94F81480E092E00E94F81480E82E
:1032900094E00E94730760E874E08AEE94E10E9473
:1032A000EC070E9446300E942119E12C00E016E351
:1032B0002EE631E040E052EC61E070E080EA99E017
:1032C0000E94520900E016E32EE631E04CEE50E990
:1032D00060E070E080EB9AE00E94520900E016E3A3
:1032E0002EE631E04CEE50E960E070E080EA9BE0D1
:1032F0000E94520980E38093850680E092E00E945C
:103300005217C1E0D0E0CE010E946D132196CC305F
:10331000D105C9F7C1E0D0E0CE010E94E5132196A6
:10332000CC30D105C9F70E9429100E94530B789424
:103330000E949C0B8FE38093020786E093E20E9439
:103340009C0A6CE073E280EA99E00E9494098CE0A8
:1033500093E20E949C0A0E94A8050F2EF0E2CF2E55
:10336000F1EADF2EF7E0EF2EF12CF02D80E894E06B
:103370000E947D07882321F08DEC97E10E94E105F2
:1033800088E08A95F1F781E0C81AD108E108F108D0
:1033900069F765E573E280EA99E00E9494096FE6B7
:1033A00073E280EA99E00E9494098FE693E20E941A
:1033B0009C0AE0E0F0E8E491EF3F91F466E873E204
:1033C00080EA99E00E94940986E893E20E949C0AB0
:1033D000C8E0D6E088818111FDCF0E944A04FACF6F
:1033E00081E08093CE2369E973E280EA99E00E944C
:1033F000940989E993E20E949C0A0C94004080E0C1
:1034000090E0DF91CF911F910F91FF90EF90DF90AF
:10341000CF900895E7EEF6E0808180618083089583
:10342000E7EEF6E080818062808308951092E424C4
:103430001092F0241092F124E6EEF4E281EA808307
:1034400080E28183128213821482158282E090E0EE
:103450008683978310861186E4EFF4E280E092EC95
:10346000A1E0B0E080839183A283B38314821582AC
:1034700088E086838091E4248F5F8093E42481E058
:1034800008958091E42481508093E42408958091EC
:10349000E32481508093E3248091E3241092E2247A
:1034A000089580E0089580E0089580915126882352
:1034B000CCF480768032B9F5809152268132A9F51C
:1034C0008091572690915826079789F5E1E5F6E215
:1034D00084EF94E28087918787E090E082879387EA
:1034E00081E008958076803221F5809152268032E5
:1034F00021F0823201F180E0089580915726909169
:1035000058260797D1F4E1E5F6E28FE99AE184873E
:10351000958784EF94E28087918787E090E08287A7
:10352000938781E0089580E0089580E0089580E029
:10353000089580E0089581E0089580E00895089559
:10354000FF920F931F93CF93DF931F92CDB7DEB7F8
:103550008091D22381119FC00E941E27882351F0A1
:103560000091D3231091D4230E942B270817190709
:1035700059F491C00091D3231091D4230E9426279F
:103580000817190709F487C08FB78983F894198140
:103590000091D523E02FF0E0EE0FFF1FEA52FC4D23
:1035A00080819181892B09F58091CF239091D0233F
:1035B00001968093CF239093D0230E941E278111E0
:1035C00007C08091CF239091D0238436910558F085
:1035D0000E941E27882349F08091CF239091D02309
:1035E0008032934010F41FBF56C01092CF23109228
:1035F000D0238091D123811106C081E0011180E0A8
:103600008093D52304C081E0011180E0082F81E080
:103610008093D2231FBF10E0F801EE0FFF1FEA5284
:10362000FC4D80819181FF24F3948034910509F44D
:10363000F12C8034910591F00E941E27882339F0E7
:103640000E942B278093D3239093D4230BC00E94F6
:1036500026278093D3239093D42304C01092D3239E
:103660001092D423F801EE0FFF1FEA52FC4D208187
:103670003181A801002456954795079456954795A2
:103680000794542F402D46525C4D02E51BE16F2DEF
:1036900081E80E9434280F90DF91CF911F910F9104
:1036A000FF900895811116C02091D52381E090E00C
:1036B000222311F080E090E0880F991FFC01EA526C
:1036C000FC4D108211821092D1231092D22380E0FF
:1036D0000E94A01A089580E00E94A01A08950F93F6
:1036E0001F938091F22481111FC02091F02430910A
:1036F000F1248091EE249091EF2428173907A1F04E
:10370000862F2091F0243091F1242093EE243093E1
:10371000EF2402EC1BE12AE030E046EE54E260E0E8
:103720000E9434288093F2241F910F910895CF9323
:10373000DF931F92CDB7DEB78FB78983F8942981C5
:10374000662359F08091F0249091F124482B592B55
:103750004093F0245093F1240CC08091F024909178
:10376000F12440955095482359234093F0245093D9
:10377000F1242FBF62E880E00E946F1B0F90DF9161
:10378000CF9108951092F2248091F0249091F12429
:1037900083788093F0249093F124E6EEF4E2808520
:1037A0009185837880879187642F80E00E946F1BCA
:1037B000089541E050E0682F80E00E94971B089533
:1037C00042E050E0682F80E00E94971B089540E19E
:1037D00050E061E080E00E94971B089540E250E0D5
:1037E00061E080E00E94971B089540E450E061E0B2
:1037F00080E00E94971B089541E050E00E94971BD3
:10380000089542E050E00E94971B089540E150E087
:1038100061E00E94971B089540E250E061E00E9441
:10382000971B089540E450E061E00E94971B0895C3
:10383000CF93DF931F92CDB7DEB78FB78983F8940C
:10384000498120915B2430915C24E0915D24F0E07B
:10385000EE0FFF1FE25AFB4D808191814FBF821B0B
:10386000930B0F90DF91CF91089580E00E94181C78
:1038700008950E94181C21E0892B09F420E0822F72
:1038800008950F931F93CF93DF931F92CDB7DEB7A9
:103890008FB78983F894998120915D2480915A246F
:1038A000811110C060915B2470915C24022F10E0A4
:1038B000F801EE0FFF1FE25AFB4D40815181641762
:1038C000750718F49FBF80E024C010925B2410920B
:1038D0005C2481E0211180E080935D2481E080936D
:1038E0005A249FBF80E00E94391CA80100245695ED
:1038F00047950794569547950794542F402D4E5958
:103900005B4D03EC1CE120E430E061E082E00E94CA
:1039100034280F90DF91CF911F910F91089510924D
:10392000E3241092D2231092D1231092D523E6EDF6
:10393000F3E210821182128213821092D32310922A
:10394000D42380E00E94A01A10925A2410925D2481
:10395000EEE5F4E2108211821282138210925B244F
:1039600010925C2480E00E94411C882359F09091C1
:10397000E3249F5F9093E3249091E324913011F42A
:103980009093E22408950F931F9381112AC0809190
:103990005D24E1E08111E0E0842F61157105A9F457
:1039A0004E2F50E00024569547950794569547951D
:1039B0000794542F402D4E595B4D03EC1CE120E43D
:1039C00030E061E00E9434280CC0F0E0EE0FFF1FF1
:1039D000E25AFB4D6083718310925A2480E00E946A
:1039E000411C1F910F91089580E00E94391C089599
:1039F000EF92FF921F93CF93DF931F92CDB7DEB765
:103A000011E08091FA24893009F010E040E050E0A4
:103A10008FB78983F894A98120915B2430915C242D
:103A200080915D2490E0FC01EE0FFF1FE25AFB4DF8
:103A300060817181AFBF2617370730F08091E22493
:103A40008111E6CF90E022C0FC010024F695E795B5
:103A50000794F695E7950794FE2FE02DEE59FB4D60
:103A6000E20FF31F80817A01E82A2F5F3F4F2093F6
:103A70005B2430935C2480E00E94411C112321F0E0
:103A80005E2D442710E0C4CF8E2D9F2D0F90DF9127
:103A9000CF911F91FF90EF90089580E00E94F81C55
:103AA0000895CF92DF92EF92FF920F931F93CF93DF
:103AB000DF931F92CDB7DEB76B017A018FB7898391
:103AC000F894498160915B2470915C2480915D241D
:103AD00090E0FC01EE0FFF1FE25AFB4D2081318187
:103AE0004FBF6217730738F08091E2248111E6CF4F
:103AF0008E2D9F2D36C0FC01EE0FFF1FE25AFB4DAD
:103B000020813181261B370B87012E153F0508F4D4
:103B10008901002496958795079496958795079433
:103B2000982F802D680F791F6E597B4DA801C60113
:103B30000E94113180915B2490915C24800F911F31
:103B400080935B2490935C24C00ED11EE01AF10A8E
:103B500080E00E94411CE114F10409F0AFCF80E045
:103B600090E00F90DF91CF911F910F91FF90EF9018
:103B7000DF90CF900895EF92FF920F931F93CF9312
:103B8000DF931F921F92CDB7DEB7DC019091E22444
:103B9000992309F445C08FB78983F89489814091AE
:103BA0005B2450915C2420915D2430E0F901EE0FFC
:103BB000FF1FE25AFB4DE080F180E41AF50A8FBF47
:103BC000062F172FE016F10608F4870101151105DD
:103BD00051F1CD0100243695279507943695279508
:103BE0000794322F202DB901640F751F6E597B4D3C
:103BF000A8010E9411318FB78A83F8948A8120919D
:103C00005B2430915C24020F131F00935B241093FC
:103C10005C248FBF80E00E94411C8E2D9F2D05C02B
:103C200080E090E002C08E2D9F2D0F900F90DF91CD
:103C3000CF911F910F91FF90EF900895AB01BC01C0
:103C400080E00E94511D0895CF93DF931F92CDB75E
:103C5000DEB78FB78983F89499818091D523E82FB7
:103C6000F0E0EE0FFF1FEA52FC4D2081318120343D
:103C7000310589F44091D22341110DC04091D123E7
:103C8000411109C021E02093D123811120E020932C
:103C9000D52320E030E09FBF80E490E0821B930BAF
:103CA0000F90DF91CF91089580E00E94241E089527
:103CB0000E94241E21E0892B09F420E0822F089520
:103CC00080E00E94581E0895FF920F931F93CF9398
:103CD000DF931F92CDB7DEB7F62E172F01E080914C
:103CE000FA24893009F000E080E00E94581E81111A
:103CF00007C08091E2248111F7CF80E090E02CC0D2
:103D00008FB78983F89449818091D52390E0FC0195
:103D1000EE0FFF1FEA52FC4D20813181B9016F5F28
:103D20007F4F6083718300249695879507949695BD
:103D300087950794982F802D86529C4DFC01E20FA9
:103D4000F31FF0824FBF002329F0F12E110F110B4A
:103D500000E0CACF81E090E00F90DF91CF911F91FA
:103D60000F91FF900895BC0180E00E94641E0895A9
:103D70005F926F927F928F929F92AF92BF92CF92FB
:103D8000DF92EF92FF920F931F93CF93DF931F92D7
:103D9000CDB7DEB74B015A018091FA24893011F476
:103DA000AA0CBB1C6894662466F8712C80E00E9403
:103DB000581E811107C08091E2248111F7CF8A2D0E
:103DC0009B2D3AC08FB78983F89459800091D523F1
:103DD00010E0F801EE0FFF1FEA52FC4DE080F18089
:103DE000C3018E199F0965018A159B0508F46C01B2
:103DF000C801002496958795079496958795079412
:103E0000982F802D8E0D9F1DA601B40186529C4DCA
:103E10000E941131000F111FF801EA52FC4DEC0C09
:103E2000FD1CE082F1825FBE8C0C9D1CAC18BD08AD
:103E300009F0BCCF80E090E00F90DF91CF911F910F
:103E40000F91FF90EF90DF90CF90BF90AF909F9039
:103E50008F907F906F905F900895AB01BC0180E0E0
:103E60000E94B81E0895E0910025F091012501906F
:103E7000F081E02D228133812E0F3F1FFC01408114
:103E8000E40FF11DE217F307A0F481818430A1F063
:103E9000861306C014C081818430A1F08617A9F072
:103EA0008081E80FF11DE217F307A8F380E090E0AE
:103EB000089580E090E0089580E090E008958E2FCE
:103EC0009F2F089580E090E008958E2F9F2F0895F2
:103ED000809153268F770E94202708959091022584
:103EE000992381F1E0910025F09101250190F08165
:103EF000E02D9481891740F5E093FE24F093FF2490
:103F0000228133812E0F3F1FE217F307F8F49181CE
:103F1000943061F49281891309C09381961306C08D
:103F2000E093FE24F093FF2481E008959081E90F4F
:103F3000F11DE217F30758F3E093FE24F093FF24FA
:103F400080E0089580E0089580E0089580E008957D
:103F5000EF92FF921F93CF93DF93C82F60E00E94F0
:103F60006E1F182F882391F1A0910025B091012593
:103F7000EC2FF0E0EE0FFF1F12968D919C9113979E
:103F8000E80FF91FE080F180D7011696ED91FC91C2
:103F900017971995682F8C2F0E946E1F182F882352
:103FA000A9F0C091FE24D091FF2465E0CE010E94CB
:103FB000331FEC01892B21F08A810E945229F5CF11
:103FC000D7011296ED91FC9113971995812FDF91EE
:103FD000CF911F91FF90EF9008951F93CF93DF93A0
:103FE000182F0E946E1F882349F1C091FE24D091A2
:103FF000FF2465E0CE010E94331FEC01892B49F0BC
:104000004C815D816B818A810E9445278111F1CFAE
:1040100015C0A0910025B0910125E12FF0E0EE0F31
:10402000FF1F12968D919C911397E80FF91F019035
:10403000F081E02D0190F081E02D1995DF91CF9175
:104040001F9108958091FE249091FF2408950E946D
:1040500092260895CF93809102258823C9F0E0919C
:104060000025F09101250190F081E02D84818823C5
:1040700079F0C0E08C2F0E94A81FCF5FE09100254F
:10408000F09101250190F081E02D8481C81790F313
:104090001092022581E090E08093062590930725F9
:1040A000CF9108950E9434260E942A200895CF932C
:1040B00080910225882349F1A0910025B091012526
:1040C000ED91FC91119784818823F9F0C0E0EC2FE9
:1040D000F0E0EE0FFF1F12968D919C911397E80F61
:1040E000F91F0190F081E02D0084F185E02D3097DB
:1040F00009F01995CF5FA0910025B0910125ED91B0
:10410000FC9111978481C81710F3CF9108950F93F4
:104110001F93CF93DF93E1E5F6E2128613861486B0
:10412000158616861786808188230CF081C220911F
:104130005726309158262115310509F074C26BC2FB
:104140008F7109F0ABC090915226963081F0983073
:1041500009F499C09111A2C02230310509F016C2AC
:1041600062E070E086E095E20E943E276AC280919C
:10417000532690915426292F332722303105B1F050
:1041800020F42130310541F0C1C123303105F1F176
:104190002F30310561F1BAC18091522090915320A6
:1041A000DC016C9170E00E943E275EC0E0915220DD
:1041B000F09153202189821708F0E8C19927880FD0
:1041C000991F880F991FE0915420F0915520E80F16
:1041D000F91F80819181FC01628173810E943E27D9
:1041E000E0915926F0915A2682E081833DC080916A
:1041F000562090915720009709F4C8C1DC0112960F
:104200006D917C9113970E943E272EC09927813093
:10421000910599F058F08230910509F40EC2039788
:1042200009F07DC131E0E1EBF3E20AC064E070E047
:104230008EE490E20E943E2717C0E8E4F0E235E009
:10424000A0E2B0E220E0819190E08D939D932F5FFA
:104250002317C8F3632F660F6E5F60931E2070E014
:104260008EE190E20E943E27E1E5F6E286819781A9
:10427000228533858217930708F0E3C180935B267C
:1042800090935C26DEC12130310509F07FC161E0E9
:1042900070E082E095E20E943E27D3C18130F1F5C3
:1042A000909152269A30D1F52130310509F03CC168
:1042B00080910225882309F437C1C0915526D091F9
:1042C00056260091002510910125D801ED91FC9111
:1042D0008481C81708F028C160E08C2F0E946E1FEF
:1042E000882309F41CC1CE019927880F991FD80192
:1042F0001296ED91FC911397E80FF91F0190F08150
:10430000E02D86819781FC0119958093042561E059
:1043100070E084E095E20E943E2793C1823009F06C
:10432000FEC0809152268111F3C02230310509F080
:104330002DC1809155260E94D62790E08093FC24C1
:104340009093FD2462E070E08CEF94E20E943E279F
:1043500078C18F7109F086C090915226933009F48C
:10436000D9C018F49130A1F07DC0953019F0993082
:1043700039F178C08091572690915826892B09F001
:1043800005C188E69FE180935D2690935E2659C122
:104390008091572690915826892B09F0F7C080917B
:1043A000532690915426019709F0F0C0809106257C
:1043B000909107258D7F809306259093072541C115
:1043C0008091572690915826892B09F0DFC00E94D2
:1043D0002327882309F4A3C0209153263091542623
:1043E0003327E0915220F0915320818990E0821789
:1043F000930708F494C00E942A208091532690913C
:10440000542680930225882309F41BC199278150E3
:10441000904C880F991F880F991FE0915420F091BC
:104420005520E80FF91FE0930025F0930125019036
:10443000F081E02D8481882309F403C1C0E060E0AD
:104440008C2F0E94ED1F882309F469C0CF5FE09193
:104450000025F09101250190F081E02D8481C8179D
:1044600070F3EFC08130F9F4909152269B30D9F46B
:104470008091572690915826892B09F055C080913C
:104480000225882309F450C0E1E5F6E2C481D28117
:104490008C2F0E94A81F882309F441C06D2F8C2FF8
:1044A0000E94ED1F3AC08230D1F5809152268130B2
:1044B00019F08330A1F030C0809157269091582692
:1044C000892B09F063C08091532690915426892B43
:1044D00009F05CC0809155260E94F1271EC0809192
:1044E000572690915826892B09F050C08091532669
:1044F00090915426892B09F049C0C1E5D6E28C8100
:104500000E9402298C810E946F2907C080E005C0AB
:1045100080E003C080E001C080E0811193C0809101
:1045200051268F71813091F580910225882309F4FD
:1045300074C00091552610915626C0910025D09147
:104540000125E881F9818481081708F068C060E0DE
:10455000802F0E946E1F8823C9F0F801FF27CF012A
:10456000880F991FEA81FB81E80FF91FC081D18173
:10457000EE81FF811995682F802F0E946E1F88237E
:1045800029F0EC81FD81199581115CC08091512643
:104590008F71823009F045C0809102258823B9F1DE
:1045A000A0910025B0910125ED91FC911197848196
:1045B000882379F1C0E0EC2FF0E0EE0FFF1F129698
:1045C0008D919C911397E80FF91F00811181D801FB
:1045D0001696ED91FC9117971995682F8C2F0E94D4
:1045E0006E1F882379F1D8011496ED91FC911597EF
:1045F0001995811127C0CF5FA0910025B0910125A9
:10460000ED91FC9111979481C917A8F21BC080E02D
:1046100019C080E017C080E015C080E013C080E0C2
:1046200011C080E00FC0982F907609F078CF88CD28
:10463000982F907609F073CF8CCE3DE0EAE3F0E25C
:10464000FFCD81E0DF91CF911F910F910895CF931E
:10465000DF931F921F92CDB7DEB7811126C09091D4
:1046600050269923F9F090916226911101C0FFCF55
:104670009FB79A83F8942A81E1E6F6E291819150FE
:1046800091832FBF0FC0909162269F3F09F4FFCF07
:104690009FB79983F8942981E1E6F6E291819F5FC3
:1046A00091832FBF8093502605C090915026992367
:1046B00051F3F8CF0F900F90DF91CF9108950F93A2
:1046C000E8ECF4E080818F7D808380818F7D808322
:1046D000E8E1F6E202E0059310921A2610921B26FA
:1046E00000E2069300E40693E0E1F6E200E40693BC
:1046F000E1E5F6E21486158616861786128613867D
:104700001092F1250F9108950F9385E08093F12584
:10471000E9E1F6E204E00593E1E1F6E204E0059365
:104720000F9108950F9383E08093F12510921A263C
:1047300010921B26E8E1F6E202E006930F9108953D
:10474000E0915D26F0915E26309709F01995089565
:104750000F93CF93DF938091F125833029F40E944A
:10476000A0230E945F235EC08091ED259091EE25ED
:10477000C0915B26D0915C26C81BD90B71F52091A6
:10478000EF253091F025820F931F8093EF259093B2
:10479000F02520915726309158268217930721F053
:1047A00080910825882341F084E08093F125E0E1A1
:1047B000F6E202E0069336C0E0915F26F0916026B3
:1047C000309799F01995882381F01092ED25109279
:1047D000EE25C0915B26D0915C26C034D10528F02F
:1047E00010920825C0E4D0E003C081E08093082542
:1047F000E0E0F6E2C28FD38F8091ED259091EE2517
:104800002091592630915A26280F391F248F358F31
:10481000C80FD91FC093ED25D093EE25E8E1F6E24D
:1048200002E00693DF91CF910F910895FC01818101
:10483000E82FE7708E2F90E0FC013197E730F1050B
:10484000D8F48827E652FE4F8F4F0C94DF3080E17A
:1048500090E0089580E290E0089580E490E008956B
:1048600080E890E0089580E091E0089580E092E093
:1048700008958FEF93E0089588E090E00895282F41
:104880002F7030E0220F331F082E000C990B882761
:10489000990F881F9927820F931F02979C01220F5F
:1048A000331F220F331F220F331F820F931F87578F
:1048B0009A4D08950F93CF938091CC0480FF6AC0E6
:1048C00081E08093CC04E0E1F6E200E80693E8E1C1
:1048D000F6E200E806938093CA04E0E1F6E200E124
:1048E00006938091F125882339F08350823010F4AB
:1048F0000E94A0230E945F2380911226909113268C
:10490000089709F049C088E0EDEAF5E2A1E5B6E2D2
:1049100001900D928A95E1F7E8ECF4E080818062E5
:1049200080838081806280830E948720C82F8111CC
:1049300004C00E948423C1E030C0809151268823A6
:1049400074F41092EF251092F0251092ED2510923C
:10495000EE2582E08093F1250E94A8231EC080915D
:10496000572690915826892B19F40E94922315C03E
:104970001092EF251092F0251092ED251092EE2561
:1049800081E08093F125E0E1F6E202E0069300E2A7
:10499000069303C0C0E001C0C1E08C2FCF910F91FE
:1049A00008958F929F92AF92BF92DF92EF92FF9203
:1049B0000F931F93CF93DF93D82E0E943F248C0137
:1049C000CD2DCF70D0E0CE01880F991FCD2D0D2CAD
:1049D000000CDD0BCC27DD0FCC1FDD27C80FD91F46
:1049E000CE01880F991F880F991F880F991F9C016E
:1049F000205F394D7901C9010E9416244C01DD2048
:104A00000CF072C0FE01EE0FFF1FEE0FFF1FEE0F46
:104A1000FF1FE050FA4D26893789D80115968D91F0
:104A20009C911697820F931F15968D939C931697C2
:104A300013962D913C9114978217930709F43EC069
:104A4000281B390B2115B4E03B0740F02FEF33E072
:104A5000C901B4010E947630281B390BF80180810E
:104A600081FF0AC0C901B4010E94763041E0892B60
:104A700009F040E0842F01C080E0D8019C9180FBC8
:104A800091F99C93CC0FDD1FCC0FDD1FCC0FDD1FE8
:104A9000C050DA4D1E8A1F8A2A8B3B8B11962D91AE
:104AA0003C91129715968D919C911697820F931FAA
:104AB0008C8B9D8BF70102E00693CAC0D8018C91C4
:104AC00081FFB3C08D7F8C93CC0FDD1FCC0FDD1F1A
:104AD000CC0FDD1FC050DA4D1E8A1F8A1A8A1B8A2E
:104AE000F70102E00693B4C0FE01EE0FFF1FEE0FC8
:104AF000FF1FEE0FFF1FE050FA4DA288B388D801C8
:104B00008C9182FF1BC01196ED91FC911297159626
:104B10002D913C91169713968D919C911497B40109
:104B20000E947630B0E4DB9EB001112467537B4DC8
:104B3000AC01CF01820F931F0E941131F801258132
:104B400036812A0D3B1D258336838381948182170C
:104B5000930768F485839683CC0FDD1FCC0FDD1F90
:104B6000CC0FDD1FC050DA4D8E899F895EC0FE01DB
:104B7000EE0FFF1FEE0FFF1FEE0FFF1FE050FA4D6D
:104B800046895789A416B50609F04FC0281739077A
:104B900009F44BC0AC01421B530B9A01211554E0A0
:104BA000350748F02FEF33E0C901B4010E94763099
:104BB000281B390B06C0C901B4010E947630281B9E
:104BC000390BFE01EE0FFF1FEE0FFF1FEE0FFF1F51
:104BD000E050FA4D128A138A2815390578F4D80165
:104BE0008C9184608C93B0E4DB9EC00111248753C8
:104BF0009B4D848B958B868A978A13C0F8014181DF
:104C0000528185819681840F951FCC0FDD1FCC0FBB
:104C1000DD1FCC0FDD1FC050DA4D8C8B9D8B2E8B92
:104C20003F8BF70102E0069313C0D8018C9180FFFF
:104C30000FC08E7F8C931796ED91FC91189730974B
:104C400039F015966D917C9116974D2D80E0199550
:104C5000DF91CF911F910F91FF90EF90DF90BF9068
:104C6000AF909F908F9008951F93CF93DF931F92E3
:104C70001F92CDB7DEB78FB78983F8941981E1EC25
:104C8000F4E080818E7F80831092C00410820E94A5
:104C9000902C80E00E94272380916626811101C01C
:104CA000FFCF8FB78A83F8949A81E1E6F6E2858197
:104CB000815085839FBF1FBF0F900F90DF91CF91D1
:104CC0001F91089580E008951F93CF93DF931F9263
:104CD000CDB7DEB78FB78983F894198181E00E9440
:104CE0002723EAECF4E080E4808380E28083E1EC37
:104CF000F4E0808181608083A9ECB4E08C918260D3
:104D00008C93E8ECF4E08081806480838C918160F6
:104D10008C938081806880831FBF0F90DF91CF913B
:104D20001F9108950F931F93CF93DF931F921F92AC
:104D3000CDB7DEB700E610E0F801108280E30E94F4
:104D4000492CE0ECF4E080818064808381E0F8010C
:104D500080838FB78A83F8941A81E0E0F6E2118AA3
:104D6000118E11A211A611AA11AEE9E8F5E2808117
:104D70008E7F8083E2E9F5E280818E7F8083EBE99C
:104D8000F5E280818E7F8083E4EAF5E280818E7F88
:104D900080836AE170E082E00E9436308F3F19F034
:104DA0008093FA0403C08FE18093FA046BE170E012
:104DB00082E00E9436308F3F19F08093FB0403C0DD
:104DC0008FE18093FB04E0ECF4E0808182608083DB
:104DD00080818068808380818061808380E196E229
:104DE000868397838081806280838FEF8093C50460
:104DF000E8ECF4E0808181608083109250268091FD
:104E000066268F3F09F4FFCF8FB78983F894998185
:104E1000E1E6F6E285818F5F85839FBF0E9464266D
:104E20001FBF0F900F90DF91CF911F910F910895A9
:104E3000E1ECF4E080818E7F8083089580E0089526
:104E40008093C30408958091C304089580914026FF
:104E500090914126089580E090E008958091502639
:104E600081110BC081E00E942723E1ECF4E08081F6
:104E70008B7F80838081846080830895E1E5F6E202
:104E800080879187628773870895282F2F7030E07D
:104E9000220F331F082E000C990B8827990F881FAB
:104EA0009927820F931FFC01EE0FFF1FEE0FFF1FCC
:104EB000EE0FFF1FE050FA4D2189207C09F072C0EF
:104EC0006370613011F018F404C060EC03C060E856
:104ED00001C060E440385105E9F050F4403251051A
:104EE000A9F040345105A1F040315105D9F40CC06E
:104EF000411522E0520791F04F3F23E0520781F025
:104F00004115514079F408C021E00DC022E00BC0EA
:104F100023E009C024E007C025E005C026E003C067
:104F200027E001C020E0FC01EE0FFF1FEE0FFF1F86
:104F3000EE0FFF1FE050FA4D118ADC01AA0FBB1FD4
:104F4000AA0FBB1FAA0FBB1FA05FB94D36E03C9351
:104F5000262B218BFC01EE0FFF1FEE0FFF1FEE0F24
:104F6000FF1FE050FA4D2189207C203C69F4FC01B0
:104F7000EE0FFF1FEE0FFF1FEE0FFF1FE050FA4D69
:104F800021892770273081F0880F991F880F991F7A
:104F9000880F991FFC01E050FA4D81898062818B56
:104FA00081E0089580E0089581E00895E82FEF7092
:104FB000F0E0EE0FFF1F082E000C990B8827990FC9
:104FC000881F9927E80FF91FEE0FFF1FEE0FFF1F35
:104FD000EE0FFF1FE050FA4D818982FB882780F990
:104FE00008950F93282F2F7030E0A901440F551F0B
:104FF000282F082E000C330B2227330F221F3327B4
:10500000240F351FF901EE0FFF1FEE0FFF1FEE0FEC
:10501000FF1FE05FF94D01E00693F901EE0FFF1F5E
:10502000EE0FFF1FEE0FFF1FE050FA4D918992FF28
:1050300018C0220F331F220F331F220F331FF90115
:10504000E050FA4D91899B7F918B0E943F24FC0197
:10505000808180FF06C08E7F80830780F085E02DF1
:10506000199581E00F9108956F927F928F929F9290
:10507000AF92BF92CF92DF92EF92FF920F931F9366
:10508000CF93DF931F92CDB7DEB7782E662E4A01FD
:1050900059010E943F246C01272D872D8F70E82E27
:1050A000F12CC701880F991FE72C072C000CFF0873
:1050B000EE24FF0CEE1CFF24E80EF91EF701EE0FA4
:1050C000FF1FEE0FFF1FEE0FFF1FE050FA4D81890B
:1050D000807C09F484C0F701EE0FFF1FEE0FFF1F65
:1050E000EE0FFF1FE050FA4D8189807C803C61F01B
:1050F000F701EE0FFF1FEE0FFF1FEE0FFF1FE05037
:10510000FA4D818982FD6DC08FB78983F8948981BA
:10511000F601908190FF03C08FBF80E063C0F6016D
:105120009081916090838FBF81829282A382B482AA
:105130001582168207831087611006C091E0A114C2
:10514000B10419F090E001C091E0F601808190FB7C
:1051500081F98B7F8083222364F4F701EE0FFF1F18
:10516000EE0FFF1FEE0FFF1FE050FA4D168A178A51
:1051700031C0F701EE0FFF1FEE0FFF1FEE0FFF1FF5
:10518000E050FA4D8189807C803CB9F4C701880FDA
:10519000991F880F991F880F991F805F994D0E9452
:1051A0001624BC01C5010E947630892B31F0F6012E
:1051B00080818E7F808380E015C0F701EE0FFF1F96
:1051C000EE0FFF1FEE0FFF1FE050FA4D128A138AF9
:1051D000168A178A872D0E94D12481E003C080E0BF
:1051E00001C080E00F90DF91CF911F910F91FF9050
:1051F000EF90DF90CF90BF90AF909F908F907F9077
:105200006F900895FF920F931F93CF93DF93182F02
:10521000C82FCF70D0E0CE01880F991FC12F012E6B
:10522000000CDD0BCC27DD0FCC1FDD27C80FD91FED
:10523000812F0E943F24DC01FE01EE0FFF1FEE0FC5
:10524000FF1FEE0FFF1FE05FF94D02E005938C9109
:1052500080FF22C08E7F8C931796ED91FC9118975A
:105260003097D1F011235CF4CC0FDD1FCC0FDD1F84
:10527000CC0FDD1FC050DA4D6E897F890AC0CC0F7C
:10528000DD1FCC0FDD1FCC0FDD1FC050DA4D6A894A
:105290007B89412F81E01995DF91CF911F910F916B
:1052A000FF900895CF93C82F0E940229EC2FEF7032
:1052B000F0E0EE0FFF1F8C2FCC0F990B8827990F72
:1052C000881F9927E80FF91FEE0FFF1FEE0FFF1F32
:1052D000EE0FFF1FE050FA4D118ACF910895E82F8D
:1052E000EF70F0E0EE0FFF1F282F082E000C330B9D
:1052F0002227330F221F3327E20FF31FEE0FFF1F6A
:10530000EE0FFF1FEE0FFF1FE050FA4D91899460E2
:10531000918B0E94022981E008950F931F93CF93F0
:10532000DF938B01C82FCF70D0E0CC0FDD1F282F6B
:10533000082E000C330B2227330F221F3327C20FF6
:10534000D31F0E943F24CC0FDD1FCC0FDD1FCC0FDD
:10535000DD1FC050DA4D298922FF0AC0FC012081DF
:1053600020FD0AC0216020830783108781E005C0EB
:10537000F801199581E001C080E0DF91CF911F9184
:105380000F9108951F920F920FB60F92112408B635
:105390000F9218BE09B60F9219BE0BB60F921BBE24
:1053A0000F932F933F934F935F936F937F938F93BD
:1053B0009F93AF93BF93EF93FF938091CB04882388
:1053C00034F480E88093CA040E94572090C08091F2
:1053D000CB0482FF22C084E08093CA048091182607
:1053E00086FF85C08091CC0481FD81C00E945A2433
:1053F00081117DC08091F125813019F40E949223A2
:1054000076C0843009F073C0E9E1F6E204E0059368
:10541000E1E1F6E204E005936AC08091CB0481FFEC
:1054200061C082E08093CA048091102686FF5FC02D
:105430008091CC0481FD5BC00E945A24811157C029
:105440008091F125823041F484E08093F125E0E100
:10545000F6E202E006934BC0833009F048C0E9E170
:10546000F6E204E00593E1E1F6E204E005933FC0D3
:1054700080E18093CA0481E00E94022981E80E94B1
:10548000022982E00E94022982E80E9402290E94E9
:105490002A201092C304E0E0F6E2118A96E0908B95
:1054A00083E4818B118E908F818F8DEA95E2848BBE
:1054B000958B0E945F231BC08091CB0486FF07C0A1
:1054C00080E48093CA0480E00E94272310C080916A
:1054D000CB0485FF0CC080E28093CA0481E00E9467
:1054E000272305C08091CB0484FDC2CFE5CFFF9177
:1054F000EF91BF91AF919F918F917F916F915F914C
:105500004F913F912F910F910F900BBE0F9009BEBD
:105510000F9008BE0F900FBE0F901F9018951F920E
:105520000F920FB60F92112408B60F9218BE09B64B
:105530000F9219BE0AB60F921ABE0BB60F921BBE7F
:105540000F931F932F933F934F935F936F937F938B
:105550008F939F93AF93BF93CF93DF93EF93FF937B
:105560008091CC0481FD04C00E945A248111C4C0E2
:1055700082E08093CC048091C5048195880FE0E19E
:10558000F6E2E81BF109208131812051364236953F
:1055900027953695279536952795822F869520FD58
:1055A00002C090E001C090E8890FE82FEF70F0E0B2
:1055B000EE0FFF1F282F082E000C330B2227330F6E
:1055C000221F3327E20FF31FDF01AA0FBB1FAA0F11
:1055D000BB1FAA0FBB1FA05FB94D9C9195FF8CC04C
:1055E000FD0100E20693811180C08091F125843095
:1055F00029F40E94A0230E945F237EC000911226FE
:105600001091132680915B2690915C26C091ED2528
:10561000D091EE2598012C0F3D1F8217930718F4A7
:105620008C010C1B1D0B8091592690915A26A801C4
:105630006DEA75E28C0F9D1F0E941131C00FD11FC2
:10564000C093ED25D093EE250034110569F48091C7
:10565000EF259091F0258C0F9D1F209157263091BA
:1056600058268217930790F0E1E5F6E2C287D387C8
:105670000684F785E02D309731F01995811103C02C
:105680000E94842339C00E94922336C080915B26F9
:1056900090915C26C817D90709F5E0915F26F09133
:1056A0006026309719F40E94842326C01995811131
:1056B00003C00E94842320C02091EF253091F02563
:1056C0008091ED259091EE25820F931F8093EF2519
:1056D0009093F0251092ED251092EE25E0E1F6E290
:1056E00002E0069300E2069307C0803819F40E9496
:1056F000A82302C00E94D124FF91EF91DF91CF91A6
:10570000BF91AF919F918F917F916F915F914F91D9
:105710003F912F911F910F910F900BBE0F900ABEDA
:105720000F9009BE0F9008BE0F900FBE0F901F90F4
:105730001895982F9F7029F081E0933018F080E041
:10574000089580E008950F931F93CF93DF93CDB713
:10575000DEB72797CDBFDEBF8FEF809370008093B9
:105760007100809372008093730080937400809323
:1057700075008093760064E081E490E00E94403000
:105780006CE170E082E00E9436308A836DE170E067
:1057900082E00E943630898389819A81019621F4C2
:1057A00080E493E289839A8389819A818B839C83A5
:1057B000E0E6F0E082838C8183838FB78E83F89458
:1057C0009E81E0E5F0E08081826080839FBF8181DF
:1057D00081FFFDCF8FB78F83F8949F8100E510E0A4
:1057E000D80116968C911697897F16968C931697EA
:1057F000E0E6F0E080E885838BEB868316968C915B
:105800001697846016968C938081816080839FBFF9
:1058100061E080E490E00E9440308FB78D83F8947F
:105820009D81F80180818E7F80839FBF2796CDBFA9
:10583000DEBFDF91CF911F910F910895CF93DF933A
:105840001F92CDB7DEB79FB79983F8949981E82F5F
:10585000F0E0E059FF4F60958081682360839FBF2F
:105860000F90DF91CF910895CF93DF931F92CDB723
:10587000DEB79FB79983F8949981E82FF0E0E0595B
:10588000FF4F8081682B60839FBF0F90DF91CF9186
:105890000895CF93DF931F921F92CDB7DEB7863066
:1058A00011F060E001C068E18091510081FD2AC0E3
:1058B0008FB78983F8949981E0E5F0E08081826078
:1058C00080839FBF818181FFFDCF8FB78A83F8944A
:1058D0009A81A0E5B0E016968C911697897F16966E
:1058E0008C931697E0E6F0E080E885838BEB868367
:1058F00016968C911697846016968C9380818160A1
:1059000080839FBF636084E490E00E94403060E445
:1059100080E00E941E2C0F900F90DF91CF91089590
:1059200060E480E00E94342C60E084E490E00E9417
:1059300040300895CF93DF93EC0168E070E082E09F
:105940000E943630888369E070E082E00E94363041
:1059500089836AE070E082E00E9436308A836BE0DF
:1059600070E082E00E9436308B836CE070E082E071
:105970000E9436308C836DE070E082E00E94363009
:105980008D8360E170E082E00E9436308E8362E1B8
:1059900070E082E00E9436308F8363E170E082E045
:1059A0000E943630888764E170E082E00E943630E1
:1059B000898765E170E082E00E9436308A87DF9156
:1059C000CF910895DC01E0ECF1E097859923ECF3A9
:1059D000ECECF1E0808188608083B05F8C919081F5
:1059E000977F90830895CF93DF939C01DB01E0ECD8
:1059F000F1E097859923ECF3CCECD1E098819860A5
:105A00009883B901705FCD010E9411318881877F31
:105A10008883DF91CF910895E0ECF1E087858823BA
:105A2000ECF38091CF0181FF08C086E38093CA0127
:105A300061E08BEC91E00E9440300895E0ECF1E0F1
:105A400097859923ECF3ACECB1E09C9198609C9322
:105A5000E82FF0E0F05F60838C91877F8C9308954E
:105A6000FF920F931F93CF93DF93182FF92EC62F1A
:105A70000091CA010E940C2DE0ECF1E0878588239B
:105A8000ECF36C2F812F0E941E2DC0ECD1E01A8206
:105A9000F982188385E38A8761E08BEC91E00E94AC
:105AA00040300A87DF91CF911F910F91FF900895A9
:105AB0000F931F93CF938C01E0ECF1E0878588234F
:105AC000ECF3C0E0F80161918F018C2F0E941E2D34
:105AD000CF5FC032B9F7CF911F910F9108951F93F7
