:100000000C948B020C94B1020C94B1020C94B102CA
:100010000C94B1020C94B1020C94B1020C94B10294
:100020000C94B1020C94B1020C94B1020C94B10284
:100030000C945B060C94B1020C94B1020C94B102C6
:100040000C94B1020C94B1020C94B1020C94B10264
:100050000C94B1020C94B1020C94B1020C94B10254
:100060000C94B1020C94B1020C94B1020C94B10244
:100070000C94B1020C94B1020C94B1020C94B10234
:100080000C94B1020C94B1020C94B1020C94B10224
:100090000C94B1020C94B1020C94B1020C94B10214
:1000A0000C94B1020C94B1020C94B1020C94B10204
:1000B0000C94B1020C94D5060C94B1020C94B102CC
:1000C0000C94B1020C94B1020C94B1020C94B102E4
:1000D0000C94B1020C94B1020C94B1020C94B102D4
:1000E0000C94B1020C94B1020C94B1020C94B102C4
:1000F0000C94B1020C94B1020C94B1020C94B102B4
:100100000C94B1020C94B1020C94B1020C94B102A3
:100110000C94B1020C94B1020C94B1020C94B10293
:100120000C94B1020C94B1020C94B1020C94980698
:100130000C94B1020C94B1020C94B1020C94B10273
:100140000C94B1020C94B1020C94B1020C94B10263
:100150000C94B1020C94B1020C94B1020C94B10253
:100160000C94B1020C94B1020C94B1020C94B10243
:100170000C94B1020C94B1020C94B1020C94B10233
:100180000C94B1020C94B1020C94B1020C94B10223
:100190000C940B170C9459170C94B1020C94B102E7
:1001A0000C94B1020C94B1020C9412070C94B1029D
:1001B0000C94B1020C94B1020C94B1020C94B102F3
:1001C0000C94B1020C94B1020C94B1020C94B102E3
:1001D0000C94B1020C94B1020C94B1020C94B102D3
:1001E0000C94B1020C94B1020C94B1020C94B102C3
:1001F0000C94B1020C9453280C942029F814071580
:10020000161525153315421551155F156C157B15FF
:100210008A15991551165116511651165116511627
:100220005116511651165116511651165116511696
:100230005116511651165116511651164F164F168A
:100240004F164F164F164F164F164F164F164F1686
:100250004F164F164F164F164F164F164F164F1676
:100260004F164F165316531653165316531653164E
:1002700053165316531653164D164D164D164D164E
:100280004D164D164D164D164D164D16531653164A
:100290005316531653165316531653165316531616
:1002A0005316531653165316531653165316531606
:1002B000531653164B164B164B164B164B164B1626
:1002C0004B164B164B164B164B164B164B164B1626
:1002D0004B16491649164916491649164916491624
:1002E0004916491649164916491649164916491616
:1002F0004716471647164716471647164716471616
:100300004716471647164716471647164716471605
:1003100047164716471647164516451645164516FD
:1003200045164516451645164516451643164316F9
:1003300043164316431643164316431643164316F5
:1003400043164316431643164316431643164316E5
:1003500043164316431643164316431643164316D5
:1003600043164316431643164116411641164116CD
:1003700041163F163F163F163F163F163D163D16D7
:100380003D163D163D163B163B163B163B163B16DF
:10039000551655165516551655165516B822BB2224
:1003A000BE22C122C422C722CA220C94BB220C94B2
:1003B000BE220C94D8180C94201B0C943B160C9461
:1003C00030190C94E1030C942A160C9457160C94D3
:1003D000FD120C9451160C94A7180C94E2180C946E
:1003E00051150C94D3030C9408170C9416150C9407
:1003F00041160C94190C0C944D160C94B6030C94E5
:1004000049160C94B8220C9461030C94E6180C94D1
:1004100051030C94FE110C94F8140C9407150C94D1
:1004200025150C943D160C94E3190C94541B0C9454
:1004300099150C9476120C948A150C9482130C94D2
:10044000AA150C94531A0C94C1220C944D0B0C94C5
:100450004B160C9460130C945D030C9443160C948F
:100460003F160C94B80E0C94C7220C9497100C9461
:10047000DA030C94B80D0C94DF120C9453160C9400
:1004800095120C9437030C945F150C94FC030C9498
:1004900033150C9429120C945E160C94F91D0C94CF
:1004A000F7120C9466130C94FF030C94BA0E0C9480
:1004B0000B130C947B130C948B030C9441030C943E
:1004C000B0100C94E8030C94F9100C9447160C949B
:1004D0007B150C94E4180C94F6030C9445160C94BC
:1004E000D2180C94C4220C941D0D0C94C7120C94B9
:1004F00055160C944F160C94CF030C94A4110C9425
:100500002F0B0C946C150C94FC190C94EF030C94A9
:1005100042150C94CA2211241FBECFEFCDBFDFE3DA
:10052000DEBF00E00CBF18BE19BE1ABE1BBE13E230
:10053000A0E0B0E2EAE6FFE500E00BBF02C00790F2
:100540000D92A23EB107D9F71BBE26E2A2EEB3E29E
:1005500001C01D92A738B207E1F70E94B8170C94AA
:10056000B32F0C9400003BB78BBFFB0186913BBFC0
:1005700008953BB78BBFFB01879196913BBF0895D0
:1005800042E070C041E06EC08093C0018827809334
:10059000C1018093C20147E055D0CB0108958093FB
:1005A000C40148E04FC08091D00108953BB748E1B5
:1005B0000D9400003BB74AE10D9400003BB740E2C8
:1005C0000D9400003BB78BBFCB0142E20D940000BD
:1005D0003BB70B0143E20D9400003BB78BBFCB014F
:1005E00044E20D9400003BB78BBFCB0145E20D9474
:1005F00000003BB746E20D9400003BB78BBFCB0138
:100600004AE20D9400003BB78BBFCB014CE20D9446
:1006100000003BB78BBFCB014DE20D94000048E3D7
:1006200011C049E30FC028ED2093340021E020934E
:10063000CC0108952091CF0127FDFCCF22272093E4
:10064000CA0108954093CA0128ED31E02093340097
:100650003093CB016091C4017091C5018091C601B6
:1006600099270895FC014093CA01849108952FEFC2
:100670008DE399E4215080409040E1F700C00000F4
:100680000895009769F020E030E0EFE6F7E1319758
:10069000F1F700C000002F5F3F4F82179307A9F7C3
:1006A0000895BC0180EA99E00E94C80961E873E2FC
:1006B00080EA99E00E9470090895919581959109C9
:1006C0000895CF92DF92EF92FF929B016C01092E69
:1006D000000CEE08FF08AB01770F660B770B4C0D93
:1006E0005D1D6E1D7F1D4115E0E85E07610571050A
:1006F00044F4411550486F4F7F4F34F0820F931FE1
:1007000005C08FEF9FE702C081E090E8FF90EF9077
:10071000DF90CF900895CF92DF92EF92FF929B01EE
:10072000AC01092E000C660B770B6901032E000C3F
:10073000EE08FF084C195D096E097F094115E0E8D4
:100740005E076105710544F4411550486F4F7F4FB6
:1007500034F0821B930B05C08FEF9FE702C081E04E
:1007600090E8FF90EF90DF90CF9008959C01DB011F
:100770000E94792F611520E87207810591054CF4DC
:10078000611520E872072FEF820792072CF0CB014A
:1007900008958FEF9FE7089581E090E808950E9403
:1007A0001B2FCB01089521E08617970709F020E061
:1007B000822F089521E0681779070CF020E0822F3E
:1007C000089521E0861797070CF020E0822F089506
:1007D00021E0861797070CF420E0822F089521E08E
:1007E000681779070CF420E0822F0895811102C068
:1007F000862F089581E008958111862F0895862718
:10080000089590ED980F9A3060F09FEB980F963016
:1008100010F4875308959FE9980F963020F4875578
:100820000895892F08958FEF0895CF93DF93D62FE2
:100830000E940104C82F8D2F0E94010490E1C99FDE
:1008400090011124822BDF91CF910895F89488EDC7
:1008500084BF83E080938000FFCFEF92FF920F93DD
:100860001F93CF93DF93E82EEB018901413071F59F
:1008700080910220811128C0809100209091012058
:1008800090588F3F9F47B0F066EB70E280EA99E0A6
:100890000E947009609100207091012080EA99E027
:1008A0000E94C80967EC70E280EA99E00E94700932
:1008B0000E9426040E941A0360910020709101207A
:1008C00080E090E00E94F3020E942604411156C08D
:1008D000882309F453C0F12C8091002090910120CD
:1008E000AC01452F552746959E01232F332726958A
:1008F0004217530741F120910220211124C0905842
:100900008F3F9F47B0F066EB70E280EA99E00E946B
:100910007009609100207091012080EA99E00E94A6
:10092000C80967EC70E280EA99E00E9470090E94B1
:1009300026040E941A03609100207091012080E03B
:1009400090E00E94F3020E941A03F801EF0DF11DDE
:10095000618170E0762F66278081682BCE019170CF
:100960000E94E80210920220C0930020D093012040
:100970002296F394F394FE1408F4AECFDF91CF9156
:100980001F910F91FF90EF9008955F926F927F9269
:100990008F929F92AF92BF92CF92DF92EF92FF928F
:1009A0000F931F93CF93DF93CDB7DEB76097CDBF83
:1009B000DEBF5C01F894FC01628181810E94150414
:1009C000782EF501648183810E941504582EF5016B
:1009D000668185810E941504E82EF5016085878176
:1009E0000E941504682EF72CF50CFE0CF80E7720EB
:1009F000F9F08501075F1F4FCE0101966C01882435
:100A00008A94870C912C880C991C9BE0890E911C70
:100A10008A0C9B1CF801618180810E941504F80EEC
:100A2000F60181936F010E5F1F4F0815190591F7AD
:100A3000E72DF0E03596EE0FFF1FEA0DFB1DDF01FD
:100A4000119760818C910E9415048F0D41F060EE2A
:100A500070E280EA99E00E9470090E94260464E135
:100A600071E280EA99E00E947009472D440F455FCA
:100A7000B50180EA99E00E948C096E2D70E075291D
:100A80009E012F5F3F4F462D872D0E942D046096BB
:100A9000CDBFDEBFDF91CF911F910F91FF90EF90FF
:100AA000DF90CF90BF90AF909F908F907F906F908E
:100AB0005F900895CF93DF93CDB7DEB7E297CDBFB8
:100AC000DEBFCE0101966C017E0193E3E90EF11CBD
:100AD000860180EA99E00E94480998012C193D0995
:100AE000F80181938F018A3041F4E2E0F0E0EC0FED
:100AF000FD1FE20FF31F108203C0EE15FF0549F73B
:100B0000C6010E94C504E4CF0F931F93CF93DF93D8
:100B1000C0E1D7E280EA99E00E946A0981110CC025
:100B200080E894E00E945907811122C086EF8A95DF
:100B3000F1F7219779F71CC0C1E2D1E205E211E299
:100B400080EA99E00E9448099991891311C0C01761
:100B5000D107B1F780EA99E00E944809853541F450
:100B600066E271E280EA99E00E9470090E945A05EB
:100B7000DF91CF911F910F9108950F931F93CF9302
:100B8000DF93CDB7DEB7E297CDBFDEBF8C0163E464
:100B900071E280EA99E00E94700942E3BE016F5F52
:100BA0007F4F80E894E00E9465078981833711F4C4
:100BB000F801199589818A3339F06DE471E280EA90
:100BC00099E00E9470090BC06BE671E280EA99E03F
:100BD0000E947009CE0101960E94C504D8CFE2960A
:100BE000CDBFDEBFDF91CF911F910F91089581E5B9
:100BF0008093C0080895FC01638392819923ECF7E8
:100C00008381089521E030E002C0220F331F6A95EE
:100C1000E2F7FC012583FAE0FA95F1F700C00895A8
:100C200021E030E002C0220F331F6A95E2F7FC0199
:100C30002683FAE0FA95F1F700C008951F93CF9349
:100C4000DF93EC01162F642F0E94FB05612FCE016C
:100C50000E94FB0560E0CE010E94FB05DF91CF9171
:100C60001F9108950F931F93CF93DF93EC01062FED
:100C7000142F622F0E94FB05602FCE010E94FB05FE
:100C8000612FCE010E94FB05DF91CF911F910F9143
:100C90000895FC01DA011A969C9191FF04C03097E7
:100CA00049F0199508956115710521F0FA018485BF
:100CB000FB01199508951F920F920FB60F92112400
:100CC00008B60F9218BE09B60F9219BE0BB60F9256
:100CD0001BBE2F933F934F935F936F937F938F939D
:100CE0009F93AF93BF93EF93FF936091EB2370912A
:100CF000EC2340E854E08091F3239091F4230E9488
:100D00004906FF91EF91BF91AF919F918F917F9194
:100D10006F915F914F913F912F910F900BBE0F906C
:100D200009BE0F9008BE0F900FBE0F901F90189530
:100D30001F920F920FB60F92112408B60F9218BE91
:100D400009B60F9219BE0BB60F921BBE2F933F939D
:100D50004F935F936F937F938F939F93AF93BF93C3
:100D6000EF93FF936091E9237091EA2340E954E007
:100D70008091F1239091F2230E944906FF91EF9117
:100D8000BF91AF919F918F917F916F915F914F91A3
:100D90003F912F910F900BBE0F9009BE0F9008BE90
:100DA0000F900FBE0F901F9018951F920F920FB6C5
:100DB0000F92112408B60F9218BE09B60F9219BEF1
:100DC0000BB60F921BBE2F933F934F935F936F937E
:100DD0007F938F939F93AF93BF93EF93FF93609114
:100DE000E7237091E82340EA54E08091EF2390914B
:100DF000F0230E944906FF91EF91BF91AF919F911F
:100E00008F917F916F915F914F913F912F910F90B3
:100E10000BBE0F9009BE0F9008BE0F900FBE0F9033
:100E20001F9018951F920F920FB60F92112408B6BB
:100E30000F9218BE09B60F9219BE0BB60F921BBEC9
:100E40002F933F934F935F936F937F938F939F93D2
:100E5000AF93BF93EF93FF936091E5237091E623E7
:100E600040EB54E08091ED239091EE230E944906DF
:100E7000FF91EF91BF91AF919F918F917F916F9172
:100E80005F914F913F912F910F900BBE0F9009BE34
:100E90000F9008BE0F900FBE0F901F901895FC0189
:100EA0008EE180878085806280878085806C8087E6
:100EB0000895FC01228526FF06C0828586958170F3
:100EC00091E08927089580E00895FC011092E323C2
:100ED0001092E4231092E22380E4828750E020E81D
:100EE000828586FF04C081E08093E2231BC0828557
:100EF0008823B4F78091E3239091E423481759079E
:100F00008CF08091E3239091E423DC011196A0936F
:100F1000E323B093E4233485DB01A80FB91F3C938E
:100F20002287DECF8091E2230895FC01828586FF2F
:100F3000FDCF828581FF25C08285806C8287648792
:100F400081858B7F818781858260818782858823E7
:100F500074F4828583FD03C0828582FFF7CF82858A
:100F6000846082878285806C828780E0089580E536
:100F70008A95F1F7828586FFDFCF828580FDDCCF01
:100F800002C080E008958285806C828781E00895A8
:100F9000603924E0720791F024F46038744049F01D
:100FA0001CC0603A24E0720771F0603B744081F02D
:100FB00014C08093F3239093F42308958093F12336
:100FC0009093F22308958093EF239093F023089554
:100FD0008093ED239093EE230895FFCF603924E0B2
:100FE000720791F024F46038744049F01CC0603AF4
:100FF00024E0720771F0603B744081F014C080936C
:10100000EB239093EC2308958093E9239093EA23B4
:1010100008958093E7239093E82308958093E52330
:101020009093E6230895FFCF8F708A3010F0895C8B
:101030000895805D08954F925F926F927F928F9294
:101040009F92AF92BF92EF92FF920F931F93CF9315
:101050007C014A015B0128013901FC01848182FF86
:1010600016C0D901C801689412F8B695A79597954E
:1010700087951694D1F7B901A801032E36E176952C
:101080006795579547953A95D1F7302D15C0D901F9
:10109000C801689413F8B695A79597958795169407
:1010A000D1F7B901A801032E37E1769567955795D9
:1010B00047953A95D1F7302D88159905AA05BB05B6
:1010C00008F4A6C084169506A606B70608F4A2C0C2
:1010D000F701848182FD04C0880C991CAA1CBB1CEA
:1010E000C301B201A50194010E942F2F2F3F3105AA
:1010F0004105510508F490C08FEF90E0A0E0B0E00A
:10110000C9EF05C0281739074A075B0758F0880F51
:10111000991FAA1FBB1FCD3F0CF48160CF5FC73062
:1011200089F74FC0CC230CF04CC0D501C401880F07
:10113000991FAA1FBB1F880F991FAA1FBB1F880FCB
:10114000991FAA1FBB1F481A590A6A0A7B0ACE3F79
:10115000F4F48DEF9FEF8C1B9109C7FD939504C0AC
:10116000440C551C661C771C8A95D2F7D501C40126
:10117000B695A79597958795BC01CD01640D751D12
:10118000861D971DA50194010E942F2F37C083E073
:101190008C0FA501940104C0220F331F441F551F5B
:1011A0008A95D2F7DA01C901B695A79597958795E3
:1011B000BC01CD01640D751D861D971D0E942F2F4A
:1011C0001DC083E08C0FA501940104C0220F331FC2
:1011D000441F551F8A95D2F7DA01C901B695A79524
:1011E00097958795BC01CD01640D751D861D971DD2
:1011F0000E942F2F2150310941095109832F8F70EF
:10120000C295C07FC82BF701C783268381E018C031
:1012100080E016C080E014C0D501C401880F991F7A
:10122000AA1FBB1F880F991FAA1FBB1F880F991FDA
:10123000AA1FBB1F481A590A6A0A7B0AC9EF89CF3D
:10124000CF911F910F91FF90EF90BF90AF909F9023
:101250008F907F906F905F904F9008950F931F93A2
:10126000CF93DF93EC010E941B088FE59AEE019764
:10127000F1F700C0000088E18C83DF91CF911F91CE
:101280000F910895FC01918195FFFDCF6083089532
:10129000FC0191819923ECF780810895FC0161158F
:1012A000710599F08181882334F020E030E005C099
:1012B0009181992314F48081089588E08A95F1F74B
:1012C0002F5F3F4F6217730799F781E0FA01808320
:1012D00080E00895FC018181881F8827881F089578
:1012E000EF92FF920F931F93CF93FB0160816623D0
:1012F00069F08F017C01C0E0C7010E944209CF5F05
:10130000F801EC0FF11D60816111F6CFCF911F91B3
:101310000F91FF90EF900895EF92FF920F931F931C
:10132000CF93DF93442381F07C01EB014150042FE4
:1013300010E00F5F1F4F060F171F6991C7010E9432
:101340004209C017D107C9F7DF91CF911F910F91C3
:10135000FF90EF9008951F93CF93DF93EC01162F2A
:1013600060E771E20E947009812F82958F700E9460
:101370001408682FCE010E944209812F0E94140890
:10138000682FCE010E944209DF91CF911F910895ED
:101390000F931F93CF93DF938C01EB01DD2334F484
:1013A000D195C195D1096DE20E944209CE0160E15B
:1013B00077E20E941B2F662331F0605DC8010E9416
:1013C000420921E001C020E0CE0168EE73E00E94F6
:1013D0001B2FCB016AE070E00E941B2F882381F055
:1013E00060E3680FC8010E944209CE0164E670E024
:1013F0000E941B2FCB016AE070E00E941B2F0EC0E1
:10140000CE0164E670E00E941B2FCB016AE070E021
:101410000E941B2F811102C02223F9F060E3680FA4
:10142000C8010E9442092AE030E0CE01B9010E94C1
:101430001B2FCB01B9010E941B2F60E3680FC8016D
:101440000E944209CE016AE070E00E941B2F60E317
:10145000680FC8010E9442090DC02AE030E0CE01A9
:10146000B9010E941B2FCB01B9010E941B2F8823B9
:1014700049F3E3CFDF91CF911F910F910895FC01C4
:10148000818185FB882780F9089590E00E94441DA2
:1014900008950E94851B8823E1F30E94DE1B0895B6
:1014A000EF92FF920F931F93CF93DF938C017B01F9
:1014B000892B81F0C0E0D0E00E94851B882319F0C1
:1014C0000E94DE1B0BC088E08A95F1F721960C176D
:1014D0001D0791F781E0F701808380E0DF91CF91D4
:1014E0001F910F91FF90EF9008950E94F11C0895B5
:1014F0000F931F93CF93FC018081882361F08F01AC
:10150000C0E090E00E94441DCF5FF801EC0FF11D98
:1015100080818111F6CFCF911F910F9108950F9384
:101520001F93CF93DF93662379F0EC016150062F70
:1015300010E00F5F1F4F080F191F899190E00E9464
:10154000441DC017D107C9F7DF91CF911F910F91AB
:101550000895CF93C82F80E791E20E94780A8C2FDC
:1015600082958F700E94140890E00E94441D8C2F79
:101570000E94140890E00E94441DCF910895CF93DB
:10158000DF93EC0199233CF4D195C195D1098DE20B
:1015900090E00E94441DCE0160E177E20E941B2F83
:1015A000662339F080E3860F90E00E94441D21E01D
:1015B00001C020E0CE0168EE73E00E941B2FCB013A
:1015C0006AE070E00E941B2F882379F0805D90E034
:1015D0000E94441DCE0164E670E00E941B2FCB01E7
:1015E0006AE070E00E941B2F0EC0CE0164E670E03E
:1015F0000E941B2FCB016AE070E00E941B2F81111B
:1016000002C02223E1F0805D90E00E94441D2AE0A8
:1016100030E0CE01B9010E941B2FCB01B9010E941D
:101620001B2F805D90E00E94441DCE016AE070E0B7
:101630000E941B2F805D90E00E94441D0DC02AE097
:1016400030E0CE01B9010E941B2FCB01B9010E94ED
:101650001B2F882351F3E5CFDF91CF9108950F938E
:101660001F93CF93DF931F92CDB7DEB763E771E28D
:1016700080EA99E00E947009198200EB1AE028E0E4
:1016800041E0BE016F5F7F4F8CE40E9437110F90E5
:10169000DF91CF911F910F910895CF938091F72300
:1016A000882329F0C091F623C11106C00AC0C09159
:1016B000F523C11104C005C00E942F0B02C00E9477
:1016C0002F0B8C2FCF9108959091F72398130FC073
:1016D000992331F081E08093F6231092F52305C021
:1016E0001092F62381E08093F5230E942F0B08953A
:1016F000CF93DF93E0E2F7E080818F7E808380816B
:101700008F7D8083E5E3F7E0D8E1D083C2E0C0833A
:1017100063E971E280EA99E00E947009E4E3F7E08E
:10172000D083C0836BEA71E280EA99E00E9470097D
:10173000EAE2F7E08081806180838081806280833B
:10174000E9E2F7E0808181608083DF91CF910895A5
:10175000EAE2F7E08081806180838081806280831B
:10176000E4E3F7E0808182608083E5E3F7E0808155
:1017700082608083E9E2F7E0808181608083089560
:101780009091280794FD19C081111CC048C0811197
:1017900021C01CC09091F52391110DC01FC0811173
:1017A00043C025C0882359F126C08091280785FDB4
:1017B0002CC080E0089580E008959091280795FF5F
:1017C000E6CF08C081E08093F62327C081E08093B4
:1017D000F52323C09091F6239111DCCF9091280737
:1017E00094FFDDCF9091280795FFDCCF08C081E002
:1017F0008093F6230EC081E08093F5230AC0809188
:10180000280784FDD2CF80E008951092F62310922D
:10181000F5230E94A80B81E0089580E0089590913F
:10182000280795FFD3CFD6CF8091280785FFE3CF38
:10183000E6CFFF920F931F93CF93DF93CDB7DEB721
:101840002897CDBFDEBFF82E81E08F258093F72348
:101850000E94C00B882349F161EC71E280EA99E0B3
:101860000E947009F88600EB1AE028E041E0BE0112
:10187000685F7F4F8AE40E943711BE016F5F7F4F20
:1018800087E0FB0111928A95E9F783E0898386E678
:101890008A838FEF8B838C8381E08E838F83FD829D
:1018A00028E047E086E40E9437112896CDBFDEBFCE
:1018B000DF91CF911F910F91FF900895611103C0A7
:1018C000809322070895613011F4809321070895D1
:1018D000662319F0809325070895809326070895BD
:1018E00090912807982381E009F480E00895E0E0D2
:1018F000F7E080818F7B8083E0EEF6E08081806C72
:1019000080830895009709F445C06130C9F018F04C
:10191000623059F141C0A0E0B0E09C01AD0123511B
:10192000310941095109A1E0BFEF0E94A52F2EE620
:1019300030E040E050E00E94512F8FEF820F089579
:10194000A0E0B0E09C01AD012C53310941095109DF
:10195000A1E0BFEF0E94A52F24E630E040E050E078
:101960000E94512F8FEF820F0895A0E0B0E09C01FC
:10197000AD012E50310941095109A1E0BFEF0E948C
:10198000A52F2EE630E040E050E00E94512F8FEF6F
:10199000820F089580E0089580E008950F931F93CB
:1019A000813059F018F0823079F014C0E6EEF6E09C
:1019B00080E8808380E480830DC0E5EEF6E080E877
:1019C000808380E4808306C080E88093E60680E41C
:1019D0008093E50600E117E220E030E040E060E4BB
:1019E00080E097E00E94010ECB011F910F910895B6
:1019F0000F931F93062F662381F0E82FF92F80E0C5
:101A000040E050E0BA01A191B1914A0F5B1F611D06
:101A1000711D8F5F0813F7CF03C040E050E0BA019B
:101A200010E020E030E0CB01BA01A90198010E944A
:101A30002F2FC9011F910F910895AF92BF92CF929E
:101A4000DF92FF920F931F93CF93DF93CDB7DEB753
:101A50002D97CDBFDEBF5E018BE0A80EB11CF12C2F
:101A600065018E010F5F1F4F8F2D0E94CE0CF80174
:101A7000819391938F01EC15FD05B1F765E0CE01DF
:101A800001960E94F80C6F2D0E94820CF501819343
:101A90005F01F394F3E0FF12E4CF1B85FC840D8516
:101AA0006FED71E280EA99E00E947009612F70E0A9
:101AB00080EA99E00E94C8096FE171E280EA99E04A
:101AC0000E9470096F2D70E080EA99E00E94C809B9
:101AD0006FE171E280EA99E00E947009602F70E086
:101AE00080EA99E00E94C80961E873E280EA99E01F
:101AF0000E947009101768F41F1558F4143148F447
:101B000069EE71E280EA99E00E94700984E090E059
:101B100022C0011770F40F1560F48EEB8F1548F496
:101B20006BEF71E280EA99E00E94700981E090E039
:101B300012C0F11658F4F01660F46BE072E280EA1D
:101B400099E00E94700982E090E005C080E090E09A
:101B500002C080E090E02D96CDBFDEBFDF91CF9137
:101B60001F910F91FF90DF90CF90BF90AF9008959D
:101B7000089521E08617970709F020E0822F089545
:101B80004F925F926F927F92AF92BF92CF92DF920D
:101B9000EF92FF920F931F93CF93DF93CDB7DEB7F2
:101BA00029013A019B01AC0124193509460957095D
:101BB0008A899B89AC89BD89BC01CD016A197B09E1
:101BC0008C099D090E94F72EA80197012419350957
:101BD000460957090E94512FCA01B9016A0D7B1DA0
:101BE0008C1D9D1DDF91CF911F910F91FF90EF9064
:101BF000DF90CF90BF90AF907F906F905F904F90AD
:101C000008958F929F92AF92BF92CF92DF92EF9200
:101C1000FF920F931F93FC01862F442311F0A62FF0
:101C200001C0A0E0B901A801440F551F661F771F2E
:101C3000040F151F261F371F3695279517950795F3
:101C40003F7040E050E0BA0190859823A91310C07E
:101C50006A017B019FEFC91AD90AE90AF90A041738
:101C600015072607370709F469C0B701A601ECCFAD
:101C700090859823A91308C090859823A917A1F0EF
:101C8000C12CD12C76012FC06A017B019FEFC91AAC
:101C9000D90AE90AF90A041715072607370709F4CC
:101CA00051C0B701A601E4CF40175107620773077F
:101CB00009F44CC0C12CD12C76010CC04A015B0147
:101CC0008C0C9D1CAE1CBF1C081519052A053B0574
:101CD00009F440C09FEFC91AD90AE90AF90A9085A8
:101CE0009823A91759F3B701A601440F551F661F82
:101CF000771F440F551F661F771FDB01CA01880F2E
:101D0000991FAA1FBB1F880F991FAA1FBB1F840FF3
:101D1000951FA61FB71F8C0D9D1DAE1DBF1DBC01BD
:101D2000CD01605F7F4F8F4F9F4F28E130E040E053
:101D300050E00E942F2FCA01B9010FC060E070E08F
:101D4000CB010BC060E070E0CB0107C060E070E049
:101D5000CB0103C060E070E0CB011F910F91FF90B9
:101D6000EF90DF90CF90BF90AF909F908F900895AD
:101D700080E008950F931F93CF93DF931F92CDB709
:101D8000DEB7198200EB1AE027E041E0BE016F5F89
:101D90007F4F8CE40E9437110F90DF91CF911F91FC
:101DA0000F9108958091280786FD0EC06CE172E2C4
:101DB00080EA99E00E9470090E94BA0E81E0809347
:101DC000F9231092F823089580912807882374F04E
:101DD0006CE172E280EA99E00E9470090E94BA0EFA
:101DE0001092F92381E08093F82308956DE472E264
:101DF00080EA99E00E9470091092F9231092F8236A
:101E0000089581E08093F9231092F8230E94BA0E7E
:101E100008951092F92381E08093F8230E94BA0E6E
:101E20000895E0E2F7E09081282F20959223908397
:101E30009081262F209592239083883029F138F4C1
:101E40008230B1F08430D1F08130D9F50BC08032CE
:101E500039F118F48031F1F034C0803439F1803830
:101E600059F12FC0E0E3F7E080818861808329C0C9
:101E7000E1E3F7E080818861808323C0E2E3F7E05B
:101E80008081886180831DC0E3E3F7E08081886101
:101E9000808317C0E4E3F7E080818861808311C00C
:101EA000E5E3F7E08081886180830BC0E6E3F7E03B
:101EB00080818861808305C0E7E3F7E080818861E5
:101EC0008083683029F138F46230B1F06430D1F0A9
:101ED0006130D9F50BC0603239F118F46031F1F09E
:101EE0000895603439F1603859F10895E0E3F7E07E
:101EF0008081886180830895E1E3F7E080818861D3
:101F000080830895E2E3F7E080818861808308950B
:101F1000E3E3F7E08081886180830895E4E3F7E0FC
:101F20008081886180830895E5E3F7E0808188619E
:101F300080830895E6E3F7E08081886180830895D7
:101F4000E7E3F7E08081886180830895EBE2F7E0C2
:101F50009081982B90839081692B6083843009F164
:101F600028F4813041F0823089F03BC0883021F183
:101F7000803169F136C0E0E3F7E0808182608083E0
:101F8000E1E3F7E08081826080832BC0E1E3F7E04A
:101F9000808182608083E2E3F7E0808182608083D9
:101FA00020C0E2E3F7E0808182608083E3E3F7E032
:101FB00080818260808315C0E2E3F7E080818260E7
:101FC0008083E4E3F7E08081826080830AC0E2E3FB
:101FD000F7E0808182608083E5E3F7E080818260C2
:101FE0008083E9E2F7E0808184608083089560E87F
:101FF00080E40E94110F2FE782E392E0215080409D
:102000009040E1F700C000008091280786FD27C0BE
:102010008091FA23811128C022C08091FA23811176
:1020200027C015C08091F823811117C025C0809169
:10203000FA2381110CC03AC08091FA23811129C082
:1020400024C080912807882354F180E0089560E837
:1020500080E40E94A60F81E0089580E008958091B9
:10206000280786FFDACF04C081E08093F9231CC0E3
:102070008091F9238111D6CF809128078823BCF65F
:10208000809128078823C4F604C081E08093F82358
:102090000BC08091280786FDD4CF80E00895109270
:1020A000F9231092F823D3CF80E008958091280778
:1020B00088235CF7EECFFF920F931F93CF93DF93AC
:1020C000CDB7DEB72897CDBFDEBFF82E0E94F70F41
:1020D000882321F1F092FA23F88600EB1AE027E03A
:1020E00041E0BE01685F7F4F8AE40E943711BE0164
:1020F0006F5F7F4F87E0FB0111928A95E9F781E0DE
:102100008F8389838CE28A8383E18B8388E88C8345
:10211000FD8227E047E086E40E9437112896CDBF74
:10212000DEBFDF91CF911F910F91FF9008958091B5
:10213000F923882329F08091F823882349F0089512
:1021400080E00E945B108091F9238823C9F3F3CFCC
:1021500081E00E945B108091F8238823C9F30895E1
:10216000DF92EF92FF920F931F93CF93DF93CDB740
:10217000DEB72897CDBFDEBF8C010E94F70F882302
:1021800069F10115110531F0EE24FF24E01AF10A7E
:10219000D12C04C0E12CF12CDD24D394D88600EBA3
:1021A0001AE027E041E0BE01685F7F4F8AE40E94A9
:1021B0003711BE016F5F7F4F87E0FB0111928A9557
:1021C000E9F781E08F83898380E98A83FB82EC824F
:1021D000DD8227E047E086E40E9437112896CDBFD4
:1021E000DEBFDF91CF911F910F91FF90EF90DF90B5
:1021F0000895DF92EF92FF920F931F93CF93DF9397
:10220000CDB7DEB72897CDBFDEBFF82EE62ED72E8E
:102210000E94F70F882301F1F88600EB1AE027E00F
:1022200041E0BE01685F7F4F8AE40E943711BE0122
:102230006F5F7F4F87E0FB0111928A95E9F781E09C
:102240008F8389838CE28A83DB82EC82FD8227E0A4
:1022500047E086E40E9437112896CDBFDEBFDF91AC
:10226000CF911F910F91FF90EF90DF900895CF9243
:10227000DF92EF92FF920F931F93CF93DF93D82EAD
:102280007B01D42FC22EF894CCEFC81BC41BC21BF9
:10229000442369F0FB012FEF240F30E02F5F3F4F05
:1022A000260F371F8191C81BE217F307D9F76FEF8D
:1022B000C8010E9442096FEFC8010E9442096C2DBB
:1022C000C8010E94420963E06D0FC8010E944209E3
:1022D00060E0C8010E9442096D2DC8010E944209B8
:1022E0004D2FB701C8010E948C096C2FC8010E94B4
:1022F00042092FE782E392E0215080409040E1F7CD
:1023000000C000007894DF91CF911F910F91FF9052
:10231000EF90DF90CF9008950F931F93CF93DF93AB
:102320001F92CDB7DEB7262F898300EB1AE041E07C
:10233000BE016F5F7F4F8AE40E9437110F90DF91DB
:10234000CF911F910F910895CF92DF92EF92FF925C
:102350000F931F93CF93DF93CDB7DEB72897CDBFF1
:10236000DEBF6230710561F020F461307105A9F0C3
:1023700039C06330710541F06430710551F032C0ED
:102380006894CC24C1F80BC00F2EF3E0CF2EF02DB3
:1023900006C06894CC24C2F802C0CC24C394D52EC5
:1023A000E42EF82E898300EB1AE02C2D41E0BE01CB
:1023B0006F5F7F4F8AE40E943711BE016E5F7F4FCF
:1023C00087E0FB0111928A95E9F78FEF8C838D836B
:1023D00081E08887DA82EB82FE822C2D47E086E45A
:1023E0000E9437112896CDBFDEBFDF91CF911F919C
:1023F0000F91FF90EF90DF90CF9008950F931F9370
:10240000CF93DF931F92CDB7DEB78230910551F0A5
:1024100018F4019769F017C08330910529F00497EB
:1024200029F011C022E005C023E003C024E001C070
:1024300021E0198200EB1AE041E0BE016F5F7F4F9F
:102440008CE40E9437110F90DF91CF911F910F9173
:102450000895CF92DF92EF92FF920F931F93CF9345
:10246000DF93CDB7DEB72897CDBFDEBF61307105F2
:1024700041F06230710571F50F2EF6E0CF2EF02D90
:1024800004C00F2EF5E0CF2EF02DD52EE42EF82E21
:10249000898300EB1AE02C2D41E0BE016F5F7F4F76
:1024A0008AE40E943711BE016E5F7F4F87E0FB0117
:1024B00011928A95E9F78FEF8C838D8382E08F8369
:1024C00081E08887DA82EB82FE822C2D47E086E469
:1024D0000E9437112896CDBFDEBFDF91CF911F91AB
:1024E0000F91FF90EF90DF90CF9008950F931F937F
:1024F000CF93DF931F92CDB7DEB78130910521F0E6
:10250000029769F426E001C025E0198200EB1AE089
:1025100041E0BE016F5F7F4F8CE40E9437110F9046
:10252000DF91CF911F910F9108950F931F93CF9338
:10253000DF93CDB7DEB72897CDBFDEBF198200EBA2
:102540001AE02AE041E0BE016F5F7F4F8AE40E94FB
:102550003711BE016E5F7F4F87E0FB0111928A95B4
:10256000E9F78FEF8C838D8381E0888783E08A830E
:1025700088EE8B832AE047E086E40E943711289694
:10258000CDBFDEBFDF91CF911F910F9108950F93C3
:102590001F93CF93DF931F92CDB7DEB7198200EB65
:1025A0001AE02AE041E0BE016F5F7F4F8CE40E9499
:1025B00037110F90DF91CF911F910F9108950F93D5
:1025C0001F93CF93DF931F92CDB7DEB7698300EBE4
:1025D0001AE0282F41E0BE016F5F7F4F85E00E9427
:1025E00037110F90DF91CF911F910F910895E7EE72
:1025F000F6E08081806380830895882331F0E6EEE1
:10260000F6E08081806380830895E5EEF6E08081C6
:10261000806380830895CF93DF93D82FC62F64E81B
:1026200072E280EA99E00E947009C33049F128F40F
:10263000C130D1F1C23071F140C0C53069F0B0F0A5
:10264000C630D9F5DD2321F082E08093E50735C05F
:1026500082E08093E60731C0DD2321F081E08093A2
:10266000E5072BC081E08093E60727C0DD2321F03A
:1026700088E08093C50721C088E08093C6071DC00D
:10268000DD2321F084E08093C50717C084E08093A8
:10269000C60713C0DD2321F082E08093C5070DC07B
:1026A00082E08093C60709C0DD2321F081E080939A
:1026B000C50703C081E08093C607DF91CF910895DD
:1026C000982F862F692F0E940B130895CF93C82F40
:1026D000682F81E00E940B132FEF85EA9EE02150C6
:1026E00080409040E1F700C000006C2F80E00E9425
:1026F0000B13CF9108956091FC2380E894E00E9431
:10270000950708956091FB2380E894E00E94950767
:102710000895009709F45CC1803C910529F460E1BB
:1027200080E00E94AF2A0895803424E0920729F4C3
:1027300068E080E00E94AF2A0895811524E09207A6
:1027400029F464E080E00E94AF2A0895803821E0F7
:10275000920729F462E080E00E94AF2A0895811573
:1027600021E0920729F461E080E00E94AF2A0895F9
:10277000803823E0920729F461E081E00E94AF2ACB
:102780000895803923E0920729F461E082E00E94F5
:10279000AF2A0895811522E0920729F462E081E0D2
:1027A0000E94AF2A0895803422E0920729F462E063
:1027B00082E00E94AF2A0895811523E0920729F450
:1027C00064E081E00E94AF2A0895803223E09207FE
:1027D00029F464E082E00E94AF2A0895811528E080
:1027E000920729F461E083E00E94AF2A08958115E1
:1027F00029E0920729F461E084E00E94AF2A08955D
:1028000081152AE0920729F461E085E00E94AF2A51
:10281000089581152BE0920729F461E086E00E947B
:10282000AF2A0895803428E0920729F462E083E01B
:102830000E94AF2A0895803429E0920729F462E0CB
:1028400084E00E94AF2A089580342AE0920729F498
:1028500062E085E00E94AF2A089580342BE0920761
:1028600029F462E086E00E94AF2A0895803928E0CA
:10287000920729F464E083E00E94AF2A089580392A
:1028800029E0920729F464E084E00E94AF2A0895C9
:1028900080392AE0920729F464E085E00E94AF2A9B
:1028A000089580392BE0920729F464E086E00E94C5
:1028B000AF2A0895803C28E0920729F468E083E07D
:1028C0000E94AF2A0895803C29E0920729F468E02D
:1028D00084E00E94AF2A0895803C2AE0920729F400
:1028E00068E085E00E94AF2A0895803C2BE09207C3
:1028F00029F468E086E00E94AF2A0895803A28E033
:10290000920729F460E183E00E94AF2A0895803A9B
:1029100029E0920729F460E184E00E94AF2A08953B
:10292000803A2AE0920729F460E185E00E94AF2A0C
:102930000895803A2BE0920729F460E186E00E9436
:10294000AF2A0895803B28E0920729F460E283E0F3
:102950000E94AF2A0895803B29E0920729F460E2A3
:1029600084E00E94AF2A0895803B2AE0920729F470
:1029700060E285E00E94AF2A0895803B2BE0920739
:1029800029F460E286E00E94AF2A0895803824E0AE
:10299000920729F460E483E00E94AF2A0895803909
:1029A00024E0920729F460E484E00E94AF2A0895AD
:1029B000803A24E0920729F460E485E00E94AF2A7F
:1029C0000895803B944021F460E486E00E94AF2AA1
:1029D0000895282F862F90E0FC013197EC30F10507
:1029E00008F0B6C08827E250FF4F8F4F0C94702F2D
:1029F000222321F080E88093250703C080E880939C
:102A0000260780912807881F8827881F089522237A
:102A100021F080E48093250703C080E4809326079B
:102A20008091280786FB882780F90895222321F0CA
:102A300080E28093250703C080E28093260780917F
:102A4000280785FB882780F90895222321F080E15B
:102A50008093250703C080E1809326078091280793
:102A6000829581700895222321F088E080932507C4
:102A700003C088E0809326078091280783FB88277E
:102A800080F90895222321F084E08093250703C074
:102A900084E0809326078091280782FB882780F9AD
:102AA0000895222321F082E08093250703C082E06D
:102AB00080932607809128078695817008952223A8
:102AC00021F081E08093250703C081E080932607F1
:102AD0008091280781700895222321F080E8809357
:102AE000050703C080E88093060780910807881FC8
:102AF0008827881F0895222321F080E4809305070A
:102B000003C080E4809306078091080786FB88272E
:102B100080F90895222321F080E88093E50603C020
:102B200080E88093E6068091E806881F8827881F42
:102B30000895222321F080E48093E50603C080E419
:102B40008093E6068091E80686FB882780F9089541
:102B500080E00895682F81E00E94E9140895AAECAE
:102B6000B1E022E02C93FC0184911C920895FC01B9
:102B7000633089F028F4613041F0623049F01DC0C3
:102B8000643061F0653069F018C088E081830BC063
:102B900080E1818308C088E1818305C080E2818370
:102BA00002C088E28183808180688083938190FF66
:102BB000FDCF81E083838481089580E0089580962D
:102BC0000E94B71508950F931F93CF93DF93EC01E5
:102BD000C11582E0D80779F480B590E00E94AF1566
:102BE00000E012E0F801848781B590E00E94AF1503
:102BF000F801858714C0C034F2E0DF0779F484B5AA
:102C000090E00E94AF1500E412E0F801848785B5DA
:102C100090E00E94AF15F801858701C0FFCF82E0E8
:102C2000888380E28A8384E089838C8388818160C1
:102C3000888381E088A31092220261E0CE010E9485
:102C4000DF1561E0CE010E94DF15DF91CF911F916A
:102C50000F910895682F80E092E00E94DF1590E0C8
:102C6000FC01FC97E43CF105F0F48827E65FFE4F99
:102C70008F4F0C94702F85E0089587E0089588E0C9
:102C8000089589E008958AE008958BE008958CE026
:102C900008958DE008958EE0089580E1089584E11F
:102CA000089589E108958EE1089584E00895682FDC
:102CB00080E092E00E94DF1590E00895CF93DF93CB
:102CC000CDB7DEB72B97CDBFDEBF60E874E082E8FA
:102CD00093E10E94C8070F2EF6EECF2EF6E0DF2E0E
:102CE000F02D0F2EF7E09F2EF02D5E0184E0A80E50
:102CF000B11C0F2EFCE47F2EF02D0F2EF2E38F2E51
:102D0000F02D0F2EF5EEEF2EF6E0FF2EF02D80E8E1
:102D100094E00E9459078823D1F3F60180818063F3
:102D2000808343E0BE016F5F7F4F80E894E00E94A4
:102D300065078FE697E10197F1F700C00000E0E832
:102D4000F4E08285806C82878981811120C08B812B
:102D50008B8700EB1AE02A8141E0BE01655F7F4F5F
:102D60008AE40E943711F501892D11928A95E9F7BD
:102D700081E08C837D828F8289878A878B81888797
:102D80002A81492DB50186E40E94371108C081309F
:102D900031F48A8190E00E9457168093FB23F7015B
:102DA000808180638083B3CF8FE38093020708958F
:102DB0008230A9F028F4882349F0813059F026C0E8
:102DC0008430C9F090F08530D9F020C08091080798
:102DD000817008958091080786958170089580918B
:102DE000080782FB882780F908958091080783FBF4
:102DF000882780F908958091080782958170089549
:102E00008091080785FB882780F9089580E0089560
:102E10000E94D81608951F920F920FB60F92112498
:102E200008B60F9218BE09B60F9219BE0BB60F92D4
:102E30001BBE2F933F934F935F936F937F938F931B
:102E40009F93AF93BF93CF93EF93FF93E8E2F7E0A5
:102E5000C081C071808185FD09C065E972E280EAA8
:102E600099E00E94700980E00E94640BC11109C0C2
:102E700068EB72E280EA99E00E94700981E00E94AA
:102E8000640BFF91EF91CF91BF91AF919F918F9183
:102E90007F916F915F914F913F912F910F900BBE5A
:102EA0000F9009BE0F9008BE0F900FBE0F901F909D
:102EB00018951F920F920FB60F92112408B60F9219
:102EC00018BE09B60F9219BE0AB60F921ABE0BB6FB
:102ED0000F921BBE2F933F934F935F936F937F93FC
:102EE0008F939F93AF93BF93CF93DF93EF93FF9312
:102EF000E8E2F7E0D081C081C07869ED72E280EA53
:102F000099E00E947009D6FD08C06CEE72E280EA7A
:102F100099E00E9470090E94D20EC11108C060E1C0
:102F200073E280EA99E00E9470090E94D20EFF913C
:102F3000EF91DF91CF91BF91AF919F918F917F9151
:102F40006F915F914F913F912F910F900BBE0F901A
:102F50000ABE0F9009BE0F9008BE0F900FBE0F90D3
:102F60001F90189580E38093E1068093E60608950C
:102F7000CF92DF92EF92FF920F931F93CF93DF9345
:102F800087E08093A20078940E94342A0E94B81EA1
:102F900080E894E00E94891380EA99E00E948913F6
:102FA00080EB9AE00E94891380E092E00E948913EE
:102FB00080E894E00E944F0760E874E08BE793E1BB
:102FC0000E94C8070E94D72E0E94B217E12C00E091
:102FD00016E32EE631E040E052EC61E070E080EA7A
:102FE00099E00E942E0900E016E32EE631E04CEE57
:102FF00050E960E070E080EB9AE00E942E0900E06A
:1030000016E32EE631E04CEE50E960E070E080EA35
:103010009BE00E942E0980E38093850680E092E089
:103020000E94E315C1E0D0E0CE010E94FE1121967E
:10303000CC30D105C9F7C1E0D0E0CE010E947612B4
:103040002196CC30D105C9F70E94BA0E0E942F0BF1
:1030500078940E94780B8FE38093020785E393E2D4
:103060000E94780A6BE373E280EA99E00E9470099B
:103070008BE393E20E94780A0E9484050F2EF0E20F
:10308000CF2EF1EADF2EF7E0EF2EF12CF02D80E8C5
:1030900094E00E945907882321F08EE596E10E9472
:1030A000BD0588E08A95F1F781E0C81AD108E108EA
:1030B000F10869F764E873E280EA99E00E94700918
:1030C0006EE973E280EA99E00E9470098EE993E26A
:1030D0000E94780AE0E0F0E8E491EF3F91F465EBBC
:1030E00073E280EA99E00E94700985EB93E20E9406
:1030F000780AC8E0D6E088818111FDCF0E942604BD
:10310000FACF81E08093FC2368EC73E280EA99E0D7
:103110000E94700988EC93E20E94780A0C940040A7
:1031200080E090E0DF91CF911F910F91FF90EF90A1
:10313000DF90CF900895E7EEF6E080818061808394
:103140000895E7EEF6E08081806280830895109212
:10315000122510921E2510921F25E4E1F5E281EA66
:10316000808380E28183128213821482158282E03E
:1031700090E08683978310861186E2E2F5E280E094
:1031800092ECA1E0B0E080839183A283B3831482A8
:10319000158288E08683809112258F5F80931225A7
:1031A00081E0089580911225815080931225089521
:1031B00080911125815080931125809111251092C5
:1031C0001025089580E0089580E00895809171268B
:1031D0008823CCF480768032B9F5809172268132D2
:1031E000A9F58091772690917826079789F5E1E7F0
:1031F000F6E282E295E28087918787E090E082871D
:10320000938781E008958076803221F5809172263F
:10321000803221F0823201F180E00895809177269A
:10322000909178260797D1F4E1E7F6E280E399E1FF
:103230008487958782E295E28087918787E090E096
:103240008287938781E0089580E0089580E0089563
:1032500080E0089580E0089581E0089580E0089579
:103260000895FF920F931F93CF93DF931F92CDB7D3
:10327000DEB78091002481119FC00E94AF25882372
:1032800051F000910124109102240E94BC250817DE
:10329000190759F491C000910124109102240E9451
:1032A000B7250817190709F487C08FB78983F894E1
:1032B000198100910324E02FF0E0EE0FFF1FEC5F77
:1032C000FB4D80819181892B09F58091FD2390919F
:1032D000FE2301968093FD239093FE230E94AF2549
:1032E000811107C08091FD239091FE2384369105C2
:1032F00058F00E94AF25882349F08091FD239091DA
:10330000FE238032934010F41FBF56C01092FD235D
:103310001092FE238091FF23811106C081E00111EC
:1033200080E08093032404C081E0011180E0082F35
:1033300081E0809300241FBF10E0F801EE0FFF1F13
:10334000EC5FFB4D80819181FF24F39480349105E3
:1033500009F4F12C8034910591F00E94AF25882367
:1033600039F00E94BC2580930124909302240BC065
:103370000E94B725809301249093022404C01092E8
:10338000012410920224F801EE0FFF1FEC5FFB4DA9
:1033900020813181A80100245695479507945695C0
:1033A00047950794542F402D485F5B4D03EE19E17C
:1033B0006F2D81E80E94C5260F90DF91CF911F915C
:1033C0000F91FF900895811116C02091032481E090
:1033D00090E0222311F080E090E0880F991FFC011B
:1033E000EC5FFB4D108211821092FF23109200249B
:1033F00080E00E943119089580E00E9431190895FB
:103400000F931F938091202581111FC020911E25AD
:1034100030911F2580911C2590911D252817390773
:10342000A1F0862F20911E2530911F2520931C2569
:1034300030931D2503E51AE12AE030E044E155E22E
:1034400060E00E94C526809320251F910F9108956A
:10345000CF93DF931F92CDB7DEB78FB78983F894F0
:103460002981662359F080911E2590911F25482BB4
:10347000592B40931E2550931F250CC080911E256B
:1034800090911F25409550954823592340931E2520
:1034900050931F252FBF62E880E00E94001A0F9012
:1034A000DF91CF9108951092202580911E25909153
:1034B0001F25837880931E2590931F25E4E1F5E274
:1034C00080859185837880879187642F80E00E9432
:1034D000001A089541E050E0682F80E00E94281A09
:1034E000089542E050E0682F80E00E94281A089575
:1034F00040E150E061E080E00E94281A089540E237
:1035000050E061E080E00E94281A089540E450E015
:1035100061E080E00E94281A089541E050E00E9496
:10352000281A089542E050E00E94281A089540E1C8
:1035300050E061E00E94281A089540E250E061E006
:103540000E94281A089540E450E061E00E94281A81
:103550000895CF93DF931F92CDB7DEB78FB78983DE
:10356000F89449812091892430918A24E0918B2418
:10357000F0E0EE0FFF1FE457FB4D808191814FBFBC
:10358000821B930B0F90DF91CF91089580E00E94F2
:10359000A91A08950E94A91A21E0892B09F420E0B4
:1035A000822F08950F931F93CF93DF931F92CDB770
:1035B000DEB78FB78983F894998120918B2480910D
:1035C0008824811110C06091892470918A24022F6F
:1035D00010E0F801EE0FFF1FE457FB4D40815181D1
:1035E0006417750718F49FBF80E024C010928924E7
:1035F00010928A2481E0211180E080938B2481E065
:10360000809388249FBF80E00E94CA1AA8010024EA
:10361000569547950794569547950794542F402DF6
:1036200040575B4D04E51BE120E430E061E082E0BF
:103630000E94C5260F90DF91CF911F910F910895A1
:1036400010921125109200241092FF23109203244F
:10365000E4E0F4E2108211821282138210920124BB
:103660001092022480E00E94311910928824109256
:103670008B24ECE8F4E21082118212821382109201
:10368000892410928A2480E00E94D21A882359F05B
:10369000909111259F5F9093112590911125913064
:1036A00011F49093102508950F931F9381112AC050
:1036B00080918B24E1E08111E0E0842F6115710598
:1036C000A9F44E2F50E0002456954795079456953F
:1036D00047950794542F402D40575B4D04E51BE15F
:1036E00020E430E061E00E94C5260CC0F0E0EE0F5F
:1036F000FF1FE457FB4D608371831092882480E0A4
:103700000E94D21A1F910F91089580E00E94CA1A58
:103710000895EF92FF921F93CF93DF931F92CDB73F
:10372000DEB711E080912825893009F010E040E0F3
:1037300050E08FB78983F894A98120918924309132
:103740008A2480918B2490E0FC01EE0FFF1FE45748
:10375000FB4D60817181AFBF2617370730F0809134
:1037600010258111E6CF90E022C0FC010024F695DF
:10377000E7950794F695E7950794FE2FE02DE0571F
:10378000FB4DE20FF31F80817A01E82A2F5F3F4F44
:103790002093892430938A2480E00E94D21A112336
:1037A00021F05E2D442710E0C4CF8E2D9F2D0F9069
:1037B000DF91CF911F91FF90EF90089580E00E94DC
:1037C000891B0895CF92DF92EF92FF920F931F9380
:1037D000CF93DF931F92CDB7DEB76B017A018FB71E
:1037E0008983F89449816091892470918A24809119
:1037F0008B2490E0FC01EE0FFF1FE457FB4D20816E
:1038000031814FBF6217730738F080911025811105
:10381000E6CF8E2D9F2D36C0FC01EE0FFF1FE45723
:10382000FB4D20813181261B370B87012E153F056B
:1038300008F48901002496958795079496958795B5
:103840000794982F802D680F791F60577B4DA80132
:10385000C6010E94AA2F8091892490918A24800F0A
:10386000911F8093892490938A24C00ED11EE01A60
:10387000F10A80E00E94D21AE114F10409F0AFCFFE
:1038800080E090E00F90DF91CF911F910F91FF901A
:10389000EF90DF90CF900895EF92FF920F931F93D8
:1038A000CF93DF931F921F92CDB7DEB7DC019091CB
:1038B0001025992309F445C08FB78983F89489812D
:1038C0004091892450918A2420918B2430E0F90181
:1038D000EE0FFF1FE457FB4DE080F180E41AF50A7C
:1038E0008FBF062F172FE016F10608F48701011588
:1038F000110551F1CD010024369527950794369591
:1039000027950794322F202DB901640F751F60573A
:103910007B4DA8010E94AA2F8FB78A83F8948A81D1
:103920002091892430918A24020F131F0093892447
:1039300010938A248FBF80E00E94D21A8E2D9F2D73
:1039400005C080E090E002C08E2D9F2D0F900F905B
:10395000DF91CF911F910F91FF90EF900895AB01F0
:10396000BC0180E00E94E21B0895CF93DF931F9279
:10397000CDB7DEB78FB78983F894998180910324FE
:10398000E82FF0E0EE0FFF1FEC5FFB4D208131814F
:103990002034310589F44091002441110DC040913B
:1039A000FF23411109C021E02093FF23811120E072
:1039B0002093032420E030E09FBF80E490E0821B4E
:1039C000930B0F90DF91CF91089580E00E94B51C7A
:1039D00008950E94B51C21E0892B09F420E0822F74
:1039E000089580E00E94E91C0895FF920F931F93B1
:1039F000CF93DF931F92CDB7DEB7F62E172F01E0DE
:103A000080912825893009F000E080E00E94E91CBF
:103A1000811107C0809110258111F7CF80E090E0DF
:103A20002CC08FB78983F89449818091032490E05A
:103A3000FC01EE0FFF1FEC5FFB4D20813181B901CE
:103A40006F5F7F4F608371830024969587950794FD
:103A5000969587950794982F802D885F9B4DFC0144
:103A6000E20FF31FF0824FBF002329F0F12E110F58
:103A7000110B00E0CACF81E090E00F90DF91CF9171
:103A80001F910F91FF900895BC0180E00E94F51CEA
:103A900008955F926F927F928F929F92AF92BF92A2
:103AA000CF92DF92EF92FF920F931F93CF93DF930A
:103AB0001F92CDB7DEB74B015A018091282589307E
:103AC00011F4AA0CBB1C6894662466F8712C80E083
:103AD0000E94E91C811107C0809110258111F7CF48
:103AE0008A2D9B2D3AC08FB78983F8945980009115
:103AF000032410E0F801EE0FFF1FEC5FFB4DE080A8
:103B0000F180C3018E199F0965018A159B0508F490
:103B10006C01C80100249695879507949695879522
:103B20000794982F802D8E0D9F1DA601B401885FEC
:103B30009B4D0E94AA2F000F111FF801EC5FFB4D57
:103B4000EC0CFD1CE082F1825FBE8C0C9D1CAC185D
:103B5000BD0809F0BCCF80E090E00F90DF91CF91DD
:103B60001F910F91FF90EF90DF90CF90BF90AF909B
:103B70009F908F907F906F905F900895AB01BC01F4
:103B800080E00E94491D0895E0912E25F0912F2597
:103B90000190F081E02D228133812E0F3F1FFC0127
:103BA0004081E40FF11DE217F307A0F48181843016
:103BB000A1F0861306C014C081818430A1F086175D
:103BC000A9F08081E80FF11DE217F307A8F380E068
:103BD00090E0089580E090E0089580E090E00895FE
:103BE0008E2F9F2F089580E090E008958E2F9F2FB5
:103BF0000895809173268F770E94B1250895909142
:103C00003025992381F1E0912E25F0912F25019007
:103C1000F081E02D9481891740F5E0932C25F093F5
:103C20002D25228133812E0F3F1FE217F307F8F471
:103C30009181943061F49281891309C09381961324
:103C400006C0E0932C25F0932D2581E00895908106
:103C5000E90FF11DE217F30758F3E0932C25F093D9
:103C60002D2580E0089580E0089580E0089580E0AB
:103C70000895EF92FF921F93CF93DF93C82F60E0D8
:103C80000E94FF1D182F882391F1A0912E25B0913D
:103C90002F25EC2FF0E0EE0FFF1F12968D919C91D7
:103CA0001397E80FF91FE080F180D7011696ED9188
:103CB000FC9117971995682F8C2F0E94FF1D182FC4
:103CC0008823A9F0C0912C25D0912D2565E0CE0147
:103CD0000E94C41DEC01892B21F08A810E94E327F8
:103CE000F5CFD7011296ED91FC9113971995812F7D
:103CF000DF91CF911F91FF90EF9008951F93CF9385
:103D0000DF93182F0E94FF1D882349F1C0912C25B5
:103D1000D0912D2565E0CE010E94C41DEC01892BB8
:103D200049F04C815D816B818A810E94D625811189
:103D3000F1CF15C0A0912E25B0912F25E12FF0E0F5
:103D4000EE0FFF1F12968D919C911397E80FF91FAC
:103D50000190F081E02D0190F081E02D1995DF9127
:103D6000CF911F91089580912C2590912D25089534
:103D70000E9423250895CF93809130258823C9F090
:103D8000E0912E25F0912F250190F081E02D848186
:103D9000882379F0C0E08C2F0E94391ECF5FE0911C
:103DA0002E25F0912F250190F081E02D8481C817F8
:103DB00090F31092302581E090E080933425909329
:103DC0003525CF9108950E94C5240E94BB1E0895F9
:103DD000CF9380913025882349F1A0912E25B09171
:103DE0002F25ED91FC91119784818823F9F0C0E093
:103DF000EC2FF0E0EE0FFF1F12968D919C91139720
:103E0000E80FF91F0190F081E02D0084F185E02D8D
:103E1000309709F01995CF5FA0912E25B0912F25ED
:103E2000ED91FC9111978481C81710F3CF910895FB
:103E30000F931F93CF93DF93E1E7F6E21286138689
:103E40001486158616861786808188230CF081C219
:103E500020917726309178262115310509F074C21A
:103E60006BC28F7109F0ABC090917226963081F0D1
:103E7000983009F499C09111A2C02230310509F09F
:103E800016C262E070E084E395E20E94CF256AC228
:103E90008091732690917426292F33272230310583
:103EA000B1F020F42130310541F0C1C1233031059A
:103EB000F1F12F30310561F1BAC180914C20909120
:103EC0004D20DC016C9170E00E94CF255EC0E09136
:103ED0004C20F0914D202189821708F0E8C19927E4
:103EE000880F991F880F991FE0914E20F0914F2065
:103EF000E80FF91F80819181FC01628173810E942A
:103F0000CF25E0917926F0917A2682E081833DC029
:103F10008091502090915120009709F4C8C1DC0194
:103F200012966D917C9113970E94CF252EC09927F0
:103F30008130910599F058F08230910509F40EC254
:103F4000039709F07DC131E0E0EEF3E20AC064E0DE
:103F500070E088E490E20E94CF2517C0E2E4F0E22E
:103F600035E0AAE1B0E220E0819190E08D939D934D
:103F70002F5F2317C8F3632F660F6E5F60931820BF
:103F800070E088E190E20E94CF25E1E7F6E28681C9
:103F90009781228533858217930708F0E3C18093C8
:103FA0007B2690937C26DEC12130310509F07FC14C
:103FB00061E070E080E395E20E94CF25D3C18130BB
:103FC000F1F5909172269A30D1F52130310509F042
:103FD0003CC180913025882309F437C1C0917526F2
:103FE000D091762600912E2510912F25D801ED91A4
:103FF000FC918481C81708F028C160E08C2F0E94D2
:10400000FF1D882309F41CC1CE019927880F991F31
:10401000D8011296ED91FC911397E80FF91F0190CA
:10402000F081E02D86819781FC01199580933225DE
:1040300061E070E082E395E20E94CF2593C1823077
:1040400009F0FEC0809172268111F3C02230310543
:1040500009F02DC1809175260E94672690E080931B
:104060002A2590932B2562E070E08AE295E20E9477
:10407000CF2578C18F7109F086C090917226933058
:1040800009F4D9C018F49130A1F07DC0953019F031
:10409000993039F178C08091772690917826892BD4
:1040A00009F005C189EF9DE180937D2690937E26DE
:1040B00059C18091772690917826892B09F0F7C015
:1040C0008091732690917426019709F0F0C0809139
:1040D0003425909135258D7F809334259093352517
:1040E00041C18091772690917826892B09F0DFC015
:1040F0000E94B425882309F4A3C02091732630912F
:1041000074263327E0914C20F0914D20818990E076
:104110008217930708F494C00E94BB1E80917326F7
:104120009091742680933025882309F41BC1992728
:104130008150904C880F991F880F991FE0914E2055
:10414000F0914F20E80FF91FE0932E25F0932F25D3
:104150000190F081E02D8481882309F403C1C0E03F
:1041600060E08C2F0E947E1E882309F469C0CF5F17
:10417000E0912E25F0912F250190F081E02D848192
:10418000C81770F3EFC08130F9F4909172269B301C
:10419000D9F48091772690917826892B09F055C023
:1041A00080913025882309F450C0E1E7F6E2C4810C
:1041B000D2818C2F0E94391E882309F441C06D2FB3
:1041C0008C2F0E947E1E3AC08230D1F580917226DB
:1041D000813019F08330A1F030C080917726909122
:1041E0007826892B09F063C08091732690917426FC
:1041F000892B09F05CC0809175260E9482261EC022
:104200008091772690917826892B09F050C0809173
:10421000732690917426892B09F049C0C1E7D6E234
:104220008C810E9493278C810E94002807C080E027
:1042300005C080E003C080E001C080E0811193C030
:10424000809171268F71813091F58091302588237E
:1042500009F474C00091752610917626C0912E2520
:10426000D0912F25E881F9818481081708F068C072
:1042700060E0802F0E94FF1D8823C9F0F801FF270E
:10428000CF01880F991FEA81FB81E80FF91FC081D8
:10429000D181EE81FF811995682F802F0E94FF1D2B
:1042A000882329F0EC81FD81199581115CC08091F2
:1042B00071268F71823009F045C0809130258823A6
:1042C000B9F1A0912E25B0912F25ED91FC91119778
:1042D0008481882379F1C0E0EC2FF0E0EE0FFF1F1E
:1042E00012968D919C911397E80FF91F008111810F
:1042F000D8011696ED91FC9117971995682F8C2F80
:104300000E94FF1D882379F1D8011496ED91FC914C
:1043100015971995811127C0CF5FA0912E25B091D7
:104320002F25ED91FC9111979481C917A8F21BC01C
:1043300080E019C080E017C080E015C080E013C0A5
:1043400080E011C080E00FC0982F907609F078CF00
:1043500088CD982F907609F073CF8CCE3DE0E4E3C2
:10436000F0E2FFCD81E0DF91CF911F910F91089591
:10437000CF93DF931F921F92CDB7DEB7811126C076
:10438000909170269923F9F090918226911101C0A5
:10439000FFCF9FB79A83F8942A81E1E8F6E29181F2
:1043A000915091832FBF0FC0909182269F3F09F4B7
:1043B000FFCF9FB79983F8942981E1E8F6E29181D4
:1043C0009F5F91832FBF8093702605C090917026C8
:1043D000992351F3F8CF0F900F90DF91CF9108956B
:1043E0000F93E8ECF4E080818F7D808380818F7D66
:1043F0008083E8E3F6E202E0059310923A261092F9
:104400003B2600E2069300E40693E0E3F6E200E4D4
:104410000693E1E7F6E2148615861686178612865D
:10442000138610921F260F9108950F9385E08093B5
:104430001F26E9E3F6E204E00593E1E3F6E204E097
:1044400005930F9108950F9383E080931F26109298
:104450003A2610923B26E8E3F6E202E006930F913B
:104460000895E0917D26F0917E26309709F0199508
:1044700008950F93CF93DF9380911F26833029F403
:104480000E9431220E94F0215EC080911B269091F3
:104490001C26C0917B26D0917C26C81BD90B71F5B8
:1044A00020911D2630911E26820F931F80931D267A
:1044B00090931E26209177263091782682179307B5
:1044C00021F080913625882341F084E080931F26D7
:1044D000E0E3F6E202E0069336C0E0917F26F09139
:1044E0008026309799F01995882381F010921B2629
:1044F00010921C26C0917B26D0917C26C034D10519
:1045000028F010923625C0E4D0E003C081E080930B
:104510003625E0E2F6E2C28FD38F80911B26909180
:104520001C262091792630917A26280F391F248F56
:10453000358FC80FD91FC0931B26D0931C26E8E3E4
:10454000F6E202E00693DF91CF910F910895FC010E
:104550008181E82FE7708E2F90E0FC013197E730E2
:10456000F105D8F48827E253FE4F8F4F0C94702F3B
:1045700080E190E0089580E290E0089580E490E08A
:10458000089580E890E0089580E091E0089580E04B
:1045900092E008958FEF93E0089588E090E0089509
:1045A000282F2F7030E0220F331F082E000C990B9C
:1045B0008827990F881F9927820F931F02979C01C4
:1045C000220F331F220F331F220F331F820F931F1F
:1045D00089549A4D08950F93CF938091CC0480FF16
:1045E0006AC081E08093CC04E0E3F6E200E8069341
:1045F000E8E3F6E200E806938093CA04E0E3F6E21B
:1046000000E1069380911F26882339F08350823081
:1046100010F40E9431220E94F02180913226909164
:104620003326089709F049C088E0EBEDF5E2A1E7F1
:10463000B6E201900D928A95E1F7E8ECF4E0808112
:10464000806280838081806280830E94181FC82FCF
:10465000811104C00E941522C1E030C080917126F2
:10466000882374F410921D2610921E2610921B2689
:1046700010921C2682E080931F260E9439221EC0C1
:104680008091772690917826892B19F40E94232215
:1046900015C010921D2610921E2610921B261092F5
:1046A0001C2681E080931F26E0E3F6E202E00693F9
:1046B00000E2069303C0C0E001C0C1E08C2FCF919F
:1046C0000F9108958F929F92AF92BF92DF92EF92D7
:1046D000FF920F931F93CF93DF93D82E0E94D02287
:1046E0008C01CD2DCF70D0E0CE01880F991FCD2D3C
:1046F0000D2C000CDD0BCC27DD0FCC1FDD27C80FE8
:10470000D91FCE01880F991F880F991F880F991FF5
:104710009C01205D394D7901C9010E94A7224C01FD
:10472000DD200CF072C0FE01EE0FFF1FEE0FFF1F29
:10473000EE0FFF1FE05EF94D26893789D8011596E7
:104740008D919C911697820F931F15968D939C9334
:10475000169713962D913C9114978217930709F49D
:104760003EC0281B390B2115B4E03B0740F02FEF6A
:1047700033E0C901B4010E94072F281B390BF8014F
:10478000808181FF0AC0C901B4010E94072F41E066
:10479000892B09F040E0842F01C080E0D8019C9172
:1047A00080FB91F99C93CC0FDD1FCC0FDD1FCC0F4C
:1047B000DD1FC05ED94D1E8A1F8A2A8B3B8B119646
:1047C0002D913C91129715968D919C911697820F81
:1047D000931F8C8B9D8BF70102E00693CAC0D80112
:1047E0008C9181FFB3C08D7F8C93CC0FDD1FCC0FDC
:1047F000DD1FCC0FDD1FC05ED94D1E8A1F8A1A8AAD
:104800001B8AF70102E00693B4C0FE01EE0FFF1F02
:10481000EE0FFF1FEE0FFF1FE05EF94DA288B38879
:10482000D8018C9182FF1BC01196ED91FC911297DB
:1048300015962D913C91169713968D919C911497F6
:10484000B4010E94072FB0E4DB9EB001112469502F
:104850007B4DAC01CF01820F931F0E94AA2FF8015C
:10486000258136812A0D3B1D2583368383819481E2
:104870008217930768F485839683CC0FDD1FCC0FD6
:10488000DD1FCC0FDD1FC05ED94D8E899F895EC0B4
:10489000FE01EE0FFF1FEE0FFF1FEE0FFF1FE05E8A
:1048A000F94D46895789A416B50609F04FC0281757
:1048B000390709F44BC0AC01421B530B9A01211577
:1048C00054E0350748F02FEF33E0C901B4010E94EE
:1048D000072F281B390B06C0C901B4010E94072FFE
:1048E000281B390BFE01EE0FFF1FEE0FFF1FEE0F0F
:1048F000FF1FE05EF94D128A138A2815390578F4F6
:10490000D8018C9184608C93B0E4DB9EC0011124AB
:1049100089509B4D848B958B868A978A13C0F801AA
:104920004181528185819681840F951FCC0FDD1FB7
:10493000CC0FDD1FCC0FDD1FC05ED94D8C8B9D8B46
:104940002E8B3F8BF70102E0069313C0D8018C91A8
:1049500080FF0FC08E7F8C931796ED91FC91189776
:10496000309739F015966D917C9116974D2D80E01A
:104970001995DF91CF911F910F91FF90EF90DF90EC
:10498000BF90AF909F908F9008951F93CF93DF9328
:104990001F921F92CDB7DEB78FB78983F894198124
:1049A000E1ECF4E080818E7F80831092C00410825D
:1049B0000E94212B80E00E94B821809186268111DF
:1049C00001C0FFCF8FB78A83F8949A81E1E8F6E2BD
:1049D0008581815085839FBF1FBF0F900F90DF910E
:1049E000CF911F91089580E008951F93CF93DF9397
:1049F0001F92CDB7DEB78FB78983F894198181E014
:104A00000E94B821EAECF4E080E4808380E28083B5
:104A1000E1ECF4E0808181608083A9ECB4E08C91CA
:104A200082608C93E8ECF4E08081806480838C91D8
:104A300081608C938081806880831FBF0F90DF919D
:104A4000CF911F9108950F931F93CF93DF931F92E0
:104A50001F92CDB7DEB700E610E0F801108280E3C8
:104A60000E94DA2AE0ECF4E080818064808381E0B7
:104A7000F80180838FB78A83F8941A81E0E2F6E226
:104A8000118A118E11A211A611AA11AEE7EBF5E25F
:104A900080818E7F8083E0ECF5E280818E7F808351
:104AA000E9ECF5E280818E7F8083E2EDF5E28081A2
:104AB0008E7F80836AE170E082E00E94C72E8F3F84
:104AC00019F08093FA0403C08FE18093FA046BE13C
:104AD00070E082E00E94C72E8F3F19F08093FB04A4
:104AE00003C08FE18093FB04E0ECF4E080818260FE
:104AF000808380818068808380818061808380E37F
:104B000096E2868397838081806280838FEF809393
:104B1000C504E8ECF4E08081816080831092702607
:104B2000809186268F3F09F4FFCF8FB78983F89451
:104B30009981E1E8F6E285818F5F85839FBF0E94BE
:104B4000F5241FBF0F900F90DF91CF911F910F9110
:104B50000895E1ECF4E080818E7F8083089580E009
:104B600008958093C30408958091C30408958091AB
:104B7000602690916126089580E090E008958091EC
:104B8000702681110BC081E00E94B821E1ECF4E0B5
:104B900080818B7F80838081846080830895E1E7BA
:104BA000F6E280879187628773870895282F2F7098
:104BB00030E0220F331F082E000C990B8827990F25
:104BC000881F9927820F931FFC01EE0FFF1FEE0F26
:104BD000FF1FEE0FFF1FE05EF94D2189207C09F0D9
:104BE00072C06370613011F018F404C060EC03C04F
:104BF00060E801C060E440385105E9F050F440320B
:104C00005105A9F040345105A1F040315105D9F4C6
:104C10000CC0411522E0520791F04F3F23E05207AC
:104C200081F04115514079F408C021E00DC022E027
:104C30000BC023E009C024E007C025E005C026E042
:104C400003C027E001C020E0FC01EE0FFF1FEE0FC4
:104C5000FF1FEE0FFF1FE05EF94D118ADC01AA0F66
:104C6000BB1FAA0FBB1FAA0FBB1FA05DB94D36E02B
:104C70003C93262B218BFC01EE0FFF1FEE0FFF1F35
:104C8000EE0FFF1FE05EF94D2189207C203C69F486
:104C9000FC01EE0FFF1FEE0FFF1FEE0FFF1FE05E88
:104CA000F94D21892770273081F0880F991F880FCF
:104CB000991F880F991FFC01E05EF94D8189806280
:104CC000818B81E0089580E0089581E00895E82FC8
:104CD000EF70F0E0EE0FFF1F082E000C990B8827F5
:104CE000990F881F9927E80FF91FEE0FFF1FEE0F8E
:104CF000FF1FEE0FFF1FE05EF94D818982FB8827C1
:104D000080F908950F93282F2F7030E0A901440FE8
:104D1000551F282F082E000C330B2227330F221F7C
:104D20003327240F351FF901EE0FFF1FEE0FFF1F72
:104D3000EE0FFF1FE05DF94D01E00693F901EE0F64
:104D4000FF1FEE0FFF1FEE0FFF1FE05EF94D918971
:104D500092FF18C0220F331F220F331F220F331F61
:104D6000F901E05EF94D91899B7F918B0E94D022E1
:104D7000FC01808180FF06C08E7F80830780F085E4
:104D8000E02D199581E00F9108956F927F928F9297
:104D90009F92AF92BF92CF92DF92EF92FF920F93CA
:104DA0001F93CF93DF931F92CDB7DEB7782E662E79
:104DB0004A0159010E94D0226C01272D872D8F7046
:104DC000E82EF12CC701880F991FE72C072C000C47
:104DD000FF08EE24FF0CEE1CFF24E80EF91EF7017D
:104DE000EE0FFF1FEE0FFF1FEE0FFF1FE05EF94DEE
:104DF0008189807C09F484C0F701EE0FFF1FEE0F5C
:104E0000FF1FEE0FFF1FE05EF94D8189807C803C23
:104E100061F0F701EE0FFF1FEE0FFF1FEE0FFF1FF8
:104E2000E05EF94D818982FD6DC08FB78983F8946A
:104E30008981F601908190FF03C08FBF80E063C03D
:104E4000F6019081916090838FBF81829282A382CC
:104E5000B4821582168207831087611006C091E024
:104E6000A114B10419F090E001C091E0F601808135
:104E700090FB81F98B7F8083222364F4F701EE0F8E
:104E8000FF1FEE0FFF1FEE0FFF1FE05EF94D168AAA
:104E9000178A31C0F701EE0FFF1FEE0FFF1FEE0F55
:104EA000FF1FE05EF94D8189807C803CB9F4C70129
:104EB000880F991F880F991F880F991F805D994D42
:104EC0000E94A722BC01C5010E94072F892B31F047
:104ED000F60180818E7F808380E015C0F701EE0FA0
:104EE000FF1FEE0FFF1FEE0FFF1FE05EF94D128A4E
:104EF000138A168A178A872D0E94622381E003C0D5
:104F000080E001C080E00F90DF91CF911F910F9161
:104F1000FF90EF90DF90CF90BF90AF909F908F90D9
:104F20007F906F900895FF920F931F93CF93DF931D
:104F3000182FC82FCF70D0E0CE01880F991FC12F36
:104F4000012E000CDD0BCC27DD0FCC1FDD27C80F99
:104F5000D91F812F0E94D022DC01FE01EE0FFF1F1E
:104F6000EE0FFF1FEE0FFF1FE05DF94D02E005930E
:104F70008C9180FF22C08E7F8C931796ED91FC91CF
:104F800018973097D1F011235CF4CC0FDD1FCC0FB4
:104F9000DD1FCC0FDD1FC05ED94D6E897F890AC031
:104FA000CC0FDD1FCC0FDD1FCC0FDD1FC05ED94D38
:104FB0006A897B89412F81E01995DF91CF911F91FB
:104FC0000F91FF900895CF93C82F0E949327EC2F45
:104FD000EF70F0E0EE0FFF1F8C2FCC0F990B88279E
:104FE000990F881F9927E80FF91FEE0FFF1FEE0F8B
:104FF000FF1FEE0FFF1FE05EF94D118ACF9108955C
:10500000E82FEF70F0E0EE0FFF1F282F082E000CA6
:10501000330B2227330F221F3327E20FF31FEE0F2C
:10502000FF1FEE0FFF1FEE0FFF1FE05EF94D91898E
:105030009460918B0E94932781E008950F931F93B2
:10504000CF93DF938B01C82FCF70D0E0CC0FDD1F43
:10505000282F082E000C330B2227330F221F332753
:10506000C20FD31F0E94D022CC0FDD1FCC0FDD1F3B
:10507000CC0FDD1FC05ED94D298922FF0AC0FC017B
:10508000208120FD0AC0216020830783108781E0F2
:1050900005C0F801199581E001C080E0DF91CF9152
:1050A0001F910F9108951F920F920FB60F92112426
:1050B00008B60F9218BE09B60F9219BE0BB60F9222
:1050C0001BBE0F932F933F934F935F936F937F93E9
:1050D0008F939F93AF93BF93EF93FF938091CB04F4
:1050E000882334F480E88093CA040E94E81E90C0AC
:1050F0008091CB0482FF22C084E08093CA04809117
:10510000382686FF85C08091CC0481FD81C00E9435
:10511000EB2281117DC080911F26813019F40E94FD
:10512000232276C0843009F073C0E9E3F6E204E09C
:105130000593E1E3F6E204E005936AC08091CB04B5
:1051400081FF61C082E08093CA048091302686FF8F
:105150005FC08091CC0481FD5BC00E94EB22811175
:1051600057C080911F26823041F484E080931F262F
:10517000E0E3F6E202E006934BC0833009F048C05A
:10518000E9E3F6E204E00593E1E3F6E204E00593E7
:105190003FC080E18093CA0481E00E94932781E8A8
:1051A0000E94932782E00E94932782E80E9493271F
:1051B0000E94BB1E1092C304E0E2F6E2118A96E060
:1051C000908B83E4818B118E908F818F8BED95E294
:1051D000848B958B0E94F0211BC08091CB0486FFAD
:1051E00007C080E48093CA0480E00E94B82110C008
:1051F0008091CB0485FF0CC080E28093CA0481E0DB
:105200000E94B82105C08091CB0484FDC2CFE5CFB8
:10521000FF91EF91BF91AF919F918F917F916F918E
:105220005F914F913F912F910F910F900BBE0F9077
:1052300009BE0F9008BE0F900FBE0F901F901895DB
:105240001F920F920FB60F92112408B60F9218BE3C
:1052500009B60F9219BE0AB60F921ABE0BB60F927C
:105260001BBE0F931F932F933F934F935F936F93A7
:105270007F938F939F93AF93BF93CF93DF93EF93DE
:10528000FF938091CC0481FD04C00E94EB22811128
:10529000C4C082E08093CC048091C5048195880FBE
:1052A000E0E3F6E2E81BF109208131812053364228
:1052B000369527953695279536952795822F86958D
:1052C00020FD02C090E001C090E8890FE82FEF7048
:1052D000F0E0EE0FFF1F282F082E000C330B2227C3
:1052E000330F221F3327E20FF31FDF01AA0FBB1F6B
:1052F000AA0FBB1FAA0FBB1FA05DB94D9C9195FFC4
:105300008CC0FD0100E20693811180C080911F26B0
:10531000843029F40E9431220E94F0217EC0009145
:1053200032261091332680917B2690917C26C09165
:105330001B26D0911C2698012C0F3D1F8217930726
:1053400018F48C010C1B1D0B8091792690917A2604
:10535000A8016BED75E28C0F9D1F0E94AA2FC00F54
:10536000D11FC0931B26D0931C260034110569F46D
:1053700080911D2690911E268C0F9D1F20917726CF
:10538000309178268217930790F0E1E7F6E2C28722
:10539000D3870684F785E02D309731F01995811178
:1053A00003C00E94152239C00E94232236C080917A
:1053B0007B2690917C26C817D90709F5E0917F26B6
:1053C000F0918026309719F40E94152226C0199575
:1053D000811103C00E94152220C020911D2630910A
:1053E0001E2680911B2690911C26820F931F80936E
:1053F0001D2690931E2610921B2610921C26E0E379
:10540000F6E202E0069300E2069307C0803819F442
:105410000E94392202C00E946223FF91EF91DF9126
:10542000CF91BF91AF919F918F917F916F915F913C
:105430004F913F912F911F910F910F900BBE0F90A5
:105440000ABE0F9009BE0F9008BE0F900FBE0F90BE
:105450001F901895982F9F7029F081E0933018F0D5
:1054600080E0089580E008950F931F93CF93DF931A
:10547000CDB7DEB72797CDBFDEBF8FEF809370002B
:105480008093710080937200809373008093740006
:10549000809375008093760064E081E490E00E9440
:1054A000D12E6CE170E082E00E94C72E8A836DE10C
:1054B00070E082E00E94C72E898389819A810196DB
:1054C00021F480E493E289839A8389819A818B8392
:1054D0009C83E0E6F0E082838C8183838FB78E83A8
:1054E000F8949E81E0E5F0E08081826080839FBF38
:1054F000818181FFFDCF8FB78F83F8949F8100E575
:1055000010E0D80116968C911697897F16968C9389
:105510001697E0E6F0E080E885838BEB86831696AD
:105520008C911697846016968C938081816080831D
:105530009FBF61E080E490E00E94D12E8FB78D8301
:10554000F8949D81F80180818E7F80839FBF27968C
:10555000CDBFDEBFDF91CF911F910F910895CF9303
:10556000DF931F92CDB7DEB79FB79983F8949981E7
:10557000E82FF0E0E059FF4F609580816823608359
:105580009FBF0F90DF91CF910895CF93DF931F922C
:10559000CDB7DEB79FB79983F8949981E82FF0E0F3
:1055A000E059FF4F8081682B60839FBF0F90DF9190
:1055B000CF910895CF93DF931F921F92CDB7DEB79F
:1055C000863011F060E001C068E18091510081FDFA
:1055D0002AC08FB78983F8949981E0E5F0E0808153
:1055E000826080839FBF818181FFFDCF8FB78A83D7
:1055F000F8949A81A0E5B0E016968C911697897F71
:1056000016968C931697E0E6F0E080E885838BEBA6
:10561000868316968C911697846016968C9380815B
:10562000816080839FBF636084E490E00E94D12EFC
:1056300060E480E00E94AF2A0F900F90DF91CF913D
:10564000089560E480E00E94C52A60E084E490E070
:105650000E94D12E0895CF93DF93EC0168E070E0B3
:1056600082E00E94C72E888369E070E082E00E9499
:10567000C72E89836AE070E082E00E94C72E8A8389
:105680006BE070E082E00E94C72E8B836CE070E0DC
:1056900082E00E94C72E8C836DE070E082E00E9461
:1056A000C72E8D8360E170E082E00E94C72E8E835A
:1056B00062E170E082E00E94C72E8F8363E170E0B8
:1056C00082E00E94C72E888764E170E082E00E9439
:1056D000C72E898765E170E082E00E94C72E8A8725
:1056E000DF91CF910895DC01E0ECF1E097859923FB
:1056F000ECF3ECECF1E0808188608083B05F8C910A
:105700009081977F90830895CF93DF939C01DB0175
:10571000E0ECF1E097859923ECF3CCECD1E09881B3
:1057200098609883B901705FCD010E94AA2F88818B
:10573000877F8883DF91CF910895E0ECF1E0878542
:105740008823ECF38091CF0181FF08C086E380932A
:10575000CA0161E08BEC91E00E94D12E0895E0EC4B
:10576000F1E097859923ECF3ACECB1E09C91986063
:105770009C93E82FF0E0F05F60838C91877F8C939F
:105780000895FF920F931F93CF93DF93182FF92E55
:10579000C62F0091CA010E949D2BE0ECF1E08785A5
:1057A0008823ECF36C2F812F0E94AF2BC0ECD1E04B
:1057B0001A82F982188385E38A8761E08BEC91E095
:1057C0000E94D12E0A87DF91CF911F910F91FF90F8
:1057D00008950F931F93CF938C01E0ECF1E0878540
:1057E0008823ECF3C0E0F80161918F018C2F0E94B7
:1057F000AF2BCF5FC032B9F7CF911F910F910895B2
:105800001F93CF93DF93E0ECF1E097859923ECF3BE
:1058100020E2829FC0011124C0ECD1E01A8299835A
:1058200088831A8585E38A8761E08BEC91E00E948A
:10583000D12E1A87DF91CF911F910895CF92DF92D9
:10584000EF92FF920F931F93CF93DF93EC017B01B5
:105850008A01452B69F1CE018F719927892BC1F4FB
:1058600000321105A8F0C7010E94E92BCE019695E0
:105870008795929582958F7089279F7089270E94BE
:10588000002CA09680E2E80EF11C005211090DC018
:105890006E01EFEFCE1ADE0AF70161917F01CE01B2
:1058A0000E94C12B01501109E6010115110599F65D
:1058B000DF91CF911F910F91FF90EF90DF90CF90EC
:1058C00008951F93CF93DF93E0ECF1E09785992340
:1058D000ECF320E2829FC0011124C0ECD1E01A82D7
:1058E000998388831A8584E38A8761E08BEC91E051
:1058F0000E94D12E1A87DF91CF911F910895CF93E7
:10590000DF93D82F0E949D2BE0ECF1E08785882360
:10591000ECF3C0E06D2F8C2F0E94AF2BCF5FC03215
:10592000C9F7DF91CF9108951F93CF93DF93E0ECF8
:10593000F1E097859923ECF320E2829FC0011124C6
:10594000C0ECD1E01A82998388831A8582E38A8722
:1059500061E08BEC91E00E94D12E1A87DF91CF910C
:105960001F910895CF93C82F8FEF0E947F2C8C2F0B
:105970000E94942CCF9108951F93CF93DF93E0EC76
:10598000F1E087858823ECF3C0ECD1E01A8580E351
:105990008A8761E08BEC91E00E94D12E1A87DF911B
:1059A000CF911F9108958FEF0E947F2C0E94BC2CF5
:1059B0000895CF92DF92EF92FF921F93CF93DF93E0
:1059C000C0ECD1E01A85EAE3EA876883C72ED82EB7
:1059D000E92EFF24C982AA27BB278A832C83BB27F1
:1059E000A52F942F832F8D83CA01AA27BB278E83CF
:1059F00061E08BEC91E00E94D12E1A87DF91CF916C
:105A00001F91FF90EF90DF90CF900895DA01A901E8
:105A1000E0ECF1E037853323ECF34115510579F0E3
:105A20004A0F5B1F0BB68BBFFB0137910BBE3D933B
:105A30006F5F7F4F8F4F9F4FA417B50799F708955A
:105A4000EF92FF920F931F93CF93DF937A01890117
:105A5000EB01D170232B59F0BE0181E00E94C72ECB
:105A6000F70181937F01219601501109A9F7DF9178
:105A7000CF911F910F91FF90EF9008952F923F9239
:105A80004F925F926F927F928F929F92AF92BF924E
:105A9000CF92DF92EF92FF920F931F93CF93DF93FA
:105AA00000D01F92CDB7DEB74B835C837901302ED7
:105AB0006B01232B09F051C067C05201332089F0DC
:105AC000B20181E00E94C72E8983B80181E00E9463
:105AD000C72E8A8389819A81019629F022242394F2
